{
	"contract/46_MultisigWallet.sol": {
		"MultiSigWallet": {
			"abi": [
				{
					"inputs": [
						{
							"internalType": "address[]",
							"name": "_owners",
							"type": "address[]"
						},
						{
							"internalType": "uint256",
							"name": "_threshold",
							"type": "uint256"
						}
					],
					"stateMutability": "nonpayable",
					"type": "constructor"
				},
				{
					"anonymous": false,
					"inputs": [
						{
							"indexed": false,
							"internalType": "bytes32",
							"name": "txHash",
							"type": "bytes32"
						}
					],
					"name": "ExecutionFailure",
					"type": "event"
				},
				{
					"anonymous": false,
					"inputs": [
						{
							"indexed": false,
							"internalType": "bytes32",
							"name": "txHash",
							"type": "bytes32"
						}
					],
					"name": "ExecutionSuccess",
					"type": "event"
				},
				{
					"inputs": [
						{
							"internalType": "bytes32",
							"name": "dataHash",
							"type": "bytes32"
						},
						{
							"internalType": "bytes",
							"name": "signatures",
							"type": "bytes"
						}
					],
					"name": "checkSignatures",
					"outputs": [],
					"stateMutability": "view",
					"type": "function"
				},
				{
					"inputs": [
						{
							"internalType": "address",
							"name": "to",
							"type": "address"
						},
						{
							"internalType": "uint256",
							"name": "value",
							"type": "uint256"
						},
						{
							"internalType": "bytes",
							"name": "data",
							"type": "bytes"
						},
						{
							"internalType": "uint256",
							"name": "_nonce",
							"type": "uint256"
						},
						{
							"internalType": "uint256",
							"name": "chainid",
							"type": "uint256"
						}
					],
					"name": "encodeTransactionData",
					"outputs": [
						{
							"internalType": "bytes32",
							"name": "",
							"type": "bytes32"
						}
					],
					"stateMutability": "pure",
					"type": "function"
				},
				{
					"inputs": [
						{
							"internalType": "address",
							"name": "to",
							"type": "address"
						},
						{
							"internalType": "uint256",
							"name": "value",
							"type": "uint256"
						},
						{
							"internalType": "bytes",
							"name": "data",
							"type": "bytes"
						},
						{
							"internalType": "bytes",
							"name": "signatures",
							"type": "bytes"
						}
					],
					"name": "execTransaction",
					"outputs": [
						{
							"internalType": "bool",
							"name": "success",
							"type": "bool"
						}
					],
					"stateMutability": "payable",
					"type": "function"
				},
				{
					"inputs": [
						{
							"internalType": "address",
							"name": "",
							"type": "address"
						}
					],
					"name": "isOwner",
					"outputs": [
						{
							"internalType": "bool",
							"name": "",
							"type": "bool"
						}
					],
					"stateMutability": "view",
					"type": "function"
				},
				{
					"inputs": [],
					"name": "nonce",
					"outputs": [
						{
							"internalType": "uint256",
							"name": "",
							"type": "uint256"
						}
					],
					"stateMutability": "view",
					"type": "function"
				},
				{
					"inputs": [],
					"name": "ownerCount",
					"outputs": [
						{
							"internalType": "uint256",
							"name": "",
							"type": "uint256"
						}
					],
					"stateMutability": "view",
					"type": "function"
				},
				{
					"inputs": [
						{
							"internalType": "uint256",
							"name": "",
							"type": "uint256"
						}
					],
					"name": "owners",
					"outputs": [
						{
							"internalType": "address",
							"name": "",
							"type": "address"
						}
					],
					"stateMutability": "view",
					"type": "function"
				},
				{
					"inputs": [],
					"name": "threshold",
					"outputs": [
						{
							"internalType": "uint256",
							"name": "",
							"type": "uint256"
						}
					],
					"stateMutability": "view",
					"type": "function"
				},
				{
					"stateMutability": "payable",
					"type": "receive"
				}
			],
			"devdoc": {
				"kind": "dev",
				"methods": {},
				"version": 1
			},
			"evm": {
				"assembly": "    /* \"contract/46_MultisigWallet.sol\":155:5726  contract MultiSigWallet {... */\n  mstore(0x40, 0x80)\n    /* \"contract/46_MultisigWallet.sol\":695:805  constructor(address[] memory _owners, uint256 _threshold) {... */\n  callvalue\n  dup1\n  iszero\n  tag_1\n  jumpi\n  revert(0x00, 0x00)\ntag_1:\n  pop\n  mload(0x40)\n  sub(codesize, bytecodeSize)\n  dup1\n  bytecodeSize\n  dup4\n  codecopy\n  dup2\n  dup2\n  add\n  0x40\n  mstore\n  dup2\n  add\n  swap1\n  tag_2\n  swap2\n  swap1\n  tag_3\n  jump\t// in\ntag_2:\n    /* \"contract/46_MultisigWallet.sol\":764:797  _setupOwners(_owners, _threshold) */\n  tag_6\n    /* \"contract/46_MultisigWallet.sol\":777:784  _owners */\n  dup3\n    /* \"contract/46_MultisigWallet.sol\":786:796  _threshold */\n  dup3\n    /* \"contract/46_MultisigWallet.sol\":764:776  _setupOwners */\n  shl(0x20, tag_7)\n    /* \"contract/46_MultisigWallet.sol\":764:797  _setupOwners(_owners, _threshold) */\n  0x20\n  shr\n  jump\t// in\ntag_6:\n    /* \"contract/46_MultisigWallet.sol\":695:805  constructor(address[] memory _owners, uint256 _threshold) {... */\n  pop\n  pop\n    /* \"contract/46_MultisigWallet.sol\":155:5726  contract MultiSigWallet {... */\n  jump(tag_8)\n    /* \"contract/46_MultisigWallet.sol\":843:1893  function _setupOwners(address[] memory _owners, uint256 _threshold) internal {... */\ntag_7:\n    /* \"contract/46_MultisigWallet.sol\":1026:1027  0 */\n  0x00\n    /* \"contract/46_MultisigWallet.sol\":1013:1022  threshold */\n  sload(0x03)\n    /* \"contract/46_MultisigWallet.sol\":1013:1027  threshold == 0 */\n  eq\n    /* \"contract/46_MultisigWallet.sol\":1005:1062  require(threshold == 0, \"threshold has been initialized\") */\n  tag_10\n  jumpi\n  mload(0x40)\n  0x08c379a000000000000000000000000000000000000000000000000000000000\n  dup2\n  mstore\n  0x04\n  add\n  tag_11\n  swap1\n  tag_12\n  jump\t// in\ntag_11:\n  mload(0x40)\n  dup1\n  swap2\n  sub\n  swap1\n  revert\ntag_10:\n    /* \"contract/46_MultisigWallet.sol\":1095:1102  _owners */\n  dup2\n    /* \"contract/46_MultisigWallet.sol\":1095:1109  _owners.length */\n  mload\n    /* \"contract/46_MultisigWallet.sol\":1081:1091  _threshold */\n  dup2\n    /* \"contract/46_MultisigWallet.sol\":1081:1109  _threshold <= _owners.length */\n  gt\n  iszero\n    /* \"contract/46_MultisigWallet.sol\":1073:1151  require(_threshold <= _owners.length, \"threshold mest less than owners count\") */\n  tag_13\n  jumpi\n  mload(0x40)\n  0x08c379a000000000000000000000000000000000000000000000000000000000\n  dup2\n  mstore\n  0x04\n  add\n  tag_14\n  swap1\n  tag_15\n  jump\t// in\ntag_14:\n  mload(0x40)\n  dup1\n  swap2\n  sub\n  swap1\n  revert\ntag_13:\n    /* \"contract/46_MultisigWallet.sol\":1184:1185  1 */\n  0x01\n    /* \"contract/46_MultisigWallet.sol\":1170:1180  _threshold */\n  dup2\n    /* \"contract/46_MultisigWallet.sol\":1170:1185  _threshold >= 1 */\n  lt\n  iszero\n    /* \"contract/46_MultisigWallet.sol\":1162:1221  require(_threshold >= 1, \"multiSig need more than one sig\") */\n  tag_16\n  jumpi\n  mload(0x40)\n  0x08c379a000000000000000000000000000000000000000000000000000000000\n  dup2\n  mstore\n  0x04\n  add\n  tag_17\n  swap1\n  tag_18\n  jump\t// in\ntag_17:\n  mload(0x40)\n  dup1\n  swap2\n  sub\n  swap1\n  revert\ntag_16:\n    /* \"contract/46_MultisigWallet.sol\":1378:1387  uint256 i */\n  0x00\n    /* \"contract/46_MultisigWallet.sol\":1390:1391  0 */\n  0x00\n    /* \"contract/46_MultisigWallet.sol\":1378:1391  uint256 i = 0 */\n  swap1\n  pop\n    /* \"contract/46_MultisigWallet.sol\":1374:1722  for(uint256 i = 0; i < _owners.length; i++) {... */\ntag_19:\n    /* \"contract/46_MultisigWallet.sol\":1397:1404  _owners */\n  dup3\n    /* \"contract/46_MultisigWallet.sol\":1397:1411  _owners.length */\n  mload\n    /* \"contract/46_MultisigWallet.sol\":1393:1394  i */\n  dup2\n    /* \"contract/46_MultisigWallet.sol\":1393:1411  i < _owners.length */\n  lt\n    /* \"contract/46_MultisigWallet.sol\":1374:1722  for(uint256 i = 0; i < _owners.length; i++) {... */\n  iszero\n  tag_20\n  jumpi\n    /* \"contract/46_MultisigWallet.sol\":1433:1446  address owner */\n  0x00\n    /* \"contract/46_MultisigWallet.sol\":1449:1456  _owners */\n  dup4\n    /* \"contract/46_MultisigWallet.sol\":1457:1458  i */\n  dup3\n    /* \"contract/46_MultisigWallet.sol\":1449:1459  _owners[i] */\n  dup2\n  mload\n  dup2\n  lt\n  tag_22\n  jumpi\n  tag_23\n  tag_24\n  jump\t// in\ntag_23:\ntag_22:\n  0x20\n  mul\n  0x20\n  add\n  add\n  mload\n    /* \"contract/46_MultisigWallet.sol\":1433:1459  address owner = _owners[i] */\n  swap1\n  pop\n    /* \"contract/46_MultisigWallet.sol\":1499:1500  0 */\n  0x00\n    /* \"contract/46_MultisigWallet.sol\":1482:1501  owner != address(0) */\n  0xffffffffffffffffffffffffffffffffffffffff\n  and\n    /* \"contract/46_MultisigWallet.sol\":1482:1487  owner */\n  dup2\n    /* \"contract/46_MultisigWallet.sol\":1482:1501  owner != address(0) */\n  0xffffffffffffffffffffffffffffffffffffffff\n  and\n  eq\n  iszero\n    /* \"contract/46_MultisigWallet.sol\":1482:1527  owner != address(0) && owner != address(this) */\n  dup1\n  iszero\n  tag_25\n  jumpi\n  pop\n    /* \"contract/46_MultisigWallet.sol\":1522:1526  this */\n  address\n    /* \"contract/46_MultisigWallet.sol\":1505:1527  owner != address(this) */\n  0xffffffffffffffffffffffffffffffffffffffff\n  and\n    /* \"contract/46_MultisigWallet.sol\":1505:1510  owner */\n  dup2\n    /* \"contract/46_MultisigWallet.sol\":1505:1527  owner != address(this) */\n  0xffffffffffffffffffffffffffffffffffffffff\n  and\n  eq\n  iszero\n    /* \"contract/46_MultisigWallet.sol\":1482:1527  owner != address(0) && owner != address(this) */\ntag_25:\n    /* \"contract/46_MultisigWallet.sol\":1482:1546  owner != address(0) && owner != address(this) && !isOwner[owner] */\n  dup1\n  iszero\n  tag_26\n  jumpi\n  pop\n    /* \"contract/46_MultisigWallet.sol\":1532:1539  isOwner */\n  0x01\n    /* \"contract/46_MultisigWallet.sol\":1532:1546  isOwner[owner] */\n  0x00\n    /* \"contract/46_MultisigWallet.sol\":1540:1545  owner */\n  dup3\n    /* \"contract/46_MultisigWallet.sol\":1532:1546  isOwner[owner] */\n  0xffffffffffffffffffffffffffffffffffffffff\n  and\n  0xffffffffffffffffffffffffffffffffffffffff\n  and\n  dup2\n  mstore\n  0x20\n  add\n  swap1\n  dup2\n  mstore\n  0x20\n  add\n  0x00\n  keccak256\n  0x00\n  swap1\n  sload\n  swap1\n  0x0100\n  exp\n  swap1\n  div\n  0xff\n  and\n    /* \"contract/46_MultisigWallet.sol\":1531:1546  !isOwner[owner] */\n  iszero\n    /* \"contract/46_MultisigWallet.sol\":1482:1546  owner != address(0) && owner != address(this) && !isOwner[owner] */\ntag_26:\n    /* \"contract/46_MultisigWallet.sol\":1474:1639  require(owner != address(0) && owner != address(this) && !isOwner[owner],... */\n  tag_27\n  jumpi\n  mload(0x40)\n  0x08c379a000000000000000000000000000000000000000000000000000000000\n  dup2\n  mstore\n  0x04\n  add\n  tag_28\n  swap1\n  tag_29\n  jump\t// in\ntag_28:\n  mload(0x40)\n  dup1\n  swap2\n  sub\n  swap1\n  revert\ntag_27:\n    /* \"contract/46_MultisigWallet.sol\":1655:1661  owners */\n  0x00\n    /* \"contract/46_MultisigWallet.sol\":1667:1672  owner */\n  dup2\n    /* \"contract/46_MultisigWallet.sol\":1655:1673  owners.push(owner) */\n  swap1\n  dup1\n  0x01\n  dup2\n  sload\n  add\n  dup1\n  dup3\n  sstore\n  dup1\n  swap2\n  pop\n  pop\n  0x01\n  swap1\n  sub\n  swap1\n  0x00\n  mstore\n  keccak256(0x00, 0x20)\n  add\n  0x00\n  swap1\n  swap2\n  swap1\n  swap2\n  swap1\n  swap2\n  0x0100\n  exp\n  dup2\n  sload\n  dup2\n  0xffffffffffffffffffffffffffffffffffffffff\n  mul\n  not\n  and\n  swap1\n  dup4\n  0xffffffffffffffffffffffffffffffffffffffff\n  and\n  mul\n  or\n  swap1\n  sstore\n  pop\n    /* \"contract/46_MultisigWallet.sol\":1706:1710  true */\n  0x01\n    /* \"contract/46_MultisigWallet.sol\":1689:1696  isOwner */\n  dup1\n    /* \"contract/46_MultisigWallet.sol\":1689:1703  isOwner[owner] */\n  0x00\n    /* \"contract/46_MultisigWallet.sol\":1697:1702  owner */\n  dup4\n    /* \"contract/46_MultisigWallet.sol\":1689:1703  isOwner[owner] */\n  0xffffffffffffffffffffffffffffffffffffffff\n  and\n  0xffffffffffffffffffffffffffffffffffffffff\n  and\n  dup2\n  mstore\n  0x20\n  add\n  swap1\n  dup2\n  mstore\n  0x20\n  add\n  0x00\n  keccak256\n  0x00\n    /* \"contract/46_MultisigWallet.sol\":1689:1710  isOwner[owner] = true */\n  0x0100\n  exp\n  dup2\n  sload\n  dup2\n  0xff\n  mul\n  not\n  and\n  swap1\n  dup4\n  iszero\n  iszero\n  mul\n  or\n  swap1\n  sstore\n  pop\n    /* \"contract/46_MultisigWallet.sol\":1418:1722  {... */\n  pop\n    /* \"contract/46_MultisigWallet.sol\":1413:1416  i++ */\n  dup1\n  dup1\n  0x01\n  add\n  swap2\n  pop\n  pop\n    /* \"contract/46_MultisigWallet.sol\":1374:1722  for(uint256 i = 0; i < _owners.length; i++) {... */\n  jump(tag_19)\ntag_20:\n  pop\n    /* \"contract/46_MultisigWallet.sol\":1798:1805  _owners */\n  dup2\n    /* \"contract/46_MultisigWallet.sol\":1798:1812  _owners.length */\n  mload\n    /* \"contract/46_MultisigWallet.sol\":1784:1794  ownerCount */\n  0x02\n  0x00\n    /* \"contract/46_MultisigWallet.sol\":1784:1812  ownerCount += _owners.length */\n  dup3\n  dup3\n  sload\n  tag_31\n  swap2\n  swap1\n  tag_32\n  jump\t// in\ntag_31:\n  swap3\n  pop\n  pop\n  dup2\n  swap1\n  sstore\n  pop\n    /* \"contract/46_MultisigWallet.sol\":1875:1885  _threshold */\n  dup1\n    /* \"contract/46_MultisigWallet.sol\":1863:1872  threshold */\n  0x03\n    /* \"contract/46_MultisigWallet.sol\":1863:1885  threshold = _threshold */\n  dup2\n  swap1\n  sstore\n  pop\n    /* \"contract/46_MultisigWallet.sol\":843:1893  function _setupOwners(address[] memory _owners, uint256 _threshold) internal {... */\n  pop\n  pop\n  jump\t// out\n    /* \"#utility.yul\":7:82   */\ntag_33:\n    /* \"#utility.yul\":40:46   */\n  0x00\n    /* \"#utility.yul\":73:75   */\n  0x40\n    /* \"#utility.yul\":67:76   */\n  mload\n    /* \"#utility.yul\":57:76   */\n  swap1\n  pop\n    /* \"#utility.yul\":7:82   */\n  swap1\n  jump\t// out\n    /* \"#utility.yul\":88:205   */\ntag_34:\n    /* \"#utility.yul\":197:198   */\n  0x00\n    /* \"#utility.yul\":194:195   */\n  0x00\n    /* \"#utility.yul\":187:199   */\n  revert\n    /* \"#utility.yul\":211:328   */\ntag_35:\n    /* \"#utility.yul\":320:321   */\n  0x00\n    /* \"#utility.yul\":317:318   */\n  0x00\n    /* \"#utility.yul\":310:322   */\n  revert\n    /* \"#utility.yul\":334:451   */\ntag_36:\n    /* \"#utility.yul\":443:444   */\n  0x00\n    /* \"#utility.yul\":440:441   */\n  0x00\n    /* \"#utility.yul\":433:445   */\n  revert\n    /* \"#utility.yul\":457:559   */\ntag_37:\n    /* \"#utility.yul\":498:504   */\n  0x00\n    /* \"#utility.yul\":549:551   */\n  0x1f\n    /* \"#utility.yul\":545:552   */\n  not\n    /* \"#utility.yul\":540:542   */\n  0x1f\n    /* \"#utility.yul\":533:538   */\n  dup4\n    /* \"#utility.yul\":529:543   */\n  add\n    /* \"#utility.yul\":525:553   */\n  and\n    /* \"#utility.yul\":515:553   */\n  swap1\n  pop\n    /* \"#utility.yul\":457:559   */\n  swap2\n  swap1\n  pop\n  jump\t// out\n    /* \"#utility.yul\":565:745   */\ntag_38:\n    /* \"#utility.yul\":613:690   */\n  0x4e487b7100000000000000000000000000000000000000000000000000000000\n    /* \"#utility.yul\":610:611   */\n  0x00\n    /* \"#utility.yul\":603:691   */\n  mstore\n    /* \"#utility.yul\":710:714   */\n  0x41\n    /* \"#utility.yul\":707:708   */\n  0x04\n    /* \"#utility.yul\":700:715   */\n  mstore\n    /* \"#utility.yul\":734:738   */\n  0x24\n    /* \"#utility.yul\":731:732   */\n  0x00\n    /* \"#utility.yul\":724:739   */\n  revert\n    /* \"#utility.yul\":751:1032   */\ntag_39:\n    /* \"#utility.yul\":834:861   */\n  tag_70\n    /* \"#utility.yul\":856:860   */\n  dup3\n    /* \"#utility.yul\":834:861   */\n  tag_37\n  jump\t// in\ntag_70:\n    /* \"#utility.yul\":826:832   */\n  dup2\n    /* \"#utility.yul\":822:862   */\n  add\n    /* \"#utility.yul\":964:970   */\n  dup2\n    /* \"#utility.yul\":952:962   */\n  dup2\n    /* \"#utility.yul\":949:971   */\n  lt\n    /* \"#utility.yul\":928:946   */\n  0xffffffffffffffff\n    /* \"#utility.yul\":916:926   */\n  dup3\n    /* \"#utility.yul\":913:947   */\n  gt\n    /* \"#utility.yul\":910:972   */\n  or\n    /* \"#utility.yul\":907:995   */\n  iszero\n  tag_71\n  jumpi\n    /* \"#utility.yul\":975:993   */\n  tag_72\n  tag_38\n  jump\t// in\ntag_72:\n    /* \"#utility.yul\":907:995   */\ntag_71:\n    /* \"#utility.yul\":1015:1025   */\n  dup1\n    /* \"#utility.yul\":1011:1013   */\n  0x40\n    /* \"#utility.yul\":1004:1026   */\n  mstore\n    /* \"#utility.yul\":794:1032   */\n  pop\n    /* \"#utility.yul\":751:1032   */\n  pop\n  pop\n  jump\t// out\n    /* \"#utility.yul\":1038:1167   */\ntag_40:\n    /* \"#utility.yul\":1072:1078   */\n  0x00\n    /* \"#utility.yul\":1099:1119   */\n  tag_74\n  tag_33\n  jump\t// in\ntag_74:\n    /* \"#utility.yul\":1089:1119   */\n  swap1\n  pop\n    /* \"#utility.yul\":1128:1161   */\n  tag_75\n    /* \"#utility.yul\":1156:1160   */\n  dup3\n    /* \"#utility.yul\":1148:1154   */\n  dup3\n    /* \"#utility.yul\":1128:1161   */\n  tag_39\n  jump\t// in\ntag_75:\n    /* \"#utility.yul\":1038:1167   */\n  swap2\n  swap1\n  pop\n  jump\t// out\n    /* \"#utility.yul\":1173:1484   */\ntag_41:\n    /* \"#utility.yul\":1250:1254   */\n  0x00\n    /* \"#utility.yul\":1340:1358   */\n  0xffffffffffffffff\n    /* \"#utility.yul\":1332:1338   */\n  dup3\n    /* \"#utility.yul\":1329:1359   */\n  gt\n    /* \"#utility.yul\":1326:1382   */\n  iszero\n  tag_77\n  jumpi\n    /* \"#utility.yul\":1362:1380   */\n  tag_78\n  tag_38\n  jump\t// in\ntag_78:\n    /* \"#utility.yul\":1326:1382   */\ntag_77:\n    /* \"#utility.yul\":1412:1416   */\n  0x20\n    /* \"#utility.yul\":1404:1410   */\n  dup3\n    /* \"#utility.yul\":1400:1417   */\n  mul\n    /* \"#utility.yul\":1392:1417   */\n  swap1\n  pop\n    /* \"#utility.yul\":1472:1476   */\n  0x20\n    /* \"#utility.yul\":1466:1470   */\n  dup2\n    /* \"#utility.yul\":1462:1477   */\n  add\n    /* \"#utility.yul\":1454:1477   */\n  swap1\n  pop\n    /* \"#utility.yul\":1173:1484   */\n  swap2\n  swap1\n  pop\n  jump\t// out\n    /* \"#utility.yul\":1490:1607   */\ntag_42:\n    /* \"#utility.yul\":1599:1600   */\n  0x00\n    /* \"#utility.yul\":1596:1597   */\n  0x00\n    /* \"#utility.yul\":1589:1601   */\n  revert\n    /* \"#utility.yul\":1613:1739   */\ntag_43:\n    /* \"#utility.yul\":1650:1657   */\n  0x00\n    /* \"#utility.yul\":1690:1732   */\n  0xffffffffffffffffffffffffffffffffffffffff\n    /* \"#utility.yul\":1683:1688   */\n  dup3\n    /* \"#utility.yul\":1679:1733   */\n  and\n    /* \"#utility.yul\":1668:1733   */\n  swap1\n  pop\n    /* \"#utility.yul\":1613:1739   */\n  swap2\n  swap1\n  pop\n  jump\t// out\n    /* \"#utility.yul\":1745:1841   */\ntag_44:\n    /* \"#utility.yul\":1782:1789   */\n  0x00\n    /* \"#utility.yul\":1811:1835   */\n  tag_82\n    /* \"#utility.yul\":1829:1834   */\n  dup3\n    /* \"#utility.yul\":1811:1835   */\n  tag_43\n  jump\t// in\ntag_82:\n    /* \"#utility.yul\":1800:1835   */\n  swap1\n  pop\n    /* \"#utility.yul\":1745:1841   */\n  swap2\n  swap1\n  pop\n  jump\t// out\n    /* \"#utility.yul\":1847:1969   */\ntag_45:\n    /* \"#utility.yul\":1920:1944   */\n  tag_84\n    /* \"#utility.yul\":1938:1943   */\n  dup2\n    /* \"#utility.yul\":1920:1944   */\n  tag_44\n  jump\t// in\ntag_84:\n    /* \"#utility.yul\":1913:1918   */\n  dup2\n    /* \"#utility.yul\":1910:1945   */\n  eq\n    /* \"#utility.yul\":1900:1963   */\n  tag_85\n  jumpi\n    /* \"#utility.yul\":1959:1960   */\n  0x00\n    /* \"#utility.yul\":1956:1957   */\n  0x00\n    /* \"#utility.yul\":1949:1961   */\n  revert\n    /* \"#utility.yul\":1900:1963   */\ntag_85:\n    /* \"#utility.yul\":1847:1969   */\n  pop\n  jump\t// out\n    /* \"#utility.yul\":1975:2118   */\ntag_46:\n    /* \"#utility.yul\":2032:2037   */\n  0x00\n    /* \"#utility.yul\":2063:2069   */\n  dup2\n    /* \"#utility.yul\":2057:2070   */\n  mload\n    /* \"#utility.yul\":2048:2070   */\n  swap1\n  pop\n    /* \"#utility.yul\":2079:2112   */\n  tag_87\n    /* \"#utility.yul\":2106:2111   */\n  dup2\n    /* \"#utility.yul\":2079:2112   */\n  tag_45\n  jump\t// in\ntag_87:\n    /* \"#utility.yul\":1975:2118   */\n  swap3\n  swap2\n  pop\n  pop\n  jump\t// out\n    /* \"#utility.yul\":2141:2873   */\ntag_47:\n    /* \"#utility.yul\":2248:2253   */\n  0x00\n    /* \"#utility.yul\":2273:2354   */\n  tag_89\n    /* \"#utility.yul\":2289:2353   */\n  tag_90\n    /* \"#utility.yul\":2346:2352   */\n  dup5\n    /* \"#utility.yul\":2289:2353   */\n  tag_41\n  jump\t// in\ntag_90:\n    /* \"#utility.yul\":2273:2354   */\n  tag_40\n  jump\t// in\ntag_89:\n    /* \"#utility.yul\":2264:2354   */\n  swap1\n  pop\n    /* \"#utility.yul\":2374:2379   */\n  dup1\n    /* \"#utility.yul\":2403:2409   */\n  dup4\n    /* \"#utility.yul\":2396:2401   */\n  dup3\n    /* \"#utility.yul\":2389:2410   */\n  mstore\n    /* \"#utility.yul\":2437:2441   */\n  0x20\n    /* \"#utility.yul\":2430:2435   */\n  dup3\n    /* \"#utility.yul\":2426:2442   */\n  add\n    /* \"#utility.yul\":2419:2442   */\n  swap1\n  pop\n    /* \"#utility.yul\":2490:2494   */\n  0x20\n    /* \"#utility.yul\":2482:2488   */\n  dup5\n    /* \"#utility.yul\":2478:2495   */\n  mul\n    /* \"#utility.yul\":2470:2476   */\n  dup4\n    /* \"#utility.yul\":2466:2496   */\n  add\n    /* \"#utility.yul\":2519:2522   */\n  dup6\n    /* \"#utility.yul\":2511:2517   */\n  dup2\n    /* \"#utility.yul\":2508:2523   */\n  gt\n    /* \"#utility.yul\":2505:2627   */\n  iszero\n  tag_91\n  jumpi\n    /* \"#utility.yul\":2538:2617   */\n  tag_92\n  tag_42\n  jump\t// in\ntag_92:\n    /* \"#utility.yul\":2505:2627   */\ntag_91:\n    /* \"#utility.yul\":2653:2659   */\n  dup4\n    /* \"#utility.yul\":2636:2867   */\ntag_93:\n    /* \"#utility.yul\":2670:2676   */\n  dup2\n    /* \"#utility.yul\":2665:2668   */\n  dup2\n    /* \"#utility.yul\":2662:2677   */\n  lt\n    /* \"#utility.yul\":2636:2867   */\n  iszero\n  tag_95\n  jumpi\n    /* \"#utility.yul\":2745:2748   */\n  dup1\n    /* \"#utility.yul\":2774:2822   */\n  tag_96\n    /* \"#utility.yul\":2818:2821   */\n  dup9\n    /* \"#utility.yul\":2806:2816   */\n  dup3\n    /* \"#utility.yul\":2774:2822   */\n  tag_46\n  jump\t// in\ntag_96:\n    /* \"#utility.yul\":2769:2772   */\n  dup5\n    /* \"#utility.yul\":2762:2823   */\n  mstore\n    /* \"#utility.yul\":2852:2856   */\n  0x20\n    /* \"#utility.yul\":2847:2850   */\n  dup5\n    /* \"#utility.yul\":2843:2857   */\n  add\n    /* \"#utility.yul\":2836:2857   */\n  swap4\n  pop\n    /* \"#utility.yul\":2712:2867   */\n  pop\n    /* \"#utility.yul\":2696:2700   */\n  0x20\n    /* \"#utility.yul\":2691:2694   */\n  dup2\n    /* \"#utility.yul\":2687:2701   */\n  add\n    /* \"#utility.yul\":2680:2701   */\n  swap1\n  pop\n    /* \"#utility.yul\":2636:2867   */\n  jump(tag_93)\ntag_95:\n    /* \"#utility.yul\":2640:2661   */\n  pop\n    /* \"#utility.yul\":2254:2873   */\n  pop\n  pop\n    /* \"#utility.yul\":2141:2873   */\n  swap4\n  swap3\n  pop\n  pop\n  pop\n  jump\t// out\n    /* \"#utility.yul\":2896:3281   */\ntag_48:\n    /* \"#utility.yul\":2978:2983   */\n  0x00\n    /* \"#utility.yul\":3027:3030   */\n  dup3\n    /* \"#utility.yul\":3020:3024   */\n  0x1f\n    /* \"#utility.yul\":3012:3018   */\n  dup4\n    /* \"#utility.yul\":3008:3025   */\n  add\n    /* \"#utility.yul\":3004:3031   */\n  slt\n    /* \"#utility.yul\":2994:3116   */\n  tag_98\n  jumpi\n    /* \"#utility.yul\":3035:3114   */\n  tag_99\n  tag_36\n  jump\t// in\ntag_99:\n    /* \"#utility.yul\":2994:3116   */\ntag_98:\n    /* \"#utility.yul\":3145:3151   */\n  dup2\n    /* \"#utility.yul\":3139:3152   */\n  mload\n    /* \"#utility.yul\":3170:3275   */\n  tag_100\n    /* \"#utility.yul\":3271:3274   */\n  dup5\n    /* \"#utility.yul\":3263:3269   */\n  dup3\n    /* \"#utility.yul\":3256:3260   */\n  0x20\n    /* \"#utility.yul\":3248:3254   */\n  dup7\n    /* \"#utility.yul\":3244:3261   */\n  add\n    /* \"#utility.yul\":3170:3275   */\n  tag_47\n  jump\t// in\ntag_100:\n    /* \"#utility.yul\":3161:3275   */\n  swap2\n  pop\n    /* \"#utility.yul\":2984:3281   */\n  pop\n    /* \"#utility.yul\":2896:3281   */\n  swap3\n  swap2\n  pop\n  pop\n  jump\t// out\n    /* \"#utility.yul\":3287:3364   */\ntag_49:\n    /* \"#utility.yul\":3324:3331   */\n  0x00\n    /* \"#utility.yul\":3353:3358   */\n  dup2\n    /* \"#utility.yul\":3342:3358   */\n  swap1\n  pop\n    /* \"#utility.yul\":3287:3364   */\n  swap2\n  swap1\n  pop\n  jump\t// out\n    /* \"#utility.yul\":3370:3492   */\ntag_50:\n    /* \"#utility.yul\":3443:3467   */\n  tag_103\n    /* \"#utility.yul\":3461:3466   */\n  dup2\n    /* \"#utility.yul\":3443:3467   */\n  tag_49\n  jump\t// in\ntag_103:\n    /* \"#utility.yul\":3436:3441   */\n  dup2\n    /* \"#utility.yul\":3433:3468   */\n  eq\n    /* \"#utility.yul\":3423:3486   */\n  tag_104\n  jumpi\n    /* \"#utility.yul\":3482:3483   */\n  0x00\n    /* \"#utility.yul\":3479:3480   */\n  0x00\n    /* \"#utility.yul\":3472:3484   */\n  revert\n    /* \"#utility.yul\":3423:3486   */\ntag_104:\n    /* \"#utility.yul\":3370:3492   */\n  pop\n  jump\t// out\n    /* \"#utility.yul\":3498:3641   */\ntag_51:\n    /* \"#utility.yul\":3555:3560   */\n  0x00\n    /* \"#utility.yul\":3586:3592   */\n  dup2\n    /* \"#utility.yul\":3580:3593   */\n  mload\n    /* \"#utility.yul\":3571:3593   */\n  swap1\n  pop\n    /* \"#utility.yul\":3602:3635   */\n  tag_106\n    /* \"#utility.yul\":3629:3634   */\n  dup2\n    /* \"#utility.yul\":3602:3635   */\n  tag_50\n  jump\t// in\ntag_106:\n    /* \"#utility.yul\":3498:3641   */\n  swap3\n  swap2\n  pop\n  pop\n  jump\t// out\n    /* \"#utility.yul\":3647:4357   */\ntag_3:\n    /* \"#utility.yul\":3751:3757   */\n  0x00\n    /* \"#utility.yul\":3759:3765   */\n  0x00\n    /* \"#utility.yul\":3808:3810   */\n  0x40\n    /* \"#utility.yul\":3796:3805   */\n  dup4\n    /* \"#utility.yul\":3787:3794   */\n  dup6\n    /* \"#utility.yul\":3783:3806   */\n  sub\n    /* \"#utility.yul\":3779:3811   */\n  slt\n    /* \"#utility.yul\":3776:3895   */\n  iszero\n  tag_108\n  jumpi\n    /* \"#utility.yul\":3814:3893   */\n  tag_109\n  tag_34\n  jump\t// in\ntag_109:\n    /* \"#utility.yul\":3776:3895   */\ntag_108:\n    /* \"#utility.yul\":3955:3956   */\n  0x00\n    /* \"#utility.yul\":3944:3953   */\n  dup4\n    /* \"#utility.yul\":3940:3957   */\n  add\n    /* \"#utility.yul\":3934:3958   */\n  mload\n    /* \"#utility.yul\":3985:4003   */\n  0xffffffffffffffff\n    /* \"#utility.yul\":3977:3983   */\n  dup2\n    /* \"#utility.yul\":3974:4004   */\n  gt\n    /* \"#utility.yul\":3971:4088   */\n  iszero\n  tag_110\n  jumpi\n    /* \"#utility.yul\":4007:4086   */\n  tag_111\n  tag_35\n  jump\t// in\ntag_111:\n    /* \"#utility.yul\":3971:4088   */\ntag_110:\n    /* \"#utility.yul\":4112:4201   */\n  tag_112\n    /* \"#utility.yul\":4193:4200   */\n  dup6\n    /* \"#utility.yul\":4184:4190   */\n  dup3\n    /* \"#utility.yul\":4173:4182   */\n  dup7\n    /* \"#utility.yul\":4169:4191   */\n  add\n    /* \"#utility.yul\":4112:4201   */\n  tag_48\n  jump\t// in\ntag_112:\n    /* \"#utility.yul\":4102:4201   */\n  swap3\n  pop\n    /* \"#utility.yul\":3905:4211   */\n  pop\n    /* \"#utility.yul\":4250:4252   */\n  0x20\n    /* \"#utility.yul\":4276:4340   */\n  tag_113\n    /* \"#utility.yul\":4332:4339   */\n  dup6\n    /* \"#utility.yul\":4323:4329   */\n  dup3\n    /* \"#utility.yul\":4312:4321   */\n  dup7\n    /* \"#utility.yul\":4308:4330   */\n  add\n    /* \"#utility.yul\":4276:4340   */\n  tag_51\n  jump\t// in\ntag_113:\n    /* \"#utility.yul\":4266:4340   */\n  swap2\n  pop\n    /* \"#utility.yul\":4221:4350   */\n  pop\n    /* \"#utility.yul\":3647:4357   */\n  swap3\n  pop\n  swap3\n  swap1\n  pop\n  jump\t// out\n    /* \"#utility.yul\":4363:4532   */\ntag_52:\n    /* \"#utility.yul\":4447:4458   */\n  0x00\n    /* \"#utility.yul\":4481:4487   */\n  dup3\n    /* \"#utility.yul\":4476:4479   */\n  dup3\n    /* \"#utility.yul\":4469:4488   */\n  mstore\n    /* \"#utility.yul\":4521:4525   */\n  0x20\n    /* \"#utility.yul\":4516:4519   */\n  dup3\n    /* \"#utility.yul\":4512:4526   */\n  add\n    /* \"#utility.yul\":4497:4526   */\n  swap1\n  pop\n    /* \"#utility.yul\":4363:4532   */\n  swap3\n  swap2\n  pop\n  pop\n  jump\t// out\n    /* \"#utility.yul\":4538:4718   */\ntag_53:\n    /* \"#utility.yul\":4678:4710   */\n  0x7468726573686f6c6420686173206265656e20696e697469616c697a65640000\n    /* \"#utility.yul\":4674:4675   */\n  0x00\n    /* \"#utility.yul\":4666:4672   */\n  dup3\n    /* \"#utility.yul\":4662:4676   */\n  add\n    /* \"#utility.yul\":4655:4711   */\n  mstore\n    /* \"#utility.yul\":4538:4718   */\n  pop\n  jump\t// out\n    /* \"#utility.yul\":4724:5090   */\ntag_54:\n    /* \"#utility.yul\":4866:4869   */\n  0x00\n    /* \"#utility.yul\":4887:4954   */\n  tag_117\n    /* \"#utility.yul\":4951:4953   */\n  0x1e\n    /* \"#utility.yul\":4946:4949   */\n  dup4\n    /* \"#utility.yul\":4887:4954   */\n  tag_52\n  jump\t// in\ntag_117:\n    /* \"#utility.yul\":4880:4954   */\n  swap2\n  pop\n    /* \"#utility.yul\":4963:5056   */\n  tag_118\n    /* \"#utility.yul\":5052:5055   */\n  dup3\n    /* \"#utility.yul\":4963:5056   */\n  tag_53\n  jump\t// in\ntag_118:\n    /* \"#utility.yul\":5081:5083   */\n  0x20\n    /* \"#utility.yul\":5076:5079   */\n  dup3\n    /* \"#utility.yul\":5072:5084   */\n  add\n    /* \"#utility.yul\":5065:5084   */\n  swap1\n  pop\n    /* \"#utility.yul\":4724:5090   */\n  swap2\n  swap1\n  pop\n  jump\t// out\n    /* \"#utility.yul\":5096:5515   */\ntag_12:\n    /* \"#utility.yul\":5262:5266   */\n  0x00\n    /* \"#utility.yul\":5300:5302   */\n  0x20\n    /* \"#utility.yul\":5289:5298   */\n  dup3\n    /* \"#utility.yul\":5285:5303   */\n  add\n    /* \"#utility.yul\":5277:5303   */\n  swap1\n  pop\n    /* \"#utility.yul\":5349:5358   */\n  dup2\n    /* \"#utility.yul\":5343:5347   */\n  dup2\n    /* \"#utility.yul\":5339:5359   */\n  sub\n    /* \"#utility.yul\":5335:5336   */\n  0x00\n    /* \"#utility.yul\":5324:5333   */\n  dup4\n    /* \"#utility.yul\":5320:5337   */\n  add\n    /* \"#utility.yul\":5313:5360   */\n  mstore\n    /* \"#utility.yul\":5377:5508   */\n  tag_120\n    /* \"#utility.yul\":5503:5507   */\n  dup2\n    /* \"#utility.yul\":5377:5508   */\n  tag_54\n  jump\t// in\ntag_120:\n    /* \"#utility.yul\":5369:5508   */\n  swap1\n  pop\n    /* \"#utility.yul\":5096:5515   */\n  swap2\n  swap1\n  pop\n  jump\t// out\n    /* \"#utility.yul\":5521:5745   */\ntag_55:\n    /* \"#utility.yul\":5661:5695   */\n  0x7468726573686f6c64206d657374206c657373207468616e206f776e65727320\n    /* \"#utility.yul\":5657:5658   */\n  0x00\n    /* \"#utility.yul\":5649:5655   */\n  dup3\n    /* \"#utility.yul\":5645:5659   */\n  add\n    /* \"#utility.yul\":5638:5696   */\n  mstore\n    /* \"#utility.yul\":5730:5737   */\n  0x636f756e74000000000000000000000000000000000000000000000000000000\n    /* \"#utility.yul\":5725:5727   */\n  0x20\n    /* \"#utility.yul\":5717:5723   */\n  dup3\n    /* \"#utility.yul\":5713:5728   */\n  add\n    /* \"#utility.yul\":5706:5738   */\n  mstore\n    /* \"#utility.yul\":5521:5745   */\n  pop\n  jump\t// out\n    /* \"#utility.yul\":5751:6117   */\ntag_56:\n    /* \"#utility.yul\":5893:5896   */\n  0x00\n    /* \"#utility.yul\":5914:5981   */\n  tag_123\n    /* \"#utility.yul\":5978:5980   */\n  0x25\n    /* \"#utility.yul\":5973:5976   */\n  dup4\n    /* \"#utility.yul\":5914:5981   */\n  tag_52\n  jump\t// in\ntag_123:\n    /* \"#utility.yul\":5907:5981   */\n  swap2\n  pop\n    /* \"#utility.yul\":5990:6083   */\n  tag_124\n    /* \"#utility.yul\":6079:6082   */\n  dup3\n    /* \"#utility.yul\":5990:6083   */\n  tag_55\n  jump\t// in\ntag_124:\n    /* \"#utility.yul\":6108:6110   */\n  0x40\n    /* \"#utility.yul\":6103:6106   */\n  dup3\n    /* \"#utility.yul\":6099:6111   */\n  add\n    /* \"#utility.yul\":6092:6111   */\n  swap1\n  pop\n    /* \"#utility.yul\":5751:6117   */\n  swap2\n  swap1\n  pop\n  jump\t// out\n    /* \"#utility.yul\":6123:6542   */\ntag_15:\n    /* \"#utility.yul\":6289:6293   */\n  0x00\n    /* \"#utility.yul\":6327:6329   */\n  0x20\n    /* \"#utility.yul\":6316:6325   */\n  dup3\n    /* \"#utility.yul\":6312:6330   */\n  add\n    /* \"#utility.yul\":6304:6330   */\n  swap1\n  pop\n    /* \"#utility.yul\":6376:6385   */\n  dup2\n    /* \"#utility.yul\":6370:6374   */\n  dup2\n    /* \"#utility.yul\":6366:6386   */\n  sub\n    /* \"#utility.yul\":6362:6363   */\n  0x00\n    /* \"#utility.yul\":6351:6360   */\n  dup4\n    /* \"#utility.yul\":6347:6364   */\n  add\n    /* \"#utility.yul\":6340:6387   */\n  mstore\n    /* \"#utility.yul\":6404:6535   */\n  tag_126\n    /* \"#utility.yul\":6530:6534   */\n  dup2\n    /* \"#utility.yul\":6404:6535   */\n  tag_56\n  jump\t// in\ntag_126:\n    /* \"#utility.yul\":6396:6535   */\n  swap1\n  pop\n    /* \"#utility.yul\":6123:6542   */\n  swap2\n  swap1\n  pop\n  jump\t// out\n    /* \"#utility.yul\":6548:6729   */\ntag_57:\n    /* \"#utility.yul\":6688:6721   */\n  0x6d756c7469536967206e656564206d6f7265207468616e206f6e652073696700\n    /* \"#utility.yul\":6684:6685   */\n  0x00\n    /* \"#utility.yul\":6676:6682   */\n  dup3\n    /* \"#utility.yul\":6672:6686   */\n  add\n    /* \"#utility.yul\":6665:6722   */\n  mstore\n    /* \"#utility.yul\":6548:6729   */\n  pop\n  jump\t// out\n    /* \"#utility.yul\":6735:7101   */\ntag_58:\n    /* \"#utility.yul\":6877:6880   */\n  0x00\n    /* \"#utility.yul\":6898:6965   */\n  tag_129\n    /* \"#utility.yul\":6962:6964   */\n  0x1f\n    /* \"#utility.yul\":6957:6960   */\n  dup4\n    /* \"#utility.yul\":6898:6965   */\n  tag_52\n  jump\t// in\ntag_129:\n    /* \"#utility.yul\":6891:6965   */\n  swap2\n  pop\n    /* \"#utility.yul\":6974:7067   */\n  tag_130\n    /* \"#utility.yul\":7063:7066   */\n  dup3\n    /* \"#utility.yul\":6974:7067   */\n  tag_57\n  jump\t// in\ntag_130:\n    /* \"#utility.yul\":7092:7094   */\n  0x20\n    /* \"#utility.yul\":7087:7090   */\n  dup3\n    /* \"#utility.yul\":7083:7095   */\n  add\n    /* \"#utility.yul\":7076:7095   */\n  swap1\n  pop\n    /* \"#utility.yul\":6735:7101   */\n  swap2\n  swap1\n  pop\n  jump\t// out\n    /* \"#utility.yul\":7107:7526   */\ntag_18:\n    /* \"#utility.yul\":7273:7277   */\n  0x00\n    /* \"#utility.yul\":7311:7313   */\n  0x20\n    /* \"#utility.yul\":7300:7309   */\n  dup3\n    /* \"#utility.yul\":7296:7314   */\n  add\n    /* \"#utility.yul\":7288:7314   */\n  swap1\n  pop\n    /* \"#utility.yul\":7360:7369   */\n  dup2\n    /* \"#utility.yul\":7354:7358   */\n  dup2\n    /* \"#utility.yul\":7350:7370   */\n  sub\n    /* \"#utility.yul\":7346:7347   */\n  0x00\n    /* \"#utility.yul\":7335:7344   */\n  dup4\n    /* \"#utility.yul\":7331:7348   */\n  add\n    /* \"#utility.yul\":7324:7371   */\n  mstore\n    /* \"#utility.yul\":7388:7519   */\n  tag_132\n    /* \"#utility.yul\":7514:7518   */\n  dup2\n    /* \"#utility.yul\":7388:7519   */\n  tag_58\n  jump\t// in\ntag_132:\n    /* \"#utility.yul\":7380:7519   */\n  swap1\n  pop\n    /* \"#utility.yul\":7107:7526   */\n  swap2\n  swap1\n  pop\n  jump\t// out\n    /* \"#utility.yul\":7532:7712   */\ntag_24:\n    /* \"#utility.yul\":7580:7657   */\n  0x4e487b7100000000000000000000000000000000000000000000000000000000\n    /* \"#utility.yul\":7577:7578   */\n  0x00\n    /* \"#utility.yul\":7570:7658   */\n  mstore\n    /* \"#utility.yul\":7677:7681   */\n  0x32\n    /* \"#utility.yul\":7674:7675   */\n  0x04\n    /* \"#utility.yul\":7667:7682   */\n  mstore\n    /* \"#utility.yul\":7701:7705   */\n  0x24\n    /* \"#utility.yul\":7698:7699   */\n  0x00\n    /* \"#utility.yul\":7691:7706   */\n  revert\n    /* \"#utility.yul\":7718:8016   */\ntag_59:\n    /* \"#utility.yul\":7858:7892   */\n  0x6f776e6572206973206e6f74207a65726f20616e64206e6f7420746869732063\n    /* \"#utility.yul\":7854:7855   */\n  0x00\n    /* \"#utility.yul\":7846:7852   */\n  dup3\n    /* \"#utility.yul\":7842:7856   */\n  add\n    /* \"#utility.yul\":7835:7893   */\n  mstore\n    /* \"#utility.yul\":7927:7961   */\n  0x6f6e7472616374206164647265737320616e64206265666f7265206e6f742061\n    /* \"#utility.yul\":7922:7924   */\n  0x20\n    /* \"#utility.yul\":7914:7920   */\n  dup3\n    /* \"#utility.yul\":7910:7925   */\n  add\n    /* \"#utility.yul\":7903:7962   */\n  mstore\n    /* \"#utility.yul\":7996:8008   */\n  0x2073696e676c6553696700000000000000000000000000000000000000000000\n    /* \"#utility.yul\":7991:7993   */\n  0x40\n    /* \"#utility.yul\":7983:7989   */\n  dup3\n    /* \"#utility.yul\":7979:7994   */\n  add\n    /* \"#utility.yul\":7972:8009   */\n  mstore\n    /* \"#utility.yul\":7718:8016   */\n  pop\n  jump\t// out\n    /* \"#utility.yul\":8022:8388   */\ntag_60:\n    /* \"#utility.yul\":8164:8167   */\n  0x00\n    /* \"#utility.yul\":8185:8252   */\n  tag_136\n    /* \"#utility.yul\":8249:8251   */\n  0x4a\n    /* \"#utility.yul\":8244:8247   */\n  dup4\n    /* \"#utility.yul\":8185:8252   */\n  tag_52\n  jump\t// in\ntag_136:\n    /* \"#utility.yul\":8178:8252   */\n  swap2\n  pop\n    /* \"#utility.yul\":8261:8354   */\n  tag_137\n    /* \"#utility.yul\":8350:8353   */\n  dup3\n    /* \"#utility.yul\":8261:8354   */\n  tag_59\n  jump\t// in\ntag_137:\n    /* \"#utility.yul\":8379:8381   */\n  0x60\n    /* \"#utility.yul\":8374:8377   */\n  dup3\n    /* \"#utility.yul\":8370:8382   */\n  add\n    /* \"#utility.yul\":8363:8382   */\n  swap1\n  pop\n    /* \"#utility.yul\":8022:8388   */\n  swap2\n  swap1\n  pop\n  jump\t// out\n    /* \"#utility.yul\":8394:8813   */\ntag_29:\n    /* \"#utility.yul\":8560:8564   */\n  0x00\n    /* \"#utility.yul\":8598:8600   */\n  0x20\n    /* \"#utility.yul\":8587:8596   */\n  dup3\n    /* \"#utility.yul\":8583:8601   */\n  add\n    /* \"#utility.yul\":8575:8601   */\n  swap1\n  pop\n    /* \"#utility.yul\":8647:8656   */\n  dup2\n    /* \"#utility.yul\":8641:8645   */\n  dup2\n    /* \"#utility.yul\":8637:8657   */\n  sub\n    /* \"#utility.yul\":8633:8634   */\n  0x00\n    /* \"#utility.yul\":8622:8631   */\n  dup4\n    /* \"#utility.yul\":8618:8635   */\n  add\n    /* \"#utility.yul\":8611:8658   */\n  mstore\n    /* \"#utility.yul\":8675:8806   */\n  tag_139\n    /* \"#utility.yul\":8801:8805   */\n  dup2\n    /* \"#utility.yul\":8675:8806   */\n  tag_60\n  jump\t// in\ntag_139:\n    /* \"#utility.yul\":8667:8806   */\n  swap1\n  pop\n    /* \"#utility.yul\":8394:8813   */\n  swap2\n  swap1\n  pop\n  jump\t// out\n    /* \"#utility.yul\":8819:8999   */\ntag_61:\n    /* \"#utility.yul\":8867:8944   */\n  0x4e487b7100000000000000000000000000000000000000000000000000000000\n    /* \"#utility.yul\":8864:8865   */\n  0x00\n    /* \"#utility.yul\":8857:8945   */\n  mstore\n    /* \"#utility.yul\":8964:8968   */\n  0x11\n    /* \"#utility.yul\":8961:8962   */\n  0x04\n    /* \"#utility.yul\":8954:8969   */\n  mstore\n    /* \"#utility.yul\":8988:8992   */\n  0x24\n    /* \"#utility.yul\":8985:8986   */\n  0x00\n    /* \"#utility.yul\":8978:8993   */\n  revert\n    /* \"#utility.yul\":9005:9196   */\ntag_32:\n    /* \"#utility.yul\":9045:9048   */\n  0x00\n    /* \"#utility.yul\":9064:9084   */\n  tag_142\n    /* \"#utility.yul\":9082:9083   */\n  dup3\n    /* \"#utility.yul\":9064:9084   */\n  tag_49\n  jump\t// in\ntag_142:\n    /* \"#utility.yul\":9059:9084   */\n  swap2\n  pop\n    /* \"#utility.yul\":9098:9118   */\n  tag_143\n    /* \"#utility.yul\":9116:9117   */\n  dup4\n    /* \"#utility.yul\":9098:9118   */\n  tag_49\n  jump\t// in\ntag_143:\n    /* \"#utility.yul\":9093:9118   */\n  swap3\n  pop\n    /* \"#utility.yul\":9141:9142   */\n  dup3\n    /* \"#utility.yul\":9138:9139   */\n  dup3\n    /* \"#utility.yul\":9134:9143   */\n  add\n    /* \"#utility.yul\":9127:9143   */\n  swap1\n  pop\n    /* \"#utility.yul\":9162:9165   */\n  dup1\n    /* \"#utility.yul\":9159:9160   */\n  dup3\n    /* \"#utility.yul\":9156:9166   */\n  gt\n    /* \"#utility.yul\":9153:9189   */\n  iszero\n  tag_144\n  jumpi\n    /* \"#utility.yul\":9169:9187   */\n  tag_145\n  tag_61\n  jump\t// in\ntag_145:\n    /* \"#utility.yul\":9153:9189   */\ntag_144:\n    /* \"#utility.yul\":9005:9196   */\n  swap3\n  swap2\n  pop\n  pop\n  jump\t// out\n    /* \"contract/46_MultisigWallet.sol\":155:5726  contract MultiSigWallet {... */\ntag_8:\n  dataSize(sub_0)\n  dup1\n  dataOffset(sub_0)\n  0x00\n  codecopy\n  0x00\n  return\nstop\n\nsub_0: assembly {\n        /* \"contract/46_MultisigWallet.sol\":155:5726  contract MultiSigWallet {... */\n      mstore(0x40, 0x80)\n      jumpi(tag_1, lt(calldatasize, 0x04))\n      shr(0xe0, calldataload(0x00))\n      dup1\n      0xa67dd509\n      gt\n      tag_11\n      jumpi\n      dup1\n      0xa67dd509\n      eq\n      tag_7\n      jumpi\n      dup1\n      0xaffed0e0\n      eq\n      tag_8\n      jumpi\n      dup1\n      0xd01aa318\n      eq\n      tag_9\n      jumpi\n      dup1\n      0xed516d51\n      eq\n      tag_10\n      jumpi\n      jump(tag_2)\n    tag_11:\n      dup1\n      0x025e7c27\n      eq\n      tag_3\n      jumpi\n      dup1\n      0x0db02622\n      eq\n      tag_4\n      jumpi\n      dup1\n      0x2f54bf6e\n      eq\n      tag_5\n      jumpi\n      dup1\n      0x42cde4e8\n      eq\n      tag_6\n      jumpi\n      jump(tag_2)\n    tag_1:\n      jumpi(tag_2, calldatasize)\n      stop\n    tag_2:\n      revert(0x00, 0x00)\n        /* \"contract/46_MultisigWallet.sol\":360:383  address[] public owners */\n    tag_3:\n      callvalue\n      dup1\n      iszero\n      tag_14\n      jumpi\n      revert(0x00, 0x00)\n    tag_14:\n      pop\n      tag_15\n      0x04\n      dup1\n      calldatasize\n      sub\n      dup2\n      add\n      swap1\n      tag_16\n      swap2\n      swap1\n      tag_17\n      jump\t// in\n    tag_16:\n      tag_18\n      jump\t// in\n    tag_15:\n      mload(0x40)\n      tag_19\n      swap2\n      swap1\n      tag_20\n      jump\t// in\n    tag_19:\n      mload(0x40)\n      dup1\n      swap2\n      sub\n      swap1\n      return\n        /* \"contract/46_MultisigWallet.sol\":502:527  uint256 public ownerCount */\n    tag_4:\n      callvalue\n      dup1\n      iszero\n      tag_21\n      jumpi\n      revert(0x00, 0x00)\n    tag_21:\n      pop\n      tag_22\n      tag_23\n      jump\t// in\n    tag_22:\n      mload(0x40)\n      tag_24\n      swap2\n      swap1\n      tag_25\n      jump\t// in\n    tag_24:\n      mload(0x40)\n      dup1\n      swap2\n      sub\n      swap1\n      return\n        /* \"contract/46_MultisigWallet.sol\":426:465  mapping(address => bool) public isOwner */\n    tag_5:\n      callvalue\n      dup1\n      iszero\n      tag_26\n      jumpi\n      revert(0x00, 0x00)\n    tag_26:\n      pop\n      tag_27\n      0x04\n      dup1\n      calldatasize\n      sub\n      dup2\n      add\n      swap1\n      tag_28\n      swap2\n      swap1\n      tag_29\n      jump\t// in\n    tag_28:\n      tag_30\n      jump\t// in\n    tag_27:\n      mload(0x40)\n      tag_31\n      swap2\n      swap1\n      tag_32\n      jump\t// in\n    tag_31:\n      mload(0x40)\n      dup1\n      swap2\n      sub\n      swap1\n      return\n        /* \"contract/46_MultisigWallet.sol\":562:586  uint256 public threshold */\n    tag_6:\n      callvalue\n      dup1\n      iszero\n      tag_33\n      jumpi\n      revert(0x00, 0x00)\n    tag_33:\n      pop\n      tag_34\n      tag_35\n      jump\t// in\n    tag_34:\n      mload(0x40)\n      tag_36\n      swap2\n      swap1\n      tag_25\n      jump\t// in\n    tag_36:\n      mload(0x40)\n      dup1\n      swap2\n      sub\n      swap1\n      return\n        /* \"contract/46_MultisigWallet.sol\":5334:5721  function encodeTransactionData(... */\n    tag_7:\n      callvalue\n      dup1\n      iszero\n      tag_37\n      jumpi\n      revert(0x00, 0x00)\n    tag_37:\n      pop\n      tag_38\n      0x04\n      dup1\n      calldatasize\n      sub\n      dup2\n      add\n      swap1\n      tag_39\n      swap2\n      swap1\n      tag_40\n      jump\t// in\n    tag_39:\n      tag_41\n      jump\t// in\n    tag_38:\n      mload(0x40)\n      tag_42\n      swap2\n      swap1\n      tag_43\n      jump\t// in\n    tag_42:\n      mload(0x40)\n      dup1\n      swap2\n      sub\n      swap1\n      return\n        /* \"contract/46_MultisigWallet.sol\":629:649  uint256 public nonce */\n    tag_8:\n      callvalue\n      dup1\n      iszero\n      tag_44\n      jumpi\n      revert(0x00, 0x00)\n    tag_44:\n      pop\n      tag_45\n      tag_46\n      jump\t// in\n    tag_45:\n      mload(0x40)\n      tag_47\n      swap2\n      swap1\n      tag_25\n      jump\t// in\n    tag_47:\n      mload(0x40)\n      dup1\n      swap2\n      sub\n      swap1\n      return\n        /* \"contract/46_MultisigWallet.sol\":2052:2702  function execTransaction(... */\n    tag_9:\n      tag_48\n      0x04\n      dup1\n      calldatasize\n      sub\n      dup2\n      add\n      swap1\n      tag_49\n      swap2\n      swap1\n      tag_50\n      jump\t// in\n    tag_49:\n      tag_51\n      jump\t// in\n    tag_48:\n      mload(0x40)\n      tag_52\n      swap2\n      swap1\n      tag_32\n      jump\t// in\n    tag_52:\n      mload(0x40)\n      dup1\n      swap2\n      sub\n      swap1\n      return\n        /* \"contract/46_MultisigWallet.sol\":2733:3977  function checkSignatures(... */\n    tag_10:\n      callvalue\n      dup1\n      iszero\n      tag_53\n      jumpi\n      revert(0x00, 0x00)\n    tag_53:\n      pop\n      tag_54\n      0x04\n      dup1\n      calldatasize\n      sub\n      dup2\n      add\n      swap1\n      tag_55\n      swap2\n      swap1\n      tag_56\n      jump\t// in\n    tag_55:\n      tag_57\n      jump\t// in\n    tag_54:\n      stop\n        /* \"contract/46_MultisigWallet.sol\":360:383  address[] public owners */\n    tag_18:\n      0x00\n      dup2\n      dup2\n      sload\n      dup2\n      lt\n      tag_58\n      jumpi\n      0x00\n      dup1\n      revert\n    tag_58:\n      swap1\n      0x00\n      mstore\n      keccak256(0x00, 0x20)\n      add\n      0x00\n      swap2\n      pop\n      sload\n      swap1\n      0x0100\n      exp\n      swap1\n      div\n      0xffffffffffffffffffffffffffffffffffffffff\n      and\n      dup2\n      jump\t// out\n        /* \"contract/46_MultisigWallet.sol\":502:527  uint256 public ownerCount */\n    tag_23:\n      sload(0x02)\n      dup2\n      jump\t// out\n        /* \"contract/46_MultisigWallet.sol\":426:465  mapping(address => bool) public isOwner */\n    tag_30:\n      mstore(0x20, 0x01)\n      dup1\n      0x00\n      mstore\n      keccak256(0x00, 0x40)\n      0x00\n      swap2\n      pop\n      sload\n      swap1\n      0x0100\n      exp\n      swap1\n      div\n      0xff\n      and\n      dup2\n      jump\t// out\n        /* \"contract/46_MultisigWallet.sol\":562:586  uint256 public threshold */\n    tag_35:\n      sload(0x03)\n      dup2\n      jump\t// out\n        /* \"contract/46_MultisigWallet.sol\":5334:5721  function encodeTransactionData(... */\n    tag_41:\n        /* \"contract/46_MultisigWallet.sol\":5520:5527  bytes32 */\n      0x00\n        /* \"contract/46_MultisigWallet.sol\":5540:5558  bytes32 safeTxHash */\n      0x00\n        /* \"contract/46_MultisigWallet.sol\":5614:5616  to */\n      dup7\n        /* \"contract/46_MultisigWallet.sol\":5618:5623  value */\n      dup7\n        /* \"contract/46_MultisigWallet.sol\":5635:5639  data */\n      dup7\n        /* \"contract/46_MultisigWallet.sol\":5625:5640  keccak256(data) */\n      dup1\n      mload\n      swap1\n      0x20\n      add\n      keccak256\n        /* \"contract/46_MultisigWallet.sol\":5642:5648  _nonce */\n      dup7\n        /* \"contract/46_MultisigWallet.sol\":5650:5657  chainid */\n      dup7\n        /* \"contract/46_MultisigWallet.sol\":5585:5672  abi.encode(... */\n      add(0x20, mload(0x40))\n      tag_61\n      swap6\n      swap5\n      swap4\n      swap3\n      swap2\n      swap1\n      tag_62\n      jump\t// in\n    tag_61:\n      mload(0x40)\n      0x20\n      dup2\n      dup4\n      sub\n      sub\n      dup2\n      mstore\n      swap1\n      0x40\n      mstore\n        /* \"contract/46_MultisigWallet.sol\":5561:5683  keccak256(... */\n      dup1\n      mload\n      swap1\n      0x20\n      add\n      keccak256\n        /* \"contract/46_MultisigWallet.sol\":5540:5683  bytes32 safeTxHash = keccak256(... */\n      swap1\n      pop\n        /* \"contract/46_MultisigWallet.sol\":5703:5713  safeTxHash */\n      dup1\n        /* \"contract/46_MultisigWallet.sol\":5696:5713  return safeTxHash */\n      swap2\n      pop\n      pop\n        /* \"contract/46_MultisigWallet.sol\":5334:5721  function encodeTransactionData(... */\n      swap6\n      swap5\n      pop\n      pop\n      pop\n      pop\n      pop\n      jump\t// out\n        /* \"contract/46_MultisigWallet.sol\":629:649  uint256 public nonce */\n    tag_46:\n      sload(0x04)\n      dup2\n      jump\t// out\n        /* \"contract/46_MultisigWallet.sol\":2052:2702  function execTransaction(... */\n    tag_51:\n        /* \"contract/46_MultisigWallet.sol\":2223:2235  bool success */\n      0x00\n        /* \"contract/46_MultisigWallet.sol\":2280:2294  bytes32 txHash */\n      0x00\n        /* \"contract/46_MultisigWallet.sol\":2297:2357  encodeTransactionData(to, value, data, nonce, block.chainid) */\n      tag_64\n        /* \"contract/46_MultisigWallet.sol\":2319:2321  to */\n      dup7\n        /* \"contract/46_MultisigWallet.sol\":2323:2328  value */\n      dup7\n        /* \"contract/46_MultisigWallet.sol\":2330:2334  data */\n      dup7\n        /* \"contract/46_MultisigWallet.sol\":2336:2341  nonce */\n      sload(0x04)\n        /* \"contract/46_MultisigWallet.sol\":2343:2356  block.chainid */\n      chainid\n        /* \"contract/46_MultisigWallet.sol\":2297:2318  encodeTransactionData */\n      tag_41\n        /* \"contract/46_MultisigWallet.sol\":2297:2357  encodeTransactionData(to, value, data, nonce, block.chainid) */\n      jump\t// in\n    tag_64:\n        /* \"contract/46_MultisigWallet.sol\":2280:2357  bytes32 txHash = encodeTransactionData(to, value, data, nonce, block.chainid) */\n      swap1\n      pop\n        /* \"contract/46_MultisigWallet.sol\":2398:2403  nonce */\n      0x04\n      0x00\n        /* \"contract/46_MultisigWallet.sol\":2398:2405  nonce++ */\n      dup2\n      sload\n      dup1\n      swap3\n      swap2\n      swap1\n      tag_65\n      swap1\n      tag_66\n      jump\t// in\n    tag_65:\n      swap2\n      swap1\n      pop\n      sstore\n      pop\n        /* \"contract/46_MultisigWallet.sol\":2441:2476  checkSignatures(txHash, signatures) */\n      tag_67\n        /* \"contract/46_MultisigWallet.sol\":2457:2463  txHash */\n      dup2\n        /* \"contract/46_MultisigWallet.sol\":2465:2475  signatures */\n      dup5\n        /* \"contract/46_MultisigWallet.sol\":2441:2456  checkSignatures */\n      tag_57\n        /* \"contract/46_MultisigWallet.sol\":2441:2476  checkSignatures(txHash, signatures) */\n      jump\t// in\n    tag_67:\n        /* \"contract/46_MultisigWallet.sol\":2526:2528  to */\n      dup6\n        /* \"contract/46_MultisigWallet.sol\":2526:2533  to.call */\n      0xffffffffffffffffffffffffffffffffffffffff\n      and\n        /* \"contract/46_MultisigWallet.sol\":2541:2546  value */\n      dup6\n        /* \"contract/46_MultisigWallet.sol\":2548:2552  data */\n      dup6\n        /* \"contract/46_MultisigWallet.sol\":2526:2553  to.call{value: value}(data) */\n      mload(0x40)\n      tag_68\n      swap2\n      swap1\n      tag_69\n      jump\t// in\n    tag_68:\n      0x00\n      mload(0x40)\n      dup1\n      dup4\n      sub\n      dup2\n      dup6\n      dup8\n      gas\n      call\n      swap3\n      pop\n      pop\n      pop\n      returndatasize\n      dup1\n      0x00\n      dup2\n      eq\n      tag_72\n      jumpi\n      mload(0x40)\n      swap2\n      pop\n      and(add(returndatasize, 0x3f), not(0x1f))\n      dup3\n      add\n      0x40\n      mstore\n      returndatasize\n      dup3\n      mstore\n      returndatasize\n      0x00\n      0x20\n      dup5\n      add\n      returndatacopy\n      jump(tag_71)\n    tag_72:\n      0x60\n      swap2\n      pop\n    tag_71:\n      pop\n        /* \"contract/46_MultisigWallet.sol\":2512:2553  (success, ) = to.call{value: value}(data) */\n      pop\n      dup1\n      swap3\n      pop\n      pop\n        /* \"contract/46_MultisigWallet.sol\":2568:2575  success */\n      dup2\n        /* \"contract/46_MultisigWallet.sol\":2564:2695  if (success) {... */\n      iszero\n      tag_73\n      jumpi\n        /* \"contract/46_MultisigWallet.sol\":2597:2621  ExecutionSuccess(txHash) */\n      0xdc29884a71d2bb98d3c53dc09718be05c7bfd142b7773a5c5cf2517629290ac0\n        /* \"contract/46_MultisigWallet.sol\":2614:2620  txHash */\n      dup2\n        /* \"contract/46_MultisigWallet.sol\":2597:2621  ExecutionSuccess(txHash) */\n      mload(0x40)\n      tag_74\n      swap2\n      swap1\n      tag_43\n      jump\t// in\n    tag_74:\n      mload(0x40)\n      dup1\n      swap2\n      sub\n      swap1\n      log1\n        /* \"contract/46_MultisigWallet.sol\":2564:2695  if (success) {... */\n      jump(tag_75)\n    tag_73:\n        /* \"contract/46_MultisigWallet.sol\":2659:2683  ExecutionFailure(txHash) */\n      0xdbe42d02a4e07d7eeff2874efe172540c93b297d206f6d691c9782a257323e32\n        /* \"contract/46_MultisigWallet.sol\":2676:2682  txHash */\n      dup2\n        /* \"contract/46_MultisigWallet.sol\":2659:2683  ExecutionFailure(txHash) */\n      mload(0x40)\n      tag_76\n      swap2\n      swap1\n      tag_43\n      jump\t// in\n    tag_76:\n      mload(0x40)\n      dup1\n      swap2\n      sub\n      swap1\n      log1\n        /* \"contract/46_MultisigWallet.sol\":2564:2695  if (success) {... */\n    tag_75:\n        /* \"contract/46_MultisigWallet.sol\":2237:2702  {... */\n      pop\n        /* \"contract/46_MultisigWallet.sol\":2052:2702  function execTransaction(... */\n      swap5\n      swap4\n      pop\n      pop\n      pop\n      pop\n      jump\t// out\n        /* \"contract/46_MultisigWallet.sol\":2733:3977  function checkSignatures(... */\n    tag_57:\n        /* \"contract/46_MultisigWallet.sol\":2849:2867  uint256 _threshold */\n      0x00\n        /* \"contract/46_MultisigWallet.sol\":2870:2879  threshold */\n      sload(0x03)\n        /* \"contract/46_MultisigWallet.sol\":2849:2879  uint256 _threshold = threshold */\n      swap1\n      pop\n        /* \"contract/46_MultisigWallet.sol\":2998:3000  65 */\n      0x41\n        /* \"contract/46_MultisigWallet.sol\":2985:2995  _threshold */\n      dup2\n        /* \"contract/46_MultisigWallet.sol\":2985:3000  _threshold * 65 */\n      tag_78\n      swap2\n      swap1\n      tag_79\n      jump\t// in\n    tag_78:\n        /* \"contract/46_MultisigWallet.sol\":2964:2974  signatures */\n      dup3\n        /* \"contract/46_MultisigWallet.sol\":2964:2981  signatures.length */\n      mload\n        /* \"contract/46_MultisigWallet.sol\":2964:3000  signatures.length >= _threshold * 65 */\n      lt\n      iszero\n        /* \"contract/46_MultisigWallet.sol\":2956:3047  require(signatures.length >= _threshold * 65, \"signatures count not enough to transaction\") */\n      tag_80\n      jumpi\n      mload(0x40)\n      0x08c379a000000000000000000000000000000000000000000000000000000000\n      dup2\n      mstore\n      0x04\n      add\n      tag_81\n      swap1\n      tag_82\n      jump\t// in\n    tag_81:\n      mload(0x40)\n      dup1\n      swap2\n      sub\n      swap1\n      revert\n    tag_80:\n        /* \"contract/46_MultisigWallet.sol\":3283:3300  address lastOwner */\n      0x00\n        /* \"contract/46_MultisigWallet.sol\":3311:3312  0 */\n      0x00\n        /* \"contract/46_MultisigWallet.sol\":3283:3313  address lastOwner = address(0) */\n      swap1\n      pop\n        /* \"contract/46_MultisigWallet.sol\":3324:3344  address currentOwner */\n      0x00\n        /* \"contract/46_MultisigWallet.sol\":3355:3362  uint8 v */\n      0x00\n        /* \"contract/46_MultisigWallet.sol\":3373:3382  bytes32 r */\n      0x00\n        /* \"contract/46_MultisigWallet.sol\":3393:3402  bytes32 s */\n      0x00\n        /* \"contract/46_MultisigWallet.sol\":3413:3422  uint256 i */\n      0x00\n        /* \"contract/46_MultisigWallet.sol\":3441:3442  0 */\n      0x00\n        /* \"contract/46_MultisigWallet.sol\":3437:3442  i = 0 */\n      swap1\n      pop\n        /* \"contract/46_MultisigWallet.sol\":3433:3970  for(i = 0; i < _threshold; i++) {... */\n    tag_83:\n        /* \"contract/46_MultisigWallet.sol\":3448:3458  _threshold */\n      dup7\n        /* \"contract/46_MultisigWallet.sol\":3444:3445  i */\n      dup2\n        /* \"contract/46_MultisigWallet.sol\":3444:3458  i < _threshold */\n      lt\n        /* \"contract/46_MultisigWallet.sol\":3433:3970  for(i = 0; i < _threshold; i++) {... */\n      iszero\n      tag_84\n      jumpi\n        /* \"contract/46_MultisigWallet.sol\":3492:3521  signatureSplit(signatures, i) */\n      tag_86\n        /* \"contract/46_MultisigWallet.sol\":3507:3517  signatures */\n      dup9\n        /* \"contract/46_MultisigWallet.sol\":3519:3520  i */\n      dup3\n        /* \"contract/46_MultisigWallet.sol\":3492:3506  signatureSplit */\n      tag_87\n        /* \"contract/46_MultisigWallet.sol\":3492:3521  signatureSplit(signatures, i) */\n      jump\t// in\n    tag_86:\n        /* \"contract/46_MultisigWallet.sol\":3480:3521  (v, r, s) = signatureSplit(signatures, i) */\n      dup1\n      swap5\n      pop\n      dup2\n      swap6\n      pop\n      dup3\n      swap7\n      pop\n      pop\n      pop\n      pop\n        /* \"contract/46_MultisigWallet.sol\":3621:3840  ecrecover(... */\n      0x01\n        /* \"contract/46_MultisigWallet.sol\":3734:3742  dataHash */\n      dup10\n        /* \"contract/46_MultisigWallet.sol\":3681:3743  abi.encodePacked(\"\\x19Ethereum Signed Message:\\n32\", dataHash) */\n      add(0x20, mload(0x40))\n      tag_88\n      swap2\n      swap1\n      tag_89\n      jump\t// in\n    tag_88:\n      mload(0x40)\n      0x20\n      dup2\n      dup4\n      sub\n      sub\n      dup2\n      mstore\n      swap1\n      0x40\n      mstore\n        /* \"contract/46_MultisigWallet.sol\":3649:3762  keccak256(... */\n      dup1\n      mload\n      swap1\n      0x20\n      add\n      keccak256\n        /* \"contract/46_MultisigWallet.sol\":3782:3783  v */\n      dup6\n        /* \"contract/46_MultisigWallet.sol\":3803:3804  r */\n      dup6\n        /* \"contract/46_MultisigWallet.sol\":3824:3825  s */\n      dup6\n        /* \"contract/46_MultisigWallet.sol\":3621:3840  ecrecover(... */\n      mload(0x40)\n      0x00\n      dup2\n      mstore\n      0x20\n      add\n      0x40\n      mstore\n      mload(0x40)\n      tag_90\n      swap5\n      swap4\n      swap3\n      swap2\n      swap1\n      tag_91\n      jump\t// in\n    tag_90:\n      0x20\n      mload(0x40)\n      0x20\n      dup2\n      sub\n      swap1\n      dup1\n      dup5\n      sub\n      swap1\n      dup6\n      gas\n      staticcall\n      iszero\n      dup1\n      iszero\n      tag_93\n      jumpi\n      returndatacopy(0x00, 0x00, returndatasize)\n      revert(0x00, returndatasize)\n    tag_93:\n      pop\n      pop\n      pop\n      mload(sub(mload(0x40), 0x20))\n        /* \"contract/46_MultisigWallet.sol\":3606:3840  currentOwner = ecrecover(... */\n      swap5\n      pop\n        /* \"contract/46_MultisigWallet.sol\":3880:3889  lastOwner */\n      dup6\n        /* \"contract/46_MultisigWallet.sol\":3865:3889  currentOwner > lastOwner */\n      0xffffffffffffffffffffffffffffffffffffffff\n      and\n        /* \"contract/46_MultisigWallet.sol\":3865:3877  currentOwner */\n      dup6\n        /* \"contract/46_MultisigWallet.sol\":3865:3889  currentOwner > lastOwner */\n      0xffffffffffffffffffffffffffffffffffffffff\n      and\n      gt\n        /* \"contract/46_MultisigWallet.sol\":3865:3914  currentOwner > lastOwner && isOwner[currentOwner] */\n      dup1\n      iszero\n      tag_94\n      jumpi\n      pop\n        /* \"contract/46_MultisigWallet.sol\":3893:3900  isOwner */\n      0x01\n        /* \"contract/46_MultisigWallet.sol\":3893:3914  isOwner[currentOwner] */\n      0x00\n        /* \"contract/46_MultisigWallet.sol\":3901:3913  currentOwner */\n      dup7\n        /* \"contract/46_MultisigWallet.sol\":3893:3914  isOwner[currentOwner] */\n      0xffffffffffffffffffffffffffffffffffffffff\n      and\n      0xffffffffffffffffffffffffffffffffffffffff\n      and\n      dup2\n      mstore\n      0x20\n      add\n      swap1\n      dup2\n      mstore\n      0x20\n      add\n      0x00\n      keccak256\n      0x00\n      swap1\n      sload\n      swap1\n      0x0100\n      exp\n      swap1\n      div\n      0xff\n      and\n        /* \"contract/46_MultisigWallet.sol\":3865:3914  currentOwner > lastOwner && isOwner[currentOwner] */\n    tag_94:\n        /* \"contract/46_MultisigWallet.sol\":3857:3919  require(currentOwner > lastOwner && isOwner[currentOwner], \"\") */\n      tag_95\n      jumpi\n      mload(0x40)\n      0x08c379a000000000000000000000000000000000000000000000000000000000\n      dup2\n      mstore\n      0x04\n      add\n      tag_96\n      swap1\n      tag_97\n      jump\t// in\n    tag_96:\n      mload(0x40)\n      dup1\n      swap2\n      sub\n      swap1\n      revert\n    tag_95:\n        /* \"contract/46_MultisigWallet.sol\":3946:3958  currentOwner */\n      dup5\n        /* \"contract/46_MultisigWallet.sol\":3934:3958  lastOwner = currentOwner */\n      swap6\n      pop\n        /* \"contract/46_MultisigWallet.sol\":3460:3463  i++ */\n      dup1\n      dup1\n      0x01\n      add\n      swap2\n      pop\n      pop\n        /* \"contract/46_MultisigWallet.sol\":3433:3970  for(i = 0; i < _threshold; i++) {... */\n      jump(tag_83)\n    tag_84:\n        /* \"contract/46_MultisigWallet.sol\":2838:3977  {... */\n      pop\n      pop\n      pop\n      pop\n      pop\n      pop\n      pop\n        /* \"contract/46_MultisigWallet.sol\":2733:3977  function checkSignatures(... */\n      pop\n      pop\n      jump\t// out\n        /* \"contract/46_MultisigWallet.sol\":4089:5131  function signatureSplit(bytes memory signatures, uint256 pos) ... */\n    tag_87:\n        /* \"contract/46_MultisigWallet.sol\":4183:4190  uint8 v */\n      0x00\n        /* \"contract/46_MultisigWallet.sol\":4192:4201  bytes32 r */\n      0x00\n        /* \"contract/46_MultisigWallet.sol\":4203:4212  bytes32 s */\n      0x00\n        /* \"contract/46_MultisigWallet.sol\":4460:4463  pos */\n      dup4\n        /* \"contract/46_MultisigWallet.sol\":4454:4458  0x41 */\n      0x41\n        /* \"contract/46_MultisigWallet.sol\":4450:4464  mul(0x41, pos) */\n      mul\n        /* \"contract/46_MultisigWallet.sol\":4963:4967  0x20 */\n      0x20\n        /* \"contract/46_MultisigWallet.sol\":4949:4961  signaturePos */\n      dup2\n        /* \"contract/46_MultisigWallet.sol\":4945:4968  add(signaturePos, 0x20) */\n      add\n        /* \"contract/46_MultisigWallet.sol\":4933:4943  signatures */\n      dup7\n        /* \"contract/46_MultisigWallet.sol\":4929:4969  add(signatures, add(signaturePos, 0x20)) */\n      add\n        /* \"contract/46_MultisigWallet.sol\":4923:4970  mload(add(signatures, add(signaturePos, 0x20))) */\n      mload\n        /* \"contract/46_MultisigWallet.sol\":4918:4970  r := mload(add(signatures, add(signaturePos, 0x20))) */\n      swap3\n      pop\n        /* \"contract/46_MultisigWallet.sol\":5029:5033  0x40 */\n      0x40\n        /* \"contract/46_MultisigWallet.sol\":5015:5027  signaturePos */\n      dup2\n        /* \"contract/46_MultisigWallet.sol\":5011:5034  add(signaturePos, 0x40) */\n      add\n        /* \"contract/46_MultisigWallet.sol\":4999:5009  signatures */\n      dup7\n        /* \"contract/46_MultisigWallet.sol\":4995:5035  add(signatures, add(signaturePos, 0x40)) */\n      add\n        /* \"contract/46_MultisigWallet.sol\":4989:5036  mload(add(signatures, add(signaturePos, 0x40))) */\n      mload\n        /* \"contract/46_MultisigWallet.sol\":4984:5036  s := mload(add(signatures, add(signaturePos, 0x40))) */\n      swap2\n      pop\n        /* \"contract/46_MultisigWallet.sol\":5108:5112  0xff */\n      0xff\n        /* \"contract/46_MultisigWallet.sol\":5099:5103  0x41 */\n      0x41\n        /* \"contract/46_MultisigWallet.sol\":5085:5097  signaturePos */\n      dup3\n        /* \"contract/46_MultisigWallet.sol\":5081:5104  add(signaturePos, 0x41) */\n      add\n        /* \"contract/46_MultisigWallet.sol\":5069:5079  signatures */\n      dup8\n        /* \"contract/46_MultisigWallet.sol\":5065:5105  add(signatures, add(signaturePos, 0x41)) */\n      add\n        /* \"contract/46_MultisigWallet.sol\":5059:5106  mload(add(signatures, add(signaturePos, 0x41))) */\n      mload\n        /* \"contract/46_MultisigWallet.sol\":5055:5113  and(mload(add(signatures, add(signaturePos, 0x41))), 0xff) */\n      and\n        /* \"contract/46_MultisigWallet.sol\":5050:5113  v := and(mload(add(signatures, add(signaturePos, 0x41))), 0xff) */\n      swap4\n      pop\n        /* \"contract/46_MultisigWallet.sol\":4244:5124  {... */\n      pop\n        /* \"contract/46_MultisigWallet.sol\":4089:5131  function signatureSplit(bytes memory signatures, uint256 pos) ... */\n      swap3\n      pop\n      swap3\n      pop\n      swap3\n      jump\t// out\n        /* \"#utility.yul\":7:82   */\n    tag_99:\n        /* \"#utility.yul\":40:46   */\n      0x00\n        /* \"#utility.yul\":73:75   */\n      0x40\n        /* \"#utility.yul\":67:76   */\n      mload\n        /* \"#utility.yul\":57:76   */\n      swap1\n      pop\n        /* \"#utility.yul\":7:82   */\n      swap1\n      jump\t// out\n        /* \"#utility.yul\":88:205   */\n    tag_100:\n        /* \"#utility.yul\":197:198   */\n      0x00\n        /* \"#utility.yul\":194:195   */\n      0x00\n        /* \"#utility.yul\":187:199   */\n      revert\n        /* \"#utility.yul\":211:328   */\n    tag_101:\n        /* \"#utility.yul\":320:321   */\n      0x00\n        /* \"#utility.yul\":317:318   */\n      0x00\n        /* \"#utility.yul\":310:322   */\n      revert\n        /* \"#utility.yul\":334:411   */\n    tag_102:\n        /* \"#utility.yul\":371:378   */\n      0x00\n        /* \"#utility.yul\":400:405   */\n      dup2\n        /* \"#utility.yul\":389:405   */\n      swap1\n      pop\n        /* \"#utility.yul\":334:411   */\n      swap2\n      swap1\n      pop\n      jump\t// out\n        /* \"#utility.yul\":417:539   */\n    tag_103:\n        /* \"#utility.yul\":490:514   */\n      tag_150\n        /* \"#utility.yul\":508:513   */\n      dup2\n        /* \"#utility.yul\":490:514   */\n      tag_102\n      jump\t// in\n    tag_150:\n        /* \"#utility.yul\":483:488   */\n      dup2\n        /* \"#utility.yul\":480:515   */\n      eq\n        /* \"#utility.yul\":470:533   */\n      tag_151\n      jumpi\n        /* \"#utility.yul\":529:530   */\n      0x00\n        /* \"#utility.yul\":526:527   */\n      0x00\n        /* \"#utility.yul\":519:531   */\n      revert\n        /* \"#utility.yul\":470:533   */\n    tag_151:\n        /* \"#utility.yul\":417:539   */\n      pop\n      jump\t// out\n        /* \"#utility.yul\":545:684   */\n    tag_104:\n        /* \"#utility.yul\":591:596   */\n      0x00\n        /* \"#utility.yul\":629:635   */\n      dup2\n        /* \"#utility.yul\":616:636   */\n      calldataload\n        /* \"#utility.yul\":607:636   */\n      swap1\n      pop\n        /* \"#utility.yul\":645:678   */\n      tag_153\n        /* \"#utility.yul\":672:677   */\n      dup2\n        /* \"#utility.yul\":645:678   */\n      tag_103\n      jump\t// in\n    tag_153:\n        /* \"#utility.yul\":545:684   */\n      swap3\n      swap2\n      pop\n      pop\n      jump\t// out\n        /* \"#utility.yul\":690:1019   */\n    tag_17:\n        /* \"#utility.yul\":749:755   */\n      0x00\n        /* \"#utility.yul\":798:800   */\n      0x20\n        /* \"#utility.yul\":786:795   */\n      dup3\n        /* \"#utility.yul\":777:784   */\n      dup5\n        /* \"#utility.yul\":773:796   */\n      sub\n        /* \"#utility.yul\":769:801   */\n      slt\n        /* \"#utility.yul\":766:885   */\n      iszero\n      tag_155\n      jumpi\n        /* \"#utility.yul\":804:883   */\n      tag_156\n      tag_100\n      jump\t// in\n    tag_156:\n        /* \"#utility.yul\":766:885   */\n    tag_155:\n        /* \"#utility.yul\":924:925   */\n      0x00\n        /* \"#utility.yul\":949:1002   */\n      tag_157\n        /* \"#utility.yul\":994:1001   */\n      dup5\n        /* \"#utility.yul\":985:991   */\n      dup3\n        /* \"#utility.yul\":974:983   */\n      dup6\n        /* \"#utility.yul\":970:992   */\n      add\n        /* \"#utility.yul\":949:1002   */\n      tag_104\n      jump\t// in\n    tag_157:\n        /* \"#utility.yul\":939:1002   */\n      swap2\n      pop\n        /* \"#utility.yul\":895:1012   */\n      pop\n        /* \"#utility.yul\":690:1019   */\n      swap3\n      swap2\n      pop\n      pop\n      jump\t// out\n        /* \"#utility.yul\":1025:1151   */\n    tag_105:\n        /* \"#utility.yul\":1062:1069   */\n      0x00\n        /* \"#utility.yul\":1102:1144   */\n      0xffffffffffffffffffffffffffffffffffffffff\n        /* \"#utility.yul\":1095:1100   */\n      dup3\n        /* \"#utility.yul\":1091:1145   */\n      and\n        /* \"#utility.yul\":1080:1145   */\n      swap1\n      pop\n        /* \"#utility.yul\":1025:1151   */\n      swap2\n      swap1\n      pop\n      jump\t// out\n        /* \"#utility.yul\":1157:1253   */\n    tag_106:\n        /* \"#utility.yul\":1194:1201   */\n      0x00\n        /* \"#utility.yul\":1223:1247   */\n      tag_160\n        /* \"#utility.yul\":1241:1246   */\n      dup3\n        /* \"#utility.yul\":1223:1247   */\n      tag_105\n      jump\t// in\n    tag_160:\n        /* \"#utility.yul\":1212:1247   */\n      swap1\n      pop\n        /* \"#utility.yul\":1157:1253   */\n      swap2\n      swap1\n      pop\n      jump\t// out\n        /* \"#utility.yul\":1259:1377   */\n    tag_107:\n        /* \"#utility.yul\":1346:1370   */\n      tag_162\n        /* \"#utility.yul\":1364:1369   */\n      dup2\n        /* \"#utility.yul\":1346:1370   */\n      tag_106\n      jump\t// in\n    tag_162:\n        /* \"#utility.yul\":1341:1344   */\n      dup3\n        /* \"#utility.yul\":1334:1371   */\n      mstore\n        /* \"#utility.yul\":1259:1377   */\n      pop\n      pop\n      jump\t// out\n        /* \"#utility.yul\":1383:1605   */\n    tag_20:\n        /* \"#utility.yul\":1476:1480   */\n      0x00\n        /* \"#utility.yul\":1514:1516   */\n      0x20\n        /* \"#utility.yul\":1503:1512   */\n      dup3\n        /* \"#utility.yul\":1499:1517   */\n      add\n        /* \"#utility.yul\":1491:1517   */\n      swap1\n      pop\n        /* \"#utility.yul\":1527:1598   */\n      tag_164\n        /* \"#utility.yul\":1595:1596   */\n      0x00\n        /* \"#utility.yul\":1584:1593   */\n      dup4\n        /* \"#utility.yul\":1580:1597   */\n      add\n        /* \"#utility.yul\":1571:1577   */\n      dup5\n        /* \"#utility.yul\":1527:1598   */\n      tag_107\n      jump\t// in\n    tag_164:\n        /* \"#utility.yul\":1383:1605   */\n      swap3\n      swap2\n      pop\n      pop\n      jump\t// out\n        /* \"#utility.yul\":1611:1729   */\n    tag_108:\n        /* \"#utility.yul\":1698:1722   */\n      tag_166\n        /* \"#utility.yul\":1716:1721   */\n      dup2\n        /* \"#utility.yul\":1698:1722   */\n      tag_102\n      jump\t// in\n    tag_166:\n        /* \"#utility.yul\":1693:1696   */\n      dup3\n        /* \"#utility.yul\":1686:1723   */\n      mstore\n        /* \"#utility.yul\":1611:1729   */\n      pop\n      pop\n      jump\t// out\n        /* \"#utility.yul\":1735:1957   */\n    tag_25:\n        /* \"#utility.yul\":1828:1832   */\n      0x00\n        /* \"#utility.yul\":1866:1868   */\n      0x20\n        /* \"#utility.yul\":1855:1864   */\n      dup3\n        /* \"#utility.yul\":1851:1869   */\n      add\n        /* \"#utility.yul\":1843:1869   */\n      swap1\n      pop\n        /* \"#utility.yul\":1879:1950   */\n      tag_168\n        /* \"#utility.yul\":1947:1948   */\n      0x00\n        /* \"#utility.yul\":1936:1945   */\n      dup4\n        /* \"#utility.yul\":1932:1949   */\n      add\n        /* \"#utility.yul\":1923:1929   */\n      dup5\n        /* \"#utility.yul\":1879:1950   */\n      tag_108\n      jump\t// in\n    tag_168:\n        /* \"#utility.yul\":1735:1957   */\n      swap3\n      swap2\n      pop\n      pop\n      jump\t// out\n        /* \"#utility.yul\":1963:2085   */\n    tag_109:\n        /* \"#utility.yul\":2036:2060   */\n      tag_170\n        /* \"#utility.yul\":2054:2059   */\n      dup2\n        /* \"#utility.yul\":2036:2060   */\n      tag_106\n      jump\t// in\n    tag_170:\n        /* \"#utility.yul\":2029:2034   */\n      dup2\n        /* \"#utility.yul\":2026:2061   */\n      eq\n        /* \"#utility.yul\":2016:2079   */\n      tag_171\n      jumpi\n        /* \"#utility.yul\":2075:2076   */\n      0x00\n        /* \"#utility.yul\":2072:2073   */\n      0x00\n        /* \"#utility.yul\":2065:2077   */\n      revert\n        /* \"#utility.yul\":2016:2079   */\n    tag_171:\n        /* \"#utility.yul\":1963:2085   */\n      pop\n      jump\t// out\n        /* \"#utility.yul\":2091:2230   */\n    tag_110:\n        /* \"#utility.yul\":2137:2142   */\n      0x00\n        /* \"#utility.yul\":2175:2181   */\n      dup2\n        /* \"#utility.yul\":2162:2182   */\n      calldataload\n        /* \"#utility.yul\":2153:2182   */\n      swap1\n      pop\n        /* \"#utility.yul\":2191:2224   */\n      tag_173\n        /* \"#utility.yul\":2218:2223   */\n      dup2\n        /* \"#utility.yul\":2191:2224   */\n      tag_109\n      jump\t// in\n    tag_173:\n        /* \"#utility.yul\":2091:2230   */\n      swap3\n      swap2\n      pop\n      pop\n      jump\t// out\n        /* \"#utility.yul\":2236:2565   */\n    tag_29:\n        /* \"#utility.yul\":2295:2301   */\n      0x00\n        /* \"#utility.yul\":2344:2346   */\n      0x20\n        /* \"#utility.yul\":2332:2341   */\n      dup3\n        /* \"#utility.yul\":2323:2330   */\n      dup5\n        /* \"#utility.yul\":2319:2342   */\n      sub\n        /* \"#utility.yul\":2315:2347   */\n      slt\n        /* \"#utility.yul\":2312:2431   */\n      iszero\n      tag_175\n      jumpi\n        /* \"#utility.yul\":2350:2429   */\n      tag_176\n      tag_100\n      jump\t// in\n    tag_176:\n        /* \"#utility.yul\":2312:2431   */\n    tag_175:\n        /* \"#utility.yul\":2470:2471   */\n      0x00\n        /* \"#utility.yul\":2495:2548   */\n      tag_177\n        /* \"#utility.yul\":2540:2547   */\n      dup5\n        /* \"#utility.yul\":2531:2537   */\n      dup3\n        /* \"#utility.yul\":2520:2529   */\n      dup6\n        /* \"#utility.yul\":2516:2538   */\n      add\n        /* \"#utility.yul\":2495:2548   */\n      tag_110\n      jump\t// in\n    tag_177:\n        /* \"#utility.yul\":2485:2548   */\n      swap2\n      pop\n        /* \"#utility.yul\":2441:2558   */\n      pop\n        /* \"#utility.yul\":2236:2565   */\n      swap3\n      swap2\n      pop\n      pop\n      jump\t// out\n        /* \"#utility.yul\":2571:2661   */\n    tag_111:\n        /* \"#utility.yul\":2605:2612   */\n      0x00\n        /* \"#utility.yul\":2648:2653   */\n      dup2\n        /* \"#utility.yul\":2641:2654   */\n      iszero\n        /* \"#utility.yul\":2634:2655   */\n      iszero\n        /* \"#utility.yul\":2623:2655   */\n      swap1\n      pop\n        /* \"#utility.yul\":2571:2661   */\n      swap2\n      swap1\n      pop\n      jump\t// out\n        /* \"#utility.yul\":2667:2776   */\n    tag_112:\n        /* \"#utility.yul\":2748:2769   */\n      tag_180\n        /* \"#utility.yul\":2763:2768   */\n      dup2\n        /* \"#utility.yul\":2748:2769   */\n      tag_111\n      jump\t// in\n    tag_180:\n        /* \"#utility.yul\":2743:2746   */\n      dup3\n        /* \"#utility.yul\":2736:2770   */\n      mstore\n        /* \"#utility.yul\":2667:2776   */\n      pop\n      pop\n      jump\t// out\n        /* \"#utility.yul\":2782:2992   */\n    tag_32:\n        /* \"#utility.yul\":2869:2873   */\n      0x00\n        /* \"#utility.yul\":2907:2909   */\n      0x20\n        /* \"#utility.yul\":2896:2905   */\n      dup3\n        /* \"#utility.yul\":2892:2910   */\n      add\n        /* \"#utility.yul\":2884:2910   */\n      swap1\n      pop\n        /* \"#utility.yul\":2920:2985   */\n      tag_182\n        /* \"#utility.yul\":2982:2983   */\n      0x00\n        /* \"#utility.yul\":2971:2980   */\n      dup4\n        /* \"#utility.yul\":2967:2984   */\n      add\n        /* \"#utility.yul\":2958:2964   */\n      dup5\n        /* \"#utility.yul\":2920:2985   */\n      tag_112\n      jump\t// in\n    tag_182:\n        /* \"#utility.yul\":2782:2992   */\n      swap3\n      swap2\n      pop\n      pop\n      jump\t// out\n        /* \"#utility.yul\":2998:3115   */\n    tag_113:\n        /* \"#utility.yul\":3107:3108   */\n      0x00\n        /* \"#utility.yul\":3104:3105   */\n      0x00\n        /* \"#utility.yul\":3097:3109   */\n      revert\n        /* \"#utility.yul\":3121:3238   */\n    tag_114:\n        /* \"#utility.yul\":3230:3231   */\n      0x00\n        /* \"#utility.yul\":3227:3228   */\n      0x00\n        /* \"#utility.yul\":3220:3232   */\n      revert\n        /* \"#utility.yul\":3244:3346   */\n    tag_115:\n        /* \"#utility.yul\":3285:3291   */\n      0x00\n        /* \"#utility.yul\":3336:3338   */\n      0x1f\n        /* \"#utility.yul\":3332:3339   */\n      not\n        /* \"#utility.yul\":3327:3329   */\n      0x1f\n        /* \"#utility.yul\":3320:3325   */\n      dup4\n        /* \"#utility.yul\":3316:3330   */\n      add\n        /* \"#utility.yul\":3312:3340   */\n      and\n        /* \"#utility.yul\":3302:3340   */\n      swap1\n      pop\n        /* \"#utility.yul\":3244:3346   */\n      swap2\n      swap1\n      pop\n      jump\t// out\n        /* \"#utility.yul\":3352:3532   */\n    tag_116:\n        /* \"#utility.yul\":3400:3477   */\n      0x4e487b7100000000000000000000000000000000000000000000000000000000\n        /* \"#utility.yul\":3397:3398   */\n      0x00\n        /* \"#utility.yul\":3390:3478   */\n      mstore\n        /* \"#utility.yul\":3497:3501   */\n      0x41\n        /* \"#utility.yul\":3494:3495   */\n      0x04\n        /* \"#utility.yul\":3487:3502   */\n      mstore\n        /* \"#utility.yul\":3521:3525   */\n      0x24\n        /* \"#utility.yul\":3518:3519   */\n      0x00\n        /* \"#utility.yul\":3511:3526   */\n      revert\n        /* \"#utility.yul\":3538:3819   */\n    tag_117:\n        /* \"#utility.yul\":3621:3648   */\n      tag_188\n        /* \"#utility.yul\":3643:3647   */\n      dup3\n        /* \"#utility.yul\":3621:3648   */\n      tag_115\n      jump\t// in\n    tag_188:\n        /* \"#utility.yul\":3613:3619   */\n      dup2\n        /* \"#utility.yul\":3609:3649   */\n      add\n        /* \"#utility.yul\":3751:3757   */\n      dup2\n        /* \"#utility.yul\":3739:3749   */\n      dup2\n        /* \"#utility.yul\":3736:3758   */\n      lt\n        /* \"#utility.yul\":3715:3733   */\n      0xffffffffffffffff\n        /* \"#utility.yul\":3703:3713   */\n      dup3\n        /* \"#utility.yul\":3700:3734   */\n      gt\n        /* \"#utility.yul\":3697:3759   */\n      or\n        /* \"#utility.yul\":3694:3782   */\n      iszero\n      tag_189\n      jumpi\n        /* \"#utility.yul\":3762:3780   */\n      tag_190\n      tag_116\n      jump\t// in\n    tag_190:\n        /* \"#utility.yul\":3694:3782   */\n    tag_189:\n        /* \"#utility.yul\":3802:3812   */\n      dup1\n        /* \"#utility.yul\":3798:3800   */\n      0x40\n        /* \"#utility.yul\":3791:3813   */\n      mstore\n        /* \"#utility.yul\":3581:3819   */\n      pop\n        /* \"#utility.yul\":3538:3819   */\n      pop\n      pop\n      jump\t// out\n        /* \"#utility.yul\":3825:3954   */\n    tag_118:\n        /* \"#utility.yul\":3859:3865   */\n      0x00\n        /* \"#utility.yul\":3886:3906   */\n      tag_192\n      tag_99\n      jump\t// in\n    tag_192:\n        /* \"#utility.yul\":3876:3906   */\n      swap1\n      pop\n        /* \"#utility.yul\":3915:3948   */\n      tag_193\n        /* \"#utility.yul\":3943:3947   */\n      dup3\n        /* \"#utility.yul\":3935:3941   */\n      dup3\n        /* \"#utility.yul\":3915:3948   */\n      tag_117\n      jump\t// in\n    tag_193:\n        /* \"#utility.yul\":3825:3954   */\n      swap2\n      swap1\n      pop\n      jump\t// out\n        /* \"#utility.yul\":3960:4267   */\n    tag_119:\n        /* \"#utility.yul\":4021:4025   */\n      0x00\n        /* \"#utility.yul\":4111:4129   */\n      0xffffffffffffffff\n        /* \"#utility.yul\":4103:4109   */\n      dup3\n        /* \"#utility.yul\":4100:4130   */\n      gt\n        /* \"#utility.yul\":4097:4153   */\n      iszero\n      tag_195\n      jumpi\n        /* \"#utility.yul\":4133:4151   */\n      tag_196\n      tag_116\n      jump\t// in\n    tag_196:\n        /* \"#utility.yul\":4097:4153   */\n    tag_195:\n        /* \"#utility.yul\":4171:4200   */\n      tag_197\n        /* \"#utility.yul\":4193:4199   */\n      dup3\n        /* \"#utility.yul\":4171:4200   */\n      tag_115\n      jump\t// in\n    tag_197:\n        /* \"#utility.yul\":4163:4200   */\n      swap1\n      pop\n        /* \"#utility.yul\":4255:4259   */\n      0x20\n        /* \"#utility.yul\":4249:4253   */\n      dup2\n        /* \"#utility.yul\":4245:4260   */\n      add\n        /* \"#utility.yul\":4237:4260   */\n      swap1\n      pop\n        /* \"#utility.yul\":3960:4267   */\n      swap2\n      swap1\n      pop\n      jump\t// out\n        /* \"#utility.yul\":4273:4421   */\n    tag_120:\n        /* \"#utility.yul\":4371:4377   */\n      dup3\n        /* \"#utility.yul\":4366:4369   */\n      dup2\n        /* \"#utility.yul\":4361:4364   */\n      dup4\n        /* \"#utility.yul\":4348:4378   */\n      calldatacopy\n        /* \"#utility.yul\":4412:4413   */\n      0x00\n        /* \"#utility.yul\":4403:4409   */\n      dup4\n        /* \"#utility.yul\":4398:4401   */\n      dup4\n        /* \"#utility.yul\":4394:4410   */\n      add\n        /* \"#utility.yul\":4387:4414   */\n      mstore\n        /* \"#utility.yul\":4273:4421   */\n      pop\n      pop\n      pop\n      jump\t// out\n        /* \"#utility.yul\":4427:4850   */\n    tag_121:\n        /* \"#utility.yul\":4504:4509   */\n      0x00\n        /* \"#utility.yul\":4529:4594   */\n      tag_200\n        /* \"#utility.yul\":4545:4593   */\n      tag_201\n        /* \"#utility.yul\":4586:4592   */\n      dup5\n        /* \"#utility.yul\":4545:4593   */\n      tag_119\n      jump\t// in\n    tag_201:\n        /* \"#utility.yul\":4529:4594   */\n      tag_118\n      jump\t// in\n    tag_200:\n        /* \"#utility.yul\":4520:4594   */\n      swap1\n      pop\n        /* \"#utility.yul\":4617:4623   */\n      dup3\n        /* \"#utility.yul\":4610:4615   */\n      dup2\n        /* \"#utility.yul\":4603:4624   */\n      mstore\n        /* \"#utility.yul\":4655:4659   */\n      0x20\n        /* \"#utility.yul\":4648:4653   */\n      dup2\n        /* \"#utility.yul\":4644:4660   */\n      add\n        /* \"#utility.yul\":4693:4696   */\n      dup5\n        /* \"#utility.yul\":4684:4690   */\n      dup5\n        /* \"#utility.yul\":4679:4682   */\n      dup5\n        /* \"#utility.yul\":4675:4691   */\n      add\n        /* \"#utility.yul\":4672:4697   */\n      gt\n        /* \"#utility.yul\":4669:4781   */\n      iszero\n      tag_202\n      jumpi\n        /* \"#utility.yul\":4700:4779   */\n      tag_203\n      tag_114\n      jump\t// in\n    tag_203:\n        /* \"#utility.yul\":4669:4781   */\n    tag_202:\n        /* \"#utility.yul\":4790:4844   */\n      tag_204\n        /* \"#utility.yul\":4837:4843   */\n      dup5\n        /* \"#utility.yul\":4832:4835   */\n      dup3\n        /* \"#utility.yul\":4827:4830   */\n      dup6\n        /* \"#utility.yul\":4790:4844   */\n      tag_120\n      jump\t// in\n    tag_204:\n        /* \"#utility.yul\":4510:4850   */\n      pop\n        /* \"#utility.yul\":4427:4850   */\n      swap4\n      swap3\n      pop\n      pop\n      pop\n      jump\t// out\n        /* \"#utility.yul\":4869:5207   */\n    tag_122:\n        /* \"#utility.yul\":4924:4929   */\n      0x00\n        /* \"#utility.yul\":4973:4976   */\n      dup3\n        /* \"#utility.yul\":4966:4970   */\n      0x1f\n        /* \"#utility.yul\":4958:4964   */\n      dup4\n        /* \"#utility.yul\":4954:4971   */\n      add\n        /* \"#utility.yul\":4950:4977   */\n      slt\n        /* \"#utility.yul\":4940:5062   */\n      tag_206\n      jumpi\n        /* \"#utility.yul\":4981:5060   */\n      tag_207\n      tag_113\n      jump\t// in\n    tag_207:\n        /* \"#utility.yul\":4940:5062   */\n    tag_206:\n        /* \"#utility.yul\":5098:5104   */\n      dup2\n        /* \"#utility.yul\":5085:5105   */\n      calldataload\n        /* \"#utility.yul\":5123:5201   */\n      tag_208\n        /* \"#utility.yul\":5197:5200   */\n      dup5\n        /* \"#utility.yul\":5189:5195   */\n      dup3\n        /* \"#utility.yul\":5182:5186   */\n      0x20\n        /* \"#utility.yul\":5174:5180   */\n      dup7\n        /* \"#utility.yul\":5170:5187   */\n      add\n        /* \"#utility.yul\":5123:5201   */\n      tag_121\n      jump\t// in\n    tag_208:\n        /* \"#utility.yul\":5114:5201   */\n      swap2\n      pop\n        /* \"#utility.yul\":4930:5207   */\n      pop\n        /* \"#utility.yul\":4869:5207   */\n      swap3\n      swap2\n      pop\n      pop\n      jump\t// out\n        /* \"#utility.yul\":5213:6302   */\n    tag_40:\n        /* \"#utility.yul\":5317:5323   */\n      0x00\n        /* \"#utility.yul\":5325:5331   */\n      0x00\n        /* \"#utility.yul\":5333:5339   */\n      0x00\n        /* \"#utility.yul\":5341:5347   */\n      0x00\n        /* \"#utility.yul\":5349:5355   */\n      0x00\n        /* \"#utility.yul\":5398:5401   */\n      0xa0\n        /* \"#utility.yul\":5386:5395   */\n      dup7\n        /* \"#utility.yul\":5377:5384   */\n      dup9\n        /* \"#utility.yul\":5373:5396   */\n      sub\n        /* \"#utility.yul\":5369:5402   */\n      slt\n        /* \"#utility.yul\":5366:5486   */\n      iszero\n      tag_210\n      jumpi\n        /* \"#utility.yul\":5405:5484   */\n      tag_211\n      tag_100\n      jump\t// in\n    tag_211:\n        /* \"#utility.yul\":5366:5486   */\n    tag_210:\n        /* \"#utility.yul\":5525:5526   */\n      0x00\n        /* \"#utility.yul\":5550:5603   */\n      tag_212\n        /* \"#utility.yul\":5595:5602   */\n      dup9\n        /* \"#utility.yul\":5586:5592   */\n      dup3\n        /* \"#utility.yul\":5575:5584   */\n      dup10\n        /* \"#utility.yul\":5571:5593   */\n      add\n        /* \"#utility.yul\":5550:5603   */\n      tag_110\n      jump\t// in\n    tag_212:\n        /* \"#utility.yul\":5540:5603   */\n      swap6\n      pop\n        /* \"#utility.yul\":5496:5613   */\n      pop\n        /* \"#utility.yul\":5652:5654   */\n      0x20\n        /* \"#utility.yul\":5678:5731   */\n      tag_213\n        /* \"#utility.yul\":5723:5730   */\n      dup9\n        /* \"#utility.yul\":5714:5720   */\n      dup3\n        /* \"#utility.yul\":5703:5712   */\n      dup10\n        /* \"#utility.yul\":5699:5721   */\n      add\n        /* \"#utility.yul\":5678:5731   */\n      tag_104\n      jump\t// in\n    tag_213:\n        /* \"#utility.yul\":5668:5731   */\n      swap5\n      pop\n        /* \"#utility.yul\":5623:5741   */\n      pop\n        /* \"#utility.yul\":5808:5810   */\n      0x40\n        /* \"#utility.yul\":5797:5806   */\n      dup7\n        /* \"#utility.yul\":5793:5811   */\n      add\n        /* \"#utility.yul\":5780:5812   */\n      calldataload\n        /* \"#utility.yul\":5839:5857   */\n      0xffffffffffffffff\n        /* \"#utility.yul\":5831:5837   */\n      dup2\n        /* \"#utility.yul\":5828:5858   */\n      gt\n        /* \"#utility.yul\":5825:5942   */\n      iszero\n      tag_214\n      jumpi\n        /* \"#utility.yul\":5861:5940   */\n      tag_215\n      tag_101\n      jump\t// in\n    tag_215:\n        /* \"#utility.yul\":5825:5942   */\n    tag_214:\n        /* \"#utility.yul\":5966:6028   */\n      tag_216\n        /* \"#utility.yul\":6020:6027   */\n      dup9\n        /* \"#utility.yul\":6011:6017   */\n      dup3\n        /* \"#utility.yul\":6000:6009   */\n      dup10\n        /* \"#utility.yul\":5996:6018   */\n      add\n        /* \"#utility.yul\":5966:6028   */\n      tag_122\n      jump\t// in\n    tag_216:\n        /* \"#utility.yul\":5956:6028   */\n      swap4\n      pop\n        /* \"#utility.yul\":5751:6038   */\n      pop\n        /* \"#utility.yul\":6077:6079   */\n      0x60\n        /* \"#utility.yul\":6103:6156   */\n      tag_217\n        /* \"#utility.yul\":6148:6155   */\n      dup9\n        /* \"#utility.yul\":6139:6145   */\n      dup3\n        /* \"#utility.yul\":6128:6137   */\n      dup10\n        /* \"#utility.yul\":6124:6146   */\n      add\n        /* \"#utility.yul\":6103:6156   */\n      tag_104\n      jump\t// in\n    tag_217:\n        /* \"#utility.yul\":6093:6156   */\n      swap3\n      pop\n        /* \"#utility.yul\":6048:6166   */\n      pop\n        /* \"#utility.yul\":6205:6208   */\n      0x80\n        /* \"#utility.yul\":6232:6285   */\n      tag_218\n        /* \"#utility.yul\":6277:6284   */\n      dup9\n        /* \"#utility.yul\":6268:6274   */\n      dup3\n        /* \"#utility.yul\":6257:6266   */\n      dup10\n        /* \"#utility.yul\":6253:6275   */\n      add\n        /* \"#utility.yul\":6232:6285   */\n      tag_104\n      jump\t// in\n    tag_218:\n        /* \"#utility.yul\":6222:6285   */\n      swap2\n      pop\n        /* \"#utility.yul\":6176:6295   */\n      pop\n        /* \"#utility.yul\":5213:6302   */\n      swap3\n      swap6\n      pop\n      swap3\n      swap6\n      swap1\n      swap4\n      pop\n      jump\t// out\n        /* \"#utility.yul\":6308:6385   */\n    tag_123:\n        /* \"#utility.yul\":6345:6352   */\n      0x00\n        /* \"#utility.yul\":6374:6379   */\n      dup2\n        /* \"#utility.yul\":6363:6379   */\n      swap1\n      pop\n        /* \"#utility.yul\":6308:6385   */\n      swap2\n      swap1\n      pop\n      jump\t// out\n        /* \"#utility.yul\":6391:6509   */\n    tag_124:\n        /* \"#utility.yul\":6478:6502   */\n      tag_221\n        /* \"#utility.yul\":6496:6501   */\n      dup2\n        /* \"#utility.yul\":6478:6502   */\n      tag_123\n      jump\t// in\n    tag_221:\n        /* \"#utility.yul\":6473:6476   */\n      dup3\n        /* \"#utility.yul\":6466:6503   */\n      mstore\n        /* \"#utility.yul\":6391:6509   */\n      pop\n      pop\n      jump\t// out\n        /* \"#utility.yul\":6515:6737   */\n    tag_43:\n        /* \"#utility.yul\":6608:6612   */\n      0x00\n        /* \"#utility.yul\":6646:6648   */\n      0x20\n        /* \"#utility.yul\":6635:6644   */\n      dup3\n        /* \"#utility.yul\":6631:6649   */\n      add\n        /* \"#utility.yul\":6623:6649   */\n      swap1\n      pop\n        /* \"#utility.yul\":6659:6730   */\n      tag_223\n        /* \"#utility.yul\":6727:6728   */\n      0x00\n        /* \"#utility.yul\":6716:6725   */\n      dup4\n        /* \"#utility.yul\":6712:6729   */\n      add\n        /* \"#utility.yul\":6703:6709   */\n      dup5\n        /* \"#utility.yul\":6659:6730   */\n      tag_124\n      jump\t// in\n    tag_223:\n        /* \"#utility.yul\":6515:6737   */\n      swap3\n      swap2\n      pop\n      pop\n      jump\t// out\n        /* \"#utility.yul\":6743:7864   */\n    tag_50:\n        /* \"#utility.yul\":6847:6853   */\n      0x00\n        /* \"#utility.yul\":6855:6861   */\n      0x00\n        /* \"#utility.yul\":6863:6869   */\n      0x00\n        /* \"#utility.yul\":6871:6877   */\n      0x00\n        /* \"#utility.yul\":6920:6923   */\n      0x80\n        /* \"#utility.yul\":6908:6917   */\n      dup6\n        /* \"#utility.yul\":6899:6906   */\n      dup8\n        /* \"#utility.yul\":6895:6918   */\n      sub\n        /* \"#utility.yul\":6891:6924   */\n      slt\n        /* \"#utility.yul\":6888:7008   */\n      iszero\n      tag_225\n      jumpi\n        /* \"#utility.yul\":6927:7006   */\n      tag_226\n      tag_100\n      jump\t// in\n    tag_226:\n        /* \"#utility.yul\":6888:7008   */\n    tag_225:\n        /* \"#utility.yul\":7047:7048   */\n      0x00\n        /* \"#utility.yul\":7072:7125   */\n      tag_227\n        /* \"#utility.yul\":7117:7124   */\n      dup8\n        /* \"#utility.yul\":7108:7114   */\n      dup3\n        /* \"#utility.yul\":7097:7106   */\n      dup9\n        /* \"#utility.yul\":7093:7115   */\n      add\n        /* \"#utility.yul\":7072:7125   */\n      tag_110\n      jump\t// in\n    tag_227:\n        /* \"#utility.yul\":7062:7125   */\n      swap5\n      pop\n        /* \"#utility.yul\":7018:7135   */\n      pop\n        /* \"#utility.yul\":7174:7176   */\n      0x20\n        /* \"#utility.yul\":7200:7253   */\n      tag_228\n        /* \"#utility.yul\":7245:7252   */\n      dup8\n        /* \"#utility.yul\":7236:7242   */\n      dup3\n        /* \"#utility.yul\":7225:7234   */\n      dup9\n        /* \"#utility.yul\":7221:7243   */\n      add\n        /* \"#utility.yul\":7200:7253   */\n      tag_104\n      jump\t// in\n    tag_228:\n        /* \"#utility.yul\":7190:7253   */\n      swap4\n      pop\n        /* \"#utility.yul\":7145:7263   */\n      pop\n        /* \"#utility.yul\":7330:7332   */\n      0x40\n        /* \"#utility.yul\":7319:7328   */\n      dup6\n        /* \"#utility.yul\":7315:7333   */\n      add\n        /* \"#utility.yul\":7302:7334   */\n      calldataload\n        /* \"#utility.yul\":7361:7379   */\n      0xffffffffffffffff\n        /* \"#utility.yul\":7353:7359   */\n      dup2\n        /* \"#utility.yul\":7350:7380   */\n      gt\n        /* \"#utility.yul\":7347:7464   */\n      iszero\n      tag_229\n      jumpi\n        /* \"#utility.yul\":7383:7462   */\n      tag_230\n      tag_101\n      jump\t// in\n    tag_230:\n        /* \"#utility.yul\":7347:7464   */\n    tag_229:\n        /* \"#utility.yul\":7488:7550   */\n      tag_231\n        /* \"#utility.yul\":7542:7549   */\n      dup8\n        /* \"#utility.yul\":7533:7539   */\n      dup3\n        /* \"#utility.yul\":7522:7531   */\n      dup9\n        /* \"#utility.yul\":7518:7540   */\n      add\n        /* \"#utility.yul\":7488:7550   */\n      tag_122\n      jump\t// in\n    tag_231:\n        /* \"#utility.yul\":7478:7550   */\n      swap3\n      pop\n        /* \"#utility.yul\":7273:7560   */\n      pop\n        /* \"#utility.yul\":7627:7629   */\n      0x60\n        /* \"#utility.yul\":7616:7625   */\n      dup6\n        /* \"#utility.yul\":7612:7630   */\n      add\n        /* \"#utility.yul\":7599:7631   */\n      calldataload\n        /* \"#utility.yul\":7658:7676   */\n      0xffffffffffffffff\n        /* \"#utility.yul\":7650:7656   */\n      dup2\n        /* \"#utility.yul\":7647:7677   */\n      gt\n        /* \"#utility.yul\":7644:7761   */\n      iszero\n      tag_232\n      jumpi\n        /* \"#utility.yul\":7680:7759   */\n      tag_233\n      tag_101\n      jump\t// in\n    tag_233:\n        /* \"#utility.yul\":7644:7761   */\n    tag_232:\n        /* \"#utility.yul\":7785:7847   */\n      tag_234\n        /* \"#utility.yul\":7839:7846   */\n      dup8\n        /* \"#utility.yul\":7830:7836   */\n      dup3\n        /* \"#utility.yul\":7819:7828   */\n      dup9\n        /* \"#utility.yul\":7815:7837   */\n      add\n        /* \"#utility.yul\":7785:7847   */\n      tag_122\n      jump\t// in\n    tag_234:\n        /* \"#utility.yul\":7775:7847   */\n      swap2\n      pop\n        /* \"#utility.yul\":7570:7857   */\n      pop\n        /* \"#utility.yul\":6743:7864   */\n      swap3\n      swap6\n      swap2\n      swap5\n      pop\n      swap3\n      pop\n      jump\t// out\n        /* \"#utility.yul\":7870:7992   */\n    tag_125:\n        /* \"#utility.yul\":7943:7967   */\n      tag_236\n        /* \"#utility.yul\":7961:7966   */\n      dup2\n        /* \"#utility.yul\":7943:7967   */\n      tag_123\n      jump\t// in\n    tag_236:\n        /* \"#utility.yul\":7936:7941   */\n      dup2\n        /* \"#utility.yul\":7933:7968   */\n      eq\n        /* \"#utility.yul\":7923:7986   */\n      tag_237\n      jumpi\n        /* \"#utility.yul\":7982:7983   */\n      0x00\n        /* \"#utility.yul\":7979:7980   */\n      0x00\n        /* \"#utility.yul\":7972:7984   */\n      revert\n        /* \"#utility.yul\":7923:7986   */\n    tag_237:\n        /* \"#utility.yul\":7870:7992   */\n      pop\n      jump\t// out\n        /* \"#utility.yul\":7998:8137   */\n    tag_126:\n        /* \"#utility.yul\":8044:8049   */\n      0x00\n        /* \"#utility.yul\":8082:8088   */\n      dup2\n        /* \"#utility.yul\":8069:8089   */\n      calldataload\n        /* \"#utility.yul\":8060:8089   */\n      swap1\n      pop\n        /* \"#utility.yul\":8098:8131   */\n      tag_239\n        /* \"#utility.yul\":8125:8130   */\n      dup2\n        /* \"#utility.yul\":8098:8131   */\n      tag_125\n      jump\t// in\n    tag_239:\n        /* \"#utility.yul\":7998:8137   */\n      swap3\n      swap2\n      pop\n      pop\n      jump\t// out\n        /* \"#utility.yul\":8143:8795   */\n    tag_56:\n        /* \"#utility.yul\":8220:8226   */\n      0x00\n        /* \"#utility.yul\":8228:8234   */\n      0x00\n        /* \"#utility.yul\":8277:8279   */\n      0x40\n        /* \"#utility.yul\":8265:8274   */\n      dup4\n        /* \"#utility.yul\":8256:8263   */\n      dup6\n        /* \"#utility.yul\":8252:8275   */\n      sub\n        /* \"#utility.yul\":8248:8280   */\n      slt\n        /* \"#utility.yul\":8245:8364   */\n      iszero\n      tag_241\n      jumpi\n        /* \"#utility.yul\":8283:8362   */\n      tag_242\n      tag_100\n      jump\t// in\n    tag_242:\n        /* \"#utility.yul\":8245:8364   */\n    tag_241:\n        /* \"#utility.yul\":8403:8404   */\n      0x00\n        /* \"#utility.yul\":8428:8481   */\n      tag_243\n        /* \"#utility.yul\":8473:8480   */\n      dup6\n        /* \"#utility.yul\":8464:8470   */\n      dup3\n        /* \"#utility.yul\":8453:8462   */\n      dup7\n        /* \"#utility.yul\":8449:8471   */\n      add\n        /* \"#utility.yul\":8428:8481   */\n      tag_126\n      jump\t// in\n    tag_243:\n        /* \"#utility.yul\":8418:8481   */\n      swap3\n      pop\n        /* \"#utility.yul\":8374:8491   */\n      pop\n        /* \"#utility.yul\":8558:8560   */\n      0x20\n        /* \"#utility.yul\":8547:8556   */\n      dup4\n        /* \"#utility.yul\":8543:8561   */\n      add\n        /* \"#utility.yul\":8530:8562   */\n      calldataload\n        /* \"#utility.yul\":8589:8607   */\n      0xffffffffffffffff\n        /* \"#utility.yul\":8581:8587   */\n      dup2\n        /* \"#utility.yul\":8578:8608   */\n      gt\n        /* \"#utility.yul\":8575:8692   */\n      iszero\n      tag_244\n      jumpi\n        /* \"#utility.yul\":8611:8690   */\n      tag_245\n      tag_101\n      jump\t// in\n    tag_245:\n        /* \"#utility.yul\":8575:8692   */\n    tag_244:\n        /* \"#utility.yul\":8716:8778   */\n      tag_246\n        /* \"#utility.yul\":8770:8777   */\n      dup6\n        /* \"#utility.yul\":8761:8767   */\n      dup3\n        /* \"#utility.yul\":8750:8759   */\n      dup7\n        /* \"#utility.yul\":8746:8768   */\n      add\n        /* \"#utility.yul\":8716:8778   */\n      tag_122\n      jump\t// in\n    tag_246:\n        /* \"#utility.yul\":8706:8778   */\n      swap2\n      pop\n        /* \"#utility.yul\":8501:8788   */\n      pop\n        /* \"#utility.yul\":8143:8795   */\n      swap3\n      pop\n      swap3\n      swap1\n      pop\n      jump\t// out\n        /* \"#utility.yul\":8801:9465   */\n    tag_62:\n        /* \"#utility.yul\":9006:9010   */\n      0x00\n        /* \"#utility.yul\":9044:9047   */\n      0xa0\n        /* \"#utility.yul\":9033:9042   */\n      dup3\n        /* \"#utility.yul\":9029:9048   */\n      add\n        /* \"#utility.yul\":9021:9048   */\n      swap1\n      pop\n        /* \"#utility.yul\":9058:9129   */\n      tag_248\n        /* \"#utility.yul\":9126:9127   */\n      0x00\n        /* \"#utility.yul\":9115:9124   */\n      dup4\n        /* \"#utility.yul\":9111:9128   */\n      add\n        /* \"#utility.yul\":9102:9108   */\n      dup9\n        /* \"#utility.yul\":9058:9129   */\n      tag_107\n      jump\t// in\n    tag_248:\n        /* \"#utility.yul\":9139:9211   */\n      tag_249\n        /* \"#utility.yul\":9207:9209   */\n      0x20\n        /* \"#utility.yul\":9196:9205   */\n      dup4\n        /* \"#utility.yul\":9192:9210   */\n      add\n        /* \"#utility.yul\":9183:9189   */\n      dup8\n        /* \"#utility.yul\":9139:9211   */\n      tag_108\n      jump\t// in\n    tag_249:\n        /* \"#utility.yul\":9221:9293   */\n      tag_250\n        /* \"#utility.yul\":9289:9291   */\n      0x40\n        /* \"#utility.yul\":9278:9287   */\n      dup4\n        /* \"#utility.yul\":9274:9292   */\n      add\n        /* \"#utility.yul\":9265:9271   */\n      dup7\n        /* \"#utility.yul\":9221:9293   */\n      tag_124\n      jump\t// in\n    tag_250:\n        /* \"#utility.yul\":9303:9375   */\n      tag_251\n        /* \"#utility.yul\":9371:9373   */\n      0x60\n        /* \"#utility.yul\":9360:9369   */\n      dup4\n        /* \"#utility.yul\":9356:9374   */\n      add\n        /* \"#utility.yul\":9347:9353   */\n      dup6\n        /* \"#utility.yul\":9303:9375   */\n      tag_108\n      jump\t// in\n    tag_251:\n        /* \"#utility.yul\":9385:9458   */\n      tag_252\n        /* \"#utility.yul\":9453:9456   */\n      0x80\n        /* \"#utility.yul\":9442:9451   */\n      dup4\n        /* \"#utility.yul\":9438:9457   */\n      add\n        /* \"#utility.yul\":9429:9435   */\n      dup5\n        /* \"#utility.yul\":9385:9458   */\n      tag_108\n      jump\t// in\n    tag_252:\n        /* \"#utility.yul\":8801:9465   */\n      swap7\n      swap6\n      pop\n      pop\n      pop\n      pop\n      pop\n      pop\n      jump\t// out\n        /* \"#utility.yul\":9471:9651   */\n    tag_127:\n        /* \"#utility.yul\":9519:9596   */\n      0x4e487b7100000000000000000000000000000000000000000000000000000000\n        /* \"#utility.yul\":9516:9517   */\n      0x00\n        /* \"#utility.yul\":9509:9597   */\n      mstore\n        /* \"#utility.yul\":9616:9620   */\n      0x11\n        /* \"#utility.yul\":9613:9614   */\n      0x04\n        /* \"#utility.yul\":9606:9621   */\n      mstore\n        /* \"#utility.yul\":9640:9644   */\n      0x24\n        /* \"#utility.yul\":9637:9638   */\n      0x00\n        /* \"#utility.yul\":9630:9645   */\n      revert\n        /* \"#utility.yul\":9657:9890   */\n    tag_66:\n        /* \"#utility.yul\":9696:9699   */\n      0x00\n        /* \"#utility.yul\":9719:9743   */\n      tag_255\n        /* \"#utility.yul\":9737:9742   */\n      dup3\n        /* \"#utility.yul\":9719:9743   */\n      tag_102\n      jump\t// in\n    tag_255:\n        /* \"#utility.yul\":9710:9743   */\n      swap2\n      pop\n        /* \"#utility.yul\":9765:9831   */\n      0xffffffffffffffffffffffffffffffffffffffffffffffffffffffffffffffff\n        /* \"#utility.yul\":9758:9763   */\n      dup3\n        /* \"#utility.yul\":9755:9832   */\n      sub\n        /* \"#utility.yul\":9752:9855   */\n      tag_256\n      jumpi\n        /* \"#utility.yul\":9835:9853   */\n      tag_257\n      tag_127\n      jump\t// in\n    tag_257:\n        /* \"#utility.yul\":9752:9855   */\n    tag_256:\n        /* \"#utility.yul\":9882:9883   */\n      0x01\n        /* \"#utility.yul\":9875:9880   */\n      dup3\n        /* \"#utility.yul\":9871:9884   */\n      add\n        /* \"#utility.yul\":9864:9884   */\n      swap1\n      pop\n        /* \"#utility.yul\":9657:9890   */\n      swap2\n      swap1\n      pop\n      jump\t// out\n        /* \"#utility.yul\":9896:9994   */\n    tag_128:\n        /* \"#utility.yul\":9947:9953   */\n      0x00\n        /* \"#utility.yul\":9981:9986   */\n      dup2\n        /* \"#utility.yul\":9975:9987   */\n      mload\n        /* \"#utility.yul\":9965:9987   */\n      swap1\n      pop\n        /* \"#utility.yul\":9896:9994   */\n      swap2\n      swap1\n      pop\n      jump\t// out\n        /* \"#utility.yul\":10000:10147   */\n    tag_129:\n        /* \"#utility.yul\":10101:10112   */\n      0x00\n        /* \"#utility.yul\":10138:10141   */\n      dup2\n        /* \"#utility.yul\":10123:10141   */\n      swap1\n      pop\n        /* \"#utility.yul\":10000:10147   */\n      swap3\n      swap2\n      pop\n      pop\n      jump\t// out\n        /* \"#utility.yul\":10153:10292   */\n    tag_130:\n        /* \"#utility.yul\":10242:10248   */\n      dup3\n        /* \"#utility.yul\":10237:10240   */\n      dup2\n        /* \"#utility.yul\":10232:10235   */\n      dup4\n        /* \"#utility.yul\":10226:10249   */\n      mcopy\n        /* \"#utility.yul\":10283:10284   */\n      0x00\n        /* \"#utility.yul\":10274:10280   */\n      dup4\n        /* \"#utility.yul\":10269:10272   */\n      dup4\n        /* \"#utility.yul\":10265:10281   */\n      add\n        /* \"#utility.yul\":10258:10285   */\n      mstore\n        /* \"#utility.yul\":10153:10292   */\n      pop\n      pop\n      pop\n      jump\t// out\n        /* \"#utility.yul\":10298:10684   */\n    tag_131:\n        /* \"#utility.yul\":10402:10405   */\n      0x00\n        /* \"#utility.yul\":10430:10468   */\n      tag_262\n        /* \"#utility.yul\":10462:10467   */\n      dup3\n        /* \"#utility.yul\":10430:10468   */\n      tag_128\n      jump\t// in\n    tag_262:\n        /* \"#utility.yul\":10484:10572   */\n      tag_263\n        /* \"#utility.yul\":10565:10571   */\n      dup2\n        /* \"#utility.yul\":10560:10563   */\n      dup6\n        /* \"#utility.yul\":10484:10572   */\n      tag_129\n      jump\t// in\n    tag_263:\n        /* \"#utility.yul\":10477:10572   */\n      swap4\n      pop\n        /* \"#utility.yul\":10581:10646   */\n      tag_264\n        /* \"#utility.yul\":10639:10645   */\n      dup2\n        /* \"#utility.yul\":10634:10637   */\n      dup6\n        /* \"#utility.yul\":10627:10631   */\n      0x20\n        /* \"#utility.yul\":10620:10625   */\n      dup7\n        /* \"#utility.yul\":10616:10632   */\n      add\n        /* \"#utility.yul\":10581:10646   */\n      tag_130\n      jump\t// in\n    tag_264:\n        /* \"#utility.yul\":10671:10677   */\n      dup1\n        /* \"#utility.yul\":10666:10669   */\n      dup5\n        /* \"#utility.yul\":10662:10678   */\n      add\n        /* \"#utility.yul\":10655:10678   */\n      swap2\n      pop\n        /* \"#utility.yul\":10406:10684   */\n      pop\n        /* \"#utility.yul\":10298:10684   */\n      swap3\n      swap2\n      pop\n      pop\n      jump\t// out\n        /* \"#utility.yul\":10690:10961   */\n    tag_69:\n        /* \"#utility.yul\":10820:10823   */\n      0x00\n        /* \"#utility.yul\":10842:10935   */\n      tag_266\n        /* \"#utility.yul\":10931:10934   */\n      dup3\n        /* \"#utility.yul\":10922:10928   */\n      dup5\n        /* \"#utility.yul\":10842:10935   */\n      tag_131\n      jump\t// in\n    tag_266:\n        /* \"#utility.yul\":10835:10935   */\n      swap2\n      pop\n        /* \"#utility.yul\":10952:10955   */\n      dup2\n        /* \"#utility.yul\":10945:10955   */\n      swap1\n      pop\n        /* \"#utility.yul\":10690:10961   */\n      swap3\n      swap2\n      pop\n      pop\n      jump\t// out\n        /* \"#utility.yul\":10967:11377   */\n    tag_79:\n        /* \"#utility.yul\":11007:11014   */\n      0x00\n        /* \"#utility.yul\":11030:11050   */\n      tag_268\n        /* \"#utility.yul\":11048:11049   */\n      dup3\n        /* \"#utility.yul\":11030:11050   */\n      tag_102\n      jump\t// in\n    tag_268:\n        /* \"#utility.yul\":11025:11050   */\n      swap2\n      pop\n        /* \"#utility.yul\":11064:11084   */\n      tag_269\n        /* \"#utility.yul\":11082:11083   */\n      dup4\n        /* \"#utility.yul\":11064:11084   */\n      tag_102\n      jump\t// in\n    tag_269:\n        /* \"#utility.yul\":11059:11084   */\n      swap3\n      pop\n        /* \"#utility.yul\":11119:11120   */\n      dup3\n        /* \"#utility.yul\":11116:11117   */\n      dup3\n        /* \"#utility.yul\":11112:11121   */\n      mul\n        /* \"#utility.yul\":11141:11171   */\n      tag_270\n        /* \"#utility.yul\":11159:11170   */\n      dup2\n        /* \"#utility.yul\":11141:11171   */\n      tag_102\n      jump\t// in\n    tag_270:\n        /* \"#utility.yul\":11130:11171   */\n      swap2\n      pop\n        /* \"#utility.yul\":11320:11321   */\n      dup3\n        /* \"#utility.yul\":11311:11318   */\n      dup3\n        /* \"#utility.yul\":11307:11322   */\n      div\n        /* \"#utility.yul\":11304:11305   */\n      dup5\n        /* \"#utility.yul\":11301:11323   */\n      eq\n        /* \"#utility.yul\":11281:11282   */\n      dup4\n        /* \"#utility.yul\":11274:11283   */\n      iszero\n        /* \"#utility.yul\":11254:11337   */\n      or\n        /* \"#utility.yul\":11231:11370   */\n      tag_271\n      jumpi\n        /* \"#utility.yul\":11350:11368   */\n      tag_272\n      tag_127\n      jump\t// in\n    tag_272:\n        /* \"#utility.yul\":11231:11370   */\n    tag_271:\n        /* \"#utility.yul\":11015:11377   */\n      pop\n        /* \"#utility.yul\":10967:11377   */\n      swap3\n      swap2\n      pop\n      pop\n      jump\t// out\n        /* \"#utility.yul\":11383:11552   */\n    tag_132:\n        /* \"#utility.yul\":11467:11478   */\n      0x00\n        /* \"#utility.yul\":11501:11507   */\n      dup3\n        /* \"#utility.yul\":11496:11499   */\n      dup3\n        /* \"#utility.yul\":11489:11508   */\n      mstore\n        /* \"#utility.yul\":11541:11545   */\n      0x20\n        /* \"#utility.yul\":11536:11539   */\n      dup3\n        /* \"#utility.yul\":11532:11546   */\n      add\n        /* \"#utility.yul\":11517:11546   */\n      swap1\n      pop\n        /* \"#utility.yul\":11383:11552   */\n      swap3\n      swap2\n      pop\n      pop\n      jump\t// out\n        /* \"#utility.yul\":11558:11787   */\n    tag_133:\n        /* \"#utility.yul\":11698:11732   */\n      0x7369676e61747572657320636f756e74206e6f7420656e6f75676820746f2074\n        /* \"#utility.yul\":11694:11695   */\n      0x00\n        /* \"#utility.yul\":11686:11692   */\n      dup3\n        /* \"#utility.yul\":11682:11696   */\n      add\n        /* \"#utility.yul\":11675:11733   */\n      mstore\n        /* \"#utility.yul\":11767:11779   */\n      0x72616e73616374696f6e00000000000000000000000000000000000000000000\n        /* \"#utility.yul\":11762:11764   */\n      0x20\n        /* \"#utility.yul\":11754:11760   */\n      dup3\n        /* \"#utility.yul\":11750:11765   */\n      add\n        /* \"#utility.yul\":11743:11780   */\n      mstore\n        /* \"#utility.yul\":11558:11787   */\n      pop\n      jump\t// out\n        /* \"#utility.yul\":11793:12159   */\n    tag_134:\n        /* \"#utility.yul\":11935:11938   */\n      0x00\n        /* \"#utility.yul\":11956:12023   */\n      tag_276\n        /* \"#utility.yul\":12020:12022   */\n      0x2a\n        /* \"#utility.yul\":12015:12018   */\n      dup4\n        /* \"#utility.yul\":11956:12023   */\n      tag_132\n      jump\t// in\n    tag_276:\n        /* \"#utility.yul\":11949:12023   */\n      swap2\n      pop\n        /* \"#utility.yul\":12032:12125   */\n      tag_277\n        /* \"#utility.yul\":12121:12124   */\n      dup3\n        /* \"#utility.yul\":12032:12125   */\n      tag_133\n      jump\t// in\n    tag_277:\n        /* \"#utility.yul\":12150:12152   */\n      0x40\n        /* \"#utility.yul\":12145:12148   */\n      dup3\n        /* \"#utility.yul\":12141:12153   */\n      add\n        /* \"#utility.yul\":12134:12153   */\n      swap1\n      pop\n        /* \"#utility.yul\":11793:12159   */\n      swap2\n      swap1\n      pop\n      jump\t// out\n        /* \"#utility.yul\":12165:12584   */\n    tag_82:\n        /* \"#utility.yul\":12331:12335   */\n      0x00\n        /* \"#utility.yul\":12369:12371   */\n      0x20\n        /* \"#utility.yul\":12358:12367   */\n      dup3\n        /* \"#utility.yul\":12354:12372   */\n      add\n        /* \"#utility.yul\":12346:12372   */\n      swap1\n      pop\n        /* \"#utility.yul\":12418:12427   */\n      dup2\n        /* \"#utility.yul\":12412:12416   */\n      dup2\n        /* \"#utility.yul\":12408:12428   */\n      sub\n        /* \"#utility.yul\":12404:12405   */\n      0x00\n        /* \"#utility.yul\":12393:12402   */\n      dup4\n        /* \"#utility.yul\":12389:12406   */\n      add\n        /* \"#utility.yul\":12382:12429   */\n      mstore\n        /* \"#utility.yul\":12446:12577   */\n      tag_279\n        /* \"#utility.yul\":12572:12576   */\n      dup2\n        /* \"#utility.yul\":12446:12577   */\n      tag_134\n      jump\t// in\n    tag_279:\n        /* \"#utility.yul\":12438:12577   */\n      swap1\n      pop\n        /* \"#utility.yul\":12165:12584   */\n      swap2\n      swap1\n      pop\n      jump\t// out\n        /* \"#utility.yul\":12590:12738   */\n    tag_135:\n        /* \"#utility.yul\":12692:12703   */\n      0x00\n        /* \"#utility.yul\":12729:12732   */\n      dup2\n        /* \"#utility.yul\":12714:12732   */\n      swap1\n      pop\n        /* \"#utility.yul\":12590:12738   */\n      swap3\n      swap2\n      pop\n      pop\n      jump\t// out\n        /* \"#utility.yul\":12744:12958   */\n    tag_136:\n        /* \"#utility.yul\":12884:12950   */\n      0x19457468657265756d205369676e6564204d6573736167653a0a333200000000\n        /* \"#utility.yul\":12880:12881   */\n      0x00\n        /* \"#utility.yul\":12872:12878   */\n      dup3\n        /* \"#utility.yul\":12868:12882   */\n      add\n        /* \"#utility.yul\":12861:12951   */\n      mstore\n        /* \"#utility.yul\":12744:12958   */\n      pop\n      jump\t// out\n        /* \"#utility.yul\":12964:13366   */\n    tag_137:\n        /* \"#utility.yul\":13124:13127   */\n      0x00\n        /* \"#utility.yul\":13145:13230   */\n      tag_283\n        /* \"#utility.yul\":13227:13229   */\n      0x1c\n        /* \"#utility.yul\":13222:13225   */\n      dup4\n        /* \"#utility.yul\":13145:13230   */\n      tag_135\n      jump\t// in\n    tag_283:\n        /* \"#utility.yul\":13138:13230   */\n      swap2\n      pop\n        /* \"#utility.yul\":13239:13332   */\n      tag_284\n        /* \"#utility.yul\":13328:13331   */\n      dup3\n        /* \"#utility.yul\":13239:13332   */\n      tag_136\n      jump\t// in\n    tag_284:\n        /* \"#utility.yul\":13357:13359   */\n      0x1c\n        /* \"#utility.yul\":13352:13355   */\n      dup3\n        /* \"#utility.yul\":13348:13360   */\n      add\n        /* \"#utility.yul\":13341:13360   */\n      swap1\n      pop\n        /* \"#utility.yul\":12964:13366   */\n      swap2\n      swap1\n      pop\n      jump\t// out\n        /* \"#utility.yul\":13372:13451   */\n    tag_138:\n        /* \"#utility.yul\":13411:13418   */\n      0x00\n        /* \"#utility.yul\":13440:13445   */\n      dup2\n        /* \"#utility.yul\":13429:13445   */\n      swap1\n      pop\n        /* \"#utility.yul\":13372:13451   */\n      swap2\n      swap1\n      pop\n      jump\t// out\n        /* \"#utility.yul\":13457:13614   */\n    tag_139:\n        /* \"#utility.yul\":13562:13607   */\n      tag_287\n        /* \"#utility.yul\":13582:13606   */\n      tag_288\n        /* \"#utility.yul\":13600:13605   */\n      dup3\n        /* \"#utility.yul\":13582:13606   */\n      tag_123\n      jump\t// in\n    tag_288:\n        /* \"#utility.yul\":13562:13607   */\n      tag_138\n      jump\t// in\n    tag_287:\n        /* \"#utility.yul\":13557:13560   */\n      dup3\n        /* \"#utility.yul\":13550:13608   */\n      mstore\n        /* \"#utility.yul\":13457:13614   */\n      pop\n      pop\n      jump\t// out\n        /* \"#utility.yul\":13620:14142   */\n    tag_89:\n        /* \"#utility.yul\":13833:13836   */\n      0x00\n        /* \"#utility.yul\":13855:14003   */\n      tag_290\n        /* \"#utility.yul\":13999:14002   */\n      dup3\n        /* \"#utility.yul\":13855:14003   */\n      tag_137\n      jump\t// in\n    tag_290:\n        /* \"#utility.yul\":13848:14003   */\n      swap2\n      pop\n        /* \"#utility.yul\":14013:14088   */\n      tag_291\n        /* \"#utility.yul\":14084:14087   */\n      dup3\n        /* \"#utility.yul\":14075:14081   */\n      dup5\n        /* \"#utility.yul\":14013:14088   */\n      tag_139\n      jump\t// in\n    tag_291:\n        /* \"#utility.yul\":14113:14115   */\n      0x20\n        /* \"#utility.yul\":14108:14111   */\n      dup3\n        /* \"#utility.yul\":14104:14116   */\n      add\n        /* \"#utility.yul\":14097:14116   */\n      swap2\n      pop\n        /* \"#utility.yul\":14133:14136   */\n      dup2\n        /* \"#utility.yul\":14126:14136   */\n      swap1\n      pop\n        /* \"#utility.yul\":13620:14142   */\n      swap3\n      swap2\n      pop\n      pop\n      jump\t// out\n        /* \"#utility.yul\":14148:14234   */\n    tag_140:\n        /* \"#utility.yul\":14183:14190   */\n      0x00\n        /* \"#utility.yul\":14223:14227   */\n      0xff\n        /* \"#utility.yul\":14216:14221   */\n      dup3\n        /* \"#utility.yul\":14212:14228   */\n      and\n        /* \"#utility.yul\":14201:14228   */\n      swap1\n      pop\n        /* \"#utility.yul\":14148:14234   */\n      swap2\n      swap1\n      pop\n      jump\t// out\n        /* \"#utility.yul\":14240:14352   */\n    tag_141:\n        /* \"#utility.yul\":14323:14345   */\n      tag_294\n        /* \"#utility.yul\":14339:14344   */\n      dup2\n        /* \"#utility.yul\":14323:14345   */\n      tag_140\n      jump\t// in\n    tag_294:\n        /* \"#utility.yul\":14318:14321   */\n      dup3\n        /* \"#utility.yul\":14311:14346   */\n      mstore\n        /* \"#utility.yul\":14240:14352   */\n      pop\n      pop\n      jump\t// out\n        /* \"#utility.yul\":14358:14903   */\n    tag_91:\n        /* \"#utility.yul\":14531:14535   */\n      0x00\n        /* \"#utility.yul\":14569:14572   */\n      0x80\n        /* \"#utility.yul\":14558:14567   */\n      dup3\n        /* \"#utility.yul\":14554:14573   */\n      add\n        /* \"#utility.yul\":14546:14573   */\n      swap1\n      pop\n        /* \"#utility.yul\":14583:14654   */\n      tag_296\n        /* \"#utility.yul\":14651:14652   */\n      0x00\n        /* \"#utility.yul\":14640:14649   */\n      dup4\n        /* \"#utility.yul\":14636:14653   */\n      add\n        /* \"#utility.yul\":14627:14633   */\n      dup8\n        /* \"#utility.yul\":14583:14654   */\n      tag_124\n      jump\t// in\n    tag_296:\n        /* \"#utility.yul\":14664:14732   */\n      tag_297\n        /* \"#utility.yul\":14728:14730   */\n      0x20\n        /* \"#utility.yul\":14717:14726   */\n      dup4\n        /* \"#utility.yul\":14713:14731   */\n      add\n        /* \"#utility.yul\":14704:14710   */\n      dup7\n        /* \"#utility.yul\":14664:14732   */\n      tag_141\n      jump\t// in\n    tag_297:\n        /* \"#utility.yul\":14742:14814   */\n      tag_298\n        /* \"#utility.yul\":14810:14812   */\n      0x40\n        /* \"#utility.yul\":14799:14808   */\n      dup4\n        /* \"#utility.yul\":14795:14813   */\n      add\n        /* \"#utility.yul\":14786:14792   */\n      dup6\n        /* \"#utility.yul\":14742:14814   */\n      tag_124\n      jump\t// in\n    tag_298:\n        /* \"#utility.yul\":14824:14896   */\n      tag_299\n        /* \"#utility.yul\":14892:14894   */\n      0x60\n        /* \"#utility.yul\":14881:14890   */\n      dup4\n        /* \"#utility.yul\":14877:14895   */\n      add\n        /* \"#utility.yul\":14868:14874   */\n      dup5\n        /* \"#utility.yul\":14824:14896   */\n      tag_124\n      jump\t// in\n    tag_299:\n        /* \"#utility.yul\":14358:14903   */\n      swap6\n      swap5\n      pop\n      pop\n      pop\n      pop\n      pop\n      jump\t// out\n        /* \"#utility.yul\":14909:15023   */\n    tag_142:\n      pop\n      jump\t// out\n        /* \"#utility.yul\":15029:15393   */\n    tag_143:\n        /* \"#utility.yul\":15171:15174   */\n      0x00\n        /* \"#utility.yul\":15192:15258   */\n      tag_302\n        /* \"#utility.yul\":15256:15257   */\n      0x00\n        /* \"#utility.yul\":15251:15254   */\n      dup4\n        /* \"#utility.yul\":15192:15258   */\n      tag_132\n      jump\t// in\n    tag_302:\n        /* \"#utility.yul\":15185:15258   */\n      swap2\n      pop\n        /* \"#utility.yul\":15267:15360   */\n      tag_303\n        /* \"#utility.yul\":15356:15359   */\n      dup3\n        /* \"#utility.yul\":15267:15360   */\n      tag_142\n      jump\t// in\n    tag_303:\n        /* \"#utility.yul\":15385:15386   */\n      0x00\n        /* \"#utility.yul\":15380:15383   */\n      dup3\n        /* \"#utility.yul\":15376:15387   */\n      add\n        /* \"#utility.yul\":15369:15387   */\n      swap1\n      pop\n        /* \"#utility.yul\":15029:15393   */\n      swap2\n      swap1\n      pop\n      jump\t// out\n        /* \"#utility.yul\":15399:15818   */\n    tag_97:\n        /* \"#utility.yul\":15565:15569   */\n      0x00\n        /* \"#utility.yul\":15603:15605   */\n      0x20\n        /* \"#utility.yul\":15592:15601   */\n      dup3\n        /* \"#utility.yul\":15588:15606   */\n      add\n        /* \"#utility.yul\":15580:15606   */\n      swap1\n      pop\n        /* \"#utility.yul\":15652:15661   */\n      dup2\n        /* \"#utility.yul\":15646:15650   */\n      dup2\n        /* \"#utility.yul\":15642:15662   */\n      sub\n        /* \"#utility.yul\":15638:15639   */\n      0x00\n        /* \"#utility.yul\":15627:15636   */\n      dup4\n        /* \"#utility.yul\":15623:15640   */\n      add\n        /* \"#utility.yul\":15616:15663   */\n      mstore\n        /* \"#utility.yul\":15680:15811   */\n      tag_305\n        /* \"#utility.yul\":15806:15810   */\n      dup2\n        /* \"#utility.yul\":15680:15811   */\n      tag_143\n      jump\t// in\n    tag_305:\n        /* \"#utility.yul\":15672:15811   */\n      swap1\n      pop\n        /* \"#utility.yul\":15399:15818   */\n      swap2\n      swap1\n      pop\n      jump\t// out\n\n    auxdata: 0xa26469706673582212202ad0e824da014d89f296cdfd45559c48c102938b2318a88ef3f7d033d906f65864736f6c634300081b0033\n}\n",
				"bytecode": {
					"linkReferences": {},
					"object": "608060405234801561000f575f5ffd5b506040516116173803806116178339818101604052810190610031919061050e565b610041828261004860201b60201c565b5050610817565b5f6003541461008c576040517f08c379a0000000000000000000000000000000000000000000000000000000008152600401610083906105c2565b60405180910390fd5b81518111156100d0576040517f08c379a00000000000000000000000000000000000000000000000000000000081526004016100c790610650565b60405180910390fd5b6001811015610114576040517f08c379a000000000000000000000000000000000000000000000000000000000815260040161010b906106b8565b60405180910390fd5b5f5f90505b82518110156102fb575f838281518110610136576101356106d6565b5b602002602001015190505f73ffffffffffffffffffffffffffffffffffffffff168173ffffffffffffffffffffffffffffffffffffffff16141580156101a857503073ffffffffffffffffffffffffffffffffffffffff168173ffffffffffffffffffffffffffffffffffffffff1614155b80156101fb575060015f8273ffffffffffffffffffffffffffffffffffffffff1673ffffffffffffffffffffffffffffffffffffffff1681526020019081526020015f205f9054906101000a900460ff16155b61023a576040517f08c379a000000000000000000000000000000000000000000000000000000000815260040161023190610799565b60405180910390fd5b5f81908060018154018082558091505060019003905f5260205f20015f9091909190916101000a81548173ffffffffffffffffffffffffffffffffffffffff021916908373ffffffffffffffffffffffffffffffffffffffff1602179055506001805f8373ffffffffffffffffffffffffffffffffffffffff1673ffffffffffffffffffffffffffffffffffffffff1681526020019081526020015f205f6101000a81548160ff021916908315150217905550508080600101915050610119565b50815160025f82825461030e91906107e4565b92505081905550806003819055505050565b5f604051905090565b5f5ffd5b5f5ffd5b5f5ffd5b5f601f19601f8301169050919050565b7f4e487b71000000000000000000000000000000000000000000000000000000005f52604160045260245ffd5b61037b82610335565b810181811067ffffffffffffffff8211171561039a57610399610345565b5b80604052505050565b5f6103ac610320565b90506103b88282610372565b919050565b5f67ffffffffffffffff8211156103d7576103d6610345565b5b602082029050602081019050919050565b5f5ffd5b5f73ffffffffffffffffffffffffffffffffffffffff82169050919050565b5f610415826103ec565b9050919050565b6104258161040b565b811461042f575f5ffd5b50565b5f815190506104408161041c565b92915050565b5f610458610453846103bd565b6103a3565b9050808382526020820190506020840283018581111561047b5761047a6103e8565b5b835b818110156104a457806104908882610432565b84526020840193505060208101905061047d565b5050509392505050565b5f82601f8301126104c2576104c1610331565b5b81516104d2848260208601610446565b91505092915050565b5f819050919050565b6104ed816104db565b81146104f7575f5ffd5b50565b5f81519050610508816104e4565b92915050565b5f5f6040838503121561052457610523610329565b5b5f83015167ffffffffffffffff8111156105415761054061032d565b5b61054d858286016104ae565b925050602061055e858286016104fa565b9150509250929050565b5f82825260208201905092915050565b7f7468726573686f6c6420686173206265656e20696e697469616c697a656400005f82015250565b5f6105ac601e83610568565b91506105b782610578565b602082019050919050565b5f6020820190508181035f8301526105d9816105a0565b9050919050565b7f7468726573686f6c64206d657374206c657373207468616e206f776e657273205f8201527f636f756e74000000000000000000000000000000000000000000000000000000602082015250565b5f61063a602583610568565b9150610645826105e0565b604082019050919050565b5f6020820190508181035f8301526106678161062e565b9050919050565b7f6d756c7469536967206e656564206d6f7265207468616e206f6e6520736967005f82015250565b5f6106a2601f83610568565b91506106ad8261066e565b602082019050919050565b5f6020820190508181035f8301526106cf81610696565b9050919050565b7f4e487b71000000000000000000000000000000000000000000000000000000005f52603260045260245ffd5b7f6f776e6572206973206e6f74207a65726f20616e64206e6f74207468697320635f8201527f6f6e7472616374206164647265737320616e64206265666f7265206e6f74206160208201527f2073696e676c6553696700000000000000000000000000000000000000000000604082015250565b5f610783604a83610568565b915061078e82610703565b606082019050919050565b5f6020820190508181035f8301526107b081610777565b9050919050565b7f4e487b71000000000000000000000000000000000000000000000000000000005f52601160045260245ffd5b5f6107ee826104db565b91506107f9836104db565b9250828201905080821115610811576108106107b7565b5b92915050565b610df3806108245f395ff3fe60806040526004361061007e575f3560e01c8063a67dd5091161004d578063a67dd50914610155578063affed0e014610191578063d01aa318146101bb578063ed516d51146101eb57610085565b8063025e7c27146100895780630db02622146100c55780632f54bf6e146100ef57806342cde4e81461012b57610085565b3661008557005b5f5ffd5b348015610094575f5ffd5b506100af60048036038101906100aa9190610626565b610213565b6040516100bc9190610690565b60405180910390f35b3480156100d0575f5ffd5b506100d961024d565b6040516100e691906106b8565b60405180910390f35b3480156100fa575f5ffd5b50610115600480360381019061011091906106fb565b610253565b6040516101229190610740565b60405180910390f35b348015610136575f5ffd5b5061013f610270565b60405161014c91906106b8565b60405180910390f35b348015610160575f5ffd5b5061017b60048036038101906101769190610895565b610276565b6040516101889190610940565b60405180910390f35b34801561019c575f5ffd5b506101a56102bd565b6040516101b291906106b8565b60405180910390f35b6101d560048036038101906101d09190610959565b6102c3565b6040516101e29190610740565b60405180910390f35b3480156101f6575f5ffd5b50610211600480360381019061020c9190610a1f565b6103e5565b005b5f8181548110610221575f80fd5b905f5260205f20015f915054906101000a900473ffffffffffffffffffffffffffffffffffffffff1681565b60025481565b6001602052805f5260405f205f915054906101000a900460ff1681565b60035481565b5f5f868686805190602001208686604051602001610298959493929190610a79565b6040516020818303038152906040528051906020012090508091505095945050505050565b60045481565b5f5f6102d486868660045446610276565b905060045f8154809291906102e890610af7565b91905055506102f781846103e5565b8573ffffffffffffffffffffffffffffffffffffffff16858560405161031d9190610b90565b5f6040518083038185875af1925050503d805f8114610357576040519150601f19603f3d011682016040523d82523d5f602084013e61035c565b606091505b50508092505081156103a4577fdc29884a71d2bb98d3c53dc09718be05c7bfd142b7773a5c5cf2517629290ac0816040516103979190610940565b60405180910390a16103dc565b7fdbe42d02a4e07d7eeff2874efe172540c93b297d206f6d691c9782a257323e32816040516103d39190610940565b60405180910390a15b50949350505050565b5f60035490506041816103f89190610ba6565b8251101561043b576040517f08c379a000000000000000000000000000000000000000000000000000000000815260040161043290610c67565b60405180910390fd5b5f5f90505f5f5f5f5f5f90505b868110156105aa5761045a88826105b5565b8094508195508296505050506001896040516020016104799190610cf9565b604051602081830303815290604052805190602001208585856040515f81526020016040526040516104ae9493929190610d39565b6020604051602081039080840390855afa1580156104ce573d5f5f3e3d5ffd5b5050506020604051035194508573ffffffffffffffffffffffffffffffffffffffff168573ffffffffffffffffffffffffffffffffffffffff1611801561055b575060015f8673ffffffffffffffffffffffffffffffffffffffff1673ffffffffffffffffffffffffffffffffffffffff1681526020019081526020015f205f9054906101000a900460ff165b61059a576040517f08c379a000000000000000000000000000000000000000000000000000000000815260040161059190610d9f565b60405180910390fd5b8495508080600101915050610448565b505050505050505050565b5f5f5f8360410260208101860151925060408101860151915060ff60418201870151169350509250925092565b5f604051905090565b5f5ffd5b5f5ffd5b5f819050919050565b610605816105f3565b811461060f575f5ffd5b50565b5f81359050610620816105fc565b92915050565b5f6020828403121561063b5761063a6105eb565b5b5f61064884828501610612565b91505092915050565b5f73ffffffffffffffffffffffffffffffffffffffff82169050919050565b5f61067a82610651565b9050919050565b61068a81610670565b82525050565b5f6020820190506106a35f830184610681565b92915050565b6106b2816105f3565b82525050565b5f6020820190506106cb5f8301846106a9565b92915050565b6106da81610670565b81146106e4575f5ffd5b50565b5f813590506106f5816106d1565b92915050565b5f602082840312156107105761070f6105eb565b5b5f61071d848285016106e7565b91505092915050565b5f8115159050919050565b61073a81610726565b82525050565b5f6020820190506107535f830184610731565b92915050565b5f5ffd5b5f5ffd5b5f601f19601f8301169050919050565b7f4e487b71000000000000000000000000000000000000000000000000000000005f52604160045260245ffd5b6107a782610761565b810181811067ffffffffffffffff821117156107c6576107c5610771565b5b80604052505050565b5f6107d86105e2565b90506107e4828261079e565b919050565b5f67ffffffffffffffff82111561080357610802610771565b5b61080c82610761565b9050602081019050919050565b828183375f83830152505050565b5f610839610834846107e9565b6107cf565b9050828152602081018484840111156108555761085461075d565b5b610860848285610819565b509392505050565b5f82601f83011261087c5761087b610759565b5b813561088c848260208601610827565b91505092915050565b5f5f5f5f5f60a086880312156108ae576108ad6105eb565b5b5f6108bb888289016106e7565b95505060206108cc88828901610612565b945050604086013567ffffffffffffffff8111156108ed576108ec6105ef565b5b6108f988828901610868565b935050606061090a88828901610612565b925050608061091b88828901610612565b9150509295509295909350565b5f819050919050565b61093a81610928565b82525050565b5f6020820190506109535f830184610931565b92915050565b5f5f5f5f60808587031215610971576109706105eb565b5b5f61097e878288016106e7565b945050602061098f87828801610612565b935050604085013567ffffffffffffffff8111156109b0576109af6105ef565b5b6109bc87828801610868565b925050606085013567ffffffffffffffff8111156109dd576109dc6105ef565b5b6109e987828801610868565b91505092959194509250565b6109fe81610928565b8114610a08575f5ffd5b50565b5f81359050610a19816109f5565b92915050565b5f5f60408385031215610a3557610a346105eb565b5b5f610a4285828601610a0b565b925050602083013567ffffffffffffffff811115610a6357610a626105ef565b5b610a6f85828601610868565b9150509250929050565b5f60a082019050610a8c5f830188610681565b610a9960208301876106a9565b610aa66040830186610931565b610ab360608301856106a9565b610ac060808301846106a9565b9695505050505050565b7f4e487b71000000000000000000000000000000000000000000000000000000005f52601160045260245ffd5b5f610b01826105f3565b91507fffffffffffffffffffffffffffffffffffffffffffffffffffffffffffffffff8203610b3357610b32610aca565b5b600182019050919050565b5f81519050919050565b5f81905092915050565b8281835e5f83830152505050565b5f610b6a82610b3e565b610b748185610b48565b9350610b84818560208601610b52565b80840191505092915050565b5f610b9b8284610b60565b915081905092915050565b5f610bb0826105f3565b9150610bbb836105f3565b9250828202610bc9816105f3565b91508282048414831517610be057610bdf610aca565b5b5092915050565b5f82825260208201905092915050565b7f7369676e61747572657320636f756e74206e6f7420656e6f75676820746f20745f8201527f72616e73616374696f6e00000000000000000000000000000000000000000000602082015250565b5f610c51602a83610be7565b9150610c5c82610bf7565b604082019050919050565b5f6020820190508181035f830152610c7e81610c45565b9050919050565b5f81905092915050565b7f19457468657265756d205369676e6564204d6573736167653a0a3332000000005f82015250565b5f610cc3601c83610c85565b9150610cce82610c8f565b601c82019050919050565b5f819050919050565b610cf3610cee82610928565b610cd9565b82525050565b5f610d0382610cb7565b9150610d0f8284610ce2565b60208201915081905092915050565b5f60ff82169050919050565b610d3381610d1e565b82525050565b5f608082019050610d4c5f830187610931565b610d596020830186610d2a565b610d666040830185610931565b610d736060830184610931565b95945050505050565b50565b5f610d8a5f83610be7565b9150610d9582610d7c565b5f82019050919050565b5f6020820190508181035f830152610db681610d7f565b905091905056fea26469706673582212202ad0e824da014d89f296cdfd45559c48c102938b2318a88ef3f7d033d906f65864736f6c634300081b0033",
					"opcodes": "PUSH1 0x80 PUSH1 0x40 MSTORE CALLVALUE DUP1 ISZERO PUSH2 0xF JUMPI PUSH0 PUSH0 REVERT JUMPDEST POP PUSH1 0x40 MLOAD PUSH2 0x1617 CODESIZE SUB DUP1 PUSH2 0x1617 DUP4 CODECOPY DUP2 DUP2 ADD PUSH1 0x40 MSTORE DUP2 ADD SWAP1 PUSH2 0x31 SWAP2 SWAP1 PUSH2 0x50E JUMP JUMPDEST PUSH2 0x41 DUP3 DUP3 PUSH2 0x48 PUSH1 0x20 SHL PUSH1 0x20 SHR JUMP JUMPDEST POP POP PUSH2 0x817 JUMP JUMPDEST PUSH0 PUSH1 0x3 SLOAD EQ PUSH2 0x8C JUMPI PUSH1 0x40 MLOAD PUSH32 0x8C379A000000000000000000000000000000000000000000000000000000000 DUP2 MSTORE PUSH1 0x4 ADD PUSH2 0x83 SWAP1 PUSH2 0x5C2 JUMP JUMPDEST PUSH1 0x40 MLOAD DUP1 SWAP2 SUB SWAP1 REVERT JUMPDEST DUP2 MLOAD DUP2 GT ISZERO PUSH2 0xD0 JUMPI PUSH1 0x40 MLOAD PUSH32 0x8C379A000000000000000000000000000000000000000000000000000000000 DUP2 MSTORE PUSH1 0x4 ADD PUSH2 0xC7 SWAP1 PUSH2 0x650 JUMP JUMPDEST PUSH1 0x40 MLOAD DUP1 SWAP2 SUB SWAP1 REVERT JUMPDEST PUSH1 0x1 DUP2 LT ISZERO PUSH2 0x114 JUMPI PUSH1 0x40 MLOAD PUSH32 0x8C379A000000000000000000000000000000000000000000000000000000000 DUP2 MSTORE PUSH1 0x4 ADD PUSH2 0x10B SWAP1 PUSH2 0x6B8 JUMP JUMPDEST PUSH1 0x40 MLOAD DUP1 SWAP2 SUB SWAP1 REVERT JUMPDEST PUSH0 PUSH0 SWAP1 POP JUMPDEST DUP3 MLOAD DUP2 LT ISZERO PUSH2 0x2FB JUMPI PUSH0 DUP4 DUP3 DUP2 MLOAD DUP2 LT PUSH2 0x136 JUMPI PUSH2 0x135 PUSH2 0x6D6 JUMP JUMPDEST JUMPDEST PUSH1 0x20 MUL PUSH1 0x20 ADD ADD MLOAD SWAP1 POP PUSH0 PUSH20 0xFFFFFFFFFFFFFFFFFFFFFFFFFFFFFFFFFFFFFFFF AND DUP2 PUSH20 0xFFFFFFFFFFFFFFFFFFFFFFFFFFFFFFFFFFFFFFFF AND EQ ISZERO DUP1 ISZERO PUSH2 0x1A8 JUMPI POP ADDRESS PUSH20 0xFFFFFFFFFFFFFFFFFFFFFFFFFFFFFFFFFFFFFFFF AND DUP2 PUSH20 0xFFFFFFFFFFFFFFFFFFFFFFFFFFFFFFFFFFFFFFFF AND EQ ISZERO JUMPDEST DUP1 ISZERO PUSH2 0x1FB JUMPI POP PUSH1 0x1 PUSH0 DUP3 PUSH20 0xFFFFFFFFFFFFFFFFFFFFFFFFFFFFFFFFFFFFFFFF AND PUSH20 0xFFFFFFFFFFFFFFFFFFFFFFFFFFFFFFFFFFFFFFFF AND DUP2 MSTORE PUSH1 0x20 ADD SWAP1 DUP2 MSTORE PUSH1 0x20 ADD PUSH0 KECCAK256 PUSH0 SWAP1 SLOAD SWAP1 PUSH2 0x100 EXP SWAP1 DIV PUSH1 0xFF AND ISZERO JUMPDEST PUSH2 0x23A JUMPI PUSH1 0x40 MLOAD PUSH32 0x8C379A000000000000000000000000000000000000000000000000000000000 DUP2 MSTORE PUSH1 0x4 ADD PUSH2 0x231 SWAP1 PUSH2 0x799 JUMP JUMPDEST PUSH1 0x40 MLOAD DUP1 SWAP2 SUB SWAP1 REVERT JUMPDEST PUSH0 DUP2 SWAP1 DUP1 PUSH1 0x1 DUP2 SLOAD ADD DUP1 DUP3 SSTORE DUP1 SWAP2 POP POP PUSH1 0x1 SWAP1 SUB SWAP1 PUSH0 MSTORE PUSH1 0x20 PUSH0 KECCAK256 ADD PUSH0 SWAP1 SWAP2 SWAP1 SWAP2 SWAP1 SWAP2 PUSH2 0x100 EXP DUP2 SLOAD DUP2 PUSH20 0xFFFFFFFFFFFFFFFFFFFFFFFFFFFFFFFFFFFFFFFF MUL NOT AND SWAP1 DUP4 PUSH20 0xFFFFFFFFFFFFFFFFFFFFFFFFFFFFFFFFFFFFFFFF AND MUL OR SWAP1 SSTORE POP PUSH1 0x1 DUP1 PUSH0 DUP4 PUSH20 0xFFFFFFFFFFFFFFFFFFFFFFFFFFFFFFFFFFFFFFFF AND PUSH20 0xFFFFFFFFFFFFFFFFFFFFFFFFFFFFFFFFFFFFFFFF AND DUP2 MSTORE PUSH1 0x20 ADD SWAP1 DUP2 MSTORE PUSH1 0x20 ADD PUSH0 KECCAK256 PUSH0 PUSH2 0x100 EXP DUP2 SLOAD DUP2 PUSH1 0xFF MUL NOT AND SWAP1 DUP4 ISZERO ISZERO MUL OR SWAP1 SSTORE POP POP DUP1 DUP1 PUSH1 0x1 ADD SWAP2 POP POP PUSH2 0x119 JUMP JUMPDEST POP DUP2 MLOAD PUSH1 0x2 PUSH0 DUP3 DUP3 SLOAD PUSH2 0x30E SWAP2 SWAP1 PUSH2 0x7E4 JUMP JUMPDEST SWAP3 POP POP DUP2 SWAP1 SSTORE POP DUP1 PUSH1 0x3 DUP2 SWAP1 SSTORE POP POP POP JUMP JUMPDEST PUSH0 PUSH1 0x40 MLOAD SWAP1 POP SWAP1 JUMP JUMPDEST PUSH0 PUSH0 REVERT JUMPDEST PUSH0 PUSH0 REVERT JUMPDEST PUSH0 PUSH0 REVERT JUMPDEST PUSH0 PUSH1 0x1F NOT PUSH1 0x1F DUP4 ADD AND SWAP1 POP SWAP2 SWAP1 POP JUMP JUMPDEST PUSH32 0x4E487B7100000000000000000000000000000000000000000000000000000000 PUSH0 MSTORE PUSH1 0x41 PUSH1 0x4 MSTORE PUSH1 0x24 PUSH0 REVERT JUMPDEST PUSH2 0x37B DUP3 PUSH2 0x335 JUMP JUMPDEST DUP2 ADD DUP2 DUP2 LT PUSH8 0xFFFFFFFFFFFFFFFF DUP3 GT OR ISZERO PUSH2 0x39A JUMPI PUSH2 0x399 PUSH2 0x345 JUMP JUMPDEST JUMPDEST DUP1 PUSH1 0x40 MSTORE POP POP POP JUMP JUMPDEST PUSH0 PUSH2 0x3AC PUSH2 0x320 JUMP JUMPDEST SWAP1 POP PUSH2 0x3B8 DUP3 DUP3 PUSH2 0x372 JUMP JUMPDEST SWAP2 SWAP1 POP JUMP JUMPDEST PUSH0 PUSH8 0xFFFFFFFFFFFFFFFF DUP3 GT ISZERO PUSH2 0x3D7 JUMPI PUSH2 0x3D6 PUSH2 0x345 JUMP JUMPDEST JUMPDEST PUSH1 0x20 DUP3 MUL SWAP1 POP PUSH1 0x20 DUP2 ADD SWAP1 POP SWAP2 SWAP1 POP JUMP JUMPDEST PUSH0 PUSH0 REVERT JUMPDEST PUSH0 PUSH20 0xFFFFFFFFFFFFFFFFFFFFFFFFFFFFFFFFFFFFFFFF DUP3 AND SWAP1 POP SWAP2 SWAP1 POP JUMP JUMPDEST PUSH0 PUSH2 0x415 DUP3 PUSH2 0x3EC JUMP JUMPDEST SWAP1 POP SWAP2 SWAP1 POP JUMP JUMPDEST PUSH2 0x425 DUP2 PUSH2 0x40B JUMP JUMPDEST DUP2 EQ PUSH2 0x42F JUMPI PUSH0 PUSH0 REVERT JUMPDEST POP JUMP JUMPDEST PUSH0 DUP2 MLOAD SWAP1 POP PUSH2 0x440 DUP2 PUSH2 0x41C JUMP JUMPDEST SWAP3 SWAP2 POP POP JUMP JUMPDEST PUSH0 PUSH2 0x458 PUSH2 0x453 DUP5 PUSH2 0x3BD JUMP JUMPDEST PUSH2 0x3A3 JUMP JUMPDEST SWAP1 POP DUP1 DUP4 DUP3 MSTORE PUSH1 0x20 DUP3 ADD SWAP1 POP PUSH1 0x20 DUP5 MUL DUP4 ADD DUP6 DUP2 GT ISZERO PUSH2 0x47B JUMPI PUSH2 0x47A PUSH2 0x3E8 JUMP JUMPDEST JUMPDEST DUP4 JUMPDEST DUP2 DUP2 LT ISZERO PUSH2 0x4A4 JUMPI DUP1 PUSH2 0x490 DUP9 DUP3 PUSH2 0x432 JUMP JUMPDEST DUP5 MSTORE PUSH1 0x20 DUP5 ADD SWAP4 POP POP PUSH1 0x20 DUP2 ADD SWAP1 POP PUSH2 0x47D JUMP JUMPDEST POP POP POP SWAP4 SWAP3 POP POP POP JUMP JUMPDEST PUSH0 DUP3 PUSH1 0x1F DUP4 ADD SLT PUSH2 0x4C2 JUMPI PUSH2 0x4C1 PUSH2 0x331 JUMP JUMPDEST JUMPDEST DUP2 MLOAD PUSH2 0x4D2 DUP5 DUP3 PUSH1 0x20 DUP7 ADD PUSH2 0x446 JUMP JUMPDEST SWAP2 POP POP SWAP3 SWAP2 POP POP JUMP JUMPDEST PUSH0 DUP2 SWAP1 POP SWAP2 SWAP1 POP JUMP JUMPDEST PUSH2 0x4ED DUP2 PUSH2 0x4DB JUMP JUMPDEST DUP2 EQ PUSH2 0x4F7 JUMPI PUSH0 PUSH0 REVERT JUMPDEST POP JUMP JUMPDEST PUSH0 DUP2 MLOAD SWAP1 POP PUSH2 0x508 DUP2 PUSH2 0x4E4 JUMP JUMPDEST SWAP3 SWAP2 POP POP JUMP JUMPDEST PUSH0 PUSH0 PUSH1 0x40 DUP4 DUP6 SUB SLT ISZERO PUSH2 0x524 JUMPI PUSH2 0x523 PUSH2 0x329 JUMP JUMPDEST JUMPDEST PUSH0 DUP4 ADD MLOAD PUSH8 0xFFFFFFFFFFFFFFFF DUP2 GT ISZERO PUSH2 0x541 JUMPI PUSH2 0x540 PUSH2 0x32D JUMP JUMPDEST JUMPDEST PUSH2 0x54D DUP6 DUP3 DUP7 ADD PUSH2 0x4AE JUMP JUMPDEST SWAP3 POP POP PUSH1 0x20 PUSH2 0x55E DUP6 DUP3 DUP7 ADD PUSH2 0x4FA JUMP JUMPDEST SWAP2 POP POP SWAP3 POP SWAP3 SWAP1 POP JUMP JUMPDEST PUSH0 DUP3 DUP3 MSTORE PUSH1 0x20 DUP3 ADD SWAP1 POP SWAP3 SWAP2 POP POP JUMP JUMPDEST PUSH32 0x7468726573686F6C6420686173206265656E20696E697469616C697A65640000 PUSH0 DUP3 ADD MSTORE POP JUMP JUMPDEST PUSH0 PUSH2 0x5AC PUSH1 0x1E DUP4 PUSH2 0x568 JUMP JUMPDEST SWAP2 POP PUSH2 0x5B7 DUP3 PUSH2 0x578 JUMP JUMPDEST PUSH1 0x20 DUP3 ADD SWAP1 POP SWAP2 SWAP1 POP JUMP JUMPDEST PUSH0 PUSH1 0x20 DUP3 ADD SWAP1 POP DUP2 DUP2 SUB PUSH0 DUP4 ADD MSTORE PUSH2 0x5D9 DUP2 PUSH2 0x5A0 JUMP JUMPDEST SWAP1 POP SWAP2 SWAP1 POP JUMP JUMPDEST PUSH32 0x7468726573686F6C64206D657374206C657373207468616E206F776E65727320 PUSH0 DUP3 ADD MSTORE PUSH32 0x636F756E74000000000000000000000000000000000000000000000000000000 PUSH1 0x20 DUP3 ADD MSTORE POP JUMP JUMPDEST PUSH0 PUSH2 0x63A PUSH1 0x25 DUP4 PUSH2 0x568 JUMP JUMPDEST SWAP2 POP PUSH2 0x645 DUP3 PUSH2 0x5E0 JUMP JUMPDEST PUSH1 0x40 DUP3 ADD SWAP1 POP SWAP2 SWAP1 POP JUMP JUMPDEST PUSH0 PUSH1 0x20 DUP3 ADD SWAP1 POP DUP2 DUP2 SUB PUSH0 DUP4 ADD MSTORE PUSH2 0x667 DUP2 PUSH2 0x62E JUMP JUMPDEST SWAP1 POP SWAP2 SWAP1 POP JUMP JUMPDEST PUSH32 0x6D756C7469536967206E656564206D6F7265207468616E206F6E652073696700 PUSH0 DUP3 ADD MSTORE POP JUMP JUMPDEST PUSH0 PUSH2 0x6A2 PUSH1 0x1F DUP4 PUSH2 0x568 JUMP JUMPDEST SWAP2 POP PUSH2 0x6AD DUP3 PUSH2 0x66E JUMP JUMPDEST PUSH1 0x20 DUP3 ADD SWAP1 POP SWAP2 SWAP1 POP JUMP JUMPDEST PUSH0 PUSH1 0x20 DUP3 ADD SWAP1 POP DUP2 DUP2 SUB PUSH0 DUP4 ADD MSTORE PUSH2 0x6CF DUP2 PUSH2 0x696 JUMP JUMPDEST SWAP1 POP SWAP2 SWAP1 POP JUMP JUMPDEST PUSH32 0x4E487B7100000000000000000000000000000000000000000000000000000000 PUSH0 MSTORE PUSH1 0x32 PUSH1 0x4 MSTORE PUSH1 0x24 PUSH0 REVERT JUMPDEST PUSH32 0x6F776E6572206973206E6F74207A65726F20616E64206E6F7420746869732063 PUSH0 DUP3 ADD MSTORE PUSH32 0x6F6E7472616374206164647265737320616E64206265666F7265206E6F742061 PUSH1 0x20 DUP3 ADD MSTORE PUSH32 0x2073696E676C6553696700000000000000000000000000000000000000000000 PUSH1 0x40 DUP3 ADD MSTORE POP JUMP JUMPDEST PUSH0 PUSH2 0x783 PUSH1 0x4A DUP4 PUSH2 0x568 JUMP JUMPDEST SWAP2 POP PUSH2 0x78E DUP3 PUSH2 0x703 JUMP JUMPDEST PUSH1 0x60 DUP3 ADD SWAP1 POP SWAP2 SWAP1 POP JUMP JUMPDEST PUSH0 PUSH1 0x20 DUP3 ADD SWAP1 POP DUP2 DUP2 SUB PUSH0 DUP4 ADD MSTORE PUSH2 0x7B0 DUP2 PUSH2 0x777 JUMP JUMPDEST SWAP1 POP SWAP2 SWAP1 POP JUMP JUMPDEST PUSH32 0x4E487B7100000000000000000000000000000000000000000000000000000000 PUSH0 MSTORE PUSH1 0x11 PUSH1 0x4 MSTORE PUSH1 0x24 PUSH0 REVERT JUMPDEST PUSH0 PUSH2 0x7EE DUP3 PUSH2 0x4DB JUMP JUMPDEST SWAP2 POP PUSH2 0x7F9 DUP4 PUSH2 0x4DB JUMP JUMPDEST SWAP3 POP DUP3 DUP3 ADD SWAP1 POP DUP1 DUP3 GT ISZERO PUSH2 0x811 JUMPI PUSH2 0x810 PUSH2 0x7B7 JUMP JUMPDEST JUMPDEST SWAP3 SWAP2 POP POP JUMP JUMPDEST PUSH2 0xDF3 DUP1 PUSH2 0x824 PUSH0 CODECOPY PUSH0 RETURN INVALID PUSH1 0x80 PUSH1 0x40 MSTORE PUSH1 0x4 CALLDATASIZE LT PUSH2 0x7E JUMPI PUSH0 CALLDATALOAD PUSH1 0xE0 SHR DUP1 PUSH4 0xA67DD509 GT PUSH2 0x4D JUMPI DUP1 PUSH4 0xA67DD509 EQ PUSH2 0x155 JUMPI DUP1 PUSH4 0xAFFED0E0 EQ PUSH2 0x191 JUMPI DUP1 PUSH4 0xD01AA318 EQ PUSH2 0x1BB JUMPI DUP1 PUSH4 0xED516D51 EQ PUSH2 0x1EB JUMPI PUSH2 0x85 JUMP JUMPDEST DUP1 PUSH4 0x25E7C27 EQ PUSH2 0x89 JUMPI DUP1 PUSH4 0xDB02622 EQ PUSH2 0xC5 JUMPI DUP1 PUSH4 0x2F54BF6E EQ PUSH2 0xEF JUMPI DUP1 PUSH4 0x42CDE4E8 EQ PUSH2 0x12B JUMPI PUSH2 0x85 JUMP JUMPDEST CALLDATASIZE PUSH2 0x85 JUMPI STOP JUMPDEST PUSH0 PUSH0 REVERT JUMPDEST CALLVALUE DUP1 ISZERO PUSH2 0x94 JUMPI PUSH0 PUSH0 REVERT JUMPDEST POP PUSH2 0xAF PUSH1 0x4 DUP1 CALLDATASIZE SUB DUP2 ADD SWAP1 PUSH2 0xAA SWAP2 SWAP1 PUSH2 0x626 JUMP JUMPDEST PUSH2 0x213 JUMP JUMPDEST PUSH1 0x40 MLOAD PUSH2 0xBC SWAP2 SWAP1 PUSH2 0x690 JUMP JUMPDEST PUSH1 0x40 MLOAD DUP1 SWAP2 SUB SWAP1 RETURN JUMPDEST CALLVALUE DUP1 ISZERO PUSH2 0xD0 JUMPI PUSH0 PUSH0 REVERT JUMPDEST POP PUSH2 0xD9 PUSH2 0x24D JUMP JUMPDEST PUSH1 0x40 MLOAD PUSH2 0xE6 SWAP2 SWAP1 PUSH2 0x6B8 JUMP JUMPDEST PUSH1 0x40 MLOAD DUP1 SWAP2 SUB SWAP1 RETURN JUMPDEST CALLVALUE DUP1 ISZERO PUSH2 0xFA JUMPI PUSH0 PUSH0 REVERT JUMPDEST POP PUSH2 0x115 PUSH1 0x4 DUP1 CALLDATASIZE SUB DUP2 ADD SWAP1 PUSH2 0x110 SWAP2 SWAP1 PUSH2 0x6FB JUMP JUMPDEST PUSH2 0x253 JUMP JUMPDEST PUSH1 0x40 MLOAD PUSH2 0x122 SWAP2 SWAP1 PUSH2 0x740 JUMP JUMPDEST PUSH1 0x40 MLOAD DUP1 SWAP2 SUB SWAP1 RETURN JUMPDEST CALLVALUE DUP1 ISZERO PUSH2 0x136 JUMPI PUSH0 PUSH0 REVERT JUMPDEST POP PUSH2 0x13F PUSH2 0x270 JUMP JUMPDEST PUSH1 0x40 MLOAD PUSH2 0x14C SWAP2 SWAP1 PUSH2 0x6B8 JUMP JUMPDEST PUSH1 0x40 MLOAD DUP1 SWAP2 SUB SWAP1 RETURN JUMPDEST CALLVALUE DUP1 ISZERO PUSH2 0x160 JUMPI PUSH0 PUSH0 REVERT JUMPDEST POP PUSH2 0x17B PUSH1 0x4 DUP1 CALLDATASIZE SUB DUP2 ADD SWAP1 PUSH2 0x176 SWAP2 SWAP1 PUSH2 0x895 JUMP JUMPDEST PUSH2 0x276 JUMP JUMPDEST PUSH1 0x40 MLOAD PUSH2 0x188 SWAP2 SWAP1 PUSH2 0x940 JUMP JUMPDEST PUSH1 0x40 MLOAD DUP1 SWAP2 SUB SWAP1 RETURN JUMPDEST CALLVALUE DUP1 ISZERO PUSH2 0x19C JUMPI PUSH0 PUSH0 REVERT JUMPDEST POP PUSH2 0x1A5 PUSH2 0x2BD JUMP JUMPDEST PUSH1 0x40 MLOAD PUSH2 0x1B2 SWAP2 SWAP1 PUSH2 0x6B8 JUMP JUMPDEST PUSH1 0x40 MLOAD DUP1 SWAP2 SUB SWAP1 RETURN JUMPDEST PUSH2 0x1D5 PUSH1 0x4 DUP1 CALLDATASIZE SUB DUP2 ADD SWAP1 PUSH2 0x1D0 SWAP2 SWAP1 PUSH2 0x959 JUMP JUMPDEST PUSH2 0x2C3 JUMP JUMPDEST PUSH1 0x40 MLOAD PUSH2 0x1E2 SWAP2 SWAP1 PUSH2 0x740 JUMP JUMPDEST PUSH1 0x40 MLOAD DUP1 SWAP2 SUB SWAP1 RETURN JUMPDEST CALLVALUE DUP1 ISZERO PUSH2 0x1F6 JUMPI PUSH0 PUSH0 REVERT JUMPDEST POP PUSH2 0x211 PUSH1 0x4 DUP1 CALLDATASIZE SUB DUP2 ADD SWAP1 PUSH2 0x20C SWAP2 SWAP1 PUSH2 0xA1F JUMP JUMPDEST PUSH2 0x3E5 JUMP JUMPDEST STOP JUMPDEST PUSH0 DUP2 DUP2 SLOAD DUP2 LT PUSH2 0x221 JUMPI PUSH0 DUP1 REVERT JUMPDEST SWAP1 PUSH0 MSTORE PUSH1 0x20 PUSH0 KECCAK256 ADD PUSH0 SWAP2 POP SLOAD SWAP1 PUSH2 0x100 EXP SWAP1 DIV PUSH20 0xFFFFFFFFFFFFFFFFFFFFFFFFFFFFFFFFFFFFFFFF AND DUP2 JUMP JUMPDEST PUSH1 0x2 SLOAD DUP2 JUMP JUMPDEST PUSH1 0x1 PUSH1 0x20 MSTORE DUP1 PUSH0 MSTORE PUSH1 0x40 PUSH0 KECCAK256 PUSH0 SWAP2 POP SLOAD SWAP1 PUSH2 0x100 EXP SWAP1 DIV PUSH1 0xFF AND DUP2 JUMP JUMPDEST PUSH1 0x3 SLOAD DUP2 JUMP JUMPDEST PUSH0 PUSH0 DUP7 DUP7 DUP7 DUP1 MLOAD SWAP1 PUSH1 0x20 ADD KECCAK256 DUP7 DUP7 PUSH1 0x40 MLOAD PUSH1 0x20 ADD PUSH2 0x298 SWAP6 SWAP5 SWAP4 SWAP3 SWAP2 SWAP1 PUSH2 0xA79 JUMP JUMPDEST PUSH1 0x40 MLOAD PUSH1 0x20 DUP2 DUP4 SUB SUB DUP2 MSTORE SWAP1 PUSH1 0x40 MSTORE DUP1 MLOAD SWAP1 PUSH1 0x20 ADD KECCAK256 SWAP1 POP DUP1 SWAP2 POP POP SWAP6 SWAP5 POP POP POP POP POP JUMP JUMPDEST PUSH1 0x4 SLOAD DUP2 JUMP JUMPDEST PUSH0 PUSH0 PUSH2 0x2D4 DUP7 DUP7 DUP7 PUSH1 0x4 SLOAD CHAINID PUSH2 0x276 JUMP JUMPDEST SWAP1 POP PUSH1 0x4 PUSH0 DUP2 SLOAD DUP1 SWAP3 SWAP2 SWAP1 PUSH2 0x2E8 SWAP1 PUSH2 0xAF7 JUMP JUMPDEST SWAP2 SWAP1 POP SSTORE POP PUSH2 0x2F7 DUP2 DUP5 PUSH2 0x3E5 JUMP JUMPDEST DUP6 PUSH20 0xFFFFFFFFFFFFFFFFFFFFFFFFFFFFFFFFFFFFFFFF AND DUP6 DUP6 PUSH1 0x40 MLOAD PUSH2 0x31D SWAP2 SWAP1 PUSH2 0xB90 JUMP JUMPDEST PUSH0 PUSH1 0x40 MLOAD DUP1 DUP4 SUB DUP2 DUP6 DUP8 GAS CALL SWAP3 POP POP POP RETURNDATASIZE DUP1 PUSH0 DUP2 EQ PUSH2 0x357 JUMPI PUSH1 0x40 MLOAD SWAP2 POP PUSH1 0x1F NOT PUSH1 0x3F RETURNDATASIZE ADD AND DUP3 ADD PUSH1 0x40 MSTORE RETURNDATASIZE DUP3 MSTORE RETURNDATASIZE PUSH0 PUSH1 0x20 DUP5 ADD RETURNDATACOPY PUSH2 0x35C JUMP JUMPDEST PUSH1 0x60 SWAP2 POP JUMPDEST POP POP DUP1 SWAP3 POP POP DUP2 ISZERO PUSH2 0x3A4 JUMPI PUSH32 0xDC29884A71D2BB98D3C53DC09718BE05C7BFD142B7773A5C5CF2517629290AC0 DUP2 PUSH1 0x40 MLOAD PUSH2 0x397 SWAP2 SWAP1 PUSH2 0x940 JUMP JUMPDEST PUSH1 0x40 MLOAD DUP1 SWAP2 SUB SWAP1 LOG1 PUSH2 0x3DC JUMP JUMPDEST PUSH32 0xDBE42D02A4E07D7EEFF2874EFE172540C93B297D206F6D691C9782A257323E32 DUP2 PUSH1 0x40 MLOAD PUSH2 0x3D3 SWAP2 SWAP1 PUSH2 0x940 JUMP JUMPDEST PUSH1 0x40 MLOAD DUP1 SWAP2 SUB SWAP1 LOG1 JUMPDEST POP SWAP5 SWAP4 POP POP POP POP JUMP JUMPDEST PUSH0 PUSH1 0x3 SLOAD SWAP1 POP PUSH1 0x41 DUP2 PUSH2 0x3F8 SWAP2 SWAP1 PUSH2 0xBA6 JUMP JUMPDEST DUP3 MLOAD LT ISZERO PUSH2 0x43B JUMPI PUSH1 0x40 MLOAD PUSH32 0x8C379A000000000000000000000000000000000000000000000000000000000 DUP2 MSTORE PUSH1 0x4 ADD PUSH2 0x432 SWAP1 PUSH2 0xC67 JUMP JUMPDEST PUSH1 0x40 MLOAD DUP1 SWAP2 SUB SWAP1 REVERT JUMPDEST PUSH0 PUSH0 SWAP1 POP PUSH0 PUSH0 PUSH0 PUSH0 PUSH0 PUSH0 SWAP1 POP JUMPDEST DUP7 DUP2 LT ISZERO PUSH2 0x5AA JUMPI PUSH2 0x45A DUP9 DUP3 PUSH2 0x5B5 JUMP JUMPDEST DUP1 SWAP5 POP DUP2 SWAP6 POP DUP3 SWAP7 POP POP POP POP PUSH1 0x1 DUP10 PUSH1 0x40 MLOAD PUSH1 0x20 ADD PUSH2 0x479 SWAP2 SWAP1 PUSH2 0xCF9 JUMP JUMPDEST PUSH1 0x40 MLOAD PUSH1 0x20 DUP2 DUP4 SUB SUB DUP2 MSTORE SWAP1 PUSH1 0x40 MSTORE DUP1 MLOAD SWAP1 PUSH1 0x20 ADD KECCAK256 DUP6 DUP6 DUP6 PUSH1 0x40 MLOAD PUSH0 DUP2 MSTORE PUSH1 0x20 ADD PUSH1 0x40 MSTORE PUSH1 0x40 MLOAD PUSH2 0x4AE SWAP5 SWAP4 SWAP3 SWAP2 SWAP1 PUSH2 0xD39 JUMP JUMPDEST PUSH1 0x20 PUSH1 0x40 MLOAD PUSH1 0x20 DUP2 SUB SWAP1 DUP1 DUP5 SUB SWAP1 DUP6 GAS STATICCALL ISZERO DUP1 ISZERO PUSH2 0x4CE JUMPI RETURNDATASIZE PUSH0 PUSH0 RETURNDATACOPY RETURNDATASIZE PUSH0 REVERT JUMPDEST POP POP POP PUSH1 0x20 PUSH1 0x40 MLOAD SUB MLOAD SWAP5 POP DUP6 PUSH20 0xFFFFFFFFFFFFFFFFFFFFFFFFFFFFFFFFFFFFFFFF AND DUP6 PUSH20 0xFFFFFFFFFFFFFFFFFFFFFFFFFFFFFFFFFFFFFFFF AND GT DUP1 ISZERO PUSH2 0x55B JUMPI POP PUSH1 0x1 PUSH0 DUP7 PUSH20 0xFFFFFFFFFFFFFFFFFFFFFFFFFFFFFFFFFFFFFFFF AND PUSH20 0xFFFFFFFFFFFFFFFFFFFFFFFFFFFFFFFFFFFFFFFF AND DUP2 MSTORE PUSH1 0x20 ADD SWAP1 DUP2 MSTORE PUSH1 0x20 ADD PUSH0 KECCAK256 PUSH0 SWAP1 SLOAD SWAP1 PUSH2 0x100 EXP SWAP1 DIV PUSH1 0xFF AND JUMPDEST PUSH2 0x59A JUMPI PUSH1 0x40 MLOAD PUSH32 0x8C379A000000000000000000000000000000000000000000000000000000000 DUP2 MSTORE PUSH1 0x4 ADD PUSH2 0x591 SWAP1 PUSH2 0xD9F JUMP JUMPDEST PUSH1 0x40 MLOAD DUP1 SWAP2 SUB SWAP1 REVERT JUMPDEST DUP5 SWAP6 POP DUP1 DUP1 PUSH1 0x1 ADD SWAP2 POP POP PUSH2 0x448 JUMP JUMPDEST POP POP POP POP POP POP POP POP POP JUMP JUMPDEST PUSH0 PUSH0 PUSH0 DUP4 PUSH1 0x41 MUL PUSH1 0x20 DUP2 ADD DUP7 ADD MLOAD SWAP3 POP PUSH1 0x40 DUP2 ADD DUP7 ADD MLOAD SWAP2 POP PUSH1 0xFF PUSH1 0x41 DUP3 ADD DUP8 ADD MLOAD AND SWAP4 POP POP SWAP3 POP SWAP3 POP SWAP3 JUMP JUMPDEST PUSH0 PUSH1 0x40 MLOAD SWAP1 POP SWAP1 JUMP JUMPDEST PUSH0 PUSH0 REVERT JUMPDEST PUSH0 PUSH0 REVERT JUMPDEST PUSH0 DUP2 SWAP1 POP SWAP2 SWAP1 POP JUMP JUMPDEST PUSH2 0x605 DUP2 PUSH2 0x5F3 JUMP JUMPDEST DUP2 EQ PUSH2 0x60F JUMPI PUSH0 PUSH0 REVERT JUMPDEST POP JUMP JUMPDEST PUSH0 DUP2 CALLDATALOAD SWAP1 POP PUSH2 0x620 DUP2 PUSH2 0x5FC JUMP JUMPDEST SWAP3 SWAP2 POP POP JUMP JUMPDEST PUSH0 PUSH1 0x20 DUP3 DUP5 SUB SLT ISZERO PUSH2 0x63B JUMPI PUSH2 0x63A PUSH2 0x5EB JUMP JUMPDEST JUMPDEST PUSH0 PUSH2 0x648 DUP5 DUP3 DUP6 ADD PUSH2 0x612 JUMP JUMPDEST SWAP2 POP POP SWAP3 SWAP2 POP POP JUMP JUMPDEST PUSH0 PUSH20 0xFFFFFFFFFFFFFFFFFFFFFFFFFFFFFFFFFFFFFFFF DUP3 AND SWAP1 POP SWAP2 SWAP1 POP JUMP JUMPDEST PUSH0 PUSH2 0x67A DUP3 PUSH2 0x651 JUMP JUMPDEST SWAP1 POP SWAP2 SWAP1 POP JUMP JUMPDEST PUSH2 0x68A DUP2 PUSH2 0x670 JUMP JUMPDEST DUP3 MSTORE POP POP JUMP JUMPDEST PUSH0 PUSH1 0x20 DUP3 ADD SWAP1 POP PUSH2 0x6A3 PUSH0 DUP4 ADD DUP5 PUSH2 0x681 JUMP JUMPDEST SWAP3 SWAP2 POP POP JUMP JUMPDEST PUSH2 0x6B2 DUP2 PUSH2 0x5F3 JUMP JUMPDEST DUP3 MSTORE POP POP JUMP JUMPDEST PUSH0 PUSH1 0x20 DUP3 ADD SWAP1 POP PUSH2 0x6CB PUSH0 DUP4 ADD DUP5 PUSH2 0x6A9 JUMP JUMPDEST SWAP3 SWAP2 POP POP JUMP JUMPDEST PUSH2 0x6DA DUP2 PUSH2 0x670 JUMP JUMPDEST DUP2 EQ PUSH2 0x6E4 JUMPI PUSH0 PUSH0 REVERT JUMPDEST POP JUMP JUMPDEST PUSH0 DUP2 CALLDATALOAD SWAP1 POP PUSH2 0x6F5 DUP2 PUSH2 0x6D1 JUMP JUMPDEST SWAP3 SWAP2 POP POP JUMP JUMPDEST PUSH0 PUSH1 0x20 DUP3 DUP5 SUB SLT ISZERO PUSH2 0x710 JUMPI PUSH2 0x70F PUSH2 0x5EB JUMP JUMPDEST JUMPDEST PUSH0 PUSH2 0x71D DUP5 DUP3 DUP6 ADD PUSH2 0x6E7 JUMP JUMPDEST SWAP2 POP POP SWAP3 SWAP2 POP POP JUMP JUMPDEST PUSH0 DUP2 ISZERO ISZERO SWAP1 POP SWAP2 SWAP1 POP JUMP JUMPDEST PUSH2 0x73A DUP2 PUSH2 0x726 JUMP JUMPDEST DUP3 MSTORE POP POP JUMP JUMPDEST PUSH0 PUSH1 0x20 DUP3 ADD SWAP1 POP PUSH2 0x753 PUSH0 DUP4 ADD DUP5 PUSH2 0x731 JUMP JUMPDEST SWAP3 SWAP2 POP POP JUMP JUMPDEST PUSH0 PUSH0 REVERT JUMPDEST PUSH0 PUSH0 REVERT JUMPDEST PUSH0 PUSH1 0x1F NOT PUSH1 0x1F DUP4 ADD AND SWAP1 POP SWAP2 SWAP1 POP JUMP JUMPDEST PUSH32 0x4E487B7100000000000000000000000000000000000000000000000000000000 PUSH0 MSTORE PUSH1 0x41 PUSH1 0x4 MSTORE PUSH1 0x24 PUSH0 REVERT JUMPDEST PUSH2 0x7A7 DUP3 PUSH2 0x761 JUMP JUMPDEST DUP2 ADD DUP2 DUP2 LT PUSH8 0xFFFFFFFFFFFFFFFF DUP3 GT OR ISZERO PUSH2 0x7C6 JUMPI PUSH2 0x7C5 PUSH2 0x771 JUMP JUMPDEST JUMPDEST DUP1 PUSH1 0x40 MSTORE POP POP POP JUMP JUMPDEST PUSH0 PUSH2 0x7D8 PUSH2 0x5E2 JUMP JUMPDEST SWAP1 POP PUSH2 0x7E4 DUP3 DUP3 PUSH2 0x79E JUMP JUMPDEST SWAP2 SWAP1 POP JUMP JUMPDEST PUSH0 PUSH8 0xFFFFFFFFFFFFFFFF DUP3 GT ISZERO PUSH2 0x803 JUMPI PUSH2 0x802 PUSH2 0x771 JUMP JUMPDEST JUMPDEST PUSH2 0x80C DUP3 PUSH2 0x761 JUMP JUMPDEST SWAP1 POP PUSH1 0x20 DUP2 ADD SWAP1 POP SWAP2 SWAP1 POP JUMP JUMPDEST DUP3 DUP2 DUP4 CALLDATACOPY PUSH0 DUP4 DUP4 ADD MSTORE POP POP POP JUMP JUMPDEST PUSH0 PUSH2 0x839 PUSH2 0x834 DUP5 PUSH2 0x7E9 JUMP JUMPDEST PUSH2 0x7CF JUMP JUMPDEST SWAP1 POP DUP3 DUP2 MSTORE PUSH1 0x20 DUP2 ADD DUP5 DUP5 DUP5 ADD GT ISZERO PUSH2 0x855 JUMPI PUSH2 0x854 PUSH2 0x75D JUMP JUMPDEST JUMPDEST PUSH2 0x860 DUP5 DUP3 DUP6 PUSH2 0x819 JUMP JUMPDEST POP SWAP4 SWAP3 POP POP POP JUMP JUMPDEST PUSH0 DUP3 PUSH1 0x1F DUP4 ADD SLT PUSH2 0x87C JUMPI PUSH2 0x87B PUSH2 0x759 JUMP JUMPDEST JUMPDEST DUP2 CALLDATALOAD PUSH2 0x88C DUP5 DUP3 PUSH1 0x20 DUP7 ADD PUSH2 0x827 JUMP JUMPDEST SWAP2 POP POP SWAP3 SWAP2 POP POP JUMP JUMPDEST PUSH0 PUSH0 PUSH0 PUSH0 PUSH0 PUSH1 0xA0 DUP7 DUP9 SUB SLT ISZERO PUSH2 0x8AE JUMPI PUSH2 0x8AD PUSH2 0x5EB JUMP JUMPDEST JUMPDEST PUSH0 PUSH2 0x8BB DUP9 DUP3 DUP10 ADD PUSH2 0x6E7 JUMP JUMPDEST SWAP6 POP POP PUSH1 0x20 PUSH2 0x8CC DUP9 DUP3 DUP10 ADD PUSH2 0x612 JUMP JUMPDEST SWAP5 POP POP PUSH1 0x40 DUP7 ADD CALLDATALOAD PUSH8 0xFFFFFFFFFFFFFFFF DUP2 GT ISZERO PUSH2 0x8ED JUMPI PUSH2 0x8EC PUSH2 0x5EF JUMP JUMPDEST JUMPDEST PUSH2 0x8F9 DUP9 DUP3 DUP10 ADD PUSH2 0x868 JUMP JUMPDEST SWAP4 POP POP PUSH1 0x60 PUSH2 0x90A DUP9 DUP3 DUP10 ADD PUSH2 0x612 JUMP JUMPDEST SWAP3 POP POP PUSH1 0x80 PUSH2 0x91B DUP9 DUP3 DUP10 ADD PUSH2 0x612 JUMP JUMPDEST SWAP2 POP POP SWAP3 SWAP6 POP SWAP3 SWAP6 SWAP1 SWAP4 POP JUMP JUMPDEST PUSH0 DUP2 SWAP1 POP SWAP2 SWAP1 POP JUMP JUMPDEST PUSH2 0x93A DUP2 PUSH2 0x928 JUMP JUMPDEST DUP3 MSTORE POP POP JUMP JUMPDEST PUSH0 PUSH1 0x20 DUP3 ADD SWAP1 POP PUSH2 0x953 PUSH0 DUP4 ADD DUP5 PUSH2 0x931 JUMP JUMPDEST SWAP3 SWAP2 POP POP JUMP JUMPDEST PUSH0 PUSH0 PUSH0 PUSH0 PUSH1 0x80 DUP6 DUP8 SUB SLT ISZERO PUSH2 0x971 JUMPI PUSH2 0x970 PUSH2 0x5EB JUMP JUMPDEST JUMPDEST PUSH0 PUSH2 0x97E DUP8 DUP3 DUP9 ADD PUSH2 0x6E7 JUMP JUMPDEST SWAP5 POP POP PUSH1 0x20 PUSH2 0x98F DUP8 DUP3 DUP9 ADD PUSH2 0x612 JUMP JUMPDEST SWAP4 POP POP PUSH1 0x40 DUP6 ADD CALLDATALOAD PUSH8 0xFFFFFFFFFFFFFFFF DUP2 GT ISZERO PUSH2 0x9B0 JUMPI PUSH2 0x9AF PUSH2 0x5EF JUMP JUMPDEST JUMPDEST PUSH2 0x9BC DUP8 DUP3 DUP9 ADD PUSH2 0x868 JUMP JUMPDEST SWAP3 POP POP PUSH1 0x60 DUP6 ADD CALLDATALOAD PUSH8 0xFFFFFFFFFFFFFFFF DUP2 GT ISZERO PUSH2 0x9DD JUMPI PUSH2 0x9DC PUSH2 0x5EF JUMP JUMPDEST JUMPDEST PUSH2 0x9E9 DUP8 DUP3 DUP9 ADD PUSH2 0x868 JUMP JUMPDEST SWAP2 POP POP SWAP3 SWAP6 SWAP2 SWAP5 POP SWAP3 POP JUMP JUMPDEST PUSH2 0x9FE DUP2 PUSH2 0x928 JUMP JUMPDEST DUP2 EQ PUSH2 0xA08 JUMPI PUSH0 PUSH0 REVERT JUMPDEST POP JUMP JUMPDEST PUSH0 DUP2 CALLDATALOAD SWAP1 POP PUSH2 0xA19 DUP2 PUSH2 0x9F5 JUMP JUMPDEST SWAP3 SWAP2 POP POP JUMP JUMPDEST PUSH0 PUSH0 PUSH1 0x40 DUP4 DUP6 SUB SLT ISZERO PUSH2 0xA35 JUMPI PUSH2 0xA34 PUSH2 0x5EB JUMP JUMPDEST JUMPDEST PUSH0 PUSH2 0xA42 DUP6 DUP3 DUP7 ADD PUSH2 0xA0B JUMP JUMPDEST SWAP3 POP POP PUSH1 0x20 DUP4 ADD CALLDATALOAD PUSH8 0xFFFFFFFFFFFFFFFF DUP2 GT ISZERO PUSH2 0xA63 JUMPI PUSH2 0xA62 PUSH2 0x5EF JUMP JUMPDEST JUMPDEST PUSH2 0xA6F DUP6 DUP3 DUP7 ADD PUSH2 0x868 JUMP JUMPDEST SWAP2 POP POP SWAP3 POP SWAP3 SWAP1 POP JUMP JUMPDEST PUSH0 PUSH1 0xA0 DUP3 ADD SWAP1 POP PUSH2 0xA8C PUSH0 DUP4 ADD DUP9 PUSH2 0x681 JUMP JUMPDEST PUSH2 0xA99 PUSH1 0x20 DUP4 ADD DUP8 PUSH2 0x6A9 JUMP JUMPDEST PUSH2 0xAA6 PUSH1 0x40 DUP4 ADD DUP7 PUSH2 0x931 JUMP JUMPDEST PUSH2 0xAB3 PUSH1 0x60 DUP4 ADD DUP6 PUSH2 0x6A9 JUMP JUMPDEST PUSH2 0xAC0 PUSH1 0x80 DUP4 ADD DUP5 PUSH2 0x6A9 JUMP JUMPDEST SWAP7 SWAP6 POP POP POP POP POP POP JUMP JUMPDEST PUSH32 0x4E487B7100000000000000000000000000000000000000000000000000000000 PUSH0 MSTORE PUSH1 0x11 PUSH1 0x4 MSTORE PUSH1 0x24 PUSH0 REVERT JUMPDEST PUSH0 PUSH2 0xB01 DUP3 PUSH2 0x5F3 JUMP JUMPDEST SWAP2 POP PUSH32 0xFFFFFFFFFFFFFFFFFFFFFFFFFFFFFFFFFFFFFFFFFFFFFFFFFFFFFFFFFFFFFFFF DUP3 SUB PUSH2 0xB33 JUMPI PUSH2 0xB32 PUSH2 0xACA JUMP JUMPDEST JUMPDEST PUSH1 0x1 DUP3 ADD SWAP1 POP SWAP2 SWAP1 POP JUMP JUMPDEST PUSH0 DUP2 MLOAD SWAP1 POP SWAP2 SWAP1 POP JUMP JUMPDEST PUSH0 DUP2 SWAP1 POP SWAP3 SWAP2 POP POP JUMP JUMPDEST DUP3 DUP2 DUP4 MCOPY PUSH0 DUP4 DUP4 ADD MSTORE POP POP POP JUMP JUMPDEST PUSH0 PUSH2 0xB6A DUP3 PUSH2 0xB3E JUMP JUMPDEST PUSH2 0xB74 DUP2 DUP6 PUSH2 0xB48 JUMP JUMPDEST SWAP4 POP PUSH2 0xB84 DUP2 DUP6 PUSH1 0x20 DUP7 ADD PUSH2 0xB52 JUMP JUMPDEST DUP1 DUP5 ADD SWAP2 POP POP SWAP3 SWAP2 POP POP JUMP JUMPDEST PUSH0 PUSH2 0xB9B DUP3 DUP5 PUSH2 0xB60 JUMP JUMPDEST SWAP2 POP DUP2 SWAP1 POP SWAP3 SWAP2 POP POP JUMP JUMPDEST PUSH0 PUSH2 0xBB0 DUP3 PUSH2 0x5F3 JUMP JUMPDEST SWAP2 POP PUSH2 0xBBB DUP4 PUSH2 0x5F3 JUMP JUMPDEST SWAP3 POP DUP3 DUP3 MUL PUSH2 0xBC9 DUP2 PUSH2 0x5F3 JUMP JUMPDEST SWAP2 POP DUP3 DUP3 DIV DUP5 EQ DUP4 ISZERO OR PUSH2 0xBE0 JUMPI PUSH2 0xBDF PUSH2 0xACA JUMP JUMPDEST JUMPDEST POP SWAP3 SWAP2 POP POP JUMP JUMPDEST PUSH0 DUP3 DUP3 MSTORE PUSH1 0x20 DUP3 ADD SWAP1 POP SWAP3 SWAP2 POP POP JUMP JUMPDEST PUSH32 0x7369676E61747572657320636F756E74206E6F7420656E6F75676820746F2074 PUSH0 DUP3 ADD MSTORE PUSH32 0x72616E73616374696F6E00000000000000000000000000000000000000000000 PUSH1 0x20 DUP3 ADD MSTORE POP JUMP JUMPDEST PUSH0 PUSH2 0xC51 PUSH1 0x2A DUP4 PUSH2 0xBE7 JUMP JUMPDEST SWAP2 POP PUSH2 0xC5C DUP3 PUSH2 0xBF7 JUMP JUMPDEST PUSH1 0x40 DUP3 ADD SWAP1 POP SWAP2 SWAP1 POP JUMP JUMPDEST PUSH0 PUSH1 0x20 DUP3 ADD SWAP1 POP DUP2 DUP2 SUB PUSH0 DUP4 ADD MSTORE PUSH2 0xC7E DUP2 PUSH2 0xC45 JUMP JUMPDEST SWAP1 POP SWAP2 SWAP1 POP JUMP JUMPDEST PUSH0 DUP2 SWAP1 POP SWAP3 SWAP2 POP POP JUMP JUMPDEST PUSH32 0x19457468657265756D205369676E6564204D6573736167653A0A333200000000 PUSH0 DUP3 ADD MSTORE POP JUMP JUMPDEST PUSH0 PUSH2 0xCC3 PUSH1 0x1C DUP4 PUSH2 0xC85 JUMP JUMPDEST SWAP2 POP PUSH2 0xCCE DUP3 PUSH2 0xC8F JUMP JUMPDEST PUSH1 0x1C DUP3 ADD SWAP1 POP SWAP2 SWAP1 POP JUMP JUMPDEST PUSH0 DUP2 SWAP1 POP SWAP2 SWAP1 POP JUMP JUMPDEST PUSH2 0xCF3 PUSH2 0xCEE DUP3 PUSH2 0x928 JUMP JUMPDEST PUSH2 0xCD9 JUMP JUMPDEST DUP3 MSTORE POP POP JUMP JUMPDEST PUSH0 PUSH2 0xD03 DUP3 PUSH2 0xCB7 JUMP JUMPDEST SWAP2 POP PUSH2 0xD0F DUP3 DUP5 PUSH2 0xCE2 JUMP JUMPDEST PUSH1 0x20 DUP3 ADD SWAP2 POP DUP2 SWAP1 POP SWAP3 SWAP2 POP POP JUMP JUMPDEST PUSH0 PUSH1 0xFF DUP3 AND SWAP1 POP SWAP2 SWAP1 POP JUMP JUMPDEST PUSH2 0xD33 DUP2 PUSH2 0xD1E JUMP JUMPDEST DUP3 MSTORE POP POP JUMP JUMPDEST PUSH0 PUSH1 0x80 DUP3 ADD SWAP1 POP PUSH2 0xD4C PUSH0 DUP4 ADD DUP8 PUSH2 0x931 JUMP JUMPDEST PUSH2 0xD59 PUSH1 0x20 DUP4 ADD DUP7 PUSH2 0xD2A JUMP JUMPDEST PUSH2 0xD66 PUSH1 0x40 DUP4 ADD DUP6 PUSH2 0x931 JUMP JUMPDEST PUSH2 0xD73 PUSH1 0x60 DUP4 ADD DUP5 PUSH2 0x931 JUMP JUMPDEST SWAP6 SWAP5 POP POP POP POP POP JUMP JUMPDEST POP JUMP JUMPDEST PUSH0 PUSH2 0xD8A PUSH0 DUP4 PUSH2 0xBE7 JUMP JUMPDEST SWAP2 POP PUSH2 0xD95 DUP3 PUSH2 0xD7C JUMP JUMPDEST PUSH0 DUP3 ADD SWAP1 POP SWAP2 SWAP1 POP JUMP JUMPDEST PUSH0 PUSH1 0x20 DUP3 ADD SWAP1 POP DUP2 DUP2 SUB PUSH0 DUP4 ADD MSTORE PUSH2 0xDB6 DUP2 PUSH2 0xD7F JUMP JUMPDEST SWAP1 POP SWAP2 SWAP1 POP JUMP INVALID LOG2 PUSH5 0x6970667358 0x22 SLT KECCAK256 0x2A 0xD0 0xE8 0x24 0xDA ADD 0x4D DUP10 CALLCODE SWAP7 0xCD REVERT GASLIMIT SSTORE SWAP13 BASEFEE 0xC1 MUL SWAP4 DUP12 0x23 XOR 0xA8 DUP15 RETURN 0xF7 0xD0 CALLER 0xD9 MOD 0xF6 PC PUSH5 0x736F6C6343 STOP ADDMOD SHL STOP CALLER "
				},
				"gasEstimates": {
					"creation": {
						"codeDepositCost": "714200",
						"executionCost": "infinite",
						"totalCost": "infinite"
					},
					"external": {
						"checkSignatures(bytes32,bytes)": "infinite",
						"encodeTransactionData(address,uint256,bytes,uint256,uint256)": "infinite",
						"execTransaction(address,uint256,bytes,bytes)": "infinite",
						"isOwner(address)": "2878",
						"nonce()": "2447",
						"ownerCount()": "2448",
						"owners(uint256)": "4944",
						"threshold()": "2492"
					},
					"internal": {
						"_setupOwners(address[] memory,uint256)": "infinite",
						"signatureSplit(bytes memory,uint256)": "infinite"
					}
				},
				"methodIdentifiers": {
					"checkSignatures(bytes32,bytes)": "ed516d51",
					"encodeTransactionData(address,uint256,bytes,uint256,uint256)": "a67dd509",
					"execTransaction(address,uint256,bytes,bytes)": "d01aa318",
					"isOwner(address)": "2f54bf6e",
					"nonce()": "affed0e0",
					"ownerCount()": "0db02622",
					"owners(uint256)": "025e7c27",
					"threshold()": "42cde4e8"
				}
			},
			"storageLayout": {
				"storage": [
					{
						"astId": 12,
						"contract": "contract/46_MultisigWallet.sol:MultiSigWallet",
						"label": "owners",
						"offset": 0,
						"slot": "0",
						"type": "t_array(t_address)dyn_storage"
					},
					{
						"astId": 16,
						"contract": "contract/46_MultisigWallet.sol:MultiSigWallet",
						"label": "isOwner",
						"offset": 0,
						"slot": "1",
						"type": "t_mapping(t_address,t_bool)"
					},
					{
						"astId": 18,
						"contract": "contract/46_MultisigWallet.sol:MultiSigWallet",
						"label": "ownerCount",
						"offset": 0,
						"slot": "2",
						"type": "t_uint256"
					},
					{
						"astId": 20,
						"contract": "contract/46_MultisigWallet.sol:MultiSigWallet",
						"label": "threshold",
						"offset": 0,
						"slot": "3",
						"type": "t_uint256"
					},
					{
						"astId": 22,
						"contract": "contract/46_MultisigWallet.sol:MultiSigWallet",
						"label": "nonce",
						"offset": 0,
						"slot": "4",
						"type": "t_uint256"
					}
				],
				"types": {
					"t_address": {
						"encoding": "inplace",
						"label": "address",
						"numberOfBytes": "20"
					},
					"t_array(t_address)dyn_storage": {
						"base": "t_address",
						"encoding": "dynamic_array",
						"label": "address[]",
						"numberOfBytes": "32"
					},
					"t_bool": {
						"encoding": "inplace",
						"label": "bool",
						"numberOfBytes": "1"
					},
					"t_mapping(t_address,t_bool)": {
						"encoding": "mapping",
						"key": "t_address",
						"label": "mapping(address => bool)",
						"numberOfBytes": "32",
						"value": "t_bool"
					},
					"t_uint256": {
						"encoding": "inplace",
						"label": "uint256",
						"numberOfBytes": "32"
					}
				}
			},
			"userdoc": {
				"kind": "user",
				"methods": {},
				"version": 1
			}
		}
	}
}