{
	"common/PublicKeyManager.sol": {
		"PublicKeyManager": {
			"abi": [
				{
					"inputs": [
						{
							"internalType": "address",
							"name": "_address",
							"type": "address"
						}
					],
					"name": "getPublicKey",
					"outputs": [
						{
							"internalType": "bytes",
							"name": "",
							"type": "bytes"
						}
					],
					"stateMutability": "pure",
					"type": "function"
				}
			],
			"devdoc": {
				"kind": "dev",
				"methods": {},
				"version": 1
			},
			"evm": {
				"assembly": "    /* \"common/PublicKeyManager.sol\":61:271  contract PublicKeyManager {... */\n  mstore(0x40, 0x80)\n  callvalue\n  dup1\n  iszero\n  tag_1\n  jumpi\n  revert(0x00, 0x00)\ntag_1:\n  pop\n  dataSize(sub_0)\n  dup1\n  dataOffset(sub_0)\n  0x00\n  codecopy\n  0x00\n  return\nstop\n\nsub_0: assembly {\n        /* \"common/PublicKeyManager.sol\":61:271  contract PublicKeyManager {... */\n      mstore(0x40, 0x80)\n      callvalue\n      dup1\n      iszero\n      tag_1\n      jumpi\n      revert(0x00, 0x00)\n    tag_1:\n      pop\n      jumpi(tag_2, lt(calldatasize, 0x04))\n      shr(0xe0, calldataload(0x00))\n      dup1\n      0x857cdbb8\n      eq\n      tag_3\n      jumpi\n    tag_2:\n      revert(0x00, 0x00)\n        /* \"common/PublicKeyManager.sol\":96:268  function getPublicKey(address _address) public pure returns (bytes memory) {... */\n    tag_3:\n      tag_4\n      0x04\n      dup1\n      calldatasize\n      sub\n      dup2\n      add\n      swap1\n      tag_5\n      swap2\n      swap1\n      tag_6\n      jump\t// in\n    tag_5:\n      tag_7\n      jump\t// in\n    tag_4:\n      mload(0x40)\n      tag_8\n      swap2\n      swap1\n      tag_9\n      jump\t// in\n    tag_8:\n      mload(0x40)\n      dup1\n      swap2\n      sub\n      swap1\n      return\n    tag_7:\n        /* \"common/PublicKeyManager.sol\":157:169  bytes memory */\n      0x60\n        /* \"common/PublicKeyManager.sol\":182:204  bytes memory publicKey */\n      0x00\n        /* \"common/PublicKeyManager.sol\":224:232  _address */\n      dup3\n        /* \"common/PublicKeyManager.sol\":207:233  abi.encodePacked(_address) */\n      add(0x20, mload(0x40))\n      tag_11\n      swap2\n      swap1\n      tag_12\n      jump\t// in\n    tag_11:\n      mload(0x40)\n      0x20\n      dup2\n      dup4\n      sub\n      sub\n      dup2\n      mstore\n      swap1\n      0x40\n      mstore\n        /* \"common/PublicKeyManager.sol\":182:233  bytes memory publicKey = abi.encodePacked(_address) */\n      swap1\n      pop\n        /* \"common/PublicKeyManager.sol\":251:260  publicKey */\n      dup1\n        /* \"common/PublicKeyManager.sol\":244:260  return publicKey */\n      swap2\n      pop\n      pop\n        /* \"common/PublicKeyManager.sol\":96:268  function getPublicKey(address _address) public pure returns (bytes memory) {... */\n      swap2\n      swap1\n      pop\n      jump\t// out\n        /* \"#utility.yul\":88:205   */\n    tag_14:\n        /* \"#utility.yul\":197:198   */\n      0x00\n        /* \"#utility.yul\":194:195   */\n      0x00\n        /* \"#utility.yul\":187:199   */\n      revert\n        /* \"#utility.yul\":334:460   */\n    tag_16:\n        /* \"#utility.yul\":371:378   */\n      0x00\n        /* \"#utility.yul\":411:453   */\n      0xffffffffffffffffffffffffffffffffffffffff\n        /* \"#utility.yul\":404:409   */\n      dup3\n        /* \"#utility.yul\":400:454   */\n      and\n        /* \"#utility.yul\":389:454   */\n      swap1\n      pop\n        /* \"#utility.yul\":334:460   */\n      swap2\n      swap1\n      pop\n      jump\t// out\n        /* \"#utility.yul\":466:562   */\n    tag_17:\n        /* \"#utility.yul\":503:510   */\n      0x00\n        /* \"#utility.yul\":532:556   */\n      tag_35\n        /* \"#utility.yul\":550:555   */\n      dup3\n        /* \"#utility.yul\":532:556   */\n      tag_16\n      jump\t// in\n    tag_35:\n        /* \"#utility.yul\":521:556   */\n      swap1\n      pop\n        /* \"#utility.yul\":466:562   */\n      swap2\n      swap1\n      pop\n      jump\t// out\n        /* \"#utility.yul\":568:690   */\n    tag_18:\n        /* \"#utility.yul\":641:665   */\n      tag_37\n        /* \"#utility.yul\":659:664   */\n      dup2\n        /* \"#utility.yul\":641:665   */\n      tag_17\n      jump\t// in\n    tag_37:\n        /* \"#utility.yul\":634:639   */\n      dup2\n        /* \"#utility.yul\":631:666   */\n      eq\n        /* \"#utility.yul\":621:684   */\n      tag_38\n      jumpi\n        /* \"#utility.yul\":680:681   */\n      0x00\n        /* \"#utility.yul\":677:678   */\n      0x00\n        /* \"#utility.yul\":670:682   */\n      revert\n        /* \"#utility.yul\":621:684   */\n    tag_38:\n        /* \"#utility.yul\":568:690   */\n      pop\n      jump\t// out\n        /* \"#utility.yul\":696:835   */\n    tag_19:\n        /* \"#utility.yul\":742:747   */\n      0x00\n        /* \"#utility.yul\":780:786   */\n      dup2\n        /* \"#utility.yul\":767:787   */\n      calldataload\n        /* \"#utility.yul\":758:787   */\n      swap1\n      pop\n        /* \"#utility.yul\":796:829   */\n      tag_40\n        /* \"#utility.yul\":823:828   */\n      dup2\n        /* \"#utility.yul\":796:829   */\n      tag_18\n      jump\t// in\n    tag_40:\n        /* \"#utility.yul\":696:835   */\n      swap3\n      swap2\n      pop\n      pop\n      jump\t// out\n        /* \"#utility.yul\":841:1170   */\n    tag_6:\n        /* \"#utility.yul\":900:906   */\n      0x00\n        /* \"#utility.yul\":949:951   */\n      0x20\n        /* \"#utility.yul\":937:946   */\n      dup3\n        /* \"#utility.yul\":928:935   */\n      dup5\n        /* \"#utility.yul\":924:947   */\n      sub\n        /* \"#utility.yul\":920:952   */\n      slt\n        /* \"#utility.yul\":917:1036   */\n      iszero\n      tag_42\n      jumpi\n        /* \"#utility.yul\":955:1034   */\n      tag_43\n      tag_14\n      jump\t// in\n    tag_43:\n        /* \"#utility.yul\":917:1036   */\n    tag_42:\n        /* \"#utility.yul\":1075:1076   */\n      0x00\n        /* \"#utility.yul\":1100:1153   */\n      tag_44\n        /* \"#utility.yul\":1145:1152   */\n      dup5\n        /* \"#utility.yul\":1136:1142   */\n      dup3\n        /* \"#utility.yul\":1125:1134   */\n      dup6\n        /* \"#utility.yul\":1121:1143   */\n      add\n        /* \"#utility.yul\":1100:1153   */\n      tag_19\n      jump\t// in\n    tag_44:\n        /* \"#utility.yul\":1090:1153   */\n      swap2\n      pop\n        /* \"#utility.yul\":1046:1163   */\n      pop\n        /* \"#utility.yul\":841:1170   */\n      swap3\n      swap2\n      pop\n      pop\n      jump\t// out\n        /* \"#utility.yul\":1176:1274   */\n    tag_20:\n        /* \"#utility.yul\":1227:1233   */\n      0x00\n        /* \"#utility.yul\":1261:1266   */\n      dup2\n        /* \"#utility.yul\":1255:1267   */\n      mload\n        /* \"#utility.yul\":1245:1267   */\n      swap1\n      pop\n        /* \"#utility.yul\":1176:1274   */\n      swap2\n      swap1\n      pop\n      jump\t// out\n        /* \"#utility.yul\":1280:1448   */\n    tag_21:\n        /* \"#utility.yul\":1363:1374   */\n      0x00\n        /* \"#utility.yul\":1397:1403   */\n      dup3\n        /* \"#utility.yul\":1392:1395   */\n      dup3\n        /* \"#utility.yul\":1385:1404   */\n      mstore\n        /* \"#utility.yul\":1437:1441   */\n      0x20\n        /* \"#utility.yul\":1432:1435   */\n      dup3\n        /* \"#utility.yul\":1428:1442   */\n      add\n        /* \"#utility.yul\":1413:1442   */\n      swap1\n      pop\n        /* \"#utility.yul\":1280:1448   */\n      swap3\n      swap2\n      pop\n      pop\n      jump\t// out\n        /* \"#utility.yul\":1454:1593   */\n    tag_22:\n        /* \"#utility.yul\":1543:1549   */\n      dup3\n        /* \"#utility.yul\":1538:1541   */\n      dup2\n        /* \"#utility.yul\":1533:1536   */\n      dup4\n        /* \"#utility.yul\":1527:1550   */\n      mcopy\n        /* \"#utility.yul\":1584:1585   */\n      0x00\n        /* \"#utility.yul\":1575:1581   */\n      dup4\n        /* \"#utility.yul\":1570:1573   */\n      dup4\n        /* \"#utility.yul\":1566:1582   */\n      add\n        /* \"#utility.yul\":1559:1586   */\n      mstore\n        /* \"#utility.yul\":1454:1593   */\n      pop\n      pop\n      pop\n      jump\t// out\n        /* \"#utility.yul\":1599:1701   */\n    tag_23:\n        /* \"#utility.yul\":1640:1646   */\n      0x00\n        /* \"#utility.yul\":1691:1693   */\n      0x1f\n        /* \"#utility.yul\":1687:1694   */\n      not\n        /* \"#utility.yul\":1682:1684   */\n      0x1f\n        /* \"#utility.yul\":1675:1680   */\n      dup4\n        /* \"#utility.yul\":1671:1685   */\n      add\n        /* \"#utility.yul\":1667:1695   */\n      and\n        /* \"#utility.yul\":1657:1695   */\n      swap1\n      pop\n        /* \"#utility.yul\":1599:1701   */\n      swap2\n      swap1\n      pop\n      jump\t// out\n        /* \"#utility.yul\":1707:2080   */\n    tag_24:\n        /* \"#utility.yul\":1793:1796   */\n      0x00\n        /* \"#utility.yul\":1821:1859   */\n      tag_50\n        /* \"#utility.yul\":1853:1858   */\n      dup3\n        /* \"#utility.yul\":1821:1859   */\n      tag_20\n      jump\t// in\n    tag_50:\n        /* \"#utility.yul\":1875:1945   */\n      tag_51\n        /* \"#utility.yul\":1938:1944   */\n      dup2\n        /* \"#utility.yul\":1933:1936   */\n      dup6\n        /* \"#utility.yul\":1875:1945   */\n      tag_21\n      jump\t// in\n    tag_51:\n        /* \"#utility.yul\":1868:1945   */\n      swap4\n      pop\n        /* \"#utility.yul\":1954:2019   */\n      tag_52\n        /* \"#utility.yul\":2012:2018   */\n      dup2\n        /* \"#utility.yul\":2007:2010   */\n      dup6\n        /* \"#utility.yul\":2000:2004   */\n      0x20\n        /* \"#utility.yul\":1993:1998   */\n      dup7\n        /* \"#utility.yul\":1989:2005   */\n      add\n        /* \"#utility.yul\":1954:2019   */\n      tag_22\n      jump\t// in\n    tag_52:\n        /* \"#utility.yul\":2044:2073   */\n      tag_53\n        /* \"#utility.yul\":2066:2072   */\n      dup2\n        /* \"#utility.yul\":2044:2073   */\n      tag_23\n      jump\t// in\n    tag_53:\n        /* \"#utility.yul\":2039:2042   */\n      dup5\n        /* \"#utility.yul\":2035:2074   */\n      add\n        /* \"#utility.yul\":2028:2074   */\n      swap2\n      pop\n        /* \"#utility.yul\":1797:2080   */\n      pop\n        /* \"#utility.yul\":1707:2080   */\n      swap3\n      swap2\n      pop\n      pop\n      jump\t// out\n        /* \"#utility.yul\":2086:2395   */\n    tag_9:\n        /* \"#utility.yul\":2197:2201   */\n      0x00\n        /* \"#utility.yul\":2235:2237   */\n      0x20\n        /* \"#utility.yul\":2224:2233   */\n      dup3\n        /* \"#utility.yul\":2220:2238   */\n      add\n        /* \"#utility.yul\":2212:2238   */\n      swap1\n      pop\n        /* \"#utility.yul\":2284:2293   */\n      dup2\n        /* \"#utility.yul\":2278:2282   */\n      dup2\n        /* \"#utility.yul\":2274:2294   */\n      sub\n        /* \"#utility.yul\":2270:2271   */\n      0x00\n        /* \"#utility.yul\":2259:2268   */\n      dup4\n        /* \"#utility.yul\":2255:2272   */\n      add\n        /* \"#utility.yul\":2248:2295   */\n      mstore\n        /* \"#utility.yul\":2312:2388   */\n      tag_55\n        /* \"#utility.yul\":2383:2387   */\n      dup2\n        /* \"#utility.yul\":2374:2380   */\n      dup5\n        /* \"#utility.yul\":2312:2388   */\n      tag_24\n      jump\t// in\n    tag_55:\n        /* \"#utility.yul\":2304:2388   */\n      swap1\n      pop\n        /* \"#utility.yul\":2086:2395   */\n      swap3\n      swap2\n      pop\n      pop\n      jump\t// out\n        /* \"#utility.yul\":2401:2495   */\n    tag_25:\n        /* \"#utility.yul\":2434:2442   */\n      0x00\n        /* \"#utility.yul\":2482:2487   */\n      dup2\n        /* \"#utility.yul\":2478:2480   */\n      0x60\n        /* \"#utility.yul\":2474:2488   */\n      shl\n        /* \"#utility.yul\":2453:2488   */\n      swap1\n      pop\n        /* \"#utility.yul\":2401:2495   */\n      swap2\n      swap1\n      pop\n      jump\t// out\n        /* \"#utility.yul\":2501:2595   */\n    tag_26:\n        /* \"#utility.yul\":2540:2547   */\n      0x00\n        /* \"#utility.yul\":2569:2589   */\n      tag_58\n        /* \"#utility.yul\":2583:2588   */\n      dup3\n        /* \"#utility.yul\":2569:2589   */\n      tag_25\n      jump\t// in\n    tag_58:\n        /* \"#utility.yul\":2558:2589   */\n      swap1\n      pop\n        /* \"#utility.yul\":2501:2595   */\n      swap2\n      swap1\n      pop\n      jump\t// out\n        /* \"#utility.yul\":2601:2701   */\n    tag_27:\n        /* \"#utility.yul\":2640:2647   */\n      0x00\n        /* \"#utility.yul\":2669:2695   */\n      tag_60\n        /* \"#utility.yul\":2689:2694   */\n      dup3\n        /* \"#utility.yul\":2669:2695   */\n      tag_26\n      jump\t// in\n    tag_60:\n        /* \"#utility.yul\":2658:2695   */\n      swap1\n      pop\n        /* \"#utility.yul\":2601:2701   */\n      swap2\n      swap1\n      pop\n      jump\t// out\n        /* \"#utility.yul\":2707:2864   */\n    tag_28:\n        /* \"#utility.yul\":2812:2857   */\n      tag_62\n        /* \"#utility.yul\":2832:2856   */\n      tag_63\n        /* \"#utility.yul\":2850:2855   */\n      dup3\n        /* \"#utility.yul\":2832:2856   */\n      tag_17\n      jump\t// in\n    tag_63:\n        /* \"#utility.yul\":2812:2857   */\n      tag_27\n      jump\t// in\n    tag_62:\n        /* \"#utility.yul\":2807:2810   */\n      dup3\n        /* \"#utility.yul\":2800:2858   */\n      mstore\n        /* \"#utility.yul\":2707:2864   */\n      pop\n      pop\n      jump\t// out\n        /* \"#utility.yul\":2870:3126   */\n    tag_12:\n        /* \"#utility.yul\":2982:2985   */\n      0x00\n        /* \"#utility.yul\":2997:3072   */\n      tag_65\n        /* \"#utility.yul\":3068:3071   */\n      dup3\n        /* \"#utility.yul\":3059:3065   */\n      dup5\n        /* \"#utility.yul\":2997:3072   */\n      tag_28\n      jump\t// in\n    tag_65:\n        /* \"#utility.yul\":3097:3099   */\n      0x14\n        /* \"#utility.yul\":3092:3095   */\n      dup3\n        /* \"#utility.yul\":3088:3100   */\n      add\n        /* \"#utility.yul\":3081:3100   */\n      swap2\n      pop\n        /* \"#utility.yul\":3117:3120   */\n      dup2\n        /* \"#utility.yul\":3110:3120   */\n      swap1\n      pop\n        /* \"#utility.yul\":2870:3126   */\n      swap3\n      swap2\n      pop\n      pop\n      jump\t// out\n\n    auxdata: 0xa26469706673582212208f0c24be055da0e7364b83106dd400c0d7a7d2d66b38d5828523ad2ce7dd80ff64736f6c634300081b0033\n}\n",
				"bytecode": {
					"linkReferences": {},
					"object": "6080604052348015600e575f5ffd5b506102398061001c5f395ff3fe608060405234801561000f575f5ffd5b5060043610610029575f3560e01c8063857cdbb81461002d575b5f5ffd5b610047600480360381019061004291906100e9565b61005d565b6040516100549190610184565b60405180910390f35b60605f8260405160200161007191906101e9565b604051602081830303815290604052905080915050919050565b5f5ffd5b5f73ffffffffffffffffffffffffffffffffffffffff82169050919050565b5f6100b88261008f565b9050919050565b6100c8816100ae565b81146100d2575f5ffd5b50565b5f813590506100e3816100bf565b92915050565b5f602082840312156100fe576100fd61008b565b5b5f61010b848285016100d5565b91505092915050565b5f81519050919050565b5f82825260208201905092915050565b8281835e5f83830152505050565b5f601f19601f8301169050919050565b5f61015682610114565b610160818561011e565b935061017081856020860161012e565b6101798161013c565b840191505092915050565b5f6020820190508181035f83015261019c818461014c565b905092915050565b5f8160601b9050919050565b5f6101ba826101a4565b9050919050565b5f6101cb826101b0565b9050919050565b6101e36101de826100ae565b6101c1565b82525050565b5f6101f482846101d2565b6014820191508190509291505056fea26469706673582212208f0c24be055da0e7364b83106dd400c0d7a7d2d66b38d5828523ad2ce7dd80ff64736f6c634300081b0033",
					"opcodes": "PUSH1 0x80 PUSH1 0x40 MSTORE CALLVALUE DUP1 ISZERO PUSH1 0xE JUMPI PUSH0 PUSH0 REVERT JUMPDEST POP PUSH2 0x239 DUP1 PUSH2 0x1C PUSH0 CODECOPY PUSH0 RETURN INVALID PUSH1 0x80 PUSH1 0x40 MSTORE CALLVALUE DUP1 ISZERO PUSH2 0xF JUMPI PUSH0 PUSH0 REVERT JUMPDEST POP PUSH1 0x4 CALLDATASIZE LT PUSH2 0x29 JUMPI PUSH0 CALLDATALOAD PUSH1 0xE0 SHR DUP1 PUSH4 0x857CDBB8 EQ PUSH2 0x2D JUMPI JUMPDEST PUSH0 PUSH0 REVERT JUMPDEST PUSH2 0x47 PUSH1 0x4 DUP1 CALLDATASIZE SUB DUP2 ADD SWAP1 PUSH2 0x42 SWAP2 SWAP1 PUSH2 0xE9 JUMP JUMPDEST PUSH2 0x5D JUMP JUMPDEST PUSH1 0x40 MLOAD PUSH2 0x54 SWAP2 SWAP1 PUSH2 0x184 JUMP JUMPDEST PUSH1 0x40 MLOAD DUP1 SWAP2 SUB SWAP1 RETURN JUMPDEST PUSH1 0x60 PUSH0 DUP3 PUSH1 0x40 MLOAD PUSH1 0x20 ADD PUSH2 0x71 SWAP2 SWAP1 PUSH2 0x1E9 JUMP JUMPDEST PUSH1 0x40 MLOAD PUSH1 0x20 DUP2 DUP4 SUB SUB DUP2 MSTORE SWAP1 PUSH1 0x40 MSTORE SWAP1 POP DUP1 SWAP2 POP POP SWAP2 SWAP1 POP JUMP JUMPDEST PUSH0 PUSH0 REVERT JUMPDEST PUSH0 PUSH20 0xFFFFFFFFFFFFFFFFFFFFFFFFFFFFFFFFFFFFFFFF DUP3 AND SWAP1 POP SWAP2 SWAP1 POP JUMP JUMPDEST PUSH0 PUSH2 0xB8 DUP3 PUSH2 0x8F JUMP JUMPDEST SWAP1 POP SWAP2 SWAP1 POP JUMP JUMPDEST PUSH2 0xC8 DUP2 PUSH2 0xAE JUMP JUMPDEST DUP2 EQ PUSH2 0xD2 JUMPI PUSH0 PUSH0 REVERT JUMPDEST POP JUMP JUMPDEST PUSH0 DUP2 CALLDATALOAD SWAP1 POP PUSH2 0xE3 DUP2 PUSH2 0xBF JUMP JUMPDEST SWAP3 SWAP2 POP POP JUMP JUMPDEST PUSH0 PUSH1 0x20 DUP3 DUP5 SUB SLT ISZERO PUSH2 0xFE JUMPI PUSH2 0xFD PUSH2 0x8B JUMP JUMPDEST JUMPDEST PUSH0 PUSH2 0x10B DUP5 DUP3 DUP6 ADD PUSH2 0xD5 JUMP JUMPDEST SWAP2 POP POP SWAP3 SWAP2 POP POP JUMP JUMPDEST PUSH0 DUP2 MLOAD SWAP1 POP SWAP2 SWAP1 POP JUMP JUMPDEST PUSH0 DUP3 DUP3 MSTORE PUSH1 0x20 DUP3 ADD SWAP1 POP SWAP3 SWAP2 POP POP JUMP JUMPDEST DUP3 DUP2 DUP4 MCOPY PUSH0 DUP4 DUP4 ADD MSTORE POP POP POP JUMP JUMPDEST PUSH0 PUSH1 0x1F NOT PUSH1 0x1F DUP4 ADD AND SWAP1 POP SWAP2 SWAP1 POP JUMP JUMPDEST PUSH0 PUSH2 0x156 DUP3 PUSH2 0x114 JUMP JUMPDEST PUSH2 0x160 DUP2 DUP6 PUSH2 0x11E JUMP JUMPDEST SWAP4 POP PUSH2 0x170 DUP2 DUP6 PUSH1 0x20 DUP7 ADD PUSH2 0x12E JUMP JUMPDEST PUSH2 0x179 DUP2 PUSH2 0x13C JUMP JUMPDEST DUP5 ADD SWAP2 POP POP SWAP3 SWAP2 POP POP JUMP JUMPDEST PUSH0 PUSH1 0x20 DUP3 ADD SWAP1 POP DUP2 DUP2 SUB PUSH0 DUP4 ADD MSTORE PUSH2 0x19C DUP2 DUP5 PUSH2 0x14C JUMP JUMPDEST SWAP1 POP SWAP3 SWAP2 POP POP JUMP JUMPDEST PUSH0 DUP2 PUSH1 0x60 SHL SWAP1 POP SWAP2 SWAP1 POP JUMP JUMPDEST PUSH0 PUSH2 0x1BA DUP3 PUSH2 0x1A4 JUMP JUMPDEST SWAP1 POP SWAP2 SWAP1 POP JUMP JUMPDEST PUSH0 PUSH2 0x1CB DUP3 PUSH2 0x1B0 JUMP JUMPDEST SWAP1 POP SWAP2 SWAP1 POP JUMP JUMPDEST PUSH2 0x1E3 PUSH2 0x1DE DUP3 PUSH2 0xAE JUMP JUMPDEST PUSH2 0x1C1 JUMP JUMPDEST DUP3 MSTORE POP POP JUMP JUMPDEST PUSH0 PUSH2 0x1F4 DUP3 DUP5 PUSH2 0x1D2 JUMP JUMPDEST PUSH1 0x14 DUP3 ADD SWAP2 POP DUP2 SWAP1 POP SWAP3 SWAP2 POP POP JUMP INVALID LOG2 PUSH5 0x6970667358 0x22 SLT KECCAK256 DUP16 0xC 0x24 0xBE SDIV TSTORE LOG0 0xE7 CALLDATASIZE 0x4B DUP4 LT PUSH14 0xD400C0D7A7D2D66B38D5828523AD 0x2C 0xE7 0xDD DUP1 SELFDESTRUCT PUSH5 0x736F6C6343 STOP ADDMOD SHL STOP CALLER "
				},
				"gasEstimates": {
					"creation": {
						"codeDepositCost": "113800",
						"executionCost": "157",
						"totalCost": "113957"
					},
					"external": {
						"getPublicKey(address)": "infinite"
					}
				},
				"methodIdentifiers": {
					"getPublicKey(address)": "857cdbb8"
				}
			},
			"storageLayout": {
				"storage": [],
				"types": null
			},
			"userdoc": {
				"kind": "user",
				"methods": {},
				"version": 1
			}
		}
	}
}