{
	"data": {
		"bytecode": {
			"linkReferences": {},
			"object": "608060405234801561001057600080fd5b5061027e806100206000396000f3fe608060405234801561001057600080fd5b50600436106100365760003560e01c80634534a4381461003b578063d2406c781461006c575b600080fd5b6100556004803603810190610050919061012c565b61009d565b604051610063929190610168565b60405180910390f35b6100866004803603810190610081919061012c565b6100e5565b604051610094929190610168565b60405180910390f35b6000808260006002826100b091906101cc565b1480156100c9575060006003826100c791906101cc565b145b6100d257600080fd5b6100db846100e5565b9250925050915091565b60008060006002846100f79190610191565b905060006003856101089190610191565b90508181935093505050915091565b60008135905061012681610231565b92915050565b6000602082840312156101425761014161022c565b5b600061015084828501610117565b91505092915050565b610162816101c2565b82525050565b600060408201905061017d6000830185610159565b61018a6020830184610159565b9392505050565b600061019c826101c2565b91506101a7836101c2565b9250826101b7576101b66101fd565b5b828204905092915050565b6000819050919050565b60006101d7826101c2565b91506101e2836101c2565b9250826101f2576101f16101fd565b5b828206905092915050565b7f4e487b7100000000000000000000000000000000000000000000000000000000600052601260045260246000fd5b600080fd5b61023a816101c2565b811461024557600080fd5b5056fea26469706673582212209af95d847665ed8cc2d31d5192f30eb4df6642f40f28234c58e8ea3d882c065464736f6c63430008070033",
			"opcodes": "PUSH1 0x80 PUSH1 0x40 MSTORE CALLVALUE DUP1 ISZERO PUSH2 0x10 JUMPI PUSH1 0x0 DUP1 REVERT JUMPDEST POP PUSH2 0x27E DUP1 PUSH2 0x20 PUSH1 0x0 CODECOPY PUSH1 0x0 RETURN INVALID PUSH1 0x80 PUSH1 0x40 MSTORE CALLVALUE DUP1 ISZERO PUSH2 0x10 JUMPI PUSH1 0x0 DUP1 REVERT JUMPDEST POP PUSH1 0x4 CALLDATASIZE LT PUSH2 0x36 JUMPI PUSH1 0x0 CALLDATALOAD PUSH1 0xE0 SHR DUP1 PUSH4 0x4534A438 EQ PUSH2 0x3B JUMPI DUP1 PUSH4 0xD2406C78 EQ PUSH2 0x6C JUMPI JUMPDEST PUSH1 0x0 DUP1 REVERT JUMPDEST PUSH2 0x55 PUSH1 0x4 DUP1 CALLDATASIZE SUB DUP2 ADD SWAP1 PUSH2 0x50 SWAP2 SWAP1 PUSH2 0x12C JUMP JUMPDEST PUSH2 0x9D JUMP JUMPDEST PUSH1 0x40 MLOAD PUSH2 0x63 SWAP3 SWAP2 SWAP1 PUSH2 0x168 JUMP JUMPDEST PUSH1 0x40 MLOAD DUP1 SWAP2 SUB SWAP1 RETURN JUMPDEST PUSH2 0x86 PUSH1 0x4 DUP1 CALLDATASIZE SUB DUP2 ADD SWAP1 PUSH2 0x81 SWAP2 SWAP1 PUSH2 0x12C JUMP JUMPDEST PUSH2 0xE5 JUMP JUMPDEST PUSH1 0x40 MLOAD PUSH2 0x94 SWAP3 SWAP2 SWAP1 PUSH2 0x168 JUMP JUMPDEST PUSH1 0x40 MLOAD DUP1 SWAP2 SUB SWAP1 RETURN JUMPDEST PUSH1 0x0 DUP1 DUP3 PUSH1 0x0 PUSH1 0x2 DUP3 PUSH2 0xB0 SWAP2 SWAP1 PUSH2 0x1CC JUMP JUMPDEST EQ DUP1 ISZERO PUSH2 0xC9 JUMPI POP PUSH1 0x0 PUSH1 0x3 DUP3 PUSH2 0xC7 SWAP2 SWAP1 PUSH2 0x1CC JUMP JUMPDEST EQ JUMPDEST PUSH2 0xD2 JUMPI PUSH1 0x0 DUP1 REVERT JUMPDEST PUSH2 0xDB DUP5 PUSH2 0xE5 JUMP JUMPDEST SWAP3 POP SWAP3 POP POP SWAP2 POP SWAP2 JUMP JUMPDEST PUSH1 0x0 DUP1 PUSH1 0x0 PUSH1 0x2 DUP5 PUSH2 0xF7 SWAP2 SWAP1 PUSH2 0x191 JUMP JUMPDEST SWAP1 POP PUSH1 0x0 PUSH1 0x3 DUP6 PUSH2 0x108 SWAP2 SWAP1 PUSH2 0x191 JUMP JUMPDEST SWAP1 POP DUP2 DUP2 SWAP4 POP SWAP4 POP POP POP SWAP2 POP SWAP2 JUMP JUMPDEST PUSH1 0x0 DUP2 CALLDATALOAD SWAP1 POP PUSH2 0x126 DUP2 PUSH2 0x231 JUMP JUMPDEST SWAP3 SWAP2 POP POP JUMP JUMPDEST PUSH1 0x0 PUSH1 0x20 DUP3 DUP5 SUB SLT ISZERO PUSH2 0x142 JUMPI PUSH2 0x141 PUSH2 0x22C JUMP JUMPDEST JUMPDEST PUSH1 0x0 PUSH2 0x150 DUP5 DUP3 DUP6 ADD PUSH2 0x117 JUMP JUMPDEST SWAP2 POP POP SWAP3 SWAP2 POP POP JUMP JUMPDEST PUSH2 0x162 DUP2 PUSH2 0x1C2 JUMP JUMPDEST DUP3 MSTORE POP POP JUMP JUMPDEST PUSH1 0x0 PUSH1 0x40 DUP3 ADD SWAP1 POP PUSH2 0x17D PUSH1 0x0 DUP4 ADD DUP6 PUSH2 0x159 JUMP JUMPDEST PUSH2 0x18A PUSH1 0x20 DUP4 ADD DUP5 PUSH2 0x159 JUMP JUMPDEST SWAP4 SWAP3 POP POP POP JUMP JUMPDEST PUSH1 0x0 PUSH2 0x19C DUP3 PUSH2 0x1C2 JUMP JUMPDEST SWAP2 POP PUSH2 0x1A7 DUP4 PUSH2 0x1C2 JUMP JUMPDEST SWAP3 POP DUP3 PUSH2 0x1B7 JUMPI PUSH2 0x1B6 PUSH2 0x1FD JUMP JUMPDEST JUMPDEST DUP3 DUP3 DIV SWAP1 POP SWAP3 SWAP2 POP POP JUMP JUMPDEST PUSH1 0x0 DUP2 SWAP1 POP SWAP2 SWAP1 POP JUMP JUMPDEST PUSH1 0x0 PUSH2 0x1D7 DUP3 PUSH2 0x1C2 JUMP JUMPDEST SWAP2 POP PUSH2 0x1E2 DUP4 PUSH2 0x1C2 JUMP JUMPDEST SWAP3 POP DUP3 PUSH2 0x1F2 JUMPI PUSH2 0x1F1 PUSH2 0x1FD JUMP JUMPDEST JUMPDEST DUP3 DUP3 MOD SWAP1 POP SWAP3 SWAP2 POP POP JUMP JUMPDEST PUSH32 0x4E487B7100000000000000000000000000000000000000000000000000000000 PUSH1 0x0 MSTORE PUSH1 0x12 PUSH1 0x4 MSTORE PUSH1 0x24 PUSH1 0x0 REVERT JUMPDEST PUSH1 0x0 DUP1 REVERT JUMPDEST PUSH2 0x23A DUP2 PUSH2 0x1C2 JUMP JUMPDEST DUP2 EQ PUSH2 0x245 JUMPI PUSH1 0x0 DUP1 REVERT JUMPDEST POP JUMP INVALID LOG2 PUSH5 0x6970667358 0x22 SLT KECCAK256 SWAP11 0xF9 0x5D DUP5 PUSH23 0x65ED8CC2D31D5192F30EB4DF6642F40F28234C58E8EA3D DUP9 0x2C MOD SLOAD PUSH5 0x736F6C6343 STOP ADDMOD SMOD STOP CALLER "
		},
		"gasEstimates": {
			"creation": {
				"codeDepositCost": "127600",
				"executionCost": "171",
				"totalCost": "127771"
			},
			"external": {
				"getExactDividedBy2And3(uint256)": "infinite",
				"getExactDividedBy2And3WithoutModifier(uint256)": "infinite"
			}
		},
		"methodIdentifiers": {
			"getExactDividedBy2And3(uint256)": "4534a438",
			"getExactDividedBy2And3WithoutModifier(uint256)": "d2406c78"
		}
	},
	"abi": [
		{
			"inputs": [
				{
					"internalType": "uint256",
					"name": "_dividend",
					"type": "uint256"
				}
			],
			"name": "getExactDividedBy2And3",
			"outputs": [
				{
					"internalType": "uint256",
					"name": "",
					"type": "uint256"
				},
				{
					"internalType": "uint256",
					"name": "",
					"type": "uint256"
				}
			],
			"stateMutability": "pure",
			"type": "function"
		},
		{
			"inputs": [
				{
					"internalType": "uint256",
					"name": "_dividend",
					"type": "uint256"
				}
			],
			"name": "getExactDividedBy2And3WithoutModifier",
			"outputs": [
				{
					"internalType": "uint256",
					"name": "",
					"type": "uint256"
				},
				{
					"internalType": "uint256",
					"name": "",
					"type": "uint256"
				}
			],
			"stateMutability": "pure",
			"type": "function"
		}
	]
}