{
	"contract/4_FunctionsReturn.sol": {
		"FunctionsReturn": {
			"abi": [
				{
					"inputs": [],
					"name": "readReturn",
					"outputs": [],
					"stateMutability": "pure",
					"type": "function"
				},
				{
					"inputs": [],
					"name": "returnMultiple",
					"outputs": [
						{
							"internalType": "uint256",
							"name": "",
							"type": "uint256"
						},
						{
							"internalType": "bool",
							"name": "",
							"type": "bool"
						},
						{
							"internalType": "uint256[3]",
							"name": "",
							"type": "uint256[3]"
						}
					],
					"stateMutability": "pure",
					"type": "function"
				},
				{
					"inputs": [],
					"name": "returnNamed",
					"outputs": [
						{
							"internalType": "uint256",
							"name": "_number",
							"type": "uint256"
						},
						{
							"internalType": "bool",
							"name": "_bool",
							"type": "bool"
						},
						{
							"internalType": "uint256[3]",
							"name": "_array",
							"type": "uint256[3]"
						}
					],
					"stateMutability": "pure",
					"type": "function"
				}
			],
			"devdoc": {
				"kind": "dev",
				"methods": {},
				"version": 1
			},
			"evm": {
				"assembly": "    /* \"contract/4_FunctionsReturn.sol\":60:1042  contract FunctionsReturn {\r... */\n  mstore(0x40, 0x80)\n  callvalue\n  dup1\n  iszero\n  tag_1\n  jumpi\n  0x00\n  dup1\n  revert\ntag_1:\n  pop\n  dataSize(sub_0)\n  dup1\n  dataOffset(sub_0)\n  0x00\n  codecopy\n  0x00\n  return\nstop\n\nsub_0: assembly {\n        /* \"contract/4_FunctionsReturn.sol\":60:1042  contract FunctionsReturn {\r... */\n      mstore(0x40, 0x80)\n      callvalue\n      dup1\n      iszero\n      tag_1\n      jumpi\n      0x00\n      dup1\n      revert\n    tag_1:\n      pop\n      jumpi(tag_2, lt(calldatasize, 0x04))\n      shr(0xe0, calldataload(0x00))\n      dup1\n      0x3dece511\n      eq\n      tag_3\n      jumpi\n      dup1\n      0x6f590330\n      eq\n      tag_4\n      jumpi\n      dup1\n      0xe61e4008\n      eq\n      tag_5\n      jumpi\n    tag_2:\n      0x00\n      dup1\n      revert\n        /* \"contract/4_FunctionsReturn.sol\":581:768  function returnNamed() public pure returns(uint256 _number, bool _bool, uint256[3] memory _array){\r... */\n    tag_3:\n      tag_6\n      tag_7\n      jump\t// in\n    tag_6:\n      mload(0x40)\n      tag_8\n      swap4\n      swap3\n      swap2\n      swap1\n      tag_9\n      jump\t// in\n    tag_8:\n      mload(0x40)\n      dup1\n      swap2\n      sub\n      swap1\n      return\n        /* \"contract/4_FunctionsReturn.sol\":803:1039  function readReturn() public pure {\r... */\n    tag_4:\n      tag_10\n      tag_11\n      jump\t// in\n    tag_10:\n      stop\n        /* \"contract/4_FunctionsReturn.sol\":223:436  function returnMultiple() public pure returns(uint256, bool, uint256[3] memory){\r... */\n    tag_5:\n      tag_12\n      tag_13\n      jump\t// in\n    tag_12:\n      mload(0x40)\n      tag_14\n      swap4\n      swap3\n      swap2\n      swap1\n      tag_9\n      jump\t// in\n    tag_14:\n      mload(0x40)\n      dup1\n      swap2\n      sub\n      swap1\n      return\n        /* \"contract/4_FunctionsReturn.sol\":581:768  function returnNamed() public pure returns(uint256 _number, bool _bool, uint256[3] memory _array){\r... */\n    tag_7:\n        /* \"contract/4_FunctionsReturn.sol\":624:639  uint256 _number */\n      0x00\n        /* \"contract/4_FunctionsReturn.sol\":641:651  bool _bool */\n      dup1\n        /* \"contract/4_FunctionsReturn.sol\":653:677  uint256[3] memory _array */\n      tag_15\n      tag_16\n      jump\t// in\n    tag_15:\n        /* \"contract/4_FunctionsReturn.sol\":699:700  2 */\n      0x02\n        /* \"contract/4_FunctionsReturn.sol\":689:700  _number = 2 */\n      swap3\n      pop\n        /* \"contract/4_FunctionsReturn.sol\":719:724  false */\n      0x00\n        /* \"contract/4_FunctionsReturn.sol\":711:724  _bool = false */\n      swap2\n      pop\n        /* \"contract/4_FunctionsReturn.sol\":735:760  _array = [uint256(3),2,1] */\n      mload(0x40)\n      dup1\n      0x60\n      add\n      0x40\n      mstore\n      dup1\n        /* \"contract/4_FunctionsReturn.sol\":753:754  3 */\n      0x03\n        /* \"contract/4_FunctionsReturn.sol\":735:760  _array = [uint256(3),2,1] */\n      dup2\n      mstore\n      0x20\n      add\n        /* \"contract/4_FunctionsReturn.sol\":756:757  2 */\n      0x02\n        /* \"contract/4_FunctionsReturn.sol\":735:760  _array = [uint256(3),2,1] */\n      dup2\n      mstore\n      0x20\n      add\n        /* \"contract/4_FunctionsReturn.sol\":758:759  1 */\n      0x01\n        /* \"contract/4_FunctionsReturn.sol\":735:760  _array = [uint256(3),2,1] */\n      dup2\n      mstore\n      pop\n      swap1\n      pop\n        /* \"contract/4_FunctionsReturn.sol\":581:768  function returnNamed() public pure returns(uint256 _number, bool _bool, uint256[3] memory _array){\r... */\n      swap1\n      swap2\n      swap3\n      jump\t// out\n        /* \"contract/4_FunctionsReturn.sol\":803:1039  function readReturn() public pure {\r... */\n    tag_11:\n        /* \"contract/4_FunctionsReturn.sol\":848:863  uint256 _number */\n      0x00\n        /* \"contract/4_FunctionsReturn.sol\":874:884  bool _bool */\n      dup1\n        /* \"contract/4_FunctionsReturn.sol\":895:919  uint256[3] memory _array */\n      tag_19\n      tag_16\n      jump\t// in\n    tag_19:\n        /* \"contract/4_FunctionsReturn.sol\":957:970  returnNamed() */\n      tag_20\n        /* \"contract/4_FunctionsReturn.sol\":957:968  returnNamed */\n      tag_7\n        /* \"contract/4_FunctionsReturn.sol\":957:970  returnNamed() */\n      jump\t// in\n    tag_20:\n        /* \"contract/4_FunctionsReturn.sol\":930:970  (_number, _bool, _array) = returnNamed() */\n      dup1\n      swap4\n      pop\n      dup2\n      swap5\n      pop\n      dup3\n      swap6\n      pop\n      pop\n      pop\n      pop\n        /* \"contract/4_FunctionsReturn.sol\":981:992  bool _bool2 */\n      0x00\n        /* \"contract/4_FunctionsReturn.sol\":1018:1031  returnNamed() */\n      tag_21\n        /* \"contract/4_FunctionsReturn.sol\":1018:1029  returnNamed */\n      tag_7\n        /* \"contract/4_FunctionsReturn.sol\":1018:1031  returnNamed() */\n      jump\t// in\n    tag_21:\n        /* \"contract/4_FunctionsReturn.sol\":1003:1031  (, _bool2, ) = returnNamed() */\n      swap1\n      swap2\n      pop\n      pop\n      dup1\n      swap2\n      pop\n      pop\n        /* \"contract/4_FunctionsReturn.sol\":837:1039  {\r... */\n      pop\n      pop\n      pop\n      pop\n        /* \"contract/4_FunctionsReturn.sol\":803:1039  function readReturn() public pure {\r... */\n      jump\t// out\n        /* \"contract/4_FunctionsReturn.sol\":223:436  function returnMultiple() public pure returns(uint256, bool, uint256[3] memory){\r... */\n    tag_13:\n        /* \"contract/4_FunctionsReturn.sol\":269:276  uint256 */\n      0x00\n        /* \"contract/4_FunctionsReturn.sol\":278:282  bool */\n      dup1\n        /* \"contract/4_FunctionsReturn.sol\":284:301  uint256[3] memory */\n      tag_22\n      tag_16\n      jump\t// in\n    tag_22:\n        /* \"contract/4_FunctionsReturn.sol\":402:403  1 */\n      0x01\n        /* \"contract/4_FunctionsReturn.sol\":405:409  true */\n      dup1\n        /* \"contract/4_FunctionsReturn.sol\":395:428  return(1, true, [uint256(1),2,5]) */\n      mload(0x40)\n      dup1\n      0x60\n      add\n      0x40\n      mstore\n      dup1\n        /* \"contract/4_FunctionsReturn.sol\":420:421  1 */\n      0x01\n        /* \"contract/4_FunctionsReturn.sol\":395:428  return(1, true, [uint256(1),2,5]) */\n      dup2\n      mstore\n      0x20\n      add\n        /* \"contract/4_FunctionsReturn.sol\":423:424  2 */\n      0x02\n        /* \"contract/4_FunctionsReturn.sol\":395:428  return(1, true, [uint256(1),2,5]) */\n      dup2\n      mstore\n      0x20\n      add\n        /* \"contract/4_FunctionsReturn.sol\":425:426  5 */\n      0x05\n        /* \"contract/4_FunctionsReturn.sol\":395:428  return(1, true, [uint256(1),2,5]) */\n      dup2\n      mstore\n      pop\n      swap3\n      pop\n      swap3\n      pop\n      swap3\n      pop\n        /* \"contract/4_FunctionsReturn.sol\":223:436  function returnMultiple() public pure returns(uint256, bool, uint256[3] memory){\r... */\n      swap1\n      swap2\n      swap3\n      jump\t// out\n    tag_16:\n      mload(0x40)\n      dup1\n      0x60\n      add\n      0x40\n      mstore\n      dup1\n      0x03\n      swap1\n      0x20\n      dup3\n      mul\n      dup1\n      calldatasize\n      dup4\n      calldatacopy\n      dup1\n      dup3\n      add\n      swap2\n      pop\n      pop\n      swap1\n      pop\n      pop\n      swap1\n      jump\t// out\n        /* \"#utility.yul\":7:186   */\n    tag_25:\n        /* \"#utility.yul\":76:86   */\n      0x00\n        /* \"#utility.yul\":97:143   */\n      tag_27\n        /* \"#utility.yul\":139:142   */\n      dup4\n        /* \"#utility.yul\":131:137   */\n      dup4\n        /* \"#utility.yul\":97:143   */\n      tag_28\n      jump\t// in\n    tag_27:\n        /* \"#utility.yul\":175:179   */\n      0x20\n        /* \"#utility.yul\":170:173   */\n      dup4\n        /* \"#utility.yul\":166:180   */\n      add\n        /* \"#utility.yul\":152:180   */\n      swap1\n      pop\n        /* \"#utility.yul\":7:186   */\n      swap3\n      swap2\n      pop\n      pop\n      jump\t// out\n        /* \"#utility.yul\":224:918   */\n    tag_29:\n        /* \"#utility.yul\":360:412   */\n      tag_31\n        /* \"#utility.yul\":406:411   */\n      dup2\n        /* \"#utility.yul\":360:412   */\n      tag_32\n      jump\t// in\n    tag_31:\n        /* \"#utility.yul\":428:512   */\n      tag_33\n        /* \"#utility.yul\":505:511   */\n      dup2\n        /* \"#utility.yul\":500:503   */\n      dup5\n        /* \"#utility.yul\":428:512   */\n      tag_34\n      jump\t// in\n    tag_33:\n        /* \"#utility.yul\":421:512   */\n      swap3\n      pop\n        /* \"#utility.yul\":536:590   */\n      tag_35\n        /* \"#utility.yul\":584:589   */\n      dup3\n        /* \"#utility.yul\":536:590   */\n      tag_36\n      jump\t// in\n    tag_35:\n        /* \"#utility.yul\":613:620   */\n      dup1\n        /* \"#utility.yul\":644:645   */\n      0x00\n        /* \"#utility.yul\":629:911   */\n    tag_37:\n        /* \"#utility.yul\":654:660   */\n      dup4\n        /* \"#utility.yul\":651:652   */\n      dup2\n        /* \"#utility.yul\":648:661   */\n      lt\n        /* \"#utility.yul\":629:911   */\n      iszero\n      tag_39\n      jumpi\n        /* \"#utility.yul\":730:736   */\n      dup2\n        /* \"#utility.yul\":724:737   */\n      mload\n        /* \"#utility.yul\":757:820   */\n      tag_40\n        /* \"#utility.yul\":816:819   */\n      dup8\n        /* \"#utility.yul\":801:814   */\n      dup3\n        /* \"#utility.yul\":757:820   */\n      tag_25\n      jump\t// in\n    tag_40:\n        /* \"#utility.yul\":750:820   */\n      swap7\n      pop\n        /* \"#utility.yul\":843:901   */\n      tag_41\n        /* \"#utility.yul\":894:900   */\n      dup4\n        /* \"#utility.yul\":843:901   */\n      tag_42\n      jump\t// in\n    tag_41:\n        /* \"#utility.yul\":833:901   */\n      swap3\n      pop\n        /* \"#utility.yul\":689:911   */\n      pop\n        /* \"#utility.yul\":676:677   */\n      0x01\n        /* \"#utility.yul\":673:674   */\n      dup2\n        /* \"#utility.yul\":669:678   */\n      add\n        /* \"#utility.yul\":664:678   */\n      swap1\n      pop\n        /* \"#utility.yul\":629:911   */\n      jump(tag_37)\n    tag_39:\n        /* \"#utility.yul\":633:647   */\n      pop\n        /* \"#utility.yul\":336:918   */\n      pop\n      pop\n      pop\n        /* \"#utility.yul\":224:918   */\n      pop\n      pop\n      jump\t// out\n        /* \"#utility.yul\":924:1033   */\n    tag_43:\n        /* \"#utility.yul\":1005:1026   */\n      tag_45\n        /* \"#utility.yul\":1020:1025   */\n      dup2\n        /* \"#utility.yul\":1005:1026   */\n      tag_46\n      jump\t// in\n    tag_45:\n        /* \"#utility.yul\":1000:1003   */\n      dup3\n        /* \"#utility.yul\":993:1027   */\n      mstore\n        /* \"#utility.yul\":924:1033   */\n      pop\n      pop\n      jump\t// out\n        /* \"#utility.yul\":1039:1147   */\n    tag_28:\n        /* \"#utility.yul\":1116:1140   */\n      tag_48\n        /* \"#utility.yul\":1134:1139   */\n      dup2\n        /* \"#utility.yul\":1116:1140   */\n      tag_49\n      jump\t// in\n    tag_48:\n        /* \"#utility.yul\":1111:1114   */\n      dup3\n        /* \"#utility.yul\":1104:1141   */\n      mstore\n        /* \"#utility.yul\":1039:1147   */\n      pop\n      pop\n      jump\t// out\n        /* \"#utility.yul\":1153:1271   */\n    tag_50:\n        /* \"#utility.yul\":1240:1264   */\n      tag_52\n        /* \"#utility.yul\":1258:1263   */\n      dup2\n        /* \"#utility.yul\":1240:1264   */\n      tag_49\n      jump\t// in\n    tag_52:\n        /* \"#utility.yul\":1235:1238   */\n      dup3\n        /* \"#utility.yul\":1228:1265   */\n      mstore\n        /* \"#utility.yul\":1153:1271   */\n      pop\n      pop\n      jump\t// out\n        /* \"#utility.yul\":1277:1800   */\n    tag_9:\n        /* \"#utility.yul\":1466:1470   */\n      0x00\n        /* \"#utility.yul\":1504:1507   */\n      0xa0\n        /* \"#utility.yul\":1493:1502   */\n      dup3\n        /* \"#utility.yul\":1489:1508   */\n      add\n        /* \"#utility.yul\":1481:1508   */\n      swap1\n      pop\n        /* \"#utility.yul\":1518:1589   */\n      tag_54\n        /* \"#utility.yul\":1586:1587   */\n      0x00\n        /* \"#utility.yul\":1575:1584   */\n      dup4\n        /* \"#utility.yul\":1571:1588   */\n      add\n        /* \"#utility.yul\":1562:1568   */\n      dup7\n        /* \"#utility.yul\":1518:1589   */\n      tag_50\n      jump\t// in\n    tag_54:\n        /* \"#utility.yul\":1599:1665   */\n      tag_55\n        /* \"#utility.yul\":1661:1663   */\n      0x20\n        /* \"#utility.yul\":1650:1659   */\n      dup4\n        /* \"#utility.yul\":1646:1664   */\n      add\n        /* \"#utility.yul\":1637:1643   */\n      dup6\n        /* \"#utility.yul\":1599:1665   */\n      tag_43\n      jump\t// in\n    tag_55:\n        /* \"#utility.yul\":1675:1793   */\n      tag_56\n        /* \"#utility.yul\":1789:1791   */\n      0x40\n        /* \"#utility.yul\":1778:1787   */\n      dup4\n        /* \"#utility.yul\":1774:1792   */\n      add\n        /* \"#utility.yul\":1765:1771   */\n      dup5\n        /* \"#utility.yul\":1675:1793   */\n      tag_29\n      jump\t// in\n    tag_56:\n        /* \"#utility.yul\":1277:1800   */\n      swap5\n      swap4\n      pop\n      pop\n      pop\n      pop\n      jump\t// out\n        /* \"#utility.yul\":1806:1904   */\n    tag_36:\n        /* \"#utility.yul\":1871:1875   */\n      0x00\n        /* \"#utility.yul\":1894:1897   */\n      dup2\n        /* \"#utility.yul\":1886:1897   */\n      swap1\n      pop\n        /* \"#utility.yul\":1806:1904   */\n      swap2\n      swap1\n      pop\n      jump\t// out\n        /* \"#utility.yul\":1910:2014   */\n    tag_32:\n        /* \"#utility.yul\":1975:1981   */\n      0x00\n        /* \"#utility.yul\":2003:2007   */\n      0x03\n        /* \"#utility.yul\":1993:2007   */\n      swap1\n      pop\n        /* \"#utility.yul\":1910:2014   */\n      swap2\n      swap1\n      pop\n      jump\t// out\n        /* \"#utility.yul\":2020:2131   */\n    tag_42:\n        /* \"#utility.yul\":2088:2092   */\n      0x00\n        /* \"#utility.yul\":2120:2124   */\n      0x20\n        /* \"#utility.yul\":2115:2118   */\n      dup3\n        /* \"#utility.yul\":2111:2125   */\n      add\n        /* \"#utility.yul\":2103:2125   */\n      swap1\n      pop\n        /* \"#utility.yul\":2020:2131   */\n      swap2\n      swap1\n      pop\n      jump\t// out\n        /* \"#utility.yul\":2137:2280   */\n    tag_34:\n        /* \"#utility.yul\":2234:2245   */\n      0x00\n        /* \"#utility.yul\":2271:2274   */\n      dup2\n        /* \"#utility.yul\":2256:2274   */\n      swap1\n      pop\n        /* \"#utility.yul\":2137:2280   */\n      swap3\n      swap2\n      pop\n      pop\n      jump\t// out\n        /* \"#utility.yul\":2286:2376   */\n    tag_46:\n        /* \"#utility.yul\":2320:2327   */\n      0x00\n        /* \"#utility.yul\":2363:2368   */\n      dup2\n        /* \"#utility.yul\":2356:2369   */\n      iszero\n        /* \"#utility.yul\":2349:2370   */\n      iszero\n        /* \"#utility.yul\":2338:2370   */\n      swap1\n      pop\n        /* \"#utility.yul\":2286:2376   */\n      swap2\n      swap1\n      pop\n      jump\t// out\n        /* \"#utility.yul\":2382:2459   */\n    tag_49:\n        /* \"#utility.yul\":2419:2426   */\n      0x00\n        /* \"#utility.yul\":2448:2453   */\n      dup2\n        /* \"#utility.yul\":2437:2453   */\n      swap1\n      pop\n        /* \"#utility.yul\":2382:2459   */\n      swap2\n      swap1\n      pop\n      jump\t// out\n\n    auxdata: 0xa26469706673582212200a915c75c917660e2642f1cab110ba9dc6b1bf7d24733df7b2f94da0a586f13164736f6c63430008070033\n}\n",
				"bytecode": {
					"linkReferences": {},
					"object": "608060405234801561001057600080fd5b506102a4806100206000396000f3fe608060405234801561001057600080fd5b50600436106100415760003560e01c80633dece511146100465780636f59033014610066578063e61e400814610070575b600080fd5b61004e610090565b60405161005d939291906101f4565b60405180910390f35b61006e6100c8565b005b6100786100ff565b604051610087939291906101f4565b60405180910390f35b60008061009b610136565b60029250600091506040518060600160405280600381526020016002815260200160018152509050909192565b6000806100d3610136565b6100db610090565b80935081945082955050505060006100f1610090565b909150508091505050505050565b60008061010a610136565b600180604051806060016040528060018152602001600281526020016005815250925092509250909192565b6040518060600160405280600390602082028036833780820191505090505090565b600061016483836101d6565b60208301905092915050565b61017981610235565b610183818461024d565b925061018e8261022b565b8060005b838110156101bf5781516101a68782610158565b96506101b183610240565b925050600181019050610192565b505050505050565b6101d081610258565b82525050565b6101df81610264565b82525050565b6101ee81610264565b82525050565b600060a08201905061020960008301866101e5565b61021660208301856101c7565b6102236040830184610170565b949350505050565b6000819050919050565b600060039050919050565b6000602082019050919050565b600081905092915050565b60008115159050919050565b600081905091905056fea26469706673582212200a915c75c917660e2642f1cab110ba9dc6b1bf7d24733df7b2f94da0a586f13164736f6c63430008070033",
					"opcodes": "PUSH1 0x80 PUSH1 0x40 MSTORE CALLVALUE DUP1 ISZERO PUSH2 0x10 JUMPI PUSH1 0x0 DUP1 REVERT JUMPDEST POP PUSH2 0x2A4 DUP1 PUSH2 0x20 PUSH1 0x0 CODECOPY PUSH1 0x0 RETURN INVALID PUSH1 0x80 PUSH1 0x40 MSTORE CALLVALUE DUP1 ISZERO PUSH2 0x10 JUMPI PUSH1 0x0 DUP1 REVERT JUMPDEST POP PUSH1 0x4 CALLDATASIZE LT PUSH2 0x41 JUMPI PUSH1 0x0 CALLDATALOAD PUSH1 0xE0 SHR DUP1 PUSH4 0x3DECE511 EQ PUSH2 0x46 JUMPI DUP1 PUSH4 0x6F590330 EQ PUSH2 0x66 JUMPI DUP1 PUSH4 0xE61E4008 EQ PUSH2 0x70 JUMPI JUMPDEST PUSH1 0x0 DUP1 REVERT JUMPDEST PUSH2 0x4E PUSH2 0x90 JUMP JUMPDEST PUSH1 0x40 MLOAD PUSH2 0x5D SWAP4 SWAP3 SWAP2 SWAP1 PUSH2 0x1F4 JUMP JUMPDEST PUSH1 0x40 MLOAD DUP1 SWAP2 SUB SWAP1 RETURN JUMPDEST PUSH2 0x6E PUSH2 0xC8 JUMP JUMPDEST STOP JUMPDEST PUSH2 0x78 PUSH2 0xFF JUMP JUMPDEST PUSH1 0x40 MLOAD PUSH2 0x87 SWAP4 SWAP3 SWAP2 SWAP1 PUSH2 0x1F4 JUMP JUMPDEST PUSH1 0x40 MLOAD DUP1 SWAP2 SUB SWAP1 RETURN JUMPDEST PUSH1 0x0 DUP1 PUSH2 0x9B PUSH2 0x136 JUMP JUMPDEST PUSH1 0x2 SWAP3 POP PUSH1 0x0 SWAP2 POP PUSH1 0x40 MLOAD DUP1 PUSH1 0x60 ADD PUSH1 0x40 MSTORE DUP1 PUSH1 0x3 DUP2 MSTORE PUSH1 0x20 ADD PUSH1 0x2 DUP2 MSTORE PUSH1 0x20 ADD PUSH1 0x1 DUP2 MSTORE POP SWAP1 POP SWAP1 SWAP2 SWAP3 JUMP JUMPDEST PUSH1 0x0 DUP1 PUSH2 0xD3 PUSH2 0x136 JUMP JUMPDEST PUSH2 0xDB PUSH2 0x90 JUMP JUMPDEST DUP1 SWAP4 POP DUP2 SWAP5 POP DUP3 SWAP6 POP POP POP POP PUSH1 0x0 PUSH2 0xF1 PUSH2 0x90 JUMP JUMPDEST SWAP1 SWAP2 POP POP DUP1 SWAP2 POP POP POP POP POP POP JUMP JUMPDEST PUSH1 0x0 DUP1 PUSH2 0x10A PUSH2 0x136 JUMP JUMPDEST PUSH1 0x1 DUP1 PUSH1 0x40 MLOAD DUP1 PUSH1 0x60 ADD PUSH1 0x40 MSTORE DUP1 PUSH1 0x1 DUP2 MSTORE PUSH1 0x20 ADD PUSH1 0x2 DUP2 MSTORE PUSH1 0x20 ADD PUSH1 0x5 DUP2 MSTORE POP SWAP3 POP SWAP3 POP SWAP3 POP SWAP1 SWAP2 SWAP3 JUMP JUMPDEST PUSH1 0x40 MLOAD DUP1 PUSH1 0x60 ADD PUSH1 0x40 MSTORE DUP1 PUSH1 0x3 SWAP1 PUSH1 0x20 DUP3 MUL DUP1 CALLDATASIZE DUP4 CALLDATACOPY DUP1 DUP3 ADD SWAP2 POP POP SWAP1 POP POP SWAP1 JUMP JUMPDEST PUSH1 0x0 PUSH2 0x164 DUP4 DUP4 PUSH2 0x1D6 JUMP JUMPDEST PUSH1 0x20 DUP4 ADD SWAP1 POP SWAP3 SWAP2 POP POP JUMP JUMPDEST PUSH2 0x179 DUP2 PUSH2 0x235 JUMP JUMPDEST PUSH2 0x183 DUP2 DUP5 PUSH2 0x24D JUMP JUMPDEST SWAP3 POP PUSH2 0x18E DUP3 PUSH2 0x22B JUMP JUMPDEST DUP1 PUSH1 0x0 JUMPDEST DUP4 DUP2 LT ISZERO PUSH2 0x1BF JUMPI DUP2 MLOAD PUSH2 0x1A6 DUP8 DUP3 PUSH2 0x158 JUMP JUMPDEST SWAP7 POP PUSH2 0x1B1 DUP4 PUSH2 0x240 JUMP JUMPDEST SWAP3 POP POP PUSH1 0x1 DUP2 ADD SWAP1 POP PUSH2 0x192 JUMP JUMPDEST POP POP POP POP POP POP JUMP JUMPDEST PUSH2 0x1D0 DUP2 PUSH2 0x258 JUMP JUMPDEST DUP3 MSTORE POP POP JUMP JUMPDEST PUSH2 0x1DF DUP2 PUSH2 0x264 JUMP JUMPDEST DUP3 MSTORE POP POP JUMP JUMPDEST PUSH2 0x1EE DUP2 PUSH2 0x264 JUMP JUMPDEST DUP3 MSTORE POP POP JUMP JUMPDEST PUSH1 0x0 PUSH1 0xA0 DUP3 ADD SWAP1 POP PUSH2 0x209 PUSH1 0x0 DUP4 ADD DUP7 PUSH2 0x1E5 JUMP JUMPDEST PUSH2 0x216 PUSH1 0x20 DUP4 ADD DUP6 PUSH2 0x1C7 JUMP JUMPDEST PUSH2 0x223 PUSH1 0x40 DUP4 ADD DUP5 PUSH2 0x170 JUMP JUMPDEST SWAP5 SWAP4 POP POP POP POP JUMP JUMPDEST PUSH1 0x0 DUP2 SWAP1 POP SWAP2 SWAP1 POP JUMP JUMPDEST PUSH1 0x0 PUSH1 0x3 SWAP1 POP SWAP2 SWAP1 POP JUMP JUMPDEST PUSH1 0x0 PUSH1 0x20 DUP3 ADD SWAP1 POP SWAP2 SWAP1 POP JUMP JUMPDEST PUSH1 0x0 DUP2 SWAP1 POP SWAP3 SWAP2 POP POP JUMP JUMPDEST PUSH1 0x0 DUP2 ISZERO ISZERO SWAP1 POP SWAP2 SWAP1 POP JUMP JUMPDEST PUSH1 0x0 DUP2 SWAP1 POP SWAP2 SWAP1 POP JUMP INVALID LOG2 PUSH5 0x6970667358 0x22 SLT KECCAK256 EXP SWAP2 0x5C PUSH22 0xC917660E2642F1CAB110BA9DC6B1BF7D24733DF7B2F9 0x4D LOG0 0xA5 DUP7 CALL BALANCE PUSH5 0x736F6C6343 STOP ADDMOD SMOD STOP CALLER "
				},
				"gasEstimates": {
					"creation": {
						"codeDepositCost": "135200",
						"executionCost": "183",
						"totalCost": "135383"
					},
					"external": {
						"readReturn()": "infinite",
						"returnMultiple()": "infinite",
						"returnNamed()": "infinite"
					}
				},
				"methodIdentifiers": {
					"readReturn()": "6f590330",
					"returnMultiple()": "e61e4008",
					"returnNamed()": "3dece511"
				}
			},
			"storageLayout": {
				"storage": [],
				"types": null
			},
			"userdoc": {
				"kind": "user",
				"methods": {},
				"version": 1
			}
		}
	}
}