{
	"contract/21_CallAndDelegatecall.sol": {
		"ContractB": {
			"abi": [
				{
					"anonymous": false,
					"inputs": [
						{
							"indexed": false,
							"internalType": "bool",
							"name": "success",
							"type": "bool"
						},
						{
							"indexed": false,
							"internalType": "bytes",
							"name": "data",
							"type": "bytes"
						}
					],
					"name": "Response",
					"type": "event"
				},
				{
					"inputs": [
						{
							"internalType": "address",
							"name": "_address",
							"type": "address"
						},
						{
							"internalType": "uint256",
							"name": "_num",
							"type": "uint256"
						}
					],
					"name": "callSetVars",
					"outputs": [],
					"stateMutability": "payable",
					"type": "function"
				},
				{
					"inputs": [
						{
							"internalType": "address",
							"name": "_address",
							"type": "address"
						},
						{
							"internalType": "uint256",
							"name": "_num",
							"type": "uint256"
						}
					],
					"name": "delegatecallSerVars",
					"outputs": [],
					"stateMutability": "payable",
					"type": "function"
				},
				{
					"inputs": [],
					"name": "num",
					"outputs": [
						{
							"internalType": "uint256",
							"name": "",
							"type": "uint256"
						}
					],
					"stateMutability": "view",
					"type": "function"
				},
				{
					"inputs": [],
					"name": "sender",
					"outputs": [
						{
							"internalType": "address",
							"name": "",
							"type": "address"
						}
					],
					"stateMutability": "view",
					"type": "function"
				}
			],
			"devdoc": {
				"kind": "dev",
				"methods": {},
				"version": 1
			},
			"evm": {
				"assembly": "    /* \"contract/21_CallAndDelegatecall.sol\":1438:2716  contract ContractB {\r... */\n  mstore(0x40, 0x80)\n  callvalue\n  dup1\n  iszero\n  tag_1\n  jumpi\n  0x00\n  dup1\n  revert\ntag_1:\n  pop\n  dataSize(sub_0)\n  dup1\n  dataOffset(sub_0)\n  0x00\n  codecopy\n  0x00\n  return\nstop\n\nsub_0: assembly {\n        /* \"contract/21_CallAndDelegatecall.sol\":1438:2716  contract ContractB {\r... */\n      mstore(0x40, 0x80)\n      jumpi(tag_1, lt(calldatasize, 0x04))\n      shr(0xe0, calldataload(0x00))\n      dup1\n      0x4e70b1dc\n      eq\n      tag_2\n      jumpi\n      dup1\n      0x67e404ce\n      eq\n      tag_3\n      jumpi\n      dup1\n      0x86ec20b7\n      eq\n      tag_4\n      jumpi\n      dup1\n      0xb39a9641\n      eq\n      tag_5\n      jumpi\n    tag_1:\n      0x00\n      dup1\n      revert\n        /* \"contract/21_CallAndDelegatecall.sol\":1464:1479  uint public num */\n    tag_2:\n      callvalue\n      dup1\n      iszero\n      tag_6\n      jumpi\n      0x00\n      dup1\n      revert\n    tag_6:\n      pop\n      tag_7\n      tag_8\n      jump\t// in\n    tag_7:\n      mload(0x40)\n      tag_9\n      swap2\n      swap1\n      tag_10\n      jump\t// in\n    tag_9:\n      mload(0x40)\n      dup1\n      swap2\n      sub\n      swap1\n      return\n        /* \"contract/21_CallAndDelegatecall.sol\":1486:1507  address public sender */\n    tag_3:\n      callvalue\n      dup1\n      iszero\n      tag_11\n      jumpi\n      0x00\n      dup1\n      revert\n    tag_11:\n      pop\n      tag_12\n      tag_13\n      jump\t// in\n    tag_12:\n      mload(0x40)\n      tag_14\n      swap2\n      swap1\n      tag_15\n      jump\t// in\n    tag_14:\n      mload(0x40)\n      dup1\n      swap2\n      sub\n      swap1\n      return\n        /* \"contract/21_CallAndDelegatecall.sol\":2472:2713  function delegatecallSerVars(address _address, uint _num) external payable {\r... */\n    tag_4:\n      tag_16\n      0x04\n      dup1\n      calldatasize\n      sub\n      dup2\n      add\n      swap1\n      tag_17\n      swap2\n      swap1\n      tag_18\n      jump\t// in\n    tag_17:\n      tag_19\n      jump\t// in\n    tag_16:\n      stop\n        /* \"contract/21_CallAndDelegatecall.sol\":2237:2462  function callSetVars(address _address, uint _num) external payable {\r... */\n    tag_5:\n      tag_20\n      0x04\n      dup1\n      calldatasize\n      sub\n      dup2\n      add\n      swap1\n      tag_21\n      swap2\n      swap1\n      tag_18\n      jump\t// in\n    tag_21:\n      tag_22\n      jump\t// in\n    tag_20:\n      stop\n        /* \"contract/21_CallAndDelegatecall.sol\":1464:1479  uint public num */\n    tag_8:\n      sload(0x00)\n      dup2\n      jump\t// out\n        /* \"contract/21_CallAndDelegatecall.sol\":1486:1507  address public sender */\n    tag_13:\n      0x01\n      0x00\n      swap1\n      sload\n      swap1\n      0x0100\n      exp\n      swap1\n      div\n      0xffffffffffffffffffffffffffffffffffffffff\n      and\n      dup2\n      jump\t// out\n        /* \"contract/21_CallAndDelegatecall.sol\":2472:2713  function delegatecallSerVars(address _address, uint _num) external payable {\r... */\n    tag_19:\n        /* \"contract/21_CallAndDelegatecall.sol\":2559:2571  bool success */\n      0x00\n        /* \"contract/21_CallAndDelegatecall.sol\":2573:2590  bytes memory data */\n      dup1\n        /* \"contract/21_CallAndDelegatecall.sol\":2594:2602  _address */\n      dup4\n        /* \"contract/21_CallAndDelegatecall.sol\":2594:2615  _address.delegatecall */\n      0xffffffffffffffffffffffffffffffffffffffff\n      and\n        /* \"contract/21_CallAndDelegatecall.sol\":2660:2664  _num */\n      dup4\n        /* \"contract/21_CallAndDelegatecall.sol\":2616:2665  abi.encodeWithSignature(\"setVars(uint256)\", _num) */\n      add(0x24, mload(0x40))\n      tag_24\n      swap2\n      swap1\n      tag_10\n      jump\t// in\n    tag_24:\n      mload(0x40)\n      0x20\n      dup2\n      dup4\n      sub\n      sub\n      dup2\n      mstore\n      swap1\n      0x40\n      mstore\n      and(not(0xffffffffffffffffffffffffffffffffffffffffffffffffffffffff), 0x6466414b00000000000000000000000000000000000000000000000000000000)\n      0x20\n      dup3\n      add\n      dup1\n      mload\n      0xffffffffffffffffffffffffffffffffffffffffffffffffffffffff\n      dup4\n      dup2\n      dup4\n      and\n      or\n      dup4\n      mstore\n      pop\n      pop\n      pop\n      pop\n        /* \"contract/21_CallAndDelegatecall.sol\":2594:2666  _address.delegatecall(abi.encodeWithSignature(\"setVars(uint256)\", _num)) */\n      mload(0x40)\n      tag_25\n      swap2\n      swap1\n      tag_26\n      jump\t// in\n    tag_25:\n      0x00\n      mload(0x40)\n      dup1\n      dup4\n      sub\n      dup2\n      dup6\n      gas\n      delegatecall\n      swap2\n      pop\n      pop\n      returndatasize\n      dup1\n      0x00\n      dup2\n      eq\n      tag_29\n      jumpi\n      mload(0x40)\n      swap2\n      pop\n      and(add(returndatasize, 0x3f), not(0x1f))\n      dup3\n      add\n      0x40\n      mstore\n      returndatasize\n      dup3\n      mstore\n      returndatasize\n      0x00\n      0x20\n      dup5\n      add\n      returndatacopy\n      jump(tag_28)\n    tag_29:\n      0x60\n      swap2\n      pop\n    tag_28:\n      pop\n        /* \"contract/21_CallAndDelegatecall.sol\":2558:2666  (bool success, bytes memory data) = _address.delegatecall(abi.encodeWithSignature(\"setVars(uint256)\", _num)) */\n      swap2\n      pop\n      swap2\n      pop\n        /* \"contract/21_CallAndDelegatecall.sol\":2682:2705  Response(success, data) */\n      0x13848c3e38f8886f3f5d2ad9dff80d8092c2bbb8efd5b887a99c2c6cfc09ac2a\n        /* \"contract/21_CallAndDelegatecall.sol\":2691:2698  success */\n      dup3\n        /* \"contract/21_CallAndDelegatecall.sol\":2700:2704  data */\n      dup3\n        /* \"contract/21_CallAndDelegatecall.sol\":2682:2705  Response(success, data) */\n      mload(0x40)\n      tag_30\n      swap3\n      swap2\n      swap1\n      tag_31\n      jump\t// in\n    tag_30:\n      mload(0x40)\n      dup1\n      swap2\n      sub\n      swap1\n      log1\n        /* \"contract/21_CallAndDelegatecall.sol\":2547:2713  {\r... */\n      pop\n      pop\n        /* \"contract/21_CallAndDelegatecall.sol\":2472:2713  function delegatecallSerVars(address _address, uint _num) external payable {\r... */\n      pop\n      pop\n      jump\t// out\n        /* \"contract/21_CallAndDelegatecall.sol\":2237:2462  function callSetVars(address _address, uint _num) external payable {\r... */\n    tag_22:\n        /* \"contract/21_CallAndDelegatecall.sol\":2316:2328  bool success */\n      0x00\n        /* \"contract/21_CallAndDelegatecall.sol\":2330:2347  bytes memory data */\n      dup1\n        /* \"contract/21_CallAndDelegatecall.sol\":2351:2359  _address */\n      dup4\n        /* \"contract/21_CallAndDelegatecall.sol\":2351:2364  _address.call */\n      0xffffffffffffffffffffffffffffffffffffffff\n      and\n        /* \"contract/21_CallAndDelegatecall.sol\":2409:2413  _num */\n      dup4\n        /* \"contract/21_CallAndDelegatecall.sol\":2365:2414  abi.encodeWithSignature(\"setVars(uint256)\", _num) */\n      add(0x24, mload(0x40))\n      tag_33\n      swap2\n      swap1\n      tag_10\n      jump\t// in\n    tag_33:\n      mload(0x40)\n      0x20\n      dup2\n      dup4\n      sub\n      sub\n      dup2\n      mstore\n      swap1\n      0x40\n      mstore\n      and(not(0xffffffffffffffffffffffffffffffffffffffffffffffffffffffff), 0x6466414b00000000000000000000000000000000000000000000000000000000)\n      0x20\n      dup3\n      add\n      dup1\n      mload\n      0xffffffffffffffffffffffffffffffffffffffffffffffffffffffff\n      dup4\n      dup2\n      dup4\n      and\n      or\n      dup4\n      mstore\n      pop\n      pop\n      pop\n      pop\n        /* \"contract/21_CallAndDelegatecall.sol\":2351:2415  _address.call(abi.encodeWithSignature(\"setVars(uint256)\", _num)) */\n      mload(0x40)\n      tag_34\n      swap2\n      swap1\n      tag_26\n      jump\t// in\n    tag_34:\n      0x00\n      mload(0x40)\n      dup1\n      dup4\n      sub\n      dup2\n      0x00\n      dup7\n      gas\n      call\n      swap2\n      pop\n      pop\n      returndatasize\n      dup1\n      0x00\n      dup2\n      eq\n      tag_37\n      jumpi\n      mload(0x40)\n      swap2\n      pop\n      and(add(returndatasize, 0x3f), not(0x1f))\n      dup3\n      add\n      0x40\n      mstore\n      returndatasize\n      dup3\n      mstore\n      returndatasize\n      0x00\n      0x20\n      dup5\n      add\n      returndatacopy\n      jump(tag_36)\n    tag_37:\n      0x60\n      swap2\n      pop\n    tag_36:\n      pop\n        /* \"contract/21_CallAndDelegatecall.sol\":2315:2415  (bool success, bytes memory data) = _address.call(abi.encodeWithSignature(\"setVars(uint256)\", _num)) */\n      swap2\n      pop\n      swap2\n      pop\n        /* \"contract/21_CallAndDelegatecall.sol\":2431:2454  Response(success, data) */\n      0x13848c3e38f8886f3f5d2ad9dff80d8092c2bbb8efd5b887a99c2c6cfc09ac2a\n        /* \"contract/21_CallAndDelegatecall.sol\":2440:2447  success */\n      dup3\n        /* \"contract/21_CallAndDelegatecall.sol\":2449:2453  data */\n      dup3\n        /* \"contract/21_CallAndDelegatecall.sol\":2431:2454  Response(success, data) */\n      mload(0x40)\n      tag_38\n      swap3\n      swap2\n      swap1\n      tag_31\n      jump\t// in\n    tag_38:\n      mload(0x40)\n      dup1\n      swap2\n      sub\n      swap1\n      log1\n        /* \"contract/21_CallAndDelegatecall.sol\":2304:2462  {\r... */\n      pop\n      pop\n        /* \"contract/21_CallAndDelegatecall.sol\":2237:2462  function callSetVars(address _address, uint _num) external payable {\r... */\n      pop\n      pop\n      jump\t// out\n        /* \"#utility.yul\":7:146   */\n    tag_40:\n        /* \"#utility.yul\":53:58   */\n      0x00\n        /* \"#utility.yul\":91:97   */\n      dup2\n        /* \"#utility.yul\":78:98   */\n      calldataload\n        /* \"#utility.yul\":69:98   */\n      swap1\n      pop\n        /* \"#utility.yul\":107:140   */\n      tag_42\n        /* \"#utility.yul\":134:139   */\n      dup2\n        /* \"#utility.yul\":107:140   */\n      tag_43\n      jump\t// in\n    tag_42:\n        /* \"#utility.yul\":7:146   */\n      swap3\n      swap2\n      pop\n      pop\n      jump\t// out\n        /* \"#utility.yul\":152:291   */\n    tag_44:\n        /* \"#utility.yul\":198:203   */\n      0x00\n        /* \"#utility.yul\":236:242   */\n      dup2\n        /* \"#utility.yul\":223:243   */\n      calldataload\n        /* \"#utility.yul\":214:243   */\n      swap1\n      pop\n        /* \"#utility.yul\":252:285   */\n      tag_46\n        /* \"#utility.yul\":279:284   */\n      dup2\n        /* \"#utility.yul\":252:285   */\n      tag_47\n      jump\t// in\n    tag_46:\n        /* \"#utility.yul\":152:291   */\n      swap3\n      swap2\n      pop\n      pop\n      jump\t// out\n        /* \"#utility.yul\":297:771   */\n    tag_18:\n        /* \"#utility.yul\":365:371   */\n      0x00\n        /* \"#utility.yul\":373:379   */\n      dup1\n        /* \"#utility.yul\":422:424   */\n      0x40\n        /* \"#utility.yul\":410:419   */\n      dup4\n        /* \"#utility.yul\":401:408   */\n      dup6\n        /* \"#utility.yul\":397:420   */\n      sub\n        /* \"#utility.yul\":393:425   */\n      slt\n        /* \"#utility.yul\":390:509   */\n      iszero\n      tag_49\n      jumpi\n        /* \"#utility.yul\":428:507   */\n      tag_50\n      tag_51\n      jump\t// in\n    tag_50:\n        /* \"#utility.yul\":390:509   */\n    tag_49:\n        /* \"#utility.yul\":548:549   */\n      0x00\n        /* \"#utility.yul\":573:626   */\n      tag_52\n        /* \"#utility.yul\":618:625   */\n      dup6\n        /* \"#utility.yul\":609:615   */\n      dup3\n        /* \"#utility.yul\":598:607   */\n      dup7\n        /* \"#utility.yul\":594:616   */\n      add\n        /* \"#utility.yul\":573:626   */\n      tag_40\n      jump\t// in\n    tag_52:\n        /* \"#utility.yul\":563:626   */\n      swap3\n      pop\n        /* \"#utility.yul\":519:636   */\n      pop\n        /* \"#utility.yul\":675:677   */\n      0x20\n        /* \"#utility.yul\":701:754   */\n      tag_53\n        /* \"#utility.yul\":746:753   */\n      dup6\n        /* \"#utility.yul\":737:743   */\n      dup3\n        /* \"#utility.yul\":726:735   */\n      dup7\n        /* \"#utility.yul\":722:744   */\n      add\n        /* \"#utility.yul\":701:754   */\n      tag_44\n      jump\t// in\n    tag_53:\n        /* \"#utility.yul\":691:754   */\n      swap2\n      pop\n        /* \"#utility.yul\":646:764   */\n      pop\n        /* \"#utility.yul\":297:771   */\n      swap3\n      pop\n      swap3\n      swap1\n      pop\n      jump\t// out\n        /* \"#utility.yul\":777:895   */\n    tag_54:\n        /* \"#utility.yul\":864:888   */\n      tag_56\n        /* \"#utility.yul\":882:887   */\n      dup2\n        /* \"#utility.yul\":864:888   */\n      tag_57\n      jump\t// in\n    tag_56:\n        /* \"#utility.yul\":859:862   */\n      dup3\n        /* \"#utility.yul\":852:889   */\n      mstore\n        /* \"#utility.yul\":777:895   */\n      pop\n      pop\n      jump\t// out\n        /* \"#utility.yul\":901:1010   */\n    tag_58:\n        /* \"#utility.yul\":982:1003   */\n      tag_60\n        /* \"#utility.yul\":997:1002   */\n      dup2\n        /* \"#utility.yul\":982:1003   */\n      tag_61\n      jump\t// in\n    tag_60:\n        /* \"#utility.yul\":977:980   */\n      dup3\n        /* \"#utility.yul\":970:1004   */\n      mstore\n        /* \"#utility.yul\":901:1010   */\n      pop\n      pop\n      jump\t// out\n        /* \"#utility.yul\":1016:1376   */\n    tag_62:\n        /* \"#utility.yul\":1102:1105   */\n      0x00\n        /* \"#utility.yul\":1130:1168   */\n      tag_64\n        /* \"#utility.yul\":1162:1167   */\n      dup3\n        /* \"#utility.yul\":1130:1168   */\n      tag_65\n      jump\t// in\n    tag_64:\n        /* \"#utility.yul\":1184:1254   */\n      tag_66\n        /* \"#utility.yul\":1247:1253   */\n      dup2\n        /* \"#utility.yul\":1242:1245   */\n      dup6\n        /* \"#utility.yul\":1184:1254   */\n      tag_67\n      jump\t// in\n    tag_66:\n        /* \"#utility.yul\":1177:1254   */\n      swap4\n      pop\n        /* \"#utility.yul\":1263:1315   */\n      tag_68\n        /* \"#utility.yul\":1308:1314   */\n      dup2\n        /* \"#utility.yul\":1303:1306   */\n      dup6\n        /* \"#utility.yul\":1296:1300   */\n      0x20\n        /* \"#utility.yul\":1289:1294   */\n      dup7\n        /* \"#utility.yul\":1285:1301   */\n      add\n        /* \"#utility.yul\":1263:1315   */\n      tag_69\n      jump\t// in\n    tag_68:\n        /* \"#utility.yul\":1340:1369   */\n      tag_70\n        /* \"#utility.yul\":1362:1368   */\n      dup2\n        /* \"#utility.yul\":1340:1369   */\n      tag_71\n      jump\t// in\n    tag_70:\n        /* \"#utility.yul\":1335:1338   */\n      dup5\n        /* \"#utility.yul\":1331:1370   */\n      add\n        /* \"#utility.yul\":1324:1370   */\n      swap2\n      pop\n        /* \"#utility.yul\":1106:1376   */\n      pop\n        /* \"#utility.yul\":1016:1376   */\n      swap3\n      swap2\n      pop\n      pop\n      jump\t// out\n        /* \"#utility.yul\":1382:1755   */\n    tag_72:\n        /* \"#utility.yul\":1486:1489   */\n      0x00\n        /* \"#utility.yul\":1514:1552   */\n      tag_74\n        /* \"#utility.yul\":1546:1551   */\n      dup3\n        /* \"#utility.yul\":1514:1552   */\n      tag_65\n      jump\t// in\n    tag_74:\n        /* \"#utility.yul\":1568:1656   */\n      tag_75\n        /* \"#utility.yul\":1649:1655   */\n      dup2\n        /* \"#utility.yul\":1644:1647   */\n      dup6\n        /* \"#utility.yul\":1568:1656   */\n      tag_76\n      jump\t// in\n    tag_75:\n        /* \"#utility.yul\":1561:1656   */\n      swap4\n      pop\n        /* \"#utility.yul\":1665:1717   */\n      tag_77\n        /* \"#utility.yul\":1710:1716   */\n      dup2\n        /* \"#utility.yul\":1705:1708   */\n      dup6\n        /* \"#utility.yul\":1698:1702   */\n      0x20\n        /* \"#utility.yul\":1691:1696   */\n      dup7\n        /* \"#utility.yul\":1687:1703   */\n      add\n        /* \"#utility.yul\":1665:1717   */\n      tag_69\n      jump\t// in\n    tag_77:\n        /* \"#utility.yul\":1742:1748   */\n      dup1\n        /* \"#utility.yul\":1737:1740   */\n      dup5\n        /* \"#utility.yul\":1733:1749   */\n      add\n        /* \"#utility.yul\":1726:1749   */\n      swap2\n      pop\n        /* \"#utility.yul\":1490:1755   */\n      pop\n        /* \"#utility.yul\":1382:1755   */\n      swap3\n      swap2\n      pop\n      pop\n      jump\t// out\n        /* \"#utility.yul\":1761:1879   */\n    tag_78:\n        /* \"#utility.yul\":1848:1872   */\n      tag_80\n        /* \"#utility.yul\":1866:1871   */\n      dup2\n        /* \"#utility.yul\":1848:1872   */\n      tag_81\n      jump\t// in\n    tag_80:\n        /* \"#utility.yul\":1843:1846   */\n      dup3\n        /* \"#utility.yul\":1836:1873   */\n      mstore\n        /* \"#utility.yul\":1761:1879   */\n      pop\n      pop\n      jump\t// out\n        /* \"#utility.yul\":1885:2156   */\n    tag_26:\n        /* \"#utility.yul\":2015:2018   */\n      0x00\n        /* \"#utility.yul\":2037:2130   */\n      tag_83\n        /* \"#utility.yul\":2126:2129   */\n      dup3\n        /* \"#utility.yul\":2117:2123   */\n      dup5\n        /* \"#utility.yul\":2037:2130   */\n      tag_72\n      jump\t// in\n    tag_83:\n        /* \"#utility.yul\":2030:2130   */\n      swap2\n      pop\n        /* \"#utility.yul\":2147:2150   */\n      dup2\n        /* \"#utility.yul\":2140:2150   */\n      swap1\n      pop\n        /* \"#utility.yul\":1885:2156   */\n      swap3\n      swap2\n      pop\n      pop\n      jump\t// out\n        /* \"#utility.yul\":2162:2384   */\n    tag_15:\n        /* \"#utility.yul\":2255:2259   */\n      0x00\n        /* \"#utility.yul\":2293:2295   */\n      0x20\n        /* \"#utility.yul\":2282:2291   */\n      dup3\n        /* \"#utility.yul\":2278:2296   */\n      add\n        /* \"#utility.yul\":2270:2296   */\n      swap1\n      pop\n        /* \"#utility.yul\":2306:2377   */\n      tag_85\n        /* \"#utility.yul\":2374:2375   */\n      0x00\n        /* \"#utility.yul\":2363:2372   */\n      dup4\n        /* \"#utility.yul\":2359:2376   */\n      add\n        /* \"#utility.yul\":2350:2356   */\n      dup5\n        /* \"#utility.yul\":2306:2377   */\n      tag_54\n      jump\t// in\n    tag_85:\n        /* \"#utility.yul\":2162:2384   */\n      swap3\n      swap2\n      pop\n      pop\n      jump\t// out\n        /* \"#utility.yul\":2390:2797   */\n    tag_31:\n        /* \"#utility.yul\":2523:2527   */\n      0x00\n        /* \"#utility.yul\":2561:2563   */\n      0x40\n        /* \"#utility.yul\":2550:2559   */\n      dup3\n        /* \"#utility.yul\":2546:2564   */\n      add\n        /* \"#utility.yul\":2538:2564   */\n      swap1\n      pop\n        /* \"#utility.yul\":2574:2639   */\n      tag_87\n        /* \"#utility.yul\":2636:2637   */\n      0x00\n        /* \"#utility.yul\":2625:2634   */\n      dup4\n        /* \"#utility.yul\":2621:2638   */\n      add\n        /* \"#utility.yul\":2612:2618   */\n      dup6\n        /* \"#utility.yul\":2574:2639   */\n      tag_58\n      jump\t// in\n    tag_87:\n        /* \"#utility.yul\":2686:2695   */\n      dup2\n        /* \"#utility.yul\":2680:2684   */\n      dup2\n        /* \"#utility.yul\":2676:2696   */\n      sub\n        /* \"#utility.yul\":2671:2673   */\n      0x20\n        /* \"#utility.yul\":2660:2669   */\n      dup4\n        /* \"#utility.yul\":2656:2674   */\n      add\n        /* \"#utility.yul\":2649:2697   */\n      mstore\n        /* \"#utility.yul\":2714:2790   */\n      tag_88\n        /* \"#utility.yul\":2785:2789   */\n      dup2\n        /* \"#utility.yul\":2776:2782   */\n      dup5\n        /* \"#utility.yul\":2714:2790   */\n      tag_62\n      jump\t// in\n    tag_88:\n        /* \"#utility.yul\":2706:2790   */\n      swap1\n      pop\n        /* \"#utility.yul\":2390:2797   */\n      swap4\n      swap3\n      pop\n      pop\n      pop\n      jump\t// out\n        /* \"#utility.yul\":2803:3025   */\n    tag_10:\n        /* \"#utility.yul\":2896:2900   */\n      0x00\n        /* \"#utility.yul\":2934:2936   */\n      0x20\n        /* \"#utility.yul\":2923:2932   */\n      dup3\n        /* \"#utility.yul\":2919:2937   */\n      add\n        /* \"#utility.yul\":2911:2937   */\n      swap1\n      pop\n        /* \"#utility.yul\":2947:3018   */\n      tag_90\n        /* \"#utility.yul\":3015:3016   */\n      0x00\n        /* \"#utility.yul\":3004:3013   */\n      dup4\n        /* \"#utility.yul\":3000:3017   */\n      add\n        /* \"#utility.yul\":2991:2997   */\n      dup5\n        /* \"#utility.yul\":2947:3018   */\n      tag_78\n      jump\t// in\n    tag_90:\n        /* \"#utility.yul\":2803:3025   */\n      swap3\n      swap2\n      pop\n      pop\n      jump\t// out\n        /* \"#utility.yul\":3112:3210   */\n    tag_65:\n        /* \"#utility.yul\":3163:3169   */\n      0x00\n        /* \"#utility.yul\":3197:3202   */\n      dup2\n        /* \"#utility.yul\":3191:3203   */\n      mload\n        /* \"#utility.yul\":3181:3203   */\n      swap1\n      pop\n        /* \"#utility.yul\":3112:3210   */\n      swap2\n      swap1\n      pop\n      jump\t// out\n        /* \"#utility.yul\":3216:3384   */\n    tag_67:\n        /* \"#utility.yul\":3299:3310   */\n      0x00\n        /* \"#utility.yul\":3333:3339   */\n      dup3\n        /* \"#utility.yul\":3328:3331   */\n      dup3\n        /* \"#utility.yul\":3321:3340   */\n      mstore\n        /* \"#utility.yul\":3373:3377   */\n      0x20\n        /* \"#utility.yul\":3368:3371   */\n      dup3\n        /* \"#utility.yul\":3364:3378   */\n      add\n        /* \"#utility.yul\":3349:3378   */\n      swap1\n      pop\n        /* \"#utility.yul\":3216:3384   */\n      swap3\n      swap2\n      pop\n      pop\n      jump\t// out\n        /* \"#utility.yul\":3390:3537   */\n    tag_76:\n        /* \"#utility.yul\":3491:3502   */\n      0x00\n        /* \"#utility.yul\":3528:3531   */\n      dup2\n        /* \"#utility.yul\":3513:3531   */\n      swap1\n      pop\n        /* \"#utility.yul\":3390:3537   */\n      swap3\n      swap2\n      pop\n      pop\n      jump\t// out\n        /* \"#utility.yul\":3543:3639   */\n    tag_57:\n        /* \"#utility.yul\":3580:3587   */\n      0x00\n        /* \"#utility.yul\":3609:3633   */\n      tag_97\n        /* \"#utility.yul\":3627:3632   */\n      dup3\n        /* \"#utility.yul\":3609:3633   */\n      tag_98\n      jump\t// in\n    tag_97:\n        /* \"#utility.yul\":3598:3633   */\n      swap1\n      pop\n        /* \"#utility.yul\":3543:3639   */\n      swap2\n      swap1\n      pop\n      jump\t// out\n        /* \"#utility.yul\":3645:3735   */\n    tag_61:\n        /* \"#utility.yul\":3679:3686   */\n      0x00\n        /* \"#utility.yul\":3722:3727   */\n      dup2\n        /* \"#utility.yul\":3715:3728   */\n      iszero\n        /* \"#utility.yul\":3708:3729   */\n      iszero\n        /* \"#utility.yul\":3697:3729   */\n      swap1\n      pop\n        /* \"#utility.yul\":3645:3735   */\n      swap2\n      swap1\n      pop\n      jump\t// out\n        /* \"#utility.yul\":3741:3867   */\n    tag_98:\n        /* \"#utility.yul\":3778:3785   */\n      0x00\n        /* \"#utility.yul\":3818:3860   */\n      0xffffffffffffffffffffffffffffffffffffffff\n        /* \"#utility.yul\":3811:3816   */\n      dup3\n        /* \"#utility.yul\":3807:3861   */\n      and\n        /* \"#utility.yul\":3796:3861   */\n      swap1\n      pop\n        /* \"#utility.yul\":3741:3867   */\n      swap2\n      swap1\n      pop\n      jump\t// out\n        /* \"#utility.yul\":3873:3950   */\n    tag_81:\n        /* \"#utility.yul\":3910:3917   */\n      0x00\n        /* \"#utility.yul\":3939:3944   */\n      dup2\n        /* \"#utility.yul\":3928:3944   */\n      swap1\n      pop\n        /* \"#utility.yul\":3873:3950   */\n      swap2\n      swap1\n      pop\n      jump\t// out\n        /* \"#utility.yul\":3956:4263   */\n    tag_69:\n        /* \"#utility.yul\":4024:4025   */\n      0x00\n        /* \"#utility.yul\":4034:4147   */\n    tag_103:\n        /* \"#utility.yul\":4048:4054   */\n      dup4\n        /* \"#utility.yul\":4045:4046   */\n      dup2\n        /* \"#utility.yul\":4042:4055   */\n      lt\n        /* \"#utility.yul\":4034:4147   */\n      iszero\n      tag_105\n      jumpi\n        /* \"#utility.yul\":4133:4134   */\n      dup1\n        /* \"#utility.yul\":4128:4131   */\n      dup3\n        /* \"#utility.yul\":4124:4135   */\n      add\n        /* \"#utility.yul\":4118:4136   */\n      mload\n        /* \"#utility.yul\":4114:4115   */\n      dup2\n        /* \"#utility.yul\":4109:4112   */\n      dup5\n        /* \"#utility.yul\":4105:4116   */\n      add\n        /* \"#utility.yul\":4098:4137   */\n      mstore\n        /* \"#utility.yul\":4070:4072   */\n      0x20\n        /* \"#utility.yul\":4067:4068   */\n      dup2\n        /* \"#utility.yul\":4063:4073   */\n      add\n        /* \"#utility.yul\":4058:4073   */\n      swap1\n      pop\n        /* \"#utility.yul\":4034:4147   */\n      jump(tag_103)\n    tag_105:\n        /* \"#utility.yul\":4165:4171   */\n      dup4\n        /* \"#utility.yul\":4162:4163   */\n      dup2\n        /* \"#utility.yul\":4159:4172   */\n      gt\n        /* \"#utility.yul\":4156:4257   */\n      iszero\n      tag_106\n      jumpi\n        /* \"#utility.yul\":4245:4246   */\n      0x00\n        /* \"#utility.yul\":4236:4242   */\n      dup5\n        /* \"#utility.yul\":4231:4234   */\n      dup5\n        /* \"#utility.yul\":4227:4243   */\n      add\n        /* \"#utility.yul\":4220:4247   */\n      mstore\n        /* \"#utility.yul\":4156:4257   */\n    tag_106:\n        /* \"#utility.yul\":4005:4263   */\n      pop\n        /* \"#utility.yul\":3956:4263   */\n      pop\n      pop\n      pop\n      jump\t// out\n        /* \"#utility.yul\":4392:4509   */\n    tag_51:\n        /* \"#utility.yul\":4501:4502   */\n      0x00\n        /* \"#utility.yul\":4498:4499   */\n      dup1\n        /* \"#utility.yul\":4491:4503   */\n      revert\n        /* \"#utility.yul\":4515:4617   */\n    tag_71:\n        /* \"#utility.yul\":4556:4562   */\n      0x00\n        /* \"#utility.yul\":4607:4609   */\n      0x1f\n        /* \"#utility.yul\":4603:4610   */\n      not\n        /* \"#utility.yul\":4598:4600   */\n      0x1f\n        /* \"#utility.yul\":4591:4596   */\n      dup4\n        /* \"#utility.yul\":4587:4601   */\n      add\n        /* \"#utility.yul\":4583:4611   */\n      and\n        /* \"#utility.yul\":4573:4611   */\n      swap1\n      pop\n        /* \"#utility.yul\":4515:4617   */\n      swap2\n      swap1\n      pop\n      jump\t// out\n        /* \"#utility.yul\":4623:4745   */\n    tag_43:\n        /* \"#utility.yul\":4696:4720   */\n      tag_112\n        /* \"#utility.yul\":4714:4719   */\n      dup2\n        /* \"#utility.yul\":4696:4720   */\n      tag_57\n      jump\t// in\n    tag_112:\n        /* \"#utility.yul\":4689:4694   */\n      dup2\n        /* \"#utility.yul\":4686:4721   */\n      eq\n        /* \"#utility.yul\":4676:4739   */\n      tag_113\n      jumpi\n        /* \"#utility.yul\":4735:4736   */\n      0x00\n        /* \"#utility.yul\":4732:4733   */\n      dup1\n        /* \"#utility.yul\":4725:4737   */\n      revert\n        /* \"#utility.yul\":4676:4739   */\n    tag_113:\n        /* \"#utility.yul\":4623:4745   */\n      pop\n      jump\t// out\n        /* \"#utility.yul\":4751:4873   */\n    tag_47:\n        /* \"#utility.yul\":4824:4848   */\n      tag_115\n        /* \"#utility.yul\":4842:4847   */\n      dup2\n        /* \"#utility.yul\":4824:4848   */\n      tag_81\n      jump\t// in\n    tag_115:\n        /* \"#utility.yul\":4817:4822   */\n      dup2\n        /* \"#utility.yul\":4814:4849   */\n      eq\n        /* \"#utility.yul\":4804:4867   */\n      tag_116\n      jumpi\n        /* \"#utility.yul\":4863:4864   */\n      0x00\n        /* \"#utility.yul\":4860:4861   */\n      dup1\n        /* \"#utility.yul\":4853:4865   */\n      revert\n        /* \"#utility.yul\":4804:4867   */\n    tag_116:\n        /* \"#utility.yul\":4751:4873   */\n      pop\n      jump\t// out\n\n    auxdata: 0xa26469706673582212208ded32667c82a058afee09bb4a85bf9d15f516d1ba13fedb5f2385dfdc01bba364736f6c63430008070033\n}\n",
				"bytecode": {
					"linkReferences": {},
					"object": "608060405234801561001057600080fd5b5061060c806100206000396000f3fe60806040526004361061003f5760003560e01c80634e70b1dc1461004457806367e404ce1461006f57806386ec20b71461009a578063b39a9641146100b6575b600080fd5b34801561005057600080fd5b506100596100d2565b60405161006691906104d5565b60405180910390f35b34801561007b57600080fd5b506100846100d8565b604051610091919061048a565b60405180910390f35b6100b460048036038101906100af919061039c565b6100fe565b005b6100d060048036038101906100cb919061039c565b610237565b005b60005481565b600160009054906101000a900473ffffffffffffffffffffffffffffffffffffffff1681565b6000808373ffffffffffffffffffffffffffffffffffffffff168360405160240161012991906104d5565b6040516020818303038152906040527f6466414b000000000000000000000000000000000000000000000000000000007bffffffffffffffffffffffffffffffffffffffffffffffffffffffff19166020820180517bffffffffffffffffffffffffffffffffffffffffffffffffffffffff83818316178352505050506040516101b39190610473565b600060405180830381855af49150503d80600081146101ee576040519150601f19603f3d011682016040523d82523d6000602084013e6101f3565b606091505b50915091507f13848c3e38f8886f3f5d2ad9dff80d8092c2bbb8efd5b887a99c2c6cfc09ac2a82826040516102299291906104a5565b60405180910390a150505050565b6000808373ffffffffffffffffffffffffffffffffffffffff168360405160240161026291906104d5565b6040516020818303038152906040527f6466414b000000000000000000000000000000000000000000000000000000007bffffffffffffffffffffffffffffffffffffffffffffffffffffffff19166020820180517bffffffffffffffffffffffffffffffffffffffffffffffffffffffff83818316178352505050506040516102ec9190610473565b6000604051808303816000865af19150503d8060008114610329576040519150601f19603f3d011682016040523d82523d6000602084013e61032e565b606091505b50915091507f13848c3e38f8886f3f5d2ad9dff80d8092c2bbb8efd5b887a99c2c6cfc09ac2a82826040516103649291906104a5565b60405180910390a150505050565b600081359050610381816105a8565b92915050565b600081359050610396816105bf565b92915050565b600080604083850312156103b3576103b2610592565b5b60006103c185828601610372565b92505060206103d285828601610387565b9150509250929050565b6103e581610517565b82525050565b6103f481610529565b82525050565b6000610405826104f0565b61040f81856104fb565b935061041f81856020860161055f565b61042881610597565b840191505092915050565b600061043e826104f0565b610448818561050c565b935061045881856020860161055f565b80840191505092915050565b61046d81610555565b82525050565b600061047f8284610433565b915081905092915050565b600060208201905061049f60008301846103dc565b92915050565b60006040820190506104ba60008301856103eb565b81810360208301526104cc81846103fa565b90509392505050565b60006020820190506104ea6000830184610464565b92915050565b600081519050919050565b600082825260208201905092915050565b600081905092915050565b600061052282610535565b9050919050565b60008115159050919050565b600073ffffffffffffffffffffffffffffffffffffffff82169050919050565b6000819050919050565b60005b8381101561057d578082015181840152602081019050610562565b8381111561058c576000848401525b50505050565b600080fd5b6000601f19601f8301169050919050565b6105b181610517565b81146105bc57600080fd5b50565b6105c881610555565b81146105d357600080fd5b5056fea26469706673582212208ded32667c82a058afee09bb4a85bf9d15f516d1ba13fedb5f2385dfdc01bba364736f6c63430008070033",
					"opcodes": "PUSH1 0x80 PUSH1 0x40 MSTORE CALLVALUE DUP1 ISZERO PUSH2 0x10 JUMPI PUSH1 0x0 DUP1 REVERT JUMPDEST POP PUSH2 0x60C DUP1 PUSH2 0x20 PUSH1 0x0 CODECOPY PUSH1 0x0 RETURN INVALID PUSH1 0x80 PUSH1 0x40 MSTORE PUSH1 0x4 CALLDATASIZE LT PUSH2 0x3F JUMPI PUSH1 0x0 CALLDATALOAD PUSH1 0xE0 SHR DUP1 PUSH4 0x4E70B1DC EQ PUSH2 0x44 JUMPI DUP1 PUSH4 0x67E404CE EQ PUSH2 0x6F JUMPI DUP1 PUSH4 0x86EC20B7 EQ PUSH2 0x9A JUMPI DUP1 PUSH4 0xB39A9641 EQ PUSH2 0xB6 JUMPI JUMPDEST PUSH1 0x0 DUP1 REVERT JUMPDEST CALLVALUE DUP1 ISZERO PUSH2 0x50 JUMPI PUSH1 0x0 DUP1 REVERT JUMPDEST POP PUSH2 0x59 PUSH2 0xD2 JUMP JUMPDEST PUSH1 0x40 MLOAD PUSH2 0x66 SWAP2 SWAP1 PUSH2 0x4D5 JUMP JUMPDEST PUSH1 0x40 MLOAD DUP1 SWAP2 SUB SWAP1 RETURN JUMPDEST CALLVALUE DUP1 ISZERO PUSH2 0x7B JUMPI PUSH1 0x0 DUP1 REVERT JUMPDEST POP PUSH2 0x84 PUSH2 0xD8 JUMP JUMPDEST PUSH1 0x40 MLOAD PUSH2 0x91 SWAP2 SWAP1 PUSH2 0x48A JUMP JUMPDEST PUSH1 0x40 MLOAD DUP1 SWAP2 SUB SWAP1 RETURN JUMPDEST PUSH2 0xB4 PUSH1 0x4 DUP1 CALLDATASIZE SUB DUP2 ADD SWAP1 PUSH2 0xAF SWAP2 SWAP1 PUSH2 0x39C JUMP JUMPDEST PUSH2 0xFE JUMP JUMPDEST STOP JUMPDEST PUSH2 0xD0 PUSH1 0x4 DUP1 CALLDATASIZE SUB DUP2 ADD SWAP1 PUSH2 0xCB SWAP2 SWAP1 PUSH2 0x39C JUMP JUMPDEST PUSH2 0x237 JUMP JUMPDEST STOP JUMPDEST PUSH1 0x0 SLOAD DUP2 JUMP JUMPDEST PUSH1 0x1 PUSH1 0x0 SWAP1 SLOAD SWAP1 PUSH2 0x100 EXP SWAP1 DIV PUSH20 0xFFFFFFFFFFFFFFFFFFFFFFFFFFFFFFFFFFFFFFFF AND DUP2 JUMP JUMPDEST PUSH1 0x0 DUP1 DUP4 PUSH20 0xFFFFFFFFFFFFFFFFFFFFFFFFFFFFFFFFFFFFFFFF AND DUP4 PUSH1 0x40 MLOAD PUSH1 0x24 ADD PUSH2 0x129 SWAP2 SWAP1 PUSH2 0x4D5 JUMP JUMPDEST PUSH1 0x40 MLOAD PUSH1 0x20 DUP2 DUP4 SUB SUB DUP2 MSTORE SWAP1 PUSH1 0x40 MSTORE PUSH32 0x6466414B00000000000000000000000000000000000000000000000000000000 PUSH28 0xFFFFFFFFFFFFFFFFFFFFFFFFFFFFFFFFFFFFFFFFFFFFFFFFFFFFFFFF NOT AND PUSH1 0x20 DUP3 ADD DUP1 MLOAD PUSH28 0xFFFFFFFFFFFFFFFFFFFFFFFFFFFFFFFFFFFFFFFFFFFFFFFFFFFFFFFF DUP4 DUP2 DUP4 AND OR DUP4 MSTORE POP POP POP POP PUSH1 0x40 MLOAD PUSH2 0x1B3 SWAP2 SWAP1 PUSH2 0x473 JUMP JUMPDEST PUSH1 0x0 PUSH1 0x40 MLOAD DUP1 DUP4 SUB DUP2 DUP6 GAS DELEGATECALL SWAP2 POP POP RETURNDATASIZE DUP1 PUSH1 0x0 DUP2 EQ PUSH2 0x1EE JUMPI PUSH1 0x40 MLOAD SWAP2 POP PUSH1 0x1F NOT PUSH1 0x3F RETURNDATASIZE ADD AND DUP3 ADD PUSH1 0x40 MSTORE RETURNDATASIZE DUP3 MSTORE RETURNDATASIZE PUSH1 0x0 PUSH1 0x20 DUP5 ADD RETURNDATACOPY PUSH2 0x1F3 JUMP JUMPDEST PUSH1 0x60 SWAP2 POP JUMPDEST POP SWAP2 POP SWAP2 POP PUSH32 0x13848C3E38F8886F3F5D2AD9DFF80D8092C2BBB8EFD5B887A99C2C6CFC09AC2A DUP3 DUP3 PUSH1 0x40 MLOAD PUSH2 0x229 SWAP3 SWAP2 SWAP1 PUSH2 0x4A5 JUMP JUMPDEST PUSH1 0x40 MLOAD DUP1 SWAP2 SUB SWAP1 LOG1 POP POP POP POP JUMP JUMPDEST PUSH1 0x0 DUP1 DUP4 PUSH20 0xFFFFFFFFFFFFFFFFFFFFFFFFFFFFFFFFFFFFFFFF AND DUP4 PUSH1 0x40 MLOAD PUSH1 0x24 ADD PUSH2 0x262 SWAP2 SWAP1 PUSH2 0x4D5 JUMP JUMPDEST PUSH1 0x40 MLOAD PUSH1 0x20 DUP2 DUP4 SUB SUB DUP2 MSTORE SWAP1 PUSH1 0x40 MSTORE PUSH32 0x6466414B00000000000000000000000000000000000000000000000000000000 PUSH28 0xFFFFFFFFFFFFFFFFFFFFFFFFFFFFFFFFFFFFFFFFFFFFFFFFFFFFFFFF NOT AND PUSH1 0x20 DUP3 ADD DUP1 MLOAD PUSH28 0xFFFFFFFFFFFFFFFFFFFFFFFFFFFFFFFFFFFFFFFFFFFFFFFFFFFFFFFF DUP4 DUP2 DUP4 AND OR DUP4 MSTORE POP POP POP POP PUSH1 0x40 MLOAD PUSH2 0x2EC SWAP2 SWAP1 PUSH2 0x473 JUMP JUMPDEST PUSH1 0x0 PUSH1 0x40 MLOAD DUP1 DUP4 SUB DUP2 PUSH1 0x0 DUP7 GAS CALL SWAP2 POP POP RETURNDATASIZE DUP1 PUSH1 0x0 DUP2 EQ PUSH2 0x329 JUMPI PUSH1 0x40 MLOAD SWAP2 POP PUSH1 0x1F NOT PUSH1 0x3F RETURNDATASIZE ADD AND DUP3 ADD PUSH1 0x40 MSTORE RETURNDATASIZE DUP3 MSTORE RETURNDATASIZE PUSH1 0x0 PUSH1 0x20 DUP5 ADD RETURNDATACOPY PUSH2 0x32E JUMP JUMPDEST PUSH1 0x60 SWAP2 POP JUMPDEST POP SWAP2 POP SWAP2 POP PUSH32 0x13848C3E38F8886F3F5D2AD9DFF80D8092C2BBB8EFD5B887A99C2C6CFC09AC2A DUP3 DUP3 PUSH1 0x40 MLOAD PUSH2 0x364 SWAP3 SWAP2 SWAP1 PUSH2 0x4A5 JUMP JUMPDEST PUSH1 0x40 MLOAD DUP1 SWAP2 SUB SWAP1 LOG1 POP POP POP POP JUMP JUMPDEST PUSH1 0x0 DUP2 CALLDATALOAD SWAP1 POP PUSH2 0x381 DUP2 PUSH2 0x5A8 JUMP JUMPDEST SWAP3 SWAP2 POP POP JUMP JUMPDEST PUSH1 0x0 DUP2 CALLDATALOAD SWAP1 POP PUSH2 0x396 DUP2 PUSH2 0x5BF JUMP JUMPDEST SWAP3 SWAP2 POP POP JUMP JUMPDEST PUSH1 0x0 DUP1 PUSH1 0x40 DUP4 DUP6 SUB SLT ISZERO PUSH2 0x3B3 JUMPI PUSH2 0x3B2 PUSH2 0x592 JUMP JUMPDEST JUMPDEST PUSH1 0x0 PUSH2 0x3C1 DUP6 DUP3 DUP7 ADD PUSH2 0x372 JUMP JUMPDEST SWAP3 POP POP PUSH1 0x20 PUSH2 0x3D2 DUP6 DUP3 DUP7 ADD PUSH2 0x387 JUMP JUMPDEST SWAP2 POP POP SWAP3 POP SWAP3 SWAP1 POP JUMP JUMPDEST PUSH2 0x3E5 DUP2 PUSH2 0x517 JUMP JUMPDEST DUP3 MSTORE POP POP JUMP JUMPDEST PUSH2 0x3F4 DUP2 PUSH2 0x529 JUMP JUMPDEST DUP3 MSTORE POP POP JUMP JUMPDEST PUSH1 0x0 PUSH2 0x405 DUP3 PUSH2 0x4F0 JUMP JUMPDEST PUSH2 0x40F DUP2 DUP6 PUSH2 0x4FB JUMP JUMPDEST SWAP4 POP PUSH2 0x41F DUP2 DUP6 PUSH1 0x20 DUP7 ADD PUSH2 0x55F JUMP JUMPDEST PUSH2 0x428 DUP2 PUSH2 0x597 JUMP JUMPDEST DUP5 ADD SWAP2 POP POP SWAP3 SWAP2 POP POP JUMP JUMPDEST PUSH1 0x0 PUSH2 0x43E DUP3 PUSH2 0x4F0 JUMP JUMPDEST PUSH2 0x448 DUP2 DUP6 PUSH2 0x50C JUMP JUMPDEST SWAP4 POP PUSH2 0x458 DUP2 DUP6 PUSH1 0x20 DUP7 ADD PUSH2 0x55F JUMP JUMPDEST DUP1 DUP5 ADD SWAP2 POP POP SWAP3 SWAP2 POP POP JUMP JUMPDEST PUSH2 0x46D DUP2 PUSH2 0x555 JUMP JUMPDEST DUP3 MSTORE POP POP JUMP JUMPDEST PUSH1 0x0 PUSH2 0x47F DUP3 DUP5 PUSH2 0x433 JUMP JUMPDEST SWAP2 POP DUP2 SWAP1 POP SWAP3 SWAP2 POP POP JUMP JUMPDEST PUSH1 0x0 PUSH1 0x20 DUP3 ADD SWAP1 POP PUSH2 0x49F PUSH1 0x0 DUP4 ADD DUP5 PUSH2 0x3DC JUMP JUMPDEST SWAP3 SWAP2 POP POP JUMP JUMPDEST PUSH1 0x0 PUSH1 0x40 DUP3 ADD SWAP1 POP PUSH2 0x4BA PUSH1 0x0 DUP4 ADD DUP6 PUSH2 0x3EB JUMP JUMPDEST DUP2 DUP2 SUB PUSH1 0x20 DUP4 ADD MSTORE PUSH2 0x4CC DUP2 DUP5 PUSH2 0x3FA JUMP JUMPDEST SWAP1 POP SWAP4 SWAP3 POP POP POP JUMP JUMPDEST PUSH1 0x0 PUSH1 0x20 DUP3 ADD SWAP1 POP PUSH2 0x4EA PUSH1 0x0 DUP4 ADD DUP5 PUSH2 0x464 JUMP JUMPDEST SWAP3 SWAP2 POP POP JUMP JUMPDEST PUSH1 0x0 DUP2 MLOAD SWAP1 POP SWAP2 SWAP1 POP JUMP JUMPDEST PUSH1 0x0 DUP3 DUP3 MSTORE PUSH1 0x20 DUP3 ADD SWAP1 POP SWAP3 SWAP2 POP POP JUMP JUMPDEST PUSH1 0x0 DUP2 SWAP1 POP SWAP3 SWAP2 POP POP JUMP JUMPDEST PUSH1 0x0 PUSH2 0x522 DUP3 PUSH2 0x535 JUMP JUMPDEST SWAP1 POP SWAP2 SWAP1 POP JUMP JUMPDEST PUSH1 0x0 DUP2 ISZERO ISZERO SWAP1 POP SWAP2 SWAP1 POP JUMP JUMPDEST PUSH1 0x0 PUSH20 0xFFFFFFFFFFFFFFFFFFFFFFFFFFFFFFFFFFFFFFFF DUP3 AND SWAP1 POP SWAP2 SWAP1 POP JUMP JUMPDEST PUSH1 0x0 DUP2 SWAP1 POP SWAP2 SWAP1 POP JUMP JUMPDEST PUSH1 0x0 JUMPDEST DUP4 DUP2 LT ISZERO PUSH2 0x57D JUMPI DUP1 DUP3 ADD MLOAD DUP2 DUP5 ADD MSTORE PUSH1 0x20 DUP2 ADD SWAP1 POP PUSH2 0x562 JUMP JUMPDEST DUP4 DUP2 GT ISZERO PUSH2 0x58C JUMPI PUSH1 0x0 DUP5 DUP5 ADD MSTORE JUMPDEST POP POP POP POP JUMP JUMPDEST PUSH1 0x0 DUP1 REVERT JUMPDEST PUSH1 0x0 PUSH1 0x1F NOT PUSH1 0x1F DUP4 ADD AND SWAP1 POP SWAP2 SWAP1 POP JUMP JUMPDEST PUSH2 0x5B1 DUP2 PUSH2 0x517 JUMP JUMPDEST DUP2 EQ PUSH2 0x5BC JUMPI PUSH1 0x0 DUP1 REVERT JUMPDEST POP JUMP JUMPDEST PUSH2 0x5C8 DUP2 PUSH2 0x555 JUMP JUMPDEST DUP2 EQ PUSH2 0x5D3 JUMPI PUSH1 0x0 DUP1 REVERT JUMPDEST POP JUMP INVALID LOG2 PUSH5 0x6970667358 0x22 SLT KECCAK256 DUP14 0xED ORIGIN PUSH7 0x7C82A058AFEE09 0xBB 0x4A DUP6 0xBF SWAP14 ISZERO CREATE2 AND 0xD1 0xBA SGT INVALID 0xDB 0x5F 0x23 DUP6 0xDF 0xDC ADD 0xBB LOG3 PUSH5 0x736F6C6343 STOP ADDMOD SMOD STOP CALLER "
				},
				"gasEstimates": {
					"creation": {
						"codeDepositCost": "309600",
						"executionCost": "349",
						"totalCost": "309949"
					},
					"external": {
						"callSetVars(address,uint256)": "infinite",
						"delegatecallSerVars(address,uint256)": "infinite",
						"num()": "2407",
						"sender()": "2514"
					}
				},
				"methodIdentifiers": {
					"callSetVars(address,uint256)": "b39a9641",
					"delegatecallSerVars(address,uint256)": "86ec20b7",
					"num()": "4e70b1dc",
					"sender()": "67e404ce"
				}
			},
			"storageLayout": {
				"storage": [
					{
						"astId": 95,
						"contract": "contract/21_CallAndDelegatecall.sol:ContractB",
						"label": "num",
						"offset": 0,
						"slot": "0",
						"type": "t_uint256"
					},
					{
						"astId": 97,
						"contract": "contract/21_CallAndDelegatecall.sol:ContractB",
						"label": "sender",
						"offset": 0,
						"slot": "1",
						"type": "t_address"
					}
				],
				"types": {
					"t_address": {
						"encoding": "inplace",
						"label": "address",
						"numberOfBytes": "20"
					},
					"t_uint256": {
						"encoding": "inplace",
						"label": "uint256",
						"numberOfBytes": "32"
					}
				}
			},
			"userdoc": {
				"kind": "user",
				"methods": {},
				"version": 1
			}
		}
	}
}