{
	"contract/28_TryCatch.sol": {
		"TryCatch": {
			"abi": [
				{
					"anonymous": false,
					"inputs": [
						{
							"indexed": false,
							"internalType": "bytes",
							"name": "data",
							"type": "bytes"
						}
					],
					"name": "CatchByte",
					"type": "event"
				},
				{
					"anonymous": false,
					"inputs": [
						{
							"indexed": false,
							"internalType": "string",
							"name": "message",
							"type": "string"
						}
					],
					"name": "CatchEvent",
					"type": "event"
				},
				{
					"anonymous": false,
					"inputs": [],
					"name": "SuccessEvent",
					"type": "event"
				},
				{
					"inputs": [
						{
							"internalType": "uint256",
							"name": "a",
							"type": "uint256"
						}
					],
					"name": "executeNew",
					"outputs": [
						{
							"internalType": "bool",
							"name": "success",
							"type": "bool"
						}
					],
					"stateMutability": "nonpayable",
					"type": "function"
				}
			],
			"devdoc": {
				"kind": "dev",
				"methods": {},
				"version": 1
			},
			"evm": {
				"assembly": "    /* \"contract/28_TryCatch.sol\":62:1219  contract TryCatch {\r... */\n  mstore(0x40, 0x80)\n  callvalue\n  dup1\n  iszero\n  tag_1\n  jumpi\n  0x00\n  dup1\n  revert\ntag_1:\n  pop\n  dataSize(sub_0)\n  dup1\n  dataOffset(sub_0)\n  0x00\n  codecopy\n  0x00\n  return\nstop\n\nsub_0: assembly {\n        /* \"contract/28_TryCatch.sol\":62:1219  contract TryCatch {\r... */\n      mstore(0x40, 0x80)\n      callvalue\n      dup1\n      iszero\n      tag_1\n      jumpi\n      0x00\n      dup1\n      revert\n    tag_1:\n      pop\n      jumpi(tag_2, lt(calldatasize, 0x04))\n      shr(0xe0, calldataload(0x00))\n      dup1\n      0x60ebc172\n      eq\n      tag_3\n      jumpi\n    tag_2:\n      0x00\n      dup1\n      revert\n        /* \"contract/28_TryCatch.sol\":519:893  function executeNew(uint a) external returns(bool success) {\r... */\n    tag_3:\n      tag_4\n      0x04\n      dup1\n      calldatasize\n      sub\n      dup2\n      add\n      swap1\n      tag_5\n      swap2\n      swap1\n      tag_6\n      jump\t// in\n    tag_5:\n      tag_7\n      jump\t// in\n    tag_4:\n      mload(0x40)\n      tag_8\n      swap2\n      swap1\n      tag_9\n      jump\t// in\n    tag_8:\n      mload(0x40)\n      dup1\n      swap2\n      sub\n      swap1\n      return\n    tag_7:\n        /* \"contract/28_TryCatch.sol\":564:576  bool success */\n      0x00\n        /* \"contract/28_TryCatch.sol\":606:607  a */\n      dup2\n        /* \"contract/28_TryCatch.sol\":593:608  new OnlyEven(a) */\n      mload(0x40)\n      tag_11\n      swap1\n      tag_12\n      jump\t// in\n    tag_11:\n      tag_13\n      swap2\n      swap1\n      tag_14\n      jump\t// in\n    tag_13:\n      mload(0x40)\n      dup1\n      swap2\n      sub\n      swap1\n      0x00\n      create\n      dup1\n      iszero\n      tag_15\n      jumpi\n      0x01\n    tag_15:\n        /* \"contract/28_TryCatch.sol\":589:886  try new OnlyEven(a) returns(OnlyEven _even) {\r... */\n      tag_16\n      jumpi\n      tag_20\n      tag_21\n      jump\t// in\n    tag_20:\n      dup1\n      0x08c379a0\n      eq\n      iszero\n      tag_19\n      jumpi\n      pop\n      tag_22\n      tag_23\n      jump\t// in\n    tag_22:\n      dup1\n      tag_24\n      jumpi\n      pop\n      jump(tag_18)\n    tag_24:\n        /* \"contract/28_TryCatch.sol\":777:796  CatchEvent(message) */\n      0xb761112ad379c509744de8d585702b0d2694d4ceaef85ad50d452ff06821a6a6\n        /* \"contract/28_TryCatch.sol\":788:795  message */\n      dup2\n        /* \"contract/28_TryCatch.sol\":777:796  CatchEvent(message) */\n      mload(0x40)\n      tag_25\n      swap2\n      swap1\n      tag_26\n      jump\t// in\n    tag_25:\n      mload(0x40)\n      dup1\n      swap2\n      sub\n      swap1\n      log1\n        /* \"contract/28_TryCatch.sol\":722:808  catch Error(string memory message) {\r... */\n      pop\n        /* \"contract/28_TryCatch.sol\":589:886  try new OnlyEven(a) returns(OnlyEven _even) {\r... */\n      jump(tag_17)\n    tag_19:\n      pop\n    tag_18:\n      returndatasize\n      dup1\n      0x00\n      dup2\n      eq\n      tag_28\n      jumpi\n      mload(0x40)\n      swap2\n      pop\n      and(add(returndatasize, 0x3f), not(0x1f))\n      dup3\n      add\n      0x40\n      mstore\n      returndatasize\n      dup3\n      mstore\n      returndatasize\n      0x00\n      0x20\n      dup5\n      add\n      returndatacopy\n      jump(tag_27)\n    tag_28:\n      0x60\n      swap2\n      pop\n    tag_27:\n      pop\n        /* \"contract/28_TryCatch.sol\":857:874  CatchByte(reason) */\n      0xb6f66868478aebcea8c7a15c8c7dd37a513a4127424642ee3573117b52fa3e39\n        /* \"contract/28_TryCatch.sol\":867:873  reason */\n      dup2\n        /* \"contract/28_TryCatch.sol\":857:874  CatchByte(reason) */\n      mload(0x40)\n      tag_29\n      swap2\n      swap1\n      tag_30\n      jump\t// in\n    tag_29:\n      mload(0x40)\n      dup1\n      swap2\n      sub\n      swap1\n      log1\n        /* \"contract/28_TryCatch.sol\":809:886  catch (bytes memory reason) {\r... */\n      pop\n        /* \"contract/28_TryCatch.sol\":589:886  try new OnlyEven(a) returns(OnlyEven _even) {\r... */\n    tag_17:\n      jump(tag_31)\n    tag_16:\n        /* \"contract/28_TryCatch.sol\":653:667  SuccessEvent() */\n      0xfd76336752e93f2cc77cf13a41be8b6c156731030376354d634d28a9a87b9162\n      mload(0x40)\n      mload(0x40)\n      dup1\n      swap2\n      sub\n      swap1\n      log1\n        /* \"contract/28_TryCatch.sol\":692:697  _even */\n      dup1\n        /* \"contract/28_TryCatch.sol\":692:706  _even.onlyEven */\n      0xffffffffffffffffffffffffffffffffffffffff\n      and\n      0xce0b4213\n        /* \"contract/28_TryCatch.sol\":707:708  a */\n      dup5\n        /* \"contract/28_TryCatch.sol\":692:709  _even.onlyEven(a) */\n      mload(0x40)\n      dup3\n      0xffffffff\n      and\n      0xe0\n      shl\n      dup2\n      mstore\n      0x04\n      add\n      tag_32\n      swap2\n      swap1\n      tag_14\n      jump\t// in\n    tag_32:\n      0x20\n      mload(0x40)\n      dup1\n      dup4\n      sub\n      dup2\n      dup7\n      dup1\n      extcodesize\n      iszero\n      dup1\n      iszero\n      tag_33\n      jumpi\n      0x00\n      dup1\n      revert\n    tag_33:\n      pop\n      gas\n      staticcall\n      iszero\n      dup1\n      iszero\n      tag_35\n      jumpi\n      returndatasize\n      0x00\n      dup1\n      returndatacopy\n      revert(0x00, returndatasize)\n    tag_35:\n      pop\n      pop\n      pop\n      pop\n      mload(0x40)\n      returndatasize\n      not(0x1f)\n      0x1f\n      dup3\n      add\n      and\n      dup3\n      add\n      dup1\n      0x40\n      mstore\n      pop\n      dup2\n      add\n      swap1\n      tag_36\n      swap2\n      swap1\n      tag_37\n      jump\t// in\n    tag_36:\n        /* \"contract/28_TryCatch.sol\":682:709  success = _even.onlyEven(a) */\n      swap2\n      pop\n        /* \"contract/28_TryCatch.sol\":609:721  returns(OnlyEven _even) {\r... */\n      pop\n        /* \"contract/28_TryCatch.sol\":589:886  try new OnlyEven(a) returns(OnlyEven _even) {\r... */\n    tag_31:\n        /* \"contract/28_TryCatch.sol\":519:893  function executeNew(uint a) external returns(bool success) {\r... */\n      swap2\n      swap1\n      pop\n      jump\t// out\n    tag_12:\n      dataSize(sub_0)\n      dup1\n      dataOffset(sub_0)\n      dup4\n      codecopy\n      add\n      swap1\n      jump\t// out\n        /* \"#utility.yul\":7:144   */\n    tag_39:\n        /* \"#utility.yul\":61:66   */\n      0x00\n        /* \"#utility.yul\":92:98   */\n      dup2\n        /* \"#utility.yul\":86:99   */\n      mload\n        /* \"#utility.yul\":77:99   */\n      swap1\n      pop\n        /* \"#utility.yul\":108:138   */\n      tag_41\n        /* \"#utility.yul\":132:137   */\n      dup2\n        /* \"#utility.yul\":108:138   */\n      tag_42\n      jump\t// in\n    tag_41:\n        /* \"#utility.yul\":7:144   */\n      swap3\n      swap2\n      pop\n      pop\n      jump\t// out\n        /* \"#utility.yul\":150:289   */\n    tag_43:\n        /* \"#utility.yul\":196:201   */\n      0x00\n        /* \"#utility.yul\":234:240   */\n      dup2\n        /* \"#utility.yul\":221:241   */\n      calldataload\n        /* \"#utility.yul\":212:241   */\n      swap1\n      pop\n        /* \"#utility.yul\":250:283   */\n      tag_45\n        /* \"#utility.yul\":277:282   */\n      dup2\n        /* \"#utility.yul\":250:283   */\n      tag_46\n      jump\t// in\n    tag_45:\n        /* \"#utility.yul\":150:289   */\n      swap3\n      swap2\n      pop\n      pop\n      jump\t// out\n        /* \"#utility.yul\":295:640   */\n    tag_37:\n        /* \"#utility.yul\":362:368   */\n      0x00\n        /* \"#utility.yul\":411:413   */\n      0x20\n        /* \"#utility.yul\":399:408   */\n      dup3\n        /* \"#utility.yul\":390:397   */\n      dup5\n        /* \"#utility.yul\":386:409   */\n      sub\n        /* \"#utility.yul\":382:414   */\n      slt\n        /* \"#utility.yul\":379:498   */\n      iszero\n      tag_48\n      jumpi\n        /* \"#utility.yul\":417:496   */\n      tag_49\n      tag_50\n      jump\t// in\n    tag_49:\n        /* \"#utility.yul\":379:498   */\n    tag_48:\n        /* \"#utility.yul\":537:538   */\n      0x00\n        /* \"#utility.yul\":562:623   */\n      tag_51\n        /* \"#utility.yul\":615:622   */\n      dup5\n        /* \"#utility.yul\":606:612   */\n      dup3\n        /* \"#utility.yul\":595:604   */\n      dup6\n        /* \"#utility.yul\":591:613   */\n      add\n        /* \"#utility.yul\":562:623   */\n      tag_39\n      jump\t// in\n    tag_51:\n        /* \"#utility.yul\":552:623   */\n      swap2\n      pop\n        /* \"#utility.yul\":508:633   */\n      pop\n        /* \"#utility.yul\":295:640   */\n      swap3\n      swap2\n      pop\n      pop\n      jump\t// out\n        /* \"#utility.yul\":646:975   */\n    tag_6:\n        /* \"#utility.yul\":705:711   */\n      0x00\n        /* \"#utility.yul\":754:756   */\n      0x20\n        /* \"#utility.yul\":742:751   */\n      dup3\n        /* \"#utility.yul\":733:740   */\n      dup5\n        /* \"#utility.yul\":729:752   */\n      sub\n        /* \"#utility.yul\":725:757   */\n      slt\n        /* \"#utility.yul\":722:841   */\n      iszero\n      tag_53\n      jumpi\n        /* \"#utility.yul\":760:839   */\n      tag_54\n      tag_50\n      jump\t// in\n    tag_54:\n        /* \"#utility.yul\":722:841   */\n    tag_53:\n        /* \"#utility.yul\":880:881   */\n      0x00\n        /* \"#utility.yul\":905:958   */\n      tag_55\n        /* \"#utility.yul\":950:957   */\n      dup5\n        /* \"#utility.yul\":941:947   */\n      dup3\n        /* \"#utility.yul\":930:939   */\n      dup6\n        /* \"#utility.yul\":926:948   */\n      add\n        /* \"#utility.yul\":905:958   */\n      tag_43\n      jump\t// in\n    tag_55:\n        /* \"#utility.yul\":895:958   */\n      swap2\n      pop\n        /* \"#utility.yul\":851:968   */\n      pop\n        /* \"#utility.yul\":646:975   */\n      swap3\n      swap2\n      pop\n      pop\n      jump\t// out\n        /* \"#utility.yul\":981:1090   */\n    tag_56:\n        /* \"#utility.yul\":1062:1083   */\n      tag_58\n        /* \"#utility.yul\":1077:1082   */\n      dup2\n        /* \"#utility.yul\":1062:1083   */\n      tag_59\n      jump\t// in\n    tag_58:\n        /* \"#utility.yul\":1057:1060   */\n      dup3\n        /* \"#utility.yul\":1050:1084   */\n      mstore\n        /* \"#utility.yul\":981:1090   */\n      pop\n      pop\n      jump\t// out\n        /* \"#utility.yul\":1096:1456   */\n    tag_60:\n        /* \"#utility.yul\":1182:1185   */\n      0x00\n        /* \"#utility.yul\":1210:1248   */\n      tag_62\n        /* \"#utility.yul\":1242:1247   */\n      dup3\n        /* \"#utility.yul\":1210:1248   */\n      tag_63\n      jump\t// in\n    tag_62:\n        /* \"#utility.yul\":1264:1334   */\n      tag_64\n        /* \"#utility.yul\":1327:1333   */\n      dup2\n        /* \"#utility.yul\":1322:1325   */\n      dup6\n        /* \"#utility.yul\":1264:1334   */\n      tag_65\n      jump\t// in\n    tag_64:\n        /* \"#utility.yul\":1257:1334   */\n      swap4\n      pop\n        /* \"#utility.yul\":1343:1395   */\n      tag_66\n        /* \"#utility.yul\":1388:1394   */\n      dup2\n        /* \"#utility.yul\":1383:1386   */\n      dup6\n        /* \"#utility.yul\":1376:1380   */\n      0x20\n        /* \"#utility.yul\":1369:1374   */\n      dup7\n        /* \"#utility.yul\":1365:1381   */\n      add\n        /* \"#utility.yul\":1343:1395   */\n      tag_67\n      jump\t// in\n    tag_66:\n        /* \"#utility.yul\":1420:1449   */\n      tag_68\n        /* \"#utility.yul\":1442:1448   */\n      dup2\n        /* \"#utility.yul\":1420:1449   */\n      tag_69\n      jump\t// in\n    tag_68:\n        /* \"#utility.yul\":1415:1418   */\n      dup5\n        /* \"#utility.yul\":1411:1450   */\n      add\n        /* \"#utility.yul\":1404:1450   */\n      swap2\n      pop\n        /* \"#utility.yul\":1186:1456   */\n      pop\n        /* \"#utility.yul\":1096:1456   */\n      swap3\n      swap2\n      pop\n      pop\n      jump\t// out\n        /* \"#utility.yul\":1462:1826   */\n    tag_70:\n        /* \"#utility.yul\":1550:1553   */\n      0x00\n        /* \"#utility.yul\":1578:1617   */\n      tag_72\n        /* \"#utility.yul\":1611:1616   */\n      dup3\n        /* \"#utility.yul\":1578:1617   */\n      tag_73\n      jump\t// in\n    tag_72:\n        /* \"#utility.yul\":1633:1704   */\n      tag_74\n        /* \"#utility.yul\":1697:1703   */\n      dup2\n        /* \"#utility.yul\":1692:1695   */\n      dup6\n        /* \"#utility.yul\":1633:1704   */\n      tag_75\n      jump\t// in\n    tag_74:\n        /* \"#utility.yul\":1626:1704   */\n      swap4\n      pop\n        /* \"#utility.yul\":1713:1765   */\n      tag_76\n        /* \"#utility.yul\":1758:1764   */\n      dup2\n        /* \"#utility.yul\":1753:1756   */\n      dup6\n        /* \"#utility.yul\":1746:1750   */\n      0x20\n        /* \"#utility.yul\":1739:1744   */\n      dup7\n        /* \"#utility.yul\":1735:1751   */\n      add\n        /* \"#utility.yul\":1713:1765   */\n      tag_67\n      jump\t// in\n    tag_76:\n        /* \"#utility.yul\":1790:1819   */\n      tag_77\n        /* \"#utility.yul\":1812:1818   */\n      dup2\n        /* \"#utility.yul\":1790:1819   */\n      tag_69\n      jump\t// in\n    tag_77:\n        /* \"#utility.yul\":1785:1788   */\n      dup5\n        /* \"#utility.yul\":1781:1820   */\n      add\n        /* \"#utility.yul\":1774:1820   */\n      swap2\n      pop\n        /* \"#utility.yul\":1554:1826   */\n      pop\n        /* \"#utility.yul\":1462:1826   */\n      swap3\n      swap2\n      pop\n      pop\n      jump\t// out\n        /* \"#utility.yul\":1832:1950   */\n    tag_78:\n        /* \"#utility.yul\":1919:1943   */\n      tag_80\n        /* \"#utility.yul\":1937:1942   */\n      dup2\n        /* \"#utility.yul\":1919:1943   */\n      tag_81\n      jump\t// in\n    tag_80:\n        /* \"#utility.yul\":1914:1917   */\n      dup3\n        /* \"#utility.yul\":1907:1944   */\n      mstore\n        /* \"#utility.yul\":1832:1950   */\n      pop\n      pop\n      jump\t// out\n        /* \"#utility.yul\":1956:2166   */\n    tag_9:\n        /* \"#utility.yul\":2043:2047   */\n      0x00\n        /* \"#utility.yul\":2081:2083   */\n      0x20\n        /* \"#utility.yul\":2070:2079   */\n      dup3\n        /* \"#utility.yul\":2066:2084   */\n      add\n        /* \"#utility.yul\":2058:2084   */\n      swap1\n      pop\n        /* \"#utility.yul\":2094:2159   */\n      tag_83\n        /* \"#utility.yul\":2156:2157   */\n      0x00\n        /* \"#utility.yul\":2145:2154   */\n      dup4\n        /* \"#utility.yul\":2141:2158   */\n      add\n        /* \"#utility.yul\":2132:2138   */\n      dup5\n        /* \"#utility.yul\":2094:2159   */\n      tag_56\n      jump\t// in\n    tag_83:\n        /* \"#utility.yul\":1956:2166   */\n      swap3\n      swap2\n      pop\n      pop\n      jump\t// out\n        /* \"#utility.yul\":2172:2481   */\n    tag_30:\n        /* \"#utility.yul\":2283:2287   */\n      0x00\n        /* \"#utility.yul\":2321:2323   */\n      0x20\n        /* \"#utility.yul\":2310:2319   */\n      dup3\n        /* \"#utility.yul\":2306:2324   */\n      add\n        /* \"#utility.yul\":2298:2324   */\n      swap1\n      pop\n        /* \"#utility.yul\":2370:2379   */\n      dup2\n        /* \"#utility.yul\":2364:2368   */\n      dup2\n        /* \"#utility.yul\":2360:2380   */\n      sub\n        /* \"#utility.yul\":2356:2357   */\n      0x00\n        /* \"#utility.yul\":2345:2354   */\n      dup4\n        /* \"#utility.yul\":2341:2358   */\n      add\n        /* \"#utility.yul\":2334:2381   */\n      mstore\n        /* \"#utility.yul\":2398:2474   */\n      tag_85\n        /* \"#utility.yul\":2469:2473   */\n      dup2\n        /* \"#utility.yul\":2460:2466   */\n      dup5\n        /* \"#utility.yul\":2398:2474   */\n      tag_60\n      jump\t// in\n    tag_85:\n        /* \"#utility.yul\":2390:2474   */\n      swap1\n      pop\n        /* \"#utility.yul\":2172:2481   */\n      swap3\n      swap2\n      pop\n      pop\n      jump\t// out\n        /* \"#utility.yul\":2487:2800   */\n    tag_26:\n        /* \"#utility.yul\":2600:2604   */\n      0x00\n        /* \"#utility.yul\":2638:2640   */\n      0x20\n        /* \"#utility.yul\":2627:2636   */\n      dup3\n        /* \"#utility.yul\":2623:2641   */\n      add\n        /* \"#utility.yul\":2615:2641   */\n      swap1\n      pop\n        /* \"#utility.yul\":2687:2696   */\n      dup2\n        /* \"#utility.yul\":2681:2685   */\n      dup2\n        /* \"#utility.yul\":2677:2697   */\n      sub\n        /* \"#utility.yul\":2673:2674   */\n      0x00\n        /* \"#utility.yul\":2662:2671   */\n      dup4\n        /* \"#utility.yul\":2658:2675   */\n      add\n        /* \"#utility.yul\":2651:2698   */\n      mstore\n        /* \"#utility.yul\":2715:2793   */\n      tag_87\n        /* \"#utility.yul\":2788:2792   */\n      dup2\n        /* \"#utility.yul\":2779:2785   */\n      dup5\n        /* \"#utility.yul\":2715:2793   */\n      tag_70\n      jump\t// in\n    tag_87:\n        /* \"#utility.yul\":2707:2793   */\n      swap1\n      pop\n        /* \"#utility.yul\":2487:2800   */\n      swap3\n      swap2\n      pop\n      pop\n      jump\t// out\n        /* \"#utility.yul\":2806:3028   */\n    tag_14:\n        /* \"#utility.yul\":2899:2903   */\n      0x00\n        /* \"#utility.yul\":2937:2939   */\n      0x20\n        /* \"#utility.yul\":2926:2935   */\n      dup3\n        /* \"#utility.yul\":2922:2940   */\n      add\n        /* \"#utility.yul\":2914:2940   */\n      swap1\n      pop\n        /* \"#utility.yul\":2950:3021   */\n      tag_89\n        /* \"#utility.yul\":3018:3019   */\n      0x00\n        /* \"#utility.yul\":3007:3016   */\n      dup4\n        /* \"#utility.yul\":3003:3020   */\n      add\n        /* \"#utility.yul\":2994:3000   */\n      dup5\n        /* \"#utility.yul\":2950:3021   */\n      tag_78\n      jump\t// in\n    tag_89:\n        /* \"#utility.yul\":2806:3028   */\n      swap3\n      swap2\n      pop\n      pop\n      jump\t// out\n        /* \"#utility.yul\":3034:3109   */\n    tag_90:\n        /* \"#utility.yul\":3067:3073   */\n      0x00\n        /* \"#utility.yul\":3100:3102   */\n      0x40\n        /* \"#utility.yul\":3094:3103   */\n      mload\n        /* \"#utility.yul\":3084:3103   */\n      swap1\n      pop\n        /* \"#utility.yul\":3034:3109   */\n      swap1\n      jump\t// out\n        /* \"#utility.yul\":3115:3213   */\n    tag_63:\n        /* \"#utility.yul\":3166:3172   */\n      0x00\n        /* \"#utility.yul\":3200:3205   */\n      dup2\n        /* \"#utility.yul\":3194:3206   */\n      mload\n        /* \"#utility.yul\":3184:3206   */\n      swap1\n      pop\n        /* \"#utility.yul\":3115:3213   */\n      swap2\n      swap1\n      pop\n      jump\t// out\n        /* \"#utility.yul\":3219:3318   */\n    tag_73:\n        /* \"#utility.yul\":3271:3277   */\n      0x00\n        /* \"#utility.yul\":3305:3310   */\n      dup2\n        /* \"#utility.yul\":3299:3311   */\n      mload\n        /* \"#utility.yul\":3289:3311   */\n      swap1\n      pop\n        /* \"#utility.yul\":3219:3318   */\n      swap2\n      swap1\n      pop\n      jump\t// out\n        /* \"#utility.yul\":3324:3492   */\n    tag_65:\n        /* \"#utility.yul\":3407:3418   */\n      0x00\n        /* \"#utility.yul\":3441:3447   */\n      dup3\n        /* \"#utility.yul\":3436:3439   */\n      dup3\n        /* \"#utility.yul\":3429:3448   */\n      mstore\n        /* \"#utility.yul\":3481:3485   */\n      0x20\n        /* \"#utility.yul\":3476:3479   */\n      dup3\n        /* \"#utility.yul\":3472:3486   */\n      add\n        /* \"#utility.yul\":3457:3486   */\n      swap1\n      pop\n        /* \"#utility.yul\":3324:3492   */\n      swap3\n      swap2\n      pop\n      pop\n      jump\t// out\n        /* \"#utility.yul\":3498:3667   */\n    tag_75:\n        /* \"#utility.yul\":3582:3593   */\n      0x00\n        /* \"#utility.yul\":3616:3622   */\n      dup3\n        /* \"#utility.yul\":3611:3614   */\n      dup3\n        /* \"#utility.yul\":3604:3623   */\n      mstore\n        /* \"#utility.yul\":3656:3660   */\n      0x20\n        /* \"#utility.yul\":3651:3654   */\n      dup3\n        /* \"#utility.yul\":3647:3661   */\n      add\n        /* \"#utility.yul\":3632:3661   */\n      swap1\n      pop\n        /* \"#utility.yul\":3498:3667   */\n      swap3\n      swap2\n      pop\n      pop\n      jump\t// out\n        /* \"#utility.yul\":3673:3763   */\n    tag_59:\n        /* \"#utility.yul\":3707:3714   */\n      0x00\n        /* \"#utility.yul\":3750:3755   */\n      dup2\n        /* \"#utility.yul\":3743:3756   */\n      iszero\n        /* \"#utility.yul\":3736:3757   */\n      iszero\n        /* \"#utility.yul\":3725:3757   */\n      swap1\n      pop\n        /* \"#utility.yul\":3673:3763   */\n      swap2\n      swap1\n      pop\n      jump\t// out\n        /* \"#utility.yul\":3769:3846   */\n    tag_81:\n        /* \"#utility.yul\":3806:3813   */\n      0x00\n        /* \"#utility.yul\":3835:3840   */\n      dup2\n        /* \"#utility.yul\":3824:3840   */\n      swap1\n      pop\n        /* \"#utility.yul\":3769:3846   */\n      swap2\n      swap1\n      pop\n      jump\t// out\n        /* \"#utility.yul\":3852:4159   */\n    tag_67:\n        /* \"#utility.yul\":3920:3921   */\n      0x00\n        /* \"#utility.yul\":3930:4043   */\n    tag_99:\n        /* \"#utility.yul\":3944:3950   */\n      dup4\n        /* \"#utility.yul\":3941:3942   */\n      dup2\n        /* \"#utility.yul\":3938:3951   */\n      lt\n        /* \"#utility.yul\":3930:4043   */\n      iszero\n      tag_101\n      jumpi\n        /* \"#utility.yul\":4029:4030   */\n      dup1\n        /* \"#utility.yul\":4024:4027   */\n      dup3\n        /* \"#utility.yul\":4020:4031   */\n      add\n        /* \"#utility.yul\":4014:4032   */\n      mload\n        /* \"#utility.yul\":4010:4011   */\n      dup2\n        /* \"#utility.yul\":4005:4008   */\n      dup5\n        /* \"#utility.yul\":4001:4012   */\n      add\n        /* \"#utility.yul\":3994:4033   */\n      mstore\n        /* \"#utility.yul\":3966:3968   */\n      0x20\n        /* \"#utility.yul\":3963:3964   */\n      dup2\n        /* \"#utility.yul\":3959:3969   */\n      add\n        /* \"#utility.yul\":3954:3969   */\n      swap1\n      pop\n        /* \"#utility.yul\":3930:4043   */\n      jump(tag_99)\n    tag_101:\n        /* \"#utility.yul\":4061:4067   */\n      dup4\n        /* \"#utility.yul\":4058:4059   */\n      dup2\n        /* \"#utility.yul\":4055:4068   */\n      gt\n        /* \"#utility.yul\":4052:4153   */\n      iszero\n      tag_102\n      jumpi\n        /* \"#utility.yul\":4141:4142   */\n      0x00\n        /* \"#utility.yul\":4132:4138   */\n      dup5\n        /* \"#utility.yul\":4127:4130   */\n      dup5\n        /* \"#utility.yul\":4123:4139   */\n      add\n        /* \"#utility.yul\":4116:4143   */\n      mstore\n        /* \"#utility.yul\":4052:4153   */\n    tag_102:\n        /* \"#utility.yul\":3901:4159   */\n      pop\n        /* \"#utility.yul\":3852:4159   */\n      pop\n      pop\n      pop\n      jump\t// out\n        /* \"#utility.yul\":4165:4446   */\n    tag_103:\n        /* \"#utility.yul\":4248:4275   */\n      tag_105\n        /* \"#utility.yul\":4270:4274   */\n      dup3\n        /* \"#utility.yul\":4248:4275   */\n      tag_69\n      jump\t// in\n    tag_105:\n        /* \"#utility.yul\":4240:4246   */\n      dup2\n        /* \"#utility.yul\":4236:4276   */\n      add\n        /* \"#utility.yul\":4378:4384   */\n      dup2\n        /* \"#utility.yul\":4366:4376   */\n      dup2\n        /* \"#utility.yul\":4363:4385   */\n      lt\n        /* \"#utility.yul\":4342:4360   */\n      0xffffffffffffffff\n        /* \"#utility.yul\":4330:4340   */\n      dup3\n        /* \"#utility.yul\":4327:4361   */\n      gt\n        /* \"#utility.yul\":4324:4386   */\n      or\n        /* \"#utility.yul\":4321:4409   */\n      iszero\n      tag_106\n      jumpi\n        /* \"#utility.yul\":4389:4407   */\n      tag_107\n      tag_108\n      jump\t// in\n    tag_107:\n        /* \"#utility.yul\":4321:4409   */\n    tag_106:\n        /* \"#utility.yul\":4429:4439   */\n      dup1\n        /* \"#utility.yul\":4425:4427   */\n      0x40\n        /* \"#utility.yul\":4418:4440   */\n      mstore\n        /* \"#utility.yul\":4208:4446   */\n      pop\n        /* \"#utility.yul\":4165:4446   */\n      pop\n      pop\n      jump\t// out\n        /* \"#utility.yul\":4452:4632   */\n    tag_108:\n        /* \"#utility.yul\":4500:4577   */\n      0x4e487b7100000000000000000000000000000000000000000000000000000000\n        /* \"#utility.yul\":4497:4498   */\n      0x00\n        /* \"#utility.yul\":4490:4578   */\n      mstore\n        /* \"#utility.yul\":4597:4601   */\n      0x41\n        /* \"#utility.yul\":4594:4595   */\n      0x04\n        /* \"#utility.yul\":4587:4602   */\n      mstore\n        /* \"#utility.yul\":4621:4625   */\n      0x24\n        /* \"#utility.yul\":4618:4619   */\n      0x00\n        /* \"#utility.yul\":4611:4626   */\n      revert\n        /* \"#utility.yul\":4638:4821   */\n    tag_21:\n        /* \"#utility.yul\":4673:4676   */\n      0x00\n        /* \"#utility.yul\":4711:4712   */\n      0x03\n        /* \"#utility.yul\":4693:4709   */\n      returndatasize\n        /* \"#utility.yul\":4690:4713   */\n      gt\n        /* \"#utility.yul\":4687:4815   */\n      iszero\n      tag_111\n      jumpi\n        /* \"#utility.yul\":4749:4750   */\n      0x04\n        /* \"#utility.yul\":4746:4747   */\n      0x00\n        /* \"#utility.yul\":4743:4744   */\n      dup1\n        /* \"#utility.yul\":4728:4751   */\n      returndatacopy\n        /* \"#utility.yul\":4771:4805   */\n      tag_112\n        /* \"#utility.yul\":4802:4803   */\n      0x00\n        /* \"#utility.yul\":4796:4804   */\n      mload\n        /* \"#utility.yul\":4771:4805   */\n      tag_113\n      jump\t// in\n    tag_112:\n        /* \"#utility.yul\":4764:4805   */\n      swap1\n      pop\n        /* \"#utility.yul\":4687:4815   */\n    tag_111:\n        /* \"#utility.yul\":4638:4821   */\n      swap1\n      jump\t// out\n        /* \"#utility.yul\":4950:5067   */\n    tag_50:\n        /* \"#utility.yul\":5059:5060   */\n      0x00\n        /* \"#utility.yul\":5056:5057   */\n      dup1\n        /* \"#utility.yul\":5049:5061   */\n      revert\n        /* \"#utility.yul\":5073:5175   */\n    tag_69:\n        /* \"#utility.yul\":5114:5120   */\n      0x00\n        /* \"#utility.yul\":5165:5167   */\n      0x1f\n        /* \"#utility.yul\":5161:5168   */\n      not\n        /* \"#utility.yul\":5156:5158   */\n      0x1f\n        /* \"#utility.yul\":5149:5154   */\n      dup4\n        /* \"#utility.yul\":5145:5159   */\n      add\n        /* \"#utility.yul\":5141:5169   */\n      and\n        /* \"#utility.yul\":5131:5169   */\n      swap1\n      pop\n        /* \"#utility.yul\":5073:5175   */\n      swap2\n      swap1\n      pop\n      jump\t// out\n        /* \"#utility.yul\":5181:5287   */\n    tag_113:\n        /* \"#utility.yul\":5225:5233   */\n      0x00\n        /* \"#utility.yul\":5274:5279   */\n      dup2\n        /* \"#utility.yul\":5269:5272   */\n      0xe0\n        /* \"#utility.yul\":5265:5280   */\n      shr\n        /* \"#utility.yul\":5244:5280   */\n      swap1\n      pop\n        /* \"#utility.yul\":5181:5287   */\n      swap2\n      swap1\n      pop\n      jump\t// out\n        /* \"#utility.yul\":5293:6004   */\n    tag_23:\n        /* \"#utility.yul\":5332:5335   */\n      0x00\n        /* \"#utility.yul\":5370:5374   */\n      0x44\n        /* \"#utility.yul\":5352:5368   */\n      returndatasize\n        /* \"#utility.yul\":5349:5375   */\n      lt\n        /* \"#utility.yul\":5346:5385   */\n      iszero\n      tag_120\n      jumpi\n        /* \"#utility.yul\":5378:5383   */\n      jump(tag_119)\n        /* \"#utility.yul\":5346:5385   */\n    tag_120:\n        /* \"#utility.yul\":5407:5427   */\n      tag_121\n      tag_90\n      jump\t// in\n    tag_121:\n        /* \"#utility.yul\":5482:5483   */\n      0x04\n        /* \"#utility.yul\":5464:5480   */\n      returndatasize\n        /* \"#utility.yul\":5460:5484   */\n      sub\n        /* \"#utility.yul\":5457:5458   */\n      0x04\n        /* \"#utility.yul\":5451:5455   */\n      dup3\n        /* \"#utility.yul\":5436:5485   */\n      returndatacopy\n        /* \"#utility.yul\":5515:5519   */\n      dup1\n        /* \"#utility.yul\":5509:5520   */\n      mload\n        /* \"#utility.yul\":5614:5630   */\n      returndatasize\n        /* \"#utility.yul\":5607:5611   */\n      0x24\n        /* \"#utility.yul\":5599:5605   */\n      dup3\n        /* \"#utility.yul\":5595:5612   */\n      add\n        /* \"#utility.yul\":5592:5631   */\n      gt\n        /* \"#utility.yul\":5559:5577   */\n      0xffffffffffffffff\n        /* \"#utility.yul\":5551:5557   */\n      dup3\n        /* \"#utility.yul\":5548:5578   */\n      gt\n        /* \"#utility.yul\":5532:5645   */\n      or\n        /* \"#utility.yul\":5529:5675   */\n      iszero\n      tag_122\n      jumpi\n        /* \"#utility.yul\":5660:5665   */\n      pop\n      pop\n      jump(tag_119)\n        /* \"#utility.yul\":5529:5675   */\n    tag_122:\n        /* \"#utility.yul\":5706:5712   */\n      dup1\n        /* \"#utility.yul\":5700:5704   */\n      dup3\n        /* \"#utility.yul\":5696:5713   */\n      add\n        /* \"#utility.yul\":5742:5745   */\n      dup1\n        /* \"#utility.yul\":5736:5746   */\n      mload\n        /* \"#utility.yul\":5769:5787   */\n      0xffffffffffffffff\n        /* \"#utility.yul\":5761:5767   */\n      dup2\n        /* \"#utility.yul\":5758:5788   */\n      gt\n        /* \"#utility.yul\":5755:5798   */\n      iszero\n      tag_123\n      jumpi\n        /* \"#utility.yul\":5791:5796   */\n      pop\n      pop\n      pop\n      pop\n      jump(tag_119)\n        /* \"#utility.yul\":5755:5798   */\n    tag_123:\n        /* \"#utility.yul\":5839:5845   */\n      dup1\n        /* \"#utility.yul\":5832:5836   */\n      0x20\n        /* \"#utility.yul\":5827:5830   */\n      dup4\n        /* \"#utility.yul\":5823:5837   */\n      add\n        /* \"#utility.yul\":5819:5846   */\n      add\n        /* \"#utility.yul\":5898:5899   */\n      0x04\n        /* \"#utility.yul\":5880:5896   */\n      returndatasize\n        /* \"#utility.yul\":5876:5900   */\n      sub\n        /* \"#utility.yul\":5870:5874   */\n      dup6\n        /* \"#utility.yul\":5866:5901   */\n      add\n        /* \"#utility.yul\":5861:5864   */\n      dup2\n        /* \"#utility.yul\":5858:5902   */\n      gt\n        /* \"#utility.yul\":5855:5912   */\n      iszero\n      tag_124\n      jumpi\n        /* \"#utility.yul\":5905:5910   */\n      pop\n      pop\n      pop\n      pop\n      pop\n      jump(tag_119)\n        /* \"#utility.yul\":5855:5912   */\n    tag_124:\n        /* \"#utility.yul\":5922:5979   */\n      tag_125\n        /* \"#utility.yul\":5970:5976   */\n      dup3\n        /* \"#utility.yul\":5964:5968   */\n      0x20\n        /* \"#utility.yul\":5960:5977   */\n      add\n        /* \"#utility.yul\":5952:5958   */\n      dup6\n        /* \"#utility.yul\":5948:5978   */\n      add\n        /* \"#utility.yul\":5942:5946   */\n      dup7\n        /* \"#utility.yul\":5922:5979   */\n      tag_103\n      jump\t// in\n    tag_125:\n        /* \"#utility.yul\":5995:5998   */\n      dup3\n        /* \"#utility.yul\":5988:5998   */\n      swap6\n      pop\n        /* \"#utility.yul\":5336:6004   */\n      pop\n      pop\n      pop\n      pop\n      pop\n        /* \"#utility.yul\":5293:6004   */\n    tag_119:\n      swap1\n      jump\t// out\n        /* \"#utility.yul\":6010:6126   */\n    tag_42:\n        /* \"#utility.yul\":6080:6101   */\n      tag_127\n        /* \"#utility.yul\":6095:6100   */\n      dup2\n        /* \"#utility.yul\":6080:6101   */\n      tag_59\n      jump\t// in\n    tag_127:\n        /* \"#utility.yul\":6073:6078   */\n      dup2\n        /* \"#utility.yul\":6070:6102   */\n      eq\n        /* \"#utility.yul\":6060:6120   */\n      tag_128\n      jumpi\n        /* \"#utility.yul\":6116:6117   */\n      0x00\n        /* \"#utility.yul\":6113:6114   */\n      dup1\n        /* \"#utility.yul\":6106:6118   */\n      revert\n        /* \"#utility.yul\":6060:6120   */\n    tag_128:\n        /* \"#utility.yul\":6010:6126   */\n      pop\n      jump\t// out\n        /* \"#utility.yul\":6132:6254   */\n    tag_46:\n        /* \"#utility.yul\":6205:6229   */\n      tag_130\n        /* \"#utility.yul\":6223:6228   */\n      dup2\n        /* \"#utility.yul\":6205:6229   */\n      tag_81\n      jump\t// in\n    tag_130:\n        /* \"#utility.yul\":6198:6203   */\n      dup2\n        /* \"#utility.yul\":6195:6230   */\n      eq\n        /* \"#utility.yul\":6185:6248   */\n      tag_131\n      jumpi\n        /* \"#utility.yul\":6244:6245   */\n      0x00\n        /* \"#utility.yul\":6241:6242   */\n      dup1\n        /* \"#utility.yul\":6234:6246   */\n      revert\n        /* \"#utility.yul\":6185:6248   */\n    tag_131:\n        /* \"#utility.yul\":6132:6254   */\n      pop\n      jump\t// out\n    stop\n\n    sub_0: assembly {\n            /* \"contract/28_TryCatch.sol\":1225:1535  contract OnlyEven{\r... */\n          mstore(0x40, 0x80)\n            /* \"contract/28_TryCatch.sol\":1249:1345  constructor(uint a){\r... */\n          callvalue\n          dup1\n          iszero\n          tag_1\n          jumpi\n          0x00\n          dup1\n          revert\n        tag_1:\n          pop\n          mload(0x40)\n          sub(codesize, bytecodeSize)\n          dup1\n          bytecodeSize\n          dup4\n          codecopy\n          dup2\n          dup2\n          add\n          0x40\n          mstore\n          dup2\n          add\n          swap1\n          tag_2\n          swap2\n          swap1\n          tag_3\n          jump\t// in\n        tag_2:\n            /* \"contract/28_TryCatch.sol\":1292:1293  0 */\n          0x00\n            /* \"contract/28_TryCatch.sol\":1287:1288  a */\n          dup2\n            /* \"contract/28_TryCatch.sol\":1287:1293  a != 0 */\n          eq\n          iszero\n            /* \"contract/28_TryCatch.sol\":1279:1312  require(a != 0, \"invalid number\") */\n          tag_6\n          jumpi\n          mload(0x40)\n          0x08c379a000000000000000000000000000000000000000000000000000000000\n          dup2\n          mstore\n          0x04\n          add\n          tag_7\n          swap1\n          tag_8\n          jump\t// in\n        tag_7:\n          mload(0x40)\n          dup1\n          swap2\n          sub\n          swap1\n          revert\n        tag_6:\n            /* \"contract/28_TryCatch.sol\":1335:1336  1 */\n          0x01\n            /* \"contract/28_TryCatch.sol\":1330:1331  a */\n          dup2\n            /* \"contract/28_TryCatch.sol\":1330:1336  a != 1 */\n          eq\n          iszero\n            /* \"contract/28_TryCatch.sol\":1323:1337  assert(a != 1) */\n          tag_9\n          jumpi\n          tag_10\n          tag_11\n          jump\t// in\n        tag_10:\n        tag_9:\n            /* \"contract/28_TryCatch.sol\":1249:1345  constructor(uint a){\r... */\n          pop\n            /* \"contract/28_TryCatch.sol\":1225:1535  contract OnlyEven{\r... */\n          jump(tag_12)\n            /* \"#utility.yul\":7:150   */\n        tag_14:\n            /* \"#utility.yul\":64:69   */\n          0x00\n            /* \"#utility.yul\":95:101   */\n          dup2\n            /* \"#utility.yul\":89:102   */\n          mload\n            /* \"#utility.yul\":80:102   */\n          swap1\n          pop\n            /* \"#utility.yul\":111:144   */\n          tag_16\n            /* \"#utility.yul\":138:143   */\n          dup2\n            /* \"#utility.yul\":111:144   */\n          tag_17\n          jump\t// in\n        tag_16:\n            /* \"#utility.yul\":7:150   */\n          swap3\n          swap2\n          pop\n          pop\n          jump\t// out\n            /* \"#utility.yul\":156:507   */\n        tag_3:\n            /* \"#utility.yul\":226:232   */\n          0x00\n            /* \"#utility.yul\":275:277   */\n          0x20\n            /* \"#utility.yul\":263:272   */\n          dup3\n            /* \"#utility.yul\":254:261   */\n          dup5\n            /* \"#utility.yul\":250:273   */\n          sub\n            /* \"#utility.yul\":246:278   */\n          slt\n            /* \"#utility.yul\":243:362   */\n          iszero\n          tag_19\n          jumpi\n            /* \"#utility.yul\":281:360   */\n          tag_20\n          tag_21\n          jump\t// in\n        tag_20:\n            /* \"#utility.yul\":243:362   */\n        tag_19:\n            /* \"#utility.yul\":401:402   */\n          0x00\n            /* \"#utility.yul\":426:490   */\n          tag_22\n            /* \"#utility.yul\":482:489   */\n          dup5\n            /* \"#utility.yul\":473:479   */\n          dup3\n            /* \"#utility.yul\":462:471   */\n          dup6\n            /* \"#utility.yul\":458:480   */\n          add\n            /* \"#utility.yul\":426:490   */\n          tag_14\n          jump\t// in\n        tag_22:\n            /* \"#utility.yul\":416:490   */\n          swap2\n          pop\n            /* \"#utility.yul\":372:500   */\n          pop\n            /* \"#utility.yul\":156:507   */\n          swap3\n          swap2\n          pop\n          pop\n          jump\t// out\n            /* \"#utility.yul\":513:879   */\n        tag_23:\n            /* \"#utility.yul\":655:658   */\n          0x00\n            /* \"#utility.yul\":676:743   */\n          tag_25\n            /* \"#utility.yul\":740:742   */\n          0x0e\n            /* \"#utility.yul\":735:738   */\n          dup4\n            /* \"#utility.yul\":676:743   */\n          tag_26\n          jump\t// in\n        tag_25:\n            /* \"#utility.yul\":669:743   */\n          swap2\n          pop\n            /* \"#utility.yul\":752:845   */\n          tag_27\n            /* \"#utility.yul\":841:844   */\n          dup3\n            /* \"#utility.yul\":752:845   */\n          tag_28\n          jump\t// in\n        tag_27:\n            /* \"#utility.yul\":870:872   */\n          0x20\n            /* \"#utility.yul\":865:868   */\n          dup3\n            /* \"#utility.yul\":861:873   */\n          add\n            /* \"#utility.yul\":854:873   */\n          swap1\n          pop\n            /* \"#utility.yul\":513:879   */\n          swap2\n          swap1\n          pop\n          jump\t// out\n            /* \"#utility.yul\":885:1304   */\n        tag_8:\n            /* \"#utility.yul\":1051:1055   */\n          0x00\n            /* \"#utility.yul\":1089:1091   */\n          0x20\n            /* \"#utility.yul\":1078:1087   */\n          dup3\n            /* \"#utility.yul\":1074:1092   */\n          add\n            /* \"#utility.yul\":1066:1092   */\n          swap1\n          pop\n            /* \"#utility.yul\":1138:1147   */\n          dup2\n            /* \"#utility.yul\":1132:1136   */\n          dup2\n            /* \"#utility.yul\":1128:1148   */\n          sub\n            /* \"#utility.yul\":1124:1125   */\n          0x00\n            /* \"#utility.yul\":1113:1122   */\n          dup4\n            /* \"#utility.yul\":1109:1126   */\n          add\n            /* \"#utility.yul\":1102:1149   */\n          mstore\n            /* \"#utility.yul\":1166:1297   */\n          tag_30\n            /* \"#utility.yul\":1292:1296   */\n          dup2\n            /* \"#utility.yul\":1166:1297   */\n          tag_23\n          jump\t// in\n        tag_30:\n            /* \"#utility.yul\":1158:1297   */\n          swap1\n          pop\n            /* \"#utility.yul\":885:1304   */\n          swap2\n          swap1\n          pop\n          jump\t// out\n            /* \"#utility.yul\":1391:1560   */\n        tag_26:\n            /* \"#utility.yul\":1475:1486   */\n          0x00\n            /* \"#utility.yul\":1509:1515   */\n          dup3\n            /* \"#utility.yul\":1504:1507   */\n          dup3\n            /* \"#utility.yul\":1497:1516   */\n          mstore\n            /* \"#utility.yul\":1549:1553   */\n          0x20\n            /* \"#utility.yul\":1544:1547   */\n          dup3\n            /* \"#utility.yul\":1540:1554   */\n          add\n            /* \"#utility.yul\":1525:1554   */\n          swap1\n          pop\n            /* \"#utility.yul\":1391:1560   */\n          swap3\n          swap2\n          pop\n          pop\n          jump\t// out\n            /* \"#utility.yul\":1566:1643   */\n        tag_34:\n            /* \"#utility.yul\":1603:1610   */\n          0x00\n            /* \"#utility.yul\":1632:1637   */\n          dup2\n            /* \"#utility.yul\":1621:1637   */\n          swap1\n          pop\n            /* \"#utility.yul\":1566:1643   */\n          swap2\n          swap1\n          pop\n          jump\t// out\n            /* \"#utility.yul\":1649:1829   */\n        tag_11:\n            /* \"#utility.yul\":1697:1774   */\n          0x4e487b7100000000000000000000000000000000000000000000000000000000\n            /* \"#utility.yul\":1694:1695   */\n          0x00\n            /* \"#utility.yul\":1687:1775   */\n          mstore\n            /* \"#utility.yul\":1794:1798   */\n          0x01\n            /* \"#utility.yul\":1791:1792   */\n          0x04\n            /* \"#utility.yul\":1784:1799   */\n          mstore\n            /* \"#utility.yul\":1818:1822   */\n          0x24\n            /* \"#utility.yul\":1815:1816   */\n          0x00\n            /* \"#utility.yul\":1808:1823   */\n          revert\n            /* \"#utility.yul\":1958:2075   */\n        tag_21:\n            /* \"#utility.yul\":2067:2068   */\n          0x00\n            /* \"#utility.yul\":2064:2065   */\n          dup1\n            /* \"#utility.yul\":2057:2069   */\n          revert\n            /* \"#utility.yul\":2081:2245   */\n        tag_28:\n            /* \"#utility.yul\":2221:2237   */\n          0x696e76616c6964206e756d626572000000000000000000000000000000000000\n            /* \"#utility.yul\":2217:2218   */\n          0x00\n            /* \"#utility.yul\":2209:2215   */\n          dup3\n            /* \"#utility.yul\":2205:2219   */\n          add\n            /* \"#utility.yul\":2198:2238   */\n          mstore\n            /* \"#utility.yul\":2081:2245   */\n          pop\n          jump\t// out\n            /* \"#utility.yul\":2251:2373   */\n        tag_17:\n            /* \"#utility.yul\":2324:2348   */\n          tag_42\n            /* \"#utility.yul\":2342:2347   */\n          dup2\n            /* \"#utility.yul\":2324:2348   */\n          tag_34\n          jump\t// in\n        tag_42:\n            /* \"#utility.yul\":2317:2322   */\n          dup2\n            /* \"#utility.yul\":2314:2349   */\n          eq\n            /* \"#utility.yul\":2304:2367   */\n          tag_43\n          jumpi\n            /* \"#utility.yul\":2363:2364   */\n          0x00\n            /* \"#utility.yul\":2360:2361   */\n          dup1\n            /* \"#utility.yul\":2353:2365   */\n          revert\n            /* \"#utility.yul\":2304:2367   */\n        tag_43:\n            /* \"#utility.yul\":2251:2373   */\n          pop\n          jump\t// out\n            /* \"contract/28_TryCatch.sol\":1225:1535  contract OnlyEven{\r... */\n        tag_12:\n          dataSize(sub_0)\n          dup1\n          dataOffset(sub_0)\n          0x00\n          codecopy\n          0x00\n          return\n        stop\n\n        sub_0: assembly {\n                /* \"contract/28_TryCatch.sol\":1225:1535  contract OnlyEven{\r... */\n              mstore(0x40, 0x80)\n              callvalue\n              dup1\n              iszero\n              tag_1\n              jumpi\n              0x00\n              dup1\n              revert\n            tag_1:\n              pop\n              jumpi(tag_2, lt(calldatasize, 0x04))\n              shr(0xe0, calldataload(0x00))\n              dup1\n              0xce0b4213\n              eq\n              tag_3\n              jumpi\n            tag_2:\n              0x00\n              dup1\n              revert\n                /* \"contract/28_TryCatch.sol\":1353:1532  function onlyEven(uint256 b) external pure returns(bool success){\r... */\n            tag_3:\n              tag_4\n              0x04\n              dup1\n              calldatasize\n              sub\n              dup2\n              add\n              swap1\n              tag_5\n              swap2\n              swap1\n              tag_6\n              jump\t// in\n            tag_5:\n              tag_7\n              jump\t// in\n            tag_4:\n              mload(0x40)\n              tag_8\n              swap2\n              swap1\n              tag_9\n              jump\t// in\n            tag_8:\n              mload(0x40)\n              dup1\n              swap2\n              sub\n              swap1\n              return\n            tag_7:\n                /* \"contract/28_TryCatch.sol\":1404:1416  bool success */\n              0x00\n                /* \"contract/28_TryCatch.sol\":1479:1480  0 */\n              dup1\n                /* \"contract/28_TryCatch.sol\":1474:1475  2 */\n              0x02\n                /* \"contract/28_TryCatch.sol\":1470:1471  b */\n              dup4\n                /* \"contract/28_TryCatch.sol\":1470:1475  b % 2 */\n              tag_11\n              swap2\n              swap1\n              tag_12\n              jump\t// in\n            tag_11:\n                /* \"contract/28_TryCatch.sol\":1470:1480  b % 2 == 0 */\n              eq\n                /* \"contract/28_TryCatch.sol\":1462:1499  require(b % 2 == 0, \"Ups! Reverting\") */\n              tag_13\n              jumpi\n              mload(0x40)\n              0x08c379a000000000000000000000000000000000000000000000000000000000\n              dup2\n              mstore\n              0x04\n              add\n              tag_14\n              swap1\n              tag_15\n              jump\t// in\n            tag_14:\n              mload(0x40)\n              dup1\n              swap2\n              sub\n              swap1\n              revert\n            tag_13:\n                /* \"contract/28_TryCatch.sol\":1520:1524  true */\n              0x01\n                /* \"contract/28_TryCatch.sol\":1510:1524  success = true */\n              swap1\n              pop\n                /* \"contract/28_TryCatch.sol\":1353:1532  function onlyEven(uint256 b) external pure returns(bool success){\r... */\n              swap2\n              swap1\n              pop\n              jump\t// out\n                /* \"#utility.yul\":7:146   */\n            tag_17:\n                /* \"#utility.yul\":53:58   */\n              0x00\n                /* \"#utility.yul\":91:97   */\n              dup2\n                /* \"#utility.yul\":78:98   */\n              calldataload\n                /* \"#utility.yul\":69:98   */\n              swap1\n              pop\n                /* \"#utility.yul\":107:140   */\n              tag_19\n                /* \"#utility.yul\":134:139   */\n              dup2\n                /* \"#utility.yul\":107:140   */\n              tag_20\n              jump\t// in\n            tag_19:\n                /* \"#utility.yul\":7:146   */\n              swap3\n              swap2\n              pop\n              pop\n              jump\t// out\n                /* \"#utility.yul\":152:481   */\n            tag_6:\n                /* \"#utility.yul\":211:217   */\n              0x00\n                /* \"#utility.yul\":260:262   */\n              0x20\n                /* \"#utility.yul\":248:257   */\n              dup3\n                /* \"#utility.yul\":239:246   */\n              dup5\n                /* \"#utility.yul\":235:258   */\n              sub\n                /* \"#utility.yul\":231:263   */\n              slt\n                /* \"#utility.yul\":228:347   */\n              iszero\n              tag_22\n              jumpi\n                /* \"#utility.yul\":266:345   */\n              tag_23\n              tag_24\n              jump\t// in\n            tag_23:\n                /* \"#utility.yul\":228:347   */\n            tag_22:\n                /* \"#utility.yul\":386:387   */\n              0x00\n                /* \"#utility.yul\":411:464   */\n              tag_25\n                /* \"#utility.yul\":456:463   */\n              dup5\n                /* \"#utility.yul\":447:453   */\n              dup3\n                /* \"#utility.yul\":436:445   */\n              dup6\n                /* \"#utility.yul\":432:454   */\n              add\n                /* \"#utility.yul\":411:464   */\n              tag_17\n              jump\t// in\n            tag_25:\n                /* \"#utility.yul\":401:464   */\n              swap2\n              pop\n                /* \"#utility.yul\":357:474   */\n              pop\n                /* \"#utility.yul\":152:481   */\n              swap3\n              swap2\n              pop\n              pop\n              jump\t// out\n                /* \"#utility.yul\":487:596   */\n            tag_26:\n                /* \"#utility.yul\":568:589   */\n              tag_28\n                /* \"#utility.yul\":583:588   */\n              dup2\n                /* \"#utility.yul\":568:589   */\n              tag_29\n              jump\t// in\n            tag_28:\n                /* \"#utility.yul\":563:566   */\n              dup3\n                /* \"#utility.yul\":556:590   */\n              mstore\n                /* \"#utility.yul\":487:596   */\n              pop\n              pop\n              jump\t// out\n                /* \"#utility.yul\":602:968   */\n            tag_30:\n                /* \"#utility.yul\":744:747   */\n              0x00\n                /* \"#utility.yul\":765:832   */\n              tag_32\n                /* \"#utility.yul\":829:831   */\n              0x0e\n                /* \"#utility.yul\":824:827   */\n              dup4\n                /* \"#utility.yul\":765:832   */\n              tag_33\n              jump\t// in\n            tag_32:\n                /* \"#utility.yul\":758:832   */\n              swap2\n              pop\n                /* \"#utility.yul\":841:934   */\n              tag_34\n                /* \"#utility.yul\":930:933   */\n              dup3\n                /* \"#utility.yul\":841:934   */\n              tag_35\n              jump\t// in\n            tag_34:\n                /* \"#utility.yul\":959:961   */\n              0x20\n                /* \"#utility.yul\":954:957   */\n              dup3\n                /* \"#utility.yul\":950:962   */\n              add\n                /* \"#utility.yul\":943:962   */\n              swap1\n              pop\n                /* \"#utility.yul\":602:968   */\n              swap2\n              swap1\n              pop\n              jump\t// out\n                /* \"#utility.yul\":974:1184   */\n            tag_9:\n                /* \"#utility.yul\":1061:1065   */\n              0x00\n                /* \"#utility.yul\":1099:1101   */\n              0x20\n                /* \"#utility.yul\":1088:1097   */\n              dup3\n                /* \"#utility.yul\":1084:1102   */\n              add\n                /* \"#utility.yul\":1076:1102   */\n              swap1\n              pop\n                /* \"#utility.yul\":1112:1177   */\n              tag_37\n                /* \"#utility.yul\":1174:1175   */\n              0x00\n                /* \"#utility.yul\":1163:1172   */\n              dup4\n                /* \"#utility.yul\":1159:1176   */\n              add\n                /* \"#utility.yul\":1150:1156   */\n              dup5\n                /* \"#utility.yul\":1112:1177   */\n              tag_26\n              jump\t// in\n            tag_37:\n                /* \"#utility.yul\":974:1184   */\n              swap3\n              swap2\n              pop\n              pop\n              jump\t// out\n                /* \"#utility.yul\":1190:1609   */\n            tag_15:\n                /* \"#utility.yul\":1356:1360   */\n              0x00\n                /* \"#utility.yul\":1394:1396   */\n              0x20\n                /* \"#utility.yul\":1383:1392   */\n              dup3\n                /* \"#utility.yul\":1379:1397   */\n              add\n                /* \"#utility.yul\":1371:1397   */\n              swap1\n              pop\n                /* \"#utility.yul\":1443:1452   */\n              dup2\n                /* \"#utility.yul\":1437:1441   */\n              dup2\n                /* \"#utility.yul\":1433:1453   */\n              sub\n                /* \"#utility.yul\":1429:1430   */\n              0x00\n                /* \"#utility.yul\":1418:1427   */\n              dup4\n                /* \"#utility.yul\":1414:1431   */\n              add\n                /* \"#utility.yul\":1407:1454   */\n              mstore\n                /* \"#utility.yul\":1471:1602   */\n              tag_39\n                /* \"#utility.yul\":1597:1601   */\n              dup2\n                /* \"#utility.yul\":1471:1602   */\n              tag_30\n              jump\t// in\n            tag_39:\n                /* \"#utility.yul\":1463:1602   */\n              swap1\n              pop\n                /* \"#utility.yul\":1190:1609   */\n              swap2\n              swap1\n              pop\n              jump\t// out\n                /* \"#utility.yul\":1696:1865   */\n            tag_33:\n                /* \"#utility.yul\":1780:1791   */\n              0x00\n                /* \"#utility.yul\":1814:1820   */\n              dup3\n                /* \"#utility.yul\":1809:1812   */\n              dup3\n                /* \"#utility.yul\":1802:1821   */\n              mstore\n                /* \"#utility.yul\":1854:1858   */\n              0x20\n                /* \"#utility.yul\":1849:1852   */\n              dup3\n                /* \"#utility.yul\":1845:1859   */\n              add\n                /* \"#utility.yul\":1830:1859   */\n              swap1\n              pop\n                /* \"#utility.yul\":1696:1865   */\n              swap3\n              swap2\n              pop\n              pop\n              jump\t// out\n                /* \"#utility.yul\":1871:1961   */\n            tag_29:\n                /* \"#utility.yul\":1905:1912   */\n              0x00\n                /* \"#utility.yul\":1948:1953   */\n              dup2\n                /* \"#utility.yul\":1941:1954   */\n              iszero\n                /* \"#utility.yul\":1934:1955   */\n              iszero\n                /* \"#utility.yul\":1923:1955   */\n              swap1\n              pop\n                /* \"#utility.yul\":1871:1961   */\n              swap2\n              swap1\n              pop\n              jump\t// out\n                /* \"#utility.yul\":1967:2044   */\n            tag_44:\n                /* \"#utility.yul\":2004:2011   */\n              0x00\n                /* \"#utility.yul\":2033:2038   */\n              dup2\n                /* \"#utility.yul\":2022:2038   */\n              swap1\n              pop\n                /* \"#utility.yul\":1967:2044   */\n              swap2\n              swap1\n              pop\n              jump\t// out\n                /* \"#utility.yul\":2050:2226   */\n            tag_12:\n                /* \"#utility.yul\":2082:2083   */\n              0x00\n                /* \"#utility.yul\":2099:2119   */\n              tag_47\n                /* \"#utility.yul\":2117:2118   */\n              dup3\n                /* \"#utility.yul\":2099:2119   */\n              tag_44\n              jump\t// in\n            tag_47:\n                /* \"#utility.yul\":2094:2119   */\n              swap2\n              pop\n                /* \"#utility.yul\":2133:2153   */\n              tag_48\n                /* \"#utility.yul\":2151:2152   */\n              dup4\n                /* \"#utility.yul\":2133:2153   */\n              tag_44\n              jump\t// in\n            tag_48:\n                /* \"#utility.yul\":2128:2153   */\n              swap3\n              pop\n                /* \"#utility.yul\":2172:2173   */\n              dup3\n                /* \"#utility.yul\":2162:2197   */\n              tag_49\n              jumpi\n                /* \"#utility.yul\":2177:2195   */\n              tag_50\n              tag_51\n              jump\t// in\n            tag_50:\n                /* \"#utility.yul\":2162:2197   */\n            tag_49:\n                /* \"#utility.yul\":2218:2219   */\n              dup3\n                /* \"#utility.yul\":2215:2216   */\n              dup3\n                /* \"#utility.yul\":2211:2220   */\n              mod\n                /* \"#utility.yul\":2206:2220   */\n              swap1\n              pop\n                /* \"#utility.yul\":2050:2226   */\n              swap3\n              swap2\n              pop\n              pop\n              jump\t// out\n                /* \"#utility.yul\":2232:2412   */\n            tag_51:\n                /* \"#utility.yul\":2280:2357   */\n              0x4e487b7100000000000000000000000000000000000000000000000000000000\n                /* \"#utility.yul\":2277:2278   */\n              0x00\n                /* \"#utility.yul\":2270:2358   */\n              mstore\n                /* \"#utility.yul\":2377:2381   */\n              0x12\n                /* \"#utility.yul\":2374:2375   */\n              0x04\n                /* \"#utility.yul\":2367:2382   */\n              mstore\n                /* \"#utility.yul\":2401:2405   */\n              0x24\n                /* \"#utility.yul\":2398:2399   */\n              0x00\n                /* \"#utility.yul\":2391:2406   */\n              revert\n                /* \"#utility.yul\":2541:2658   */\n            tag_24:\n                /* \"#utility.yul\":2650:2651   */\n              0x00\n                /* \"#utility.yul\":2647:2648   */\n              dup1\n                /* \"#utility.yul\":2640:2652   */\n              revert\n                /* \"#utility.yul\":2664:2828   */\n            tag_35:\n                /* \"#utility.yul\":2804:2820   */\n              0x5570732120526576657274696e67000000000000000000000000000000000000\n                /* \"#utility.yul\":2800:2801   */\n              0x00\n                /* \"#utility.yul\":2792:2798   */\n              dup3\n                /* \"#utility.yul\":2788:2802   */\n              add\n                /* \"#utility.yul\":2781:2821   */\n              mstore\n                /* \"#utility.yul\":2664:2828   */\n              pop\n              jump\t// out\n                /* \"#utility.yul\":2834:2956   */\n            tag_20:\n                /* \"#utility.yul\":2907:2931   */\n              tag_58\n                /* \"#utility.yul\":2925:2930   */\n              dup2\n                /* \"#utility.yul\":2907:2931   */\n              tag_44\n              jump\t// in\n            tag_58:\n                /* \"#utility.yul\":2900:2905   */\n              dup2\n                /* \"#utility.yul\":2897:2932   */\n              eq\n                /* \"#utility.yul\":2887:2950   */\n              tag_59\n              jumpi\n                /* \"#utility.yul\":2946:2947   */\n              0x00\n                /* \"#utility.yul\":2943:2944   */\n              dup1\n                /* \"#utility.yul\":2936:2948   */\n              revert\n                /* \"#utility.yul\":2887:2950   */\n            tag_59:\n                /* \"#utility.yul\":2834:2956   */\n              pop\n              jump\t// out\n\n            auxdata: 0xa264697066735822122005c688654b8e667726d8ea736c89a8c629ffd5c65023fb25e49585c060dc93bc64736f6c63430008070033\n        }\n    }\n\n    auxdata: 0xa2646970667358221220c432724be0090eab08a27cbba4ef1fe1822129456be56e4747d544067ae3dbdc64736f6c63430008070033\n}\n",
				"bytecode": {
					"linkReferences": {},
					"object": "608060405234801561001057600080fd5b50610a05806100206000396000f3fe608060405234801561001057600080fd5b506004361061002b5760003560e01c806360ebc17214610030575b600080fd5b61004a60048036038101906100459190610289565b610060565b6040516100579190610346565b60405180910390f35b60008160405161006f90610225565b61007991906103a5565b604051809103906000f0801561008c5760015b610167576100986104ab565b806308c379a014156100f557506100ad6104f0565b806100b857506100f7565b7fb761112ad379c509744de8d585702b0d2694d4ceaef85ad50d452ff06821a6a6816040516100e79190610383565b60405180910390a150610162565b505b3d8060008114610123576040519150601f19603f3d011682016040523d82523d6000602084013e610128565b606091505b507fb6f66868478aebcea8c7a15c8c7dd37a513a4127424642ee3573117b52fa3e39816040516101589190610361565b60405180910390a1505b610220565b7ffd76336752e93f2cc77cf13a41be8b6c156731030376354d634d28a9a87b916260405160405180910390a18073ffffffffffffffffffffffffffffffffffffffff1663ce0b4213846040518263ffffffff1660e01b81526004016101cc91906103a5565b60206040518083038186803b1580156101e457600080fd5b505afa1580156101f8573d6000803e3d6000fd5b505050506040513d601f19601f8201168201806040525081019061021c919061025c565b9150505b919050565b61041b806105b583390190565b60008151905061024181610586565b92915050565b6000813590506102568161059d565b92915050565b600060208284031215610272576102716104cd565b5b600061028084828501610232565b91505092915050565b60006020828403121561029f5761029e6104cd565b5b60006102ad84828501610247565b91505092915050565b6102bf81610402565b82525050565b60006102d0826103ca565b6102da81856103e0565b93506102ea818560208601610418565b6102f3816104d2565b840191505092915050565b6000610309826103d5565b61031381856103f1565b9350610323818560208601610418565b61032c816104d2565b840191505092915050565b6103408161040e565b82525050565b600060208201905061035b60008301846102b6565b92915050565b6000602082019050818103600083015261037b81846102c5565b905092915050565b6000602082019050818103600083015261039d81846102fe565b905092915050565b60006020820190506103ba6000830184610337565b92915050565b6000604051905090565b600081519050919050565b600081519050919050565b600082825260208201905092915050565b600082825260208201905092915050565b60008115159050919050565b6000819050919050565b60005b8381101561043657808201518184015260208101905061041b565b83811115610445576000848401525b50505050565b610454826104d2565b810181811067ffffffffffffffff821117156104735761047261047c565b5b80604052505050565b7f4e487b7100000000000000000000000000000000000000000000000000000000600052604160045260246000fd5b600060033d11156104ca5760046000803e6104c76000516104e3565b90505b90565b600080fd5b6000601f19601f8301169050919050565b60008160e01c9050919050565b600060443d101561050057610583565b6105086103c0565b60043d036004823e80513d602482011167ffffffffffffffff82111715610530575050610583565b808201805167ffffffffffffffff81111561054e5750505050610583565b80602083010160043d03850181111561056b575050505050610583565b61057a8260200185018661044b565b82955050505050505b90565b61058f81610402565b811461059a57600080fd5b50565b6105a68161040e565b81146105b157600080fd5b5056fe608060405234801561001057600080fd5b5060405161041b38038061041b833981810160405281019061003291906100a3565b6000811415610076576040517f08c379a000000000000000000000000000000000000000000000000000000000815260040161006d906100f3565b60405180910390fd5b60018114156100885761008761012e565b5b506101a2565b60008151905061009d8161018b565b92915050565b6000602082840312156100b9576100b861015d565b5b60006100c78482850161008e565b91505092915050565b60006100dd600e83610113565b91506100e882610162565b602082019050919050565b6000602082019050818103600083015261010c816100d0565b9050919050565b600082825260208201905092915050565b6000819050919050565b7f4e487b7100000000000000000000000000000000000000000000000000000000600052600160045260246000fd5b600080fd5b7f696e76616c6964206e756d626572000000000000000000000000000000000000600082015250565b61019481610124565b811461019f57600080fd5b50565b61026a806101b16000396000f3fe608060405234801561001057600080fd5b506004361061002b5760003560e01c8063ce0b421314610030575b600080fd5b61004a600480360381019061004591906100ce565b610060565b604051610057919061012d565b60405180910390f35b600080600283610070919061018f565b146100b0576040517f08c379a00000000000000000000000000000000000000000000000000000000081526004016100a790610148565b60405180910390fd5b60019050919050565b6000813590506100c88161021d565b92915050565b6000602082840312156100e4576100e36101ef565b5b60006100f2848285016100b9565b91505092915050565b61010481610179565b82525050565b6000610117600e83610168565b9150610122826101f4565b602082019050919050565b600060208201905061014260008301846100fb565b92915050565b600060208201905081810360008301526101618161010a565b9050919050565b600082825260208201905092915050565b60008115159050919050565b6000819050919050565b600061019a82610185565b91506101a583610185565b9250826101b5576101b46101c0565b5b828206905092915050565b7f4e487b7100000000000000000000000000000000000000000000000000000000600052601260045260246000fd5b600080fd5b7f5570732120526576657274696e67000000000000000000000000000000000000600082015250565b61022681610185565b811461023157600080fd5b5056fea264697066735822122005c688654b8e667726d8ea736c89a8c629ffd5c65023fb25e49585c060dc93bc64736f6c63430008070033a2646970667358221220c432724be0090eab08a27cbba4ef1fe1822129456be56e4747d544067ae3dbdc64736f6c63430008070033",
					"opcodes": "PUSH1 0x80 PUSH1 0x40 MSTORE CALLVALUE DUP1 ISZERO PUSH2 0x10 JUMPI PUSH1 0x0 DUP1 REVERT JUMPDEST POP PUSH2 0xA05 DUP1 PUSH2 0x20 PUSH1 0x0 CODECOPY PUSH1 0x0 RETURN INVALID PUSH1 0x80 PUSH1 0x40 MSTORE CALLVALUE DUP1 ISZERO PUSH2 0x10 JUMPI PUSH1 0x0 DUP1 REVERT JUMPDEST POP PUSH1 0x4 CALLDATASIZE LT PUSH2 0x2B JUMPI PUSH1 0x0 CALLDATALOAD PUSH1 0xE0 SHR DUP1 PUSH4 0x60EBC172 EQ PUSH2 0x30 JUMPI JUMPDEST PUSH1 0x0 DUP1 REVERT JUMPDEST PUSH2 0x4A PUSH1 0x4 DUP1 CALLDATASIZE SUB DUP2 ADD SWAP1 PUSH2 0x45 SWAP2 SWAP1 PUSH2 0x289 JUMP JUMPDEST PUSH2 0x60 JUMP JUMPDEST PUSH1 0x40 MLOAD PUSH2 0x57 SWAP2 SWAP1 PUSH2 0x346 JUMP JUMPDEST PUSH1 0x40 MLOAD DUP1 SWAP2 SUB SWAP1 RETURN JUMPDEST PUSH1 0x0 DUP2 PUSH1 0x40 MLOAD PUSH2 0x6F SWAP1 PUSH2 0x225 JUMP JUMPDEST PUSH2 0x79 SWAP2 SWAP1 PUSH2 0x3A5 JUMP JUMPDEST PUSH1 0x40 MLOAD DUP1 SWAP2 SUB SWAP1 PUSH1 0x0 CREATE DUP1 ISZERO PUSH2 0x8C JUMPI PUSH1 0x1 JUMPDEST PUSH2 0x167 JUMPI PUSH2 0x98 PUSH2 0x4AB JUMP JUMPDEST DUP1 PUSH4 0x8C379A0 EQ ISZERO PUSH2 0xF5 JUMPI POP PUSH2 0xAD PUSH2 0x4F0 JUMP JUMPDEST DUP1 PUSH2 0xB8 JUMPI POP PUSH2 0xF7 JUMP JUMPDEST PUSH32 0xB761112AD379C509744DE8D585702B0D2694D4CEAEF85AD50D452FF06821A6A6 DUP2 PUSH1 0x40 MLOAD PUSH2 0xE7 SWAP2 SWAP1 PUSH2 0x383 JUMP JUMPDEST PUSH1 0x40 MLOAD DUP1 SWAP2 SUB SWAP1 LOG1 POP PUSH2 0x162 JUMP JUMPDEST POP JUMPDEST RETURNDATASIZE DUP1 PUSH1 0x0 DUP2 EQ PUSH2 0x123 JUMPI PUSH1 0x40 MLOAD SWAP2 POP PUSH1 0x1F NOT PUSH1 0x3F RETURNDATASIZE ADD AND DUP3 ADD PUSH1 0x40 MSTORE RETURNDATASIZE DUP3 MSTORE RETURNDATASIZE PUSH1 0x0 PUSH1 0x20 DUP5 ADD RETURNDATACOPY PUSH2 0x128 JUMP JUMPDEST PUSH1 0x60 SWAP2 POP JUMPDEST POP PUSH32 0xB6F66868478AEBCEA8C7A15C8C7DD37A513A4127424642EE3573117B52FA3E39 DUP2 PUSH1 0x40 MLOAD PUSH2 0x158 SWAP2 SWAP1 PUSH2 0x361 JUMP JUMPDEST PUSH1 0x40 MLOAD DUP1 SWAP2 SUB SWAP1 LOG1 POP JUMPDEST PUSH2 0x220 JUMP JUMPDEST PUSH32 0xFD76336752E93F2CC77CF13A41BE8B6C156731030376354D634D28A9A87B9162 PUSH1 0x40 MLOAD PUSH1 0x40 MLOAD DUP1 SWAP2 SUB SWAP1 LOG1 DUP1 PUSH20 0xFFFFFFFFFFFFFFFFFFFFFFFFFFFFFFFFFFFFFFFF AND PUSH4 0xCE0B4213 DUP5 PUSH1 0x40 MLOAD DUP3 PUSH4 0xFFFFFFFF AND PUSH1 0xE0 SHL DUP2 MSTORE PUSH1 0x4 ADD PUSH2 0x1CC SWAP2 SWAP1 PUSH2 0x3A5 JUMP JUMPDEST PUSH1 0x20 PUSH1 0x40 MLOAD DUP1 DUP4 SUB DUP2 DUP7 DUP1 EXTCODESIZE ISZERO DUP1 ISZERO PUSH2 0x1E4 JUMPI PUSH1 0x0 DUP1 REVERT JUMPDEST POP GAS STATICCALL ISZERO DUP1 ISZERO PUSH2 0x1F8 JUMPI RETURNDATASIZE PUSH1 0x0 DUP1 RETURNDATACOPY RETURNDATASIZE PUSH1 0x0 REVERT JUMPDEST POP POP POP POP PUSH1 0x40 MLOAD RETURNDATASIZE PUSH1 0x1F NOT PUSH1 0x1F DUP3 ADD AND DUP3 ADD DUP1 PUSH1 0x40 MSTORE POP DUP2 ADD SWAP1 PUSH2 0x21C SWAP2 SWAP1 PUSH2 0x25C JUMP JUMPDEST SWAP2 POP POP JUMPDEST SWAP2 SWAP1 POP JUMP JUMPDEST PUSH2 0x41B DUP1 PUSH2 0x5B5 DUP4 CODECOPY ADD SWAP1 JUMP JUMPDEST PUSH1 0x0 DUP2 MLOAD SWAP1 POP PUSH2 0x241 DUP2 PUSH2 0x586 JUMP JUMPDEST SWAP3 SWAP2 POP POP JUMP JUMPDEST PUSH1 0x0 DUP2 CALLDATALOAD SWAP1 POP PUSH2 0x256 DUP2 PUSH2 0x59D JUMP JUMPDEST SWAP3 SWAP2 POP POP JUMP JUMPDEST PUSH1 0x0 PUSH1 0x20 DUP3 DUP5 SUB SLT ISZERO PUSH2 0x272 JUMPI PUSH2 0x271 PUSH2 0x4CD JUMP JUMPDEST JUMPDEST PUSH1 0x0 PUSH2 0x280 DUP5 DUP3 DUP6 ADD PUSH2 0x232 JUMP JUMPDEST SWAP2 POP POP SWAP3 SWAP2 POP POP JUMP JUMPDEST PUSH1 0x0 PUSH1 0x20 DUP3 DUP5 SUB SLT ISZERO PUSH2 0x29F JUMPI PUSH2 0x29E PUSH2 0x4CD JUMP JUMPDEST JUMPDEST PUSH1 0x0 PUSH2 0x2AD DUP5 DUP3 DUP6 ADD PUSH2 0x247 JUMP JUMPDEST SWAP2 POP POP SWAP3 SWAP2 POP POP JUMP JUMPDEST PUSH2 0x2BF DUP2 PUSH2 0x402 JUMP JUMPDEST DUP3 MSTORE POP POP JUMP JUMPDEST PUSH1 0x0 PUSH2 0x2D0 DUP3 PUSH2 0x3CA JUMP JUMPDEST PUSH2 0x2DA DUP2 DUP6 PUSH2 0x3E0 JUMP JUMPDEST SWAP4 POP PUSH2 0x2EA DUP2 DUP6 PUSH1 0x20 DUP7 ADD PUSH2 0x418 JUMP JUMPDEST PUSH2 0x2F3 DUP2 PUSH2 0x4D2 JUMP JUMPDEST DUP5 ADD SWAP2 POP POP SWAP3 SWAP2 POP POP JUMP JUMPDEST PUSH1 0x0 PUSH2 0x309 DUP3 PUSH2 0x3D5 JUMP JUMPDEST PUSH2 0x313 DUP2 DUP6 PUSH2 0x3F1 JUMP JUMPDEST SWAP4 POP PUSH2 0x323 DUP2 DUP6 PUSH1 0x20 DUP7 ADD PUSH2 0x418 JUMP JUMPDEST PUSH2 0x32C DUP2 PUSH2 0x4D2 JUMP JUMPDEST DUP5 ADD SWAP2 POP POP SWAP3 SWAP2 POP POP JUMP JUMPDEST PUSH2 0x340 DUP2 PUSH2 0x40E JUMP JUMPDEST DUP3 MSTORE POP POP JUMP JUMPDEST PUSH1 0x0 PUSH1 0x20 DUP3 ADD SWAP1 POP PUSH2 0x35B PUSH1 0x0 DUP4 ADD DUP5 PUSH2 0x2B6 JUMP JUMPDEST SWAP3 SWAP2 POP POP JUMP JUMPDEST PUSH1 0x0 PUSH1 0x20 DUP3 ADD SWAP1 POP DUP2 DUP2 SUB PUSH1 0x0 DUP4 ADD MSTORE PUSH2 0x37B DUP2 DUP5 PUSH2 0x2C5 JUMP JUMPDEST SWAP1 POP SWAP3 SWAP2 POP POP JUMP JUMPDEST PUSH1 0x0 PUSH1 0x20 DUP3 ADD SWAP1 POP DUP2 DUP2 SUB PUSH1 0x0 DUP4 ADD MSTORE PUSH2 0x39D DUP2 DUP5 PUSH2 0x2FE JUMP JUMPDEST SWAP1 POP SWAP3 SWAP2 POP POP JUMP JUMPDEST PUSH1 0x0 PUSH1 0x20 DUP3 ADD SWAP1 POP PUSH2 0x3BA PUSH1 0x0 DUP4 ADD DUP5 PUSH2 0x337 JUMP JUMPDEST SWAP3 SWAP2 POP POP JUMP JUMPDEST PUSH1 0x0 PUSH1 0x40 MLOAD SWAP1 POP SWAP1 JUMP JUMPDEST PUSH1 0x0 DUP2 MLOAD SWAP1 POP SWAP2 SWAP1 POP JUMP JUMPDEST PUSH1 0x0 DUP2 MLOAD SWAP1 POP SWAP2 SWAP1 POP JUMP JUMPDEST PUSH1 0x0 DUP3 DUP3 MSTORE PUSH1 0x20 DUP3 ADD SWAP1 POP SWAP3 SWAP2 POP POP JUMP JUMPDEST PUSH1 0x0 DUP3 DUP3 MSTORE PUSH1 0x20 DUP3 ADD SWAP1 POP SWAP3 SWAP2 POP POP JUMP JUMPDEST PUSH1 0x0 DUP2 ISZERO ISZERO SWAP1 POP SWAP2 SWAP1 POP JUMP JUMPDEST PUSH1 0x0 DUP2 SWAP1 POP SWAP2 SWAP1 POP JUMP JUMPDEST PUSH1 0x0 JUMPDEST DUP4 DUP2 LT ISZERO PUSH2 0x436 JUMPI DUP1 DUP3 ADD MLOAD DUP2 DUP5 ADD MSTORE PUSH1 0x20 DUP2 ADD SWAP1 POP PUSH2 0x41B JUMP JUMPDEST DUP4 DUP2 GT ISZERO PUSH2 0x445 JUMPI PUSH1 0x0 DUP5 DUP5 ADD MSTORE JUMPDEST POP POP POP POP JUMP JUMPDEST PUSH2 0x454 DUP3 PUSH2 0x4D2 JUMP JUMPDEST DUP2 ADD DUP2 DUP2 LT PUSH8 0xFFFFFFFFFFFFFFFF DUP3 GT OR ISZERO PUSH2 0x473 JUMPI PUSH2 0x472 PUSH2 0x47C JUMP JUMPDEST JUMPDEST DUP1 PUSH1 0x40 MSTORE POP POP POP JUMP JUMPDEST PUSH32 0x4E487B7100000000000000000000000000000000000000000000000000000000 PUSH1 0x0 MSTORE PUSH1 0x41 PUSH1 0x4 MSTORE PUSH1 0x24 PUSH1 0x0 REVERT JUMPDEST PUSH1 0x0 PUSH1 0x3 RETURNDATASIZE GT ISZERO PUSH2 0x4CA JUMPI PUSH1 0x4 PUSH1 0x0 DUP1 RETURNDATACOPY PUSH2 0x4C7 PUSH1 0x0 MLOAD PUSH2 0x4E3 JUMP JUMPDEST SWAP1 POP JUMPDEST SWAP1 JUMP JUMPDEST PUSH1 0x0 DUP1 REVERT JUMPDEST PUSH1 0x0 PUSH1 0x1F NOT PUSH1 0x1F DUP4 ADD AND SWAP1 POP SWAP2 SWAP1 POP JUMP JUMPDEST PUSH1 0x0 DUP2 PUSH1 0xE0 SHR SWAP1 POP SWAP2 SWAP1 POP JUMP JUMPDEST PUSH1 0x0 PUSH1 0x44 RETURNDATASIZE LT ISZERO PUSH2 0x500 JUMPI PUSH2 0x583 JUMP JUMPDEST PUSH2 0x508 PUSH2 0x3C0 JUMP JUMPDEST PUSH1 0x4 RETURNDATASIZE SUB PUSH1 0x4 DUP3 RETURNDATACOPY DUP1 MLOAD RETURNDATASIZE PUSH1 0x24 DUP3 ADD GT PUSH8 0xFFFFFFFFFFFFFFFF DUP3 GT OR ISZERO PUSH2 0x530 JUMPI POP POP PUSH2 0x583 JUMP JUMPDEST DUP1 DUP3 ADD DUP1 MLOAD PUSH8 0xFFFFFFFFFFFFFFFF DUP2 GT ISZERO PUSH2 0x54E JUMPI POP POP POP POP PUSH2 0x583 JUMP JUMPDEST DUP1 PUSH1 0x20 DUP4 ADD ADD PUSH1 0x4 RETURNDATASIZE SUB DUP6 ADD DUP2 GT ISZERO PUSH2 0x56B JUMPI POP POP POP POP POP PUSH2 0x583 JUMP JUMPDEST PUSH2 0x57A DUP3 PUSH1 0x20 ADD DUP6 ADD DUP7 PUSH2 0x44B JUMP JUMPDEST DUP3 SWAP6 POP POP POP POP POP POP JUMPDEST SWAP1 JUMP JUMPDEST PUSH2 0x58F DUP2 PUSH2 0x402 JUMP JUMPDEST DUP2 EQ PUSH2 0x59A JUMPI PUSH1 0x0 DUP1 REVERT JUMPDEST POP JUMP JUMPDEST PUSH2 0x5A6 DUP2 PUSH2 0x40E JUMP JUMPDEST DUP2 EQ PUSH2 0x5B1 JUMPI PUSH1 0x0 DUP1 REVERT JUMPDEST POP JUMP INVALID PUSH1 0x80 PUSH1 0x40 MSTORE CALLVALUE DUP1 ISZERO PUSH2 0x10 JUMPI PUSH1 0x0 DUP1 REVERT JUMPDEST POP PUSH1 0x40 MLOAD PUSH2 0x41B CODESIZE SUB DUP1 PUSH2 0x41B DUP4 CODECOPY DUP2 DUP2 ADD PUSH1 0x40 MSTORE DUP2 ADD SWAP1 PUSH2 0x32 SWAP2 SWAP1 PUSH2 0xA3 JUMP JUMPDEST PUSH1 0x0 DUP2 EQ ISZERO PUSH2 0x76 JUMPI PUSH1 0x40 MLOAD PUSH32 0x8C379A000000000000000000000000000000000000000000000000000000000 DUP2 MSTORE PUSH1 0x4 ADD PUSH2 0x6D SWAP1 PUSH2 0xF3 JUMP JUMPDEST PUSH1 0x40 MLOAD DUP1 SWAP2 SUB SWAP1 REVERT JUMPDEST PUSH1 0x1 DUP2 EQ ISZERO PUSH2 0x88 JUMPI PUSH2 0x87 PUSH2 0x12E JUMP JUMPDEST JUMPDEST POP PUSH2 0x1A2 JUMP JUMPDEST PUSH1 0x0 DUP2 MLOAD SWAP1 POP PUSH2 0x9D DUP2 PUSH2 0x18B JUMP JUMPDEST SWAP3 SWAP2 POP POP JUMP JUMPDEST PUSH1 0x0 PUSH1 0x20 DUP3 DUP5 SUB SLT ISZERO PUSH2 0xB9 JUMPI PUSH2 0xB8 PUSH2 0x15D JUMP JUMPDEST JUMPDEST PUSH1 0x0 PUSH2 0xC7 DUP5 DUP3 DUP6 ADD PUSH2 0x8E JUMP JUMPDEST SWAP2 POP POP SWAP3 SWAP2 POP POP JUMP JUMPDEST PUSH1 0x0 PUSH2 0xDD PUSH1 0xE DUP4 PUSH2 0x113 JUMP JUMPDEST SWAP2 POP PUSH2 0xE8 DUP3 PUSH2 0x162 JUMP JUMPDEST PUSH1 0x20 DUP3 ADD SWAP1 POP SWAP2 SWAP1 POP JUMP JUMPDEST PUSH1 0x0 PUSH1 0x20 DUP3 ADD SWAP1 POP DUP2 DUP2 SUB PUSH1 0x0 DUP4 ADD MSTORE PUSH2 0x10C DUP2 PUSH2 0xD0 JUMP JUMPDEST SWAP1 POP SWAP2 SWAP1 POP JUMP JUMPDEST PUSH1 0x0 DUP3 DUP3 MSTORE PUSH1 0x20 DUP3 ADD SWAP1 POP SWAP3 SWAP2 POP POP JUMP JUMPDEST PUSH1 0x0 DUP2 SWAP1 POP SWAP2 SWAP1 POP JUMP JUMPDEST PUSH32 0x4E487B7100000000000000000000000000000000000000000000000000000000 PUSH1 0x0 MSTORE PUSH1 0x1 PUSH1 0x4 MSTORE PUSH1 0x24 PUSH1 0x0 REVERT JUMPDEST PUSH1 0x0 DUP1 REVERT JUMPDEST PUSH32 0x696E76616C6964206E756D626572000000000000000000000000000000000000 PUSH1 0x0 DUP3 ADD MSTORE POP JUMP JUMPDEST PUSH2 0x194 DUP2 PUSH2 0x124 JUMP JUMPDEST DUP2 EQ PUSH2 0x19F JUMPI PUSH1 0x0 DUP1 REVERT JUMPDEST POP JUMP JUMPDEST PUSH2 0x26A DUP1 PUSH2 0x1B1 PUSH1 0x0 CODECOPY PUSH1 0x0 RETURN INVALID PUSH1 0x80 PUSH1 0x40 MSTORE CALLVALUE DUP1 ISZERO PUSH2 0x10 JUMPI PUSH1 0x0 DUP1 REVERT JUMPDEST POP PUSH1 0x4 CALLDATASIZE LT PUSH2 0x2B JUMPI PUSH1 0x0 CALLDATALOAD PUSH1 0xE0 SHR DUP1 PUSH4 0xCE0B4213 EQ PUSH2 0x30 JUMPI JUMPDEST PUSH1 0x0 DUP1 REVERT JUMPDEST PUSH2 0x4A PUSH1 0x4 DUP1 CALLDATASIZE SUB DUP2 ADD SWAP1 PUSH2 0x45 SWAP2 SWAP1 PUSH2 0xCE JUMP JUMPDEST PUSH2 0x60 JUMP JUMPDEST PUSH1 0x40 MLOAD PUSH2 0x57 SWAP2 SWAP1 PUSH2 0x12D JUMP JUMPDEST PUSH1 0x40 MLOAD DUP1 SWAP2 SUB SWAP1 RETURN JUMPDEST PUSH1 0x0 DUP1 PUSH1 0x2 DUP4 PUSH2 0x70 SWAP2 SWAP1 PUSH2 0x18F JUMP JUMPDEST EQ PUSH2 0xB0 JUMPI PUSH1 0x40 MLOAD PUSH32 0x8C379A000000000000000000000000000000000000000000000000000000000 DUP2 MSTORE PUSH1 0x4 ADD PUSH2 0xA7 SWAP1 PUSH2 0x148 JUMP JUMPDEST PUSH1 0x40 MLOAD DUP1 SWAP2 SUB SWAP1 REVERT JUMPDEST PUSH1 0x1 SWAP1 POP SWAP2 SWAP1 POP JUMP JUMPDEST PUSH1 0x0 DUP2 CALLDATALOAD SWAP1 POP PUSH2 0xC8 DUP2 PUSH2 0x21D JUMP JUMPDEST SWAP3 SWAP2 POP POP JUMP JUMPDEST PUSH1 0x0 PUSH1 0x20 DUP3 DUP5 SUB SLT ISZERO PUSH2 0xE4 JUMPI PUSH2 0xE3 PUSH2 0x1EF JUMP JUMPDEST JUMPDEST PUSH1 0x0 PUSH2 0xF2 DUP5 DUP3 DUP6 ADD PUSH2 0xB9 JUMP JUMPDEST SWAP2 POP POP SWAP3 SWAP2 POP POP JUMP JUMPDEST PUSH2 0x104 DUP2 PUSH2 0x179 JUMP JUMPDEST DUP3 MSTORE POP POP JUMP JUMPDEST PUSH1 0x0 PUSH2 0x117 PUSH1 0xE DUP4 PUSH2 0x168 JUMP JUMPDEST SWAP2 POP PUSH2 0x122 DUP3 PUSH2 0x1F4 JUMP JUMPDEST PUSH1 0x20 DUP3 ADD SWAP1 POP SWAP2 SWAP1 POP JUMP JUMPDEST PUSH1 0x0 PUSH1 0x20 DUP3 ADD SWAP1 POP PUSH2 0x142 PUSH1 0x0 DUP4 ADD DUP5 PUSH2 0xFB JUMP JUMPDEST SWAP3 SWAP2 POP POP JUMP JUMPDEST PUSH1 0x0 PUSH1 0x20 DUP3 ADD SWAP1 POP DUP2 DUP2 SUB PUSH1 0x0 DUP4 ADD MSTORE PUSH2 0x161 DUP2 PUSH2 0x10A JUMP JUMPDEST SWAP1 POP SWAP2 SWAP1 POP JUMP JUMPDEST PUSH1 0x0 DUP3 DUP3 MSTORE PUSH1 0x20 DUP3 ADD SWAP1 POP SWAP3 SWAP2 POP POP JUMP JUMPDEST PUSH1 0x0 DUP2 ISZERO ISZERO SWAP1 POP SWAP2 SWAP1 POP JUMP JUMPDEST PUSH1 0x0 DUP2 SWAP1 POP SWAP2 SWAP1 POP JUMP JUMPDEST PUSH1 0x0 PUSH2 0x19A DUP3 PUSH2 0x185 JUMP JUMPDEST SWAP2 POP PUSH2 0x1A5 DUP4 PUSH2 0x185 JUMP JUMPDEST SWAP3 POP DUP3 PUSH2 0x1B5 JUMPI PUSH2 0x1B4 PUSH2 0x1C0 JUMP JUMPDEST JUMPDEST DUP3 DUP3 MOD SWAP1 POP SWAP3 SWAP2 POP POP JUMP JUMPDEST PUSH32 0x4E487B7100000000000000000000000000000000000000000000000000000000 PUSH1 0x0 MSTORE PUSH1 0x12 PUSH1 0x4 MSTORE PUSH1 0x24 PUSH1 0x0 REVERT JUMPDEST PUSH1 0x0 DUP1 REVERT JUMPDEST PUSH32 0x5570732120526576657274696E67000000000000000000000000000000000000 PUSH1 0x0 DUP3 ADD MSTORE POP JUMP JUMPDEST PUSH2 0x226 DUP2 PUSH2 0x185 JUMP JUMPDEST DUP2 EQ PUSH2 0x231 JUMPI PUSH1 0x0 DUP1 REVERT JUMPDEST POP JUMP INVALID LOG2 PUSH5 0x6970667358 0x22 SLT KECCAK256 SDIV 0xC6 DUP9 PUSH6 0x4B8E667726D8 0xEA PUSH20 0x6C89A8C629FFD5C65023FB25E49585C060DC93BC PUSH5 0x736F6C6343 STOP ADDMOD SMOD STOP CALLER LOG2 PUSH5 0x6970667358 0x22 SLT KECCAK256 0xC4 ORIGIN PUSH19 0x4BE0090EAB08A27CBBA4EF1FE1822129456BE5 PUSH15 0x4747D544067AE3DBDC64736F6C6343 STOP ADDMOD SMOD STOP CALLER "
				},
				"gasEstimates": {
					"creation": {
						"codeDepositCost": "513000",
						"executionCost": "549",
						"totalCost": "513549"
					},
					"external": {
						"executeNew(uint256)": "infinite"
					}
				},
				"methodIdentifiers": {
					"executeNew(uint256)": "60ebc172"
				}
			},
			"storageLayout": {
				"storage": [],
				"types": null
			},
			"userdoc": {
				"kind": "user",
				"methods": {},
				"version": 1
			}
		}
	}
}