{
	"contract/28_TryCatch.sol": {
		"OnlyEven": {
			"abi": [
				{
					"inputs": [
						{
							"internalType": "uint256",
							"name": "a",
							"type": "uint256"
						}
					],
					"stateMutability": "nonpayable",
					"type": "constructor"
				},
				{
					"inputs": [
						{
							"internalType": "uint256",
							"name": "b",
							"type": "uint256"
						}
					],
					"name": "onlyEven",
					"outputs": [
						{
							"internalType": "bool",
							"name": "success",
							"type": "bool"
						}
					],
					"stateMutability": "pure",
					"type": "function"
				}
			],
			"devdoc": {
				"kind": "dev",
				"methods": {},
				"version": 1
			},
			"evm": {
				"assembly": "    /* \"contract/28_TryCatch.sol\":1225:1535  contract OnlyEven{\r... */\n  mstore(0x40, 0x80)\n    /* \"contract/28_TryCatch.sol\":1249:1345  constructor(uint a){\r... */\n  callvalue\n  dup1\n  iszero\n  tag_1\n  jumpi\n  0x00\n  dup1\n  revert\ntag_1:\n  pop\n  mload(0x40)\n  sub(codesize, bytecodeSize)\n  dup1\n  bytecodeSize\n  dup4\n  codecopy\n  dup2\n  dup2\n  add\n  0x40\n  mstore\n  dup2\n  add\n  swap1\n  tag_2\n  swap2\n  swap1\n  tag_3\n  jump\t// in\ntag_2:\n    /* \"contract/28_TryCatch.sol\":1292:1293  0 */\n  0x00\n    /* \"contract/28_TryCatch.sol\":1287:1288  a */\n  dup2\n    /* \"contract/28_TryCatch.sol\":1287:1293  a != 0 */\n  eq\n  iszero\n    /* \"contract/28_TryCatch.sol\":1279:1312  require(a != 0, \"invalid number\") */\n  tag_6\n  jumpi\n  mload(0x40)\n  0x08c379a000000000000000000000000000000000000000000000000000000000\n  dup2\n  mstore\n  0x04\n  add\n  tag_7\n  swap1\n  tag_8\n  jump\t// in\ntag_7:\n  mload(0x40)\n  dup1\n  swap2\n  sub\n  swap1\n  revert\ntag_6:\n    /* \"contract/28_TryCatch.sol\":1335:1336  1 */\n  0x01\n    /* \"contract/28_TryCatch.sol\":1330:1331  a */\n  dup2\n    /* \"contract/28_TryCatch.sol\":1330:1336  a != 1 */\n  eq\n  iszero\n    /* \"contract/28_TryCatch.sol\":1323:1337  assert(a != 1) */\n  tag_9\n  jumpi\n  tag_10\n  tag_11\n  jump\t// in\ntag_10:\ntag_9:\n    /* \"contract/28_TryCatch.sol\":1249:1345  constructor(uint a){\r... */\n  pop\n    /* \"contract/28_TryCatch.sol\":1225:1535  contract OnlyEven{\r... */\n  jump(tag_12)\n    /* \"#utility.yul\":7:150   */\ntag_14:\n    /* \"#utility.yul\":64:69   */\n  0x00\n    /* \"#utility.yul\":95:101   */\n  dup2\n    /* \"#utility.yul\":89:102   */\n  mload\n    /* \"#utility.yul\":80:102   */\n  swap1\n  pop\n    /* \"#utility.yul\":111:144   */\n  tag_16\n    /* \"#utility.yul\":138:143   */\n  dup2\n    /* \"#utility.yul\":111:144   */\n  tag_17\n  jump\t// in\ntag_16:\n    /* \"#utility.yul\":7:150   */\n  swap3\n  swap2\n  pop\n  pop\n  jump\t// out\n    /* \"#utility.yul\":156:507   */\ntag_3:\n    /* \"#utility.yul\":226:232   */\n  0x00\n    /* \"#utility.yul\":275:277   */\n  0x20\n    /* \"#utility.yul\":263:272   */\n  dup3\n    /* \"#utility.yul\":254:261   */\n  dup5\n    /* \"#utility.yul\":250:273   */\n  sub\n    /* \"#utility.yul\":246:278   */\n  slt\n    /* \"#utility.yul\":243:362   */\n  iszero\n  tag_19\n  jumpi\n    /* \"#utility.yul\":281:360   */\n  tag_20\n  tag_21\n  jump\t// in\ntag_20:\n    /* \"#utility.yul\":243:362   */\ntag_19:\n    /* \"#utility.yul\":401:402   */\n  0x00\n    /* \"#utility.yul\":426:490   */\n  tag_22\n    /* \"#utility.yul\":482:489   */\n  dup5\n    /* \"#utility.yul\":473:479   */\n  dup3\n    /* \"#utility.yul\":462:471   */\n  dup6\n    /* \"#utility.yul\":458:480   */\n  add\n    /* \"#utility.yul\":426:490   */\n  tag_14\n  jump\t// in\ntag_22:\n    /* \"#utility.yul\":416:490   */\n  swap2\n  pop\n    /* \"#utility.yul\":372:500   */\n  pop\n    /* \"#utility.yul\":156:507   */\n  swap3\n  swap2\n  pop\n  pop\n  jump\t// out\n    /* \"#utility.yul\":513:879   */\ntag_23:\n    /* \"#utility.yul\":655:658   */\n  0x00\n    /* \"#utility.yul\":676:743   */\n  tag_25\n    /* \"#utility.yul\":740:742   */\n  0x0e\n    /* \"#utility.yul\":735:738   */\n  dup4\n    /* \"#utility.yul\":676:743   */\n  tag_26\n  jump\t// in\ntag_25:\n    /* \"#utility.yul\":669:743   */\n  swap2\n  pop\n    /* \"#utility.yul\":752:845   */\n  tag_27\n    /* \"#utility.yul\":841:844   */\n  dup3\n    /* \"#utility.yul\":752:845   */\n  tag_28\n  jump\t// in\ntag_27:\n    /* \"#utility.yul\":870:872   */\n  0x20\n    /* \"#utility.yul\":865:868   */\n  dup3\n    /* \"#utility.yul\":861:873   */\n  add\n    /* \"#utility.yul\":854:873   */\n  swap1\n  pop\n    /* \"#utility.yul\":513:879   */\n  swap2\n  swap1\n  pop\n  jump\t// out\n    /* \"#utility.yul\":885:1304   */\ntag_8:\n    /* \"#utility.yul\":1051:1055   */\n  0x00\n    /* \"#utility.yul\":1089:1091   */\n  0x20\n    /* \"#utility.yul\":1078:1087   */\n  dup3\n    /* \"#utility.yul\":1074:1092   */\n  add\n    /* \"#utility.yul\":1066:1092   */\n  swap1\n  pop\n    /* \"#utility.yul\":1138:1147   */\n  dup2\n    /* \"#utility.yul\":1132:1136   */\n  dup2\n    /* \"#utility.yul\":1128:1148   */\n  sub\n    /* \"#utility.yul\":1124:1125   */\n  0x00\n    /* \"#utility.yul\":1113:1122   */\n  dup4\n    /* \"#utility.yul\":1109:1126   */\n  add\n    /* \"#utility.yul\":1102:1149   */\n  mstore\n    /* \"#utility.yul\":1166:1297   */\n  tag_30\n    /* \"#utility.yul\":1292:1296   */\n  dup2\n    /* \"#utility.yul\":1166:1297   */\n  tag_23\n  jump\t// in\ntag_30:\n    /* \"#utility.yul\":1158:1297   */\n  swap1\n  pop\n    /* \"#utility.yul\":885:1304   */\n  swap2\n  swap1\n  pop\n  jump\t// out\n    /* \"#utility.yul\":1391:1560   */\ntag_26:\n    /* \"#utility.yul\":1475:1486   */\n  0x00\n    /* \"#utility.yul\":1509:1515   */\n  dup3\n    /* \"#utility.yul\":1504:1507   */\n  dup3\n    /* \"#utility.yul\":1497:1516   */\n  mstore\n    /* \"#utility.yul\":1549:1553   */\n  0x20\n    /* \"#utility.yul\":1544:1547   */\n  dup3\n    /* \"#utility.yul\":1540:1554   */\n  add\n    /* \"#utility.yul\":1525:1554   */\n  swap1\n  pop\n    /* \"#utility.yul\":1391:1560   */\n  swap3\n  swap2\n  pop\n  pop\n  jump\t// out\n    /* \"#utility.yul\":1566:1643   */\ntag_34:\n    /* \"#utility.yul\":1603:1610   */\n  0x00\n    /* \"#utility.yul\":1632:1637   */\n  dup2\n    /* \"#utility.yul\":1621:1637   */\n  swap1\n  pop\n    /* \"#utility.yul\":1566:1643   */\n  swap2\n  swap1\n  pop\n  jump\t// out\n    /* \"#utility.yul\":1649:1829   */\ntag_11:\n    /* \"#utility.yul\":1697:1774   */\n  0x4e487b7100000000000000000000000000000000000000000000000000000000\n    /* \"#utility.yul\":1694:1695   */\n  0x00\n    /* \"#utility.yul\":1687:1775   */\n  mstore\n    /* \"#utility.yul\":1794:1798   */\n  0x01\n    /* \"#utility.yul\":1791:1792   */\n  0x04\n    /* \"#utility.yul\":1784:1799   */\n  mstore\n    /* \"#utility.yul\":1818:1822   */\n  0x24\n    /* \"#utility.yul\":1815:1816   */\n  0x00\n    /* \"#utility.yul\":1808:1823   */\n  revert\n    /* \"#utility.yul\":1958:2075   */\ntag_21:\n    /* \"#utility.yul\":2067:2068   */\n  0x00\n    /* \"#utility.yul\":2064:2065   */\n  dup1\n    /* \"#utility.yul\":2057:2069   */\n  revert\n    /* \"#utility.yul\":2081:2245   */\ntag_28:\n    /* \"#utility.yul\":2221:2237   */\n  0x696e76616c6964206e756d626572000000000000000000000000000000000000\n    /* \"#utility.yul\":2217:2218   */\n  0x00\n    /* \"#utility.yul\":2209:2215   */\n  dup3\n    /* \"#utility.yul\":2205:2219   */\n  add\n    /* \"#utility.yul\":2198:2238   */\n  mstore\n    /* \"#utility.yul\":2081:2245   */\n  pop\n  jump\t// out\n    /* \"#utility.yul\":2251:2373   */\ntag_17:\n    /* \"#utility.yul\":2324:2348   */\n  tag_42\n    /* \"#utility.yul\":2342:2347   */\n  dup2\n    /* \"#utility.yul\":2324:2348   */\n  tag_34\n  jump\t// in\ntag_42:\n    /* \"#utility.yul\":2317:2322   */\n  dup2\n    /* \"#utility.yul\":2314:2349   */\n  eq\n    /* \"#utility.yul\":2304:2367   */\n  tag_43\n  jumpi\n    /* \"#utility.yul\":2363:2364   */\n  0x00\n    /* \"#utility.yul\":2360:2361   */\n  dup1\n    /* \"#utility.yul\":2353:2365   */\n  revert\n    /* \"#utility.yul\":2304:2367   */\ntag_43:\n    /* \"#utility.yul\":2251:2373   */\n  pop\n  jump\t// out\n    /* \"contract/28_TryCatch.sol\":1225:1535  contract OnlyEven{\r... */\ntag_12:\n  dataSize(sub_0)\n  dup1\n  dataOffset(sub_0)\n  0x00\n  codecopy\n  0x00\n  return\nstop\n\nsub_0: assembly {\n        /* \"contract/28_TryCatch.sol\":1225:1535  contract OnlyEven{\r... */\n      mstore(0x40, 0x80)\n      callvalue\n      dup1\n      iszero\n      tag_1\n      jumpi\n      0x00\n      dup1\n      revert\n    tag_1:\n      pop\n      jumpi(tag_2, lt(calldatasize, 0x04))\n      shr(0xe0, calldataload(0x00))\n      dup1\n      0xce0b4213\n      eq\n      tag_3\n      jumpi\n    tag_2:\n      0x00\n      dup1\n      revert\n        /* \"contract/28_TryCatch.sol\":1353:1532  function onlyEven(uint256 b) external pure returns(bool success){\r... */\n    tag_3:\n      tag_4\n      0x04\n      dup1\n      calldatasize\n      sub\n      dup2\n      add\n      swap1\n      tag_5\n      swap2\n      swap1\n      tag_6\n      jump\t// in\n    tag_5:\n      tag_7\n      jump\t// in\n    tag_4:\n      mload(0x40)\n      tag_8\n      swap2\n      swap1\n      tag_9\n      jump\t// in\n    tag_8:\n      mload(0x40)\n      dup1\n      swap2\n      sub\n      swap1\n      return\n    tag_7:\n        /* \"contract/28_TryCatch.sol\":1404:1416  bool success */\n      0x00\n        /* \"contract/28_TryCatch.sol\":1479:1480  0 */\n      dup1\n        /* \"contract/28_TryCatch.sol\":1474:1475  2 */\n      0x02\n        /* \"contract/28_TryCatch.sol\":1470:1471  b */\n      dup4\n        /* \"contract/28_TryCatch.sol\":1470:1475  b % 2 */\n      tag_11\n      swap2\n      swap1\n      tag_12\n      jump\t// in\n    tag_11:\n        /* \"contract/28_TryCatch.sol\":1470:1480  b % 2 == 0 */\n      eq\n        /* \"contract/28_TryCatch.sol\":1462:1499  require(b % 2 == 0, \"Ups! Reverting\") */\n      tag_13\n      jumpi\n      mload(0x40)\n      0x08c379a000000000000000000000000000000000000000000000000000000000\n      dup2\n      mstore\n      0x04\n      add\n      tag_14\n      swap1\n      tag_15\n      jump\t// in\n    tag_14:\n      mload(0x40)\n      dup1\n      swap2\n      sub\n      swap1\n      revert\n    tag_13:\n        /* \"contract/28_TryCatch.sol\":1520:1524  true */\n      0x01\n        /* \"contract/28_TryCatch.sol\":1510:1524  success = true */\n      swap1\n      pop\n        /* \"contract/28_TryCatch.sol\":1353:1532  function onlyEven(uint256 b) external pure returns(bool success){\r... */\n      swap2\n      swap1\n      pop\n      jump\t// out\n        /* \"#utility.yul\":7:146   */\n    tag_17:\n        /* \"#utility.yul\":53:58   */\n      0x00\n        /* \"#utility.yul\":91:97   */\n      dup2\n        /* \"#utility.yul\":78:98   */\n      calldataload\n        /* \"#utility.yul\":69:98   */\n      swap1\n      pop\n        /* \"#utility.yul\":107:140   */\n      tag_19\n        /* \"#utility.yul\":134:139   */\n      dup2\n        /* \"#utility.yul\":107:140   */\n      tag_20\n      jump\t// in\n    tag_19:\n        /* \"#utility.yul\":7:146   */\n      swap3\n      swap2\n      pop\n      pop\n      jump\t// out\n        /* \"#utility.yul\":152:481   */\n    tag_6:\n        /* \"#utility.yul\":211:217   */\n      0x00\n        /* \"#utility.yul\":260:262   */\n      0x20\n        /* \"#utility.yul\":248:257   */\n      dup3\n        /* \"#utility.yul\":239:246   */\n      dup5\n        /* \"#utility.yul\":235:258   */\n      sub\n        /* \"#utility.yul\":231:263   */\n      slt\n        /* \"#utility.yul\":228:347   */\n      iszero\n      tag_22\n      jumpi\n        /* \"#utility.yul\":266:345   */\n      tag_23\n      tag_24\n      jump\t// in\n    tag_23:\n        /* \"#utility.yul\":228:347   */\n    tag_22:\n        /* \"#utility.yul\":386:387   */\n      0x00\n        /* \"#utility.yul\":411:464   */\n      tag_25\n        /* \"#utility.yul\":456:463   */\n      dup5\n        /* \"#utility.yul\":447:453   */\n      dup3\n        /* \"#utility.yul\":436:445   */\n      dup6\n        /* \"#utility.yul\":432:454   */\n      add\n        /* \"#utility.yul\":411:464   */\n      tag_17\n      jump\t// in\n    tag_25:\n        /* \"#utility.yul\":401:464   */\n      swap2\n      pop\n        /* \"#utility.yul\":357:474   */\n      pop\n        /* \"#utility.yul\":152:481   */\n      swap3\n      swap2\n      pop\n      pop\n      jump\t// out\n        /* \"#utility.yul\":487:596   */\n    tag_26:\n        /* \"#utility.yul\":568:589   */\n      tag_28\n        /* \"#utility.yul\":583:588   */\n      dup2\n        /* \"#utility.yul\":568:589   */\n      tag_29\n      jump\t// in\n    tag_28:\n        /* \"#utility.yul\":563:566   */\n      dup3\n        /* \"#utility.yul\":556:590   */\n      mstore\n        /* \"#utility.yul\":487:596   */\n      pop\n      pop\n      jump\t// out\n        /* \"#utility.yul\":602:968   */\n    tag_30:\n        /* \"#utility.yul\":744:747   */\n      0x00\n        /* \"#utility.yul\":765:832   */\n      tag_32\n        /* \"#utility.yul\":829:831   */\n      0x0e\n        /* \"#utility.yul\":824:827   */\n      dup4\n        /* \"#utility.yul\":765:832   */\n      tag_33\n      jump\t// in\n    tag_32:\n        /* \"#utility.yul\":758:832   */\n      swap2\n      pop\n        /* \"#utility.yul\":841:934   */\n      tag_34\n        /* \"#utility.yul\":930:933   */\n      dup3\n        /* \"#utility.yul\":841:934   */\n      tag_35\n      jump\t// in\n    tag_34:\n        /* \"#utility.yul\":959:961   */\n      0x20\n        /* \"#utility.yul\":954:957   */\n      dup3\n        /* \"#utility.yul\":950:962   */\n      add\n        /* \"#utility.yul\":943:962   */\n      swap1\n      pop\n        /* \"#utility.yul\":602:968   */\n      swap2\n      swap1\n      pop\n      jump\t// out\n        /* \"#utility.yul\":974:1184   */\n    tag_9:\n        /* \"#utility.yul\":1061:1065   */\n      0x00\n        /* \"#utility.yul\":1099:1101   */\n      0x20\n        /* \"#utility.yul\":1088:1097   */\n      dup3\n        /* \"#utility.yul\":1084:1102   */\n      add\n        /* \"#utility.yul\":1076:1102   */\n      swap1\n      pop\n        /* \"#utility.yul\":1112:1177   */\n      tag_37\n        /* \"#utility.yul\":1174:1175   */\n      0x00\n        /* \"#utility.yul\":1163:1172   */\n      dup4\n        /* \"#utility.yul\":1159:1176   */\n      add\n        /* \"#utility.yul\":1150:1156   */\n      dup5\n        /* \"#utility.yul\":1112:1177   */\n      tag_26\n      jump\t// in\n    tag_37:\n        /* \"#utility.yul\":974:1184   */\n      swap3\n      swap2\n      pop\n      pop\n      jump\t// out\n        /* \"#utility.yul\":1190:1609   */\n    tag_15:\n        /* \"#utility.yul\":1356:1360   */\n      0x00\n        /* \"#utility.yul\":1394:1396   */\n      0x20\n        /* \"#utility.yul\":1383:1392   */\n      dup3\n        /* \"#utility.yul\":1379:1397   */\n      add\n        /* \"#utility.yul\":1371:1397   */\n      swap1\n      pop\n        /* \"#utility.yul\":1443:1452   */\n      dup2\n        /* \"#utility.yul\":1437:1441   */\n      dup2\n        /* \"#utility.yul\":1433:1453   */\n      sub\n        /* \"#utility.yul\":1429:1430   */\n      0x00\n        /* \"#utility.yul\":1418:1427   */\n      dup4\n        /* \"#utility.yul\":1414:1431   */\n      add\n        /* \"#utility.yul\":1407:1454   */\n      mstore\n        /* \"#utility.yul\":1471:1602   */\n      tag_39\n        /* \"#utility.yul\":1597:1601   */\n      dup2\n        /* \"#utility.yul\":1471:1602   */\n      tag_30\n      jump\t// in\n    tag_39:\n        /* \"#utility.yul\":1463:1602   */\n      swap1\n      pop\n        /* \"#utility.yul\":1190:1609   */\n      swap2\n      swap1\n      pop\n      jump\t// out\n        /* \"#utility.yul\":1696:1865   */\n    tag_33:\n        /* \"#utility.yul\":1780:1791   */\n      0x00\n        /* \"#utility.yul\":1814:1820   */\n      dup3\n        /* \"#utility.yul\":1809:1812   */\n      dup3\n        /* \"#utility.yul\":1802:1821   */\n      mstore\n        /* \"#utility.yul\":1854:1858   */\n      0x20\n        /* \"#utility.yul\":1849:1852   */\n      dup3\n        /* \"#utility.yul\":1845:1859   */\n      add\n        /* \"#utility.yul\":1830:1859   */\n      swap1\n      pop\n        /* \"#utility.yul\":1696:1865   */\n      swap3\n      swap2\n      pop\n      pop\n      jump\t// out\n        /* \"#utility.yul\":1871:1961   */\n    tag_29:\n        /* \"#utility.yul\":1905:1912   */\n      0x00\n        /* \"#utility.yul\":1948:1953   */\n      dup2\n        /* \"#utility.yul\":1941:1954   */\n      iszero\n        /* \"#utility.yul\":1934:1955   */\n      iszero\n        /* \"#utility.yul\":1923:1955   */\n      swap1\n      pop\n        /* \"#utility.yul\":1871:1961   */\n      swap2\n      swap1\n      pop\n      jump\t// out\n        /* \"#utility.yul\":1967:2044   */\n    tag_44:\n        /* \"#utility.yul\":2004:2011   */\n      0x00\n        /* \"#utility.yul\":2033:2038   */\n      dup2\n        /* \"#utility.yul\":2022:2038   */\n      swap1\n      pop\n        /* \"#utility.yul\":1967:2044   */\n      swap2\n      swap1\n      pop\n      jump\t// out\n        /* \"#utility.yul\":2050:2226   */\n    tag_12:\n        /* \"#utility.yul\":2082:2083   */\n      0x00\n        /* \"#utility.yul\":2099:2119   */\n      tag_47\n        /* \"#utility.yul\":2117:2118   */\n      dup3\n        /* \"#utility.yul\":2099:2119   */\n      tag_44\n      jump\t// in\n    tag_47:\n        /* \"#utility.yul\":2094:2119   */\n      swap2\n      pop\n        /* \"#utility.yul\":2133:2153   */\n      tag_48\n        /* \"#utility.yul\":2151:2152   */\n      dup4\n        /* \"#utility.yul\":2133:2153   */\n      tag_44\n      jump\t// in\n    tag_48:\n        /* \"#utility.yul\":2128:2153   */\n      swap3\n      pop\n        /* \"#utility.yul\":2172:2173   */\n      dup3\n        /* \"#utility.yul\":2162:2197   */\n      tag_49\n      jumpi\n        /* \"#utility.yul\":2177:2195   */\n      tag_50\n      tag_51\n      jump\t// in\n    tag_50:\n        /* \"#utility.yul\":2162:2197   */\n    tag_49:\n        /* \"#utility.yul\":2218:2219   */\n      dup3\n        /* \"#utility.yul\":2215:2216   */\n      dup3\n        /* \"#utility.yul\":2211:2220   */\n      mod\n        /* \"#utility.yul\":2206:2220   */\n      swap1\n      pop\n        /* \"#utility.yul\":2050:2226   */\n      swap3\n      swap2\n      pop\n      pop\n      jump\t// out\n        /* \"#utility.yul\":2232:2412   */\n    tag_51:\n        /* \"#utility.yul\":2280:2357   */\n      0x4e487b7100000000000000000000000000000000000000000000000000000000\n        /* \"#utility.yul\":2277:2278   */\n      0x00\n        /* \"#utility.yul\":2270:2358   */\n      mstore\n        /* \"#utility.yul\":2377:2381   */\n      0x12\n        /* \"#utility.yul\":2374:2375   */\n      0x04\n        /* \"#utility.yul\":2367:2382   */\n      mstore\n        /* \"#utility.yul\":2401:2405   */\n      0x24\n        /* \"#utility.yul\":2398:2399   */\n      0x00\n        /* \"#utility.yul\":2391:2406   */\n      revert\n        /* \"#utility.yul\":2541:2658   */\n    tag_24:\n        /* \"#utility.yul\":2650:2651   */\n      0x00\n        /* \"#utility.yul\":2647:2648   */\n      dup1\n        /* \"#utility.yul\":2640:2652   */\n      revert\n        /* \"#utility.yul\":2664:2828   */\n    tag_35:\n        /* \"#utility.yul\":2804:2820   */\n      0x5570732120526576657274696e67000000000000000000000000000000000000\n        /* \"#utility.yul\":2800:2801   */\n      0x00\n        /* \"#utility.yul\":2792:2798   */\n      dup3\n        /* \"#utility.yul\":2788:2802   */\n      add\n        /* \"#utility.yul\":2781:2821   */\n      mstore\n        /* \"#utility.yul\":2664:2828   */\n      pop\n      jump\t// out\n        /* \"#utility.yul\":2834:2956   */\n    tag_20:\n        /* \"#utility.yul\":2907:2931   */\n      tag_58\n        /* \"#utility.yul\":2925:2930   */\n      dup2\n        /* \"#utility.yul\":2907:2931   */\n      tag_44\n      jump\t// in\n    tag_58:\n        /* \"#utility.yul\":2900:2905   */\n      dup2\n        /* \"#utility.yul\":2897:2932   */\n      eq\n        /* \"#utility.yul\":2887:2950   */\n      tag_59\n      jumpi\n        /* \"#utility.yul\":2946:2947   */\n      0x00\n        /* \"#utility.yul\":2943:2944   */\n      dup1\n        /* \"#utility.yul\":2936:2948   */\n      revert\n        /* \"#utility.yul\":2887:2950   */\n    tag_59:\n        /* \"#utility.yul\":2834:2956   */\n      pop\n      jump\t// out\n\n    auxdata: 0xa264697066735822122005c688654b8e667726d8ea736c89a8c629ffd5c65023fb25e49585c060dc93bc64736f6c63430008070033\n}\n",
				"bytecode": {
					"linkReferences": {},
					"object": "608060405234801561001057600080fd5b5060405161041b38038061041b833981810160405281019061003291906100a3565b6000811415610076576040517f08c379a000000000000000000000000000000000000000000000000000000000815260040161006d906100f3565b60405180910390fd5b60018114156100885761008761012e565b5b506101a2565b60008151905061009d8161018b565b92915050565b6000602082840312156100b9576100b861015d565b5b60006100c78482850161008e565b91505092915050565b60006100dd600e83610113565b91506100e882610162565b602082019050919050565b6000602082019050818103600083015261010c816100d0565b9050919050565b600082825260208201905092915050565b6000819050919050565b7f4e487b7100000000000000000000000000000000000000000000000000000000600052600160045260246000fd5b600080fd5b7f696e76616c6964206e756d626572000000000000000000000000000000000000600082015250565b61019481610124565b811461019f57600080fd5b50565b61026a806101b16000396000f3fe608060405234801561001057600080fd5b506004361061002b5760003560e01c8063ce0b421314610030575b600080fd5b61004a600480360381019061004591906100ce565b610060565b604051610057919061012d565b60405180910390f35b600080600283610070919061018f565b146100b0576040517f08c379a00000000000000000000000000000000000000000000000000000000081526004016100a790610148565b60405180910390fd5b60019050919050565b6000813590506100c88161021d565b92915050565b6000602082840312156100e4576100e36101ef565b5b60006100f2848285016100b9565b91505092915050565b61010481610179565b82525050565b6000610117600e83610168565b9150610122826101f4565b602082019050919050565b600060208201905061014260008301846100fb565b92915050565b600060208201905081810360008301526101618161010a565b9050919050565b600082825260208201905092915050565b60008115159050919050565b6000819050919050565b600061019a82610185565b91506101a583610185565b9250826101b5576101b46101c0565b5b828206905092915050565b7f4e487b7100000000000000000000000000000000000000000000000000000000600052601260045260246000fd5b600080fd5b7f5570732120526576657274696e67000000000000000000000000000000000000600082015250565b61022681610185565b811461023157600080fd5b5056fea264697066735822122005c688654b8e667726d8ea736c89a8c629ffd5c65023fb25e49585c060dc93bc64736f6c63430008070033",
					"opcodes": "PUSH1 0x80 PUSH1 0x40 MSTORE CALLVALUE DUP1 ISZERO PUSH2 0x10 JUMPI PUSH1 0x0 DUP1 REVERT JUMPDEST POP PUSH1 0x40 MLOAD PUSH2 0x41B CODESIZE SUB DUP1 PUSH2 0x41B DUP4 CODECOPY DUP2 DUP2 ADD PUSH1 0x40 MSTORE DUP2 ADD SWAP1 PUSH2 0x32 SWAP2 SWAP1 PUSH2 0xA3 JUMP JUMPDEST PUSH1 0x0 DUP2 EQ ISZERO PUSH2 0x76 JUMPI PUSH1 0x40 MLOAD PUSH32 0x8C379A000000000000000000000000000000000000000000000000000000000 DUP2 MSTORE PUSH1 0x4 ADD PUSH2 0x6D SWAP1 PUSH2 0xF3 JUMP JUMPDEST PUSH1 0x40 MLOAD DUP1 SWAP2 SUB SWAP1 REVERT JUMPDEST PUSH1 0x1 DUP2 EQ ISZERO PUSH2 0x88 JUMPI PUSH2 0x87 PUSH2 0x12E JUMP JUMPDEST JUMPDEST POP PUSH2 0x1A2 JUMP JUMPDEST PUSH1 0x0 DUP2 MLOAD SWAP1 POP PUSH2 0x9D DUP2 PUSH2 0x18B JUMP JUMPDEST SWAP3 SWAP2 POP POP JUMP JUMPDEST PUSH1 0x0 PUSH1 0x20 DUP3 DUP5 SUB SLT ISZERO PUSH2 0xB9 JUMPI PUSH2 0xB8 PUSH2 0x15D JUMP JUMPDEST JUMPDEST PUSH1 0x0 PUSH2 0xC7 DUP5 DUP3 DUP6 ADD PUSH2 0x8E JUMP JUMPDEST SWAP2 POP POP SWAP3 SWAP2 POP POP JUMP JUMPDEST PUSH1 0x0 PUSH2 0xDD PUSH1 0xE DUP4 PUSH2 0x113 JUMP JUMPDEST SWAP2 POP PUSH2 0xE8 DUP3 PUSH2 0x162 JUMP JUMPDEST PUSH1 0x20 DUP3 ADD SWAP1 POP SWAP2 SWAP1 POP JUMP JUMPDEST PUSH1 0x0 PUSH1 0x20 DUP3 ADD SWAP1 POP DUP2 DUP2 SUB PUSH1 0x0 DUP4 ADD MSTORE PUSH2 0x10C DUP2 PUSH2 0xD0 JUMP JUMPDEST SWAP1 POP SWAP2 SWAP1 POP JUMP JUMPDEST PUSH1 0x0 DUP3 DUP3 MSTORE PUSH1 0x20 DUP3 ADD SWAP1 POP SWAP3 SWAP2 POP POP JUMP JUMPDEST PUSH1 0x0 DUP2 SWAP1 POP SWAP2 SWAP1 POP JUMP JUMPDEST PUSH32 0x4E487B7100000000000000000000000000000000000000000000000000000000 PUSH1 0x0 MSTORE PUSH1 0x1 PUSH1 0x4 MSTORE PUSH1 0x24 PUSH1 0x0 REVERT JUMPDEST PUSH1 0x0 DUP1 REVERT JUMPDEST PUSH32 0x696E76616C6964206E756D626572000000000000000000000000000000000000 PUSH1 0x0 DUP3 ADD MSTORE POP JUMP JUMPDEST PUSH2 0x194 DUP2 PUSH2 0x124 JUMP JUMPDEST DUP2 EQ PUSH2 0x19F JUMPI PUSH1 0x0 DUP1 REVERT JUMPDEST POP JUMP JUMPDEST PUSH2 0x26A DUP1 PUSH2 0x1B1 PUSH1 0x0 CODECOPY PUSH1 0x0 RETURN INVALID PUSH1 0x80 PUSH1 0x40 MSTORE CALLVALUE DUP1 ISZERO PUSH2 0x10 JUMPI PUSH1 0x0 DUP1 REVERT JUMPDEST POP PUSH1 0x4 CALLDATASIZE LT PUSH2 0x2B JUMPI PUSH1 0x0 CALLDATALOAD PUSH1 0xE0 SHR DUP1 PUSH4 0xCE0B4213 EQ PUSH2 0x30 JUMPI JUMPDEST PUSH1 0x0 DUP1 REVERT JUMPDEST PUSH2 0x4A PUSH1 0x4 DUP1 CALLDATASIZE SUB DUP2 ADD SWAP1 PUSH2 0x45 SWAP2 SWAP1 PUSH2 0xCE JUMP JUMPDEST PUSH2 0x60 JUMP JUMPDEST PUSH1 0x40 MLOAD PUSH2 0x57 SWAP2 SWAP1 PUSH2 0x12D JUMP JUMPDEST PUSH1 0x40 MLOAD DUP1 SWAP2 SUB SWAP1 RETURN JUMPDEST PUSH1 0x0 DUP1 PUSH1 0x2 DUP4 PUSH2 0x70 SWAP2 SWAP1 PUSH2 0x18F JUMP JUMPDEST EQ PUSH2 0xB0 JUMPI PUSH1 0x40 MLOAD PUSH32 0x8C379A000000000000000000000000000000000000000000000000000000000 DUP2 MSTORE PUSH1 0x4 ADD PUSH2 0xA7 SWAP1 PUSH2 0x148 JUMP JUMPDEST PUSH1 0x40 MLOAD DUP1 SWAP2 SUB SWAP1 REVERT JUMPDEST PUSH1 0x1 SWAP1 POP SWAP2 SWAP1 POP JUMP JUMPDEST PUSH1 0x0 DUP2 CALLDATALOAD SWAP1 POP PUSH2 0xC8 DUP2 PUSH2 0x21D JUMP JUMPDEST SWAP3 SWAP2 POP POP JUMP JUMPDEST PUSH1 0x0 PUSH1 0x20 DUP3 DUP5 SUB SLT ISZERO PUSH2 0xE4 JUMPI PUSH2 0xE3 PUSH2 0x1EF JUMP JUMPDEST JUMPDEST PUSH1 0x0 PUSH2 0xF2 DUP5 DUP3 DUP6 ADD PUSH2 0xB9 JUMP JUMPDEST SWAP2 POP POP SWAP3 SWAP2 POP POP JUMP JUMPDEST PUSH2 0x104 DUP2 PUSH2 0x179 JUMP JUMPDEST DUP3 MSTORE POP POP JUMP JUMPDEST PUSH1 0x0 PUSH2 0x117 PUSH1 0xE DUP4 PUSH2 0x168 JUMP JUMPDEST SWAP2 POP PUSH2 0x122 DUP3 PUSH2 0x1F4 JUMP JUMPDEST PUSH1 0x20 DUP3 ADD SWAP1 POP SWAP2 SWAP1 POP JUMP JUMPDEST PUSH1 0x0 PUSH1 0x20 DUP3 ADD SWAP1 POP PUSH2 0x142 PUSH1 0x0 DUP4 ADD DUP5 PUSH2 0xFB JUMP JUMPDEST SWAP3 SWAP2 POP POP JUMP JUMPDEST PUSH1 0x0 PUSH1 0x20 DUP3 ADD SWAP1 POP DUP2 DUP2 SUB PUSH1 0x0 DUP4 ADD MSTORE PUSH2 0x161 DUP2 PUSH2 0x10A JUMP JUMPDEST SWAP1 POP SWAP2 SWAP1 POP JUMP JUMPDEST PUSH1 0x0 DUP3 DUP3 MSTORE PUSH1 0x20 DUP3 ADD SWAP1 POP SWAP3 SWAP2 POP POP JUMP JUMPDEST PUSH1 0x0 DUP2 ISZERO ISZERO SWAP1 POP SWAP2 SWAP1 POP JUMP JUMPDEST PUSH1 0x0 DUP2 SWAP1 POP SWAP2 SWAP1 POP JUMP JUMPDEST PUSH1 0x0 PUSH2 0x19A DUP3 PUSH2 0x185 JUMP JUMPDEST SWAP2 POP PUSH2 0x1A5 DUP4 PUSH2 0x185 JUMP JUMPDEST SWAP3 POP DUP3 PUSH2 0x1B5 JUMPI PUSH2 0x1B4 PUSH2 0x1C0 JUMP JUMPDEST JUMPDEST DUP3 DUP3 MOD SWAP1 POP SWAP3 SWAP2 POP POP JUMP JUMPDEST PUSH32 0x4E487B7100000000000000000000000000000000000000000000000000000000 PUSH1 0x0 MSTORE PUSH1 0x12 PUSH1 0x4 MSTORE PUSH1 0x24 PUSH1 0x0 REVERT JUMPDEST PUSH1 0x0 DUP1 REVERT JUMPDEST PUSH32 0x5570732120526576657274696E67000000000000000000000000000000000000 PUSH1 0x0 DUP3 ADD MSTORE POP JUMP JUMPDEST PUSH2 0x226 DUP2 PUSH2 0x185 JUMP JUMPDEST DUP2 EQ PUSH2 0x231 JUMPI PUSH1 0x0 DUP1 REVERT JUMPDEST POP JUMP INVALID LOG2 PUSH5 0x6970667358 0x22 SLT KECCAK256 SDIV 0xC6 DUP9 PUSH6 0x4B8E667726D8 0xEA PUSH20 0x6C89A8C629FFD5C65023FB25E49585C060DC93BC PUSH5 0x736F6C6343 STOP ADDMOD SMOD STOP CALLER "
				},
				"gasEstimates": {
					"creation": {
						"codeDepositCost": "123600",
						"executionCost": "infinite",
						"totalCost": "infinite"
					},
					"external": {
						"onlyEven(uint256)": "infinite"
					}
				},
				"methodIdentifiers": {
					"onlyEven(uint256)": "ce0b4213"
				}
			},
			"storageLayout": {
				"storage": [],
				"types": null
			},
			"userdoc": {
				"kind": "user",
				"methods": {},
				"version": 1
			}
		}
	}
}