{
	"contract/24_DeleteContract.sol": {
		"DeleteContract": {
			"abi": [
				{
					"inputs": [],
					"stateMutability": "payable",
					"type": "constructor"
				},
				{
					"inputs": [],
					"name": "deleteContract",
					"outputs": [],
					"stateMutability": "nonpayable",
					"type": "function"
				},
				{
					"inputs": [],
					"name": "getBalance",
					"outputs": [
						{
							"internalType": "uint256",
							"name": "balance",
							"type": "uint256"
						}
					],
					"stateMutability": "view",
					"type": "function"
				},
				{
					"inputs": [],
					"name": "value",
					"outputs": [
						{
							"internalType": "uint256",
							"name": "",
							"type": "uint256"
						}
					],
					"stateMutability": "view",
					"type": "function"
				},
				{
					"stateMutability": "payable",
					"type": "receive"
				}
			],
			"devdoc": {
				"kind": "dev",
				"methods": {},
				"version": 1
			},
			"evm": {
				"assembly": "    /* \"contract/24_DeleteContract.sol\":60:610  contract DeleteContract {\r... */\n  mstore(0x40, 0x80)\n    /* \"contract/24_DeleteContract.sol\":245:247  10 */\n  0x0a\n    /* \"contract/24_DeleteContract.sol\":225:247  uint public value = 10 */\n  0x00\n  sstore\n    /* \"contract/24_DeleteContract.sol\":60:610  contract DeleteContract {\r... */\n  dataSize(sub_0)\n  dup1\n  dataOffset(sub_0)\n  0x00\n  codecopy\n  0x00\n  return\nstop\n\nsub_0: assembly {\n        /* \"contract/24_DeleteContract.sol\":60:610  contract DeleteContract {\r... */\n      mstore(0x40, 0x80)\n      jumpi(tag_1, lt(calldatasize, 0x04))\n      shr(0xe0, calldataload(0x00))\n      dup1\n      0x12065fe0\n      eq\n      tag_3\n      jumpi\n      dup1\n      0x3fa4f245\n      eq\n      tag_4\n      jumpi\n      dup1\n      0x5a58cd4c\n      eq\n      tag_5\n      jumpi\n      jump(tag_2)\n    tag_1:\n      jumpi(tag_2, calldatasize)\n      stop\n    tag_2:\n      0x00\n      dup1\n      revert\n        /* \"contract/24_DeleteContract.sol\":500:607  function getBalance() external view returns(uint balance){\r... */\n    tag_3:\n      callvalue\n      dup1\n      iszero\n      tag_8\n      jumpi\n      0x00\n      dup1\n      revert\n    tag_8:\n      pop\n      tag_9\n      tag_10\n      jump\t// in\n    tag_9:\n      mload(0x40)\n      tag_11\n      swap2\n      swap1\n      tag_12\n      jump\t// in\n    tag_11:\n      mload(0x40)\n      dup1\n      swap2\n      sub\n      swap1\n      return\n        /* \"contract/24_DeleteContract.sol\":225:247  uint public value = 10 */\n    tag_4:\n      callvalue\n      dup1\n      iszero\n      tag_13\n      jumpi\n      0x00\n      dup1\n      revert\n    tag_13:\n      pop\n      tag_14\n      tag_15\n      jump\t// in\n    tag_14:\n      mload(0x40)\n      tag_16\n      swap2\n      swap1\n      tag_12\n      jump\t// in\n    tag_16:\n      mload(0x40)\n      dup1\n      swap2\n      sub\n      swap1\n      return\n        /* \"contract/24_DeleteContract.sol\":325:492  function deleteContract() external {\r... */\n    tag_5:\n      callvalue\n      dup1\n      iszero\n      tag_17\n      jumpi\n      0x00\n      dup1\n      revert\n    tag_17:\n      pop\n      tag_18\n      tag_19\n      jump\t// in\n    tag_18:\n      stop\n        /* \"contract/24_DeleteContract.sol\":500:607  function getBalance() external view returns(uint balance){\r... */\n    tag_10:\n        /* \"contract/24_DeleteContract.sol\":544:556  uint balance */\n      0x00\n        /* \"contract/24_DeleteContract.sol\":578:599  address(this).balance */\n      selfbalance\n        /* \"contract/24_DeleteContract.sol\":568:599  balance = address(this).balance */\n      swap1\n      pop\n        /* \"contract/24_DeleteContract.sol\":500:607  function getBalance() external view returns(uint balance){\r... */\n      swap1\n      jump\t// out\n        /* \"contract/24_DeleteContract.sol\":225:247  uint public value = 10 */\n    tag_15:\n      sload(0x00)\n      dup2\n      jump\t// out\n        /* \"contract/24_DeleteContract.sol\":325:492  function deleteContract() external {\r... */\n    tag_19:\n        /* \"contract/24_DeleteContract.sol\":472:482  msg.sender */\n      caller\n        /* \"contract/24_DeleteContract.sol\":451:484  selfdestruct(payable(msg.sender)) */\n      0xffffffffffffffffffffffffffffffffffffffff\n      and\n      selfdestruct\n        /* \"#utility.yul\":7:125   */\n    tag_23:\n        /* \"#utility.yul\":94:118   */\n      tag_25\n        /* \"#utility.yul\":112:117   */\n      dup2\n        /* \"#utility.yul\":94:118   */\n      tag_26\n      jump\t// in\n    tag_25:\n        /* \"#utility.yul\":89:92   */\n      dup3\n        /* \"#utility.yul\":82:119   */\n      mstore\n        /* \"#utility.yul\":7:125   */\n      pop\n      pop\n      jump\t// out\n        /* \"#utility.yul\":131:353   */\n    tag_12:\n        /* \"#utility.yul\":224:228   */\n      0x00\n        /* \"#utility.yul\":262:264   */\n      0x20\n        /* \"#utility.yul\":251:260   */\n      dup3\n        /* \"#utility.yul\":247:265   */\n      add\n        /* \"#utility.yul\":239:265   */\n      swap1\n      pop\n        /* \"#utility.yul\":275:346   */\n      tag_28\n        /* \"#utility.yul\":343:344   */\n      0x00\n        /* \"#utility.yul\":332:341   */\n      dup4\n        /* \"#utility.yul\":328:345   */\n      add\n        /* \"#utility.yul\":319:325   */\n      dup5\n        /* \"#utility.yul\":275:346   */\n      tag_23\n      jump\t// in\n    tag_28:\n        /* \"#utility.yul\":131:353   */\n      swap3\n      swap2\n      pop\n      pop\n      jump\t// out\n        /* \"#utility.yul\":359:436   */\n    tag_26:\n        /* \"#utility.yul\":396:403   */\n      0x00\n        /* \"#utility.yul\":425:430   */\n      dup2\n        /* \"#utility.yul\":414:430   */\n      swap1\n      pop\n        /* \"#utility.yul\":359:436   */\n      swap2\n      swap1\n      pop\n      jump\t// out\n\n    auxdata: 0xa26469706673582212204c286472d4edeeeec74bd1481a83a340bed60e9eae92086f48bfcfda7d1cc95c64736f6c63430008070033\n}\n",
				"bytecode": {
					"linkReferences": {},
					"object": "6080604052600a60005561012b806100186000396000f3fe60806040526004361060335760003560e01c806312065fe014603e5780633fa4f2451460645780635a58cd4c14608a576039565b36603957005b600080fd5b348015604957600080fd5b506050609e565b604051605b919060d2565b60405180910390f35b348015606f57600080fd5b50607660a6565b6040516081919060d2565b60405180910390f35b348015609557600080fd5b50609c60ac565b005b600047905090565b60005481565b3373ffffffffffffffffffffffffffffffffffffffff16ff5b60cc8160eb565b82525050565b600060208201905060e5600083018460c5565b92915050565b600081905091905056fea26469706673582212204c286472d4edeeeec74bd1481a83a340bed60e9eae92086f48bfcfda7d1cc95c64736f6c63430008070033",
					"opcodes": "PUSH1 0x80 PUSH1 0x40 MSTORE PUSH1 0xA PUSH1 0x0 SSTORE PUSH2 0x12B DUP1 PUSH2 0x18 PUSH1 0x0 CODECOPY PUSH1 0x0 RETURN INVALID PUSH1 0x80 PUSH1 0x40 MSTORE PUSH1 0x4 CALLDATASIZE LT PUSH1 0x33 JUMPI PUSH1 0x0 CALLDATALOAD PUSH1 0xE0 SHR DUP1 PUSH4 0x12065FE0 EQ PUSH1 0x3E JUMPI DUP1 PUSH4 0x3FA4F245 EQ PUSH1 0x64 JUMPI DUP1 PUSH4 0x5A58CD4C EQ PUSH1 0x8A JUMPI PUSH1 0x39 JUMP JUMPDEST CALLDATASIZE PUSH1 0x39 JUMPI STOP JUMPDEST PUSH1 0x0 DUP1 REVERT JUMPDEST CALLVALUE DUP1 ISZERO PUSH1 0x49 JUMPI PUSH1 0x0 DUP1 REVERT JUMPDEST POP PUSH1 0x50 PUSH1 0x9E JUMP JUMPDEST PUSH1 0x40 MLOAD PUSH1 0x5B SWAP2 SWAP1 PUSH1 0xD2 JUMP JUMPDEST PUSH1 0x40 MLOAD DUP1 SWAP2 SUB SWAP1 RETURN JUMPDEST CALLVALUE DUP1 ISZERO PUSH1 0x6F JUMPI PUSH1 0x0 DUP1 REVERT JUMPDEST POP PUSH1 0x76 PUSH1 0xA6 JUMP JUMPDEST PUSH1 0x40 MLOAD PUSH1 0x81 SWAP2 SWAP1 PUSH1 0xD2 JUMP JUMPDEST PUSH1 0x40 MLOAD DUP1 SWAP2 SUB SWAP1 RETURN JUMPDEST CALLVALUE DUP1 ISZERO PUSH1 0x95 JUMPI PUSH1 0x0 DUP1 REVERT JUMPDEST POP PUSH1 0x9C PUSH1 0xAC JUMP JUMPDEST STOP JUMPDEST PUSH1 0x0 SELFBALANCE SWAP1 POP SWAP1 JUMP JUMPDEST PUSH1 0x0 SLOAD DUP2 JUMP JUMPDEST CALLER PUSH20 0xFFFFFFFFFFFFFFFFFFFFFFFFFFFFFFFFFFFFFFFF AND SELFDESTRUCT JUMPDEST PUSH1 0xCC DUP2 PUSH1 0xEB JUMP JUMPDEST DUP3 MSTORE POP POP JUMP JUMPDEST PUSH1 0x0 PUSH1 0x20 DUP3 ADD SWAP1 POP PUSH1 0xE5 PUSH1 0x0 DUP4 ADD DUP5 PUSH1 0xC5 JUMP JUMPDEST SWAP3 SWAP2 POP POP JUMP JUMPDEST PUSH1 0x0 DUP2 SWAP1 POP SWAP2 SWAP1 POP JUMP INVALID LOG2 PUSH5 0x6970667358 0x22 SLT KECCAK256 0x4C 0x28 PUSH5 0x72D4EDEEEE 0xC7 0x4B 0xD1 BASEFEE BYTE DUP4 LOG3 BLOCKHASH 0xBE 0xD6 0xE SWAP15 0xAE SWAP3 ADDMOD PUSH16 0x48BFCFDA7D1CC95C64736F6C63430008 SMOD STOP CALLER "
				},
				"gasEstimates": {
					"creation": {
						"codeDepositCost": "59800",
						"executionCost": "22193",
						"totalCost": "81993"
					},
					"external": {
						"deleteContract()": "27765",
						"getBalance()": "317",
						"value()": "2429"
					}
				},
				"methodIdentifiers": {
					"deleteContract()": "5a58cd4c",
					"getBalance()": "12065fe0",
					"value()": "3fa4f245"
				}
			},
			"storageLayout": {
				"storage": [
					{
						"astId": 4,
						"contract": "contract/24_DeleteContract.sol:DeleteContract",
						"label": "value",
						"offset": 0,
						"slot": "0",
						"type": "t_uint256"
					}
				],
				"types": {
					"t_uint256": {
						"encoding": "inplace",
						"label": "uint256",
						"numberOfBytes": "32"
					}
				}
			},
			"userdoc": {
				"kind": "user",
				"methods": {},
				"version": 1
			}
		}
	}
}