{
	"contract/05_DataStorageAndScope.sol": {
		"DataStorageAndScope": {
			"abi": [
				{
					"inputs": [],
					"name": "a",
					"outputs": [
						{
							"internalType": "uint256",
							"name": "",
							"type": "uint256"
						}
					],
					"stateMutability": "view",
					"type": "function"
				},
				{
					"inputs": [],
					"name": "b",
					"outputs": [
						{
							"internalType": "uint256",
							"name": "",
							"type": "uint256"
						}
					],
					"stateMutability": "view",
					"type": "function"
				},
				{
					"inputs": [],
					"name": "bar",
					"outputs": [
						{
							"internalType": "uint256",
							"name": "",
							"type": "uint256"
						}
					],
					"stateMutability": "pure",
					"type": "function"
				},
				{
					"inputs": [],
					"name": "c",
					"outputs": [
						{
							"internalType": "string",
							"name": "",
							"type": "string"
						}
					],
					"stateMutability": "view",
					"type": "function"
				},
				{
					"inputs": [
						{
							"internalType": "uint256[]",
							"name": "_x",
							"type": "uint256[]"
						}
					],
					"name": "fCalldata",
					"outputs": [
						{
							"internalType": "uint256[]",
							"name": "",
							"type": "uint256[]"
						}
					],
					"stateMutability": "pure",
					"type": "function"
				},
				{
					"inputs": [],
					"name": "fMemory",
					"outputs": [],
					"stateMutability": "view",
					"type": "function"
				},
				{
					"inputs": [],
					"name": "fStorage",
					"outputs": [],
					"stateMutability": "nonpayable",
					"type": "function"
				},
				{
					"inputs": [],
					"name": "foo",
					"outputs": [],
					"stateMutability": "nonpayable",
					"type": "function"
				},
				{
					"inputs": [],
					"name": "globalVariable",
					"outputs": [
						{
							"internalType": "address",
							"name": "",
							"type": "address"
						},
						{
							"internalType": "uint256",
							"name": "",
							"type": "uint256"
						},
						{
							"internalType": "bytes",
							"name": "",
							"type": "bytes"
						}
					],
					"stateMutability": "payable",
					"type": "function"
				}
			],
			"devdoc": {
				"kind": "dev",
				"methods": {},
				"version": 1
			},
			"evm": {
				"assembly": "    /* \"contract/05_DataStorageAndScope.sol\":60:4270  contract DataStorageAndScope {\r... */\n  mstore(0x40, 0x80)\n    /* \"contract/05_DataStorageAndScope.sol\":674:675  1 */\n  0x01\n    /* \"contract/05_DataStorageAndScope.sol\":658:675  uint public a = 1 */\n  0x00\n  sstore\n    /* \"contract/05_DataStorageAndScope.sol\":3869:3887  uint[] x = [1,2,3] */\n  mload(0x40)\n  dup1\n  0x60\n  add\n  0x40\n  mstore\n  dup1\n    /* \"contract/05_DataStorageAndScope.sol\":3881:3882  1 */\n  0x01\n    /* \"contract/05_DataStorageAndScope.sol\":3869:3887  uint[] x = [1,2,3] */\n  0xff\n  and\n  dup2\n  mstore\n  0x20\n  add\n    /* \"contract/05_DataStorageAndScope.sol\":3883:3884  2 */\n  0x02\n    /* \"contract/05_DataStorageAndScope.sol\":3869:3887  uint[] x = [1,2,3] */\n  0xff\n  and\n  dup2\n  mstore\n  0x20\n  add\n    /* \"contract/05_DataStorageAndScope.sol\":3885:3886  3 */\n  0x03\n    /* \"contract/05_DataStorageAndScope.sol\":3869:3887  uint[] x = [1,2,3] */\n  0xff\n  and\n  dup2\n  mstore\n  pop\n  0x03\n  swap1\n  0x03\n  tag_1\n  swap3\n  swap2\n  swap1\n  tag_2\n  jump\t// in\ntag_1:\n  pop\n    /* \"contract/05_DataStorageAndScope.sol\":60:4270  contract DataStorageAndScope {\r... */\n  callvalue\n  dup1\n  iszero\n  tag_3\n  jumpi\n  0x00\n  dup1\n  revert\ntag_3:\n  pop\n  jump(tag_4)\ntag_2:\n  dup3\n  dup1\n  sload\n  dup3\n  dup3\n  sstore\n  swap1\n  0x00\n  mstore\n  keccak256(0x00, 0x20)\n  swap1\n  dup2\n  add\n  swap3\n  dup3\n  iszero\n  tag_5\n  jumpi\n  swap2\n  0x20\n  mul\n  dup3\n  add\ntag_6:\n  dup3\n  dup2\n  gt\n  iszero\n  tag_7\n  jumpi\n  dup3\n  mload\n  dup3\n  swap1\n  0xff\n  and\n  swap1\n  sstore\n  swap2\n  0x20\n  add\n  swap2\n  swap1\n  0x01\n  add\n  swap1\n  jump(tag_6)\ntag_7:\ntag_5:\n  pop\n  swap1\n  pop\n  tag_8\n  swap2\n  swap1\n  tag_9\n  jump\t// in\ntag_8:\n  pop\n  swap1\n  jump\t// out\ntag_9:\ntag_10:\n  dup1\n  dup3\n  gt\n  iszero\n  tag_11\n  jumpi\n  0x00\n  dup2\n  0x00\n  swap1\n  sstore\n  pop\n  0x01\n  add\n  jump(tag_10)\ntag_11:\n  pop\n  swap1\n  jump\t// out\ntag_4:\n  dataSize(sub_0)\n  dup1\n  dataOffset(sub_0)\n  0x00\n  codecopy\n  0x00\n  return\nstop\n\nsub_0: assembly {\n        /* \"contract/05_DataStorageAndScope.sol\":60:4270  contract DataStorageAndScope {\r... */\n      mstore(0x40, 0x80)\n      jumpi(tag_1, lt(calldatasize, 0x04))\n      shr(0xe0, calldataload(0x00))\n      dup1\n      0x6a8d1e08\n      gt\n      tag_11\n      jumpi\n      dup1\n      0x6a8d1e08\n      eq\n      tag_6\n      jumpi\n      dup1\n      0x9b1a379c\n      eq\n      tag_7\n      jumpi\n      dup1\n      0xc2985578\n      eq\n      tag_8\n      jumpi\n      dup1\n      0xc3da42b8\n      eq\n      tag_9\n      jumpi\n      dup1\n      0xfebb0f7e\n      eq\n      tag_10\n      jumpi\n      jump(tag_1)\n    tag_11:\n      dup1\n      0x0dbe671f\n      eq\n      tag_2\n      jumpi\n      dup1\n      0x20028990\n      eq\n      tag_3\n      jumpi\n      dup1\n      0x4048d797\n      eq\n      tag_4\n      jumpi\n      dup1\n      0x4df7e3d0\n      eq\n      tag_5\n      jumpi\n    tag_1:\n      0x00\n      dup1\n      revert\n        /* \"contract/05_DataStorageAndScope.sol\":658:675  uint public a = 1 */\n    tag_2:\n      callvalue\n      dup1\n      iszero\n      tag_12\n      jumpi\n      0x00\n      dup1\n      revert\n    tag_12:\n      pop\n      tag_13\n      tag_14\n      jump\t// in\n    tag_13:\n      mload(0x40)\n      tag_15\n      swap2\n      swap1\n      tag_16\n      jump\t// in\n    tag_15:\n      mload(0x40)\n      dup1\n      swap2\n      sub\n      swap1\n      return\n        /* \"contract/05_DataStorageAndScope.sol\":4118:4267  function fMemory() public view {\r... */\n    tag_3:\n      callvalue\n      dup1\n      iszero\n      tag_17\n      jumpi\n      0x00\n      dup1\n      revert\n    tag_17:\n      pop\n      tag_18\n      tag_19\n      jump\t// in\n    tag_18:\n      stop\n        /* \"contract/05_DataStorageAndScope.sol\":1054:2452  function globalVariable() external payable returns(address, uint, bytes memory) {\r... */\n    tag_4:\n      tag_20\n      tag_21\n      jump\t// in\n    tag_20:\n      mload(0x40)\n      tag_22\n      swap4\n      swap3\n      swap2\n      swap1\n      tag_23\n      jump\t// in\n    tag_22:\n      mload(0x40)\n      dup1\n      swap2\n      sub\n      swap1\n      return\n        /* \"contract/05_DataStorageAndScope.sol\":682:695  uint public b */\n    tag_5:\n      callvalue\n      dup1\n      iszero\n      tag_24\n      jumpi\n      0x00\n      dup1\n      revert\n    tag_24:\n      pop\n      tag_25\n      tag_26\n      jump\t// in\n    tag_25:\n      mload(0x40)\n      tag_27\n      swap2\n      swap1\n      tag_16\n      jump\t// in\n    tag_27:\n      mload(0x40)\n      dup1\n      swap2\n      sub\n      swap1\n      return\n        /* \"contract/05_DataStorageAndScope.sol\":3921:4110  function fStorage() public{\r... */\n    tag_6:\n      callvalue\n      dup1\n      iszero\n      tag_28\n      jumpi\n      0x00\n      dup1\n      revert\n    tag_28:\n      pop\n      tag_29\n      tag_30\n      jump\t// in\n    tag_29:\n      stop\n        /* \"contract/05_DataStorageAndScope.sol\":3656:3859  function fCalldata(uint[] calldata _x) public pure returns(uint[] calldata){\r... */\n    tag_7:\n      callvalue\n      dup1\n      iszero\n      tag_31\n      jumpi\n      0x00\n      dup1\n      revert\n    tag_31:\n      pop\n      tag_32\n      0x04\n      dup1\n      calldatasize\n      sub\n      dup2\n      add\n      swap1\n      tag_33\n      swap2\n      swap1\n      tag_34\n      jump\t// in\n    tag_33:\n      tag_35\n      jump\t// in\n    tag_32:\n      mload(0x40)\n      tag_36\n      swap3\n      swap2\n      swap1\n      tag_37\n      jump\t// in\n    tag_36:\n      mload(0x40)\n      dup1\n      swap2\n      sub\n      swap1\n      return\n        /* \"contract/05_DataStorageAndScope.sol\":775:857  function foo() external {\r... */\n    tag_8:\n      callvalue\n      dup1\n      iszero\n      tag_38\n      jumpi\n      0x00\n      dup1\n      revert\n    tag_38:\n      pop\n      tag_39\n      tag_40\n      jump\t// in\n    tag_39:\n      stop\n        /* \"contract/05_DataStorageAndScope.sol\":702:717  string public c */\n    tag_9:\n      callvalue\n      dup1\n      iszero\n      tag_41\n      jumpi\n      0x00\n      dup1\n      revert\n    tag_41:\n      pop\n      tag_42\n      tag_43\n      jump\t// in\n    tag_42:\n      mload(0x40)\n      tag_44\n      swap2\n      swap1\n      tag_45\n      jump\t// in\n    tag_44:\n      mload(0x40)\n      dup1\n      swap2\n      sub\n      swap1\n      return\n        /* \"contract/05_DataStorageAndScope.sol\":886:1023  function bar() external pure returns(uint) {\r... */\n    tag_10:\n      callvalue\n      dup1\n      iszero\n      tag_46\n      jumpi\n      0x00\n      dup1\n      revert\n    tag_46:\n      pop\n      tag_47\n      tag_48\n      jump\t// in\n    tag_47:\n      mload(0x40)\n      tag_49\n      swap2\n      swap1\n      tag_16\n      jump\t// in\n    tag_49:\n      mload(0x40)\n      dup1\n      swap2\n      sub\n      swap1\n      return\n        /* \"contract/05_DataStorageAndScope.sol\":658:675  uint public a = 1 */\n    tag_14:\n      sload(0x00)\n      dup2\n      jump\t// out\n        /* \"contract/05_DataStorageAndScope.sol\":4118:4267  function fMemory() public view {\r... */\n    tag_19:\n        /* \"contract/05_DataStorageAndScope.sol\":4160:4181  uint[] memory xMemory */\n      0x00\n        /* \"contract/05_DataStorageAndScope.sol\":4184:4185  x */\n      0x03\n        /* \"contract/05_DataStorageAndScope.sol\":4160:4185  uint[] memory xMemory = x */\n      dup1\n      sload\n      dup1\n      0x20\n      mul\n      0x20\n      add\n      mload(0x40)\n      swap1\n      dup2\n      add\n      0x40\n      mstore\n      dup1\n      swap3\n      swap2\n      swap1\n      dup2\n      dup2\n      mstore\n      0x20\n      add\n      dup3\n      dup1\n      sload\n      dup1\n      iszero\n      tag_51\n      jumpi\n      0x20\n      mul\n      dup3\n      add\n      swap2\n      swap1\n      0x00\n      mstore\n      keccak256(0x00, 0x20)\n      swap1\n    tag_52:\n      dup2\n      sload\n      dup2\n      mstore\n      0x20\n      add\n      swap1\n      0x01\n      add\n      swap1\n      dup1\n      dup4\n      gt\n      tag_52\n      jumpi\n    tag_51:\n      pop\n      pop\n      pop\n      pop\n      pop\n      swap1\n      pop\n        /* \"contract/05_DataStorageAndScope.sol\":4256:4259  100 */\n      0x64\n        /* \"contract/05_DataStorageAndScope.sol\":4243:4250  xMemory */\n      dup2\n        /* \"contract/05_DataStorageAndScope.sol\":4251:4252  0 */\n      0x00\n        /* \"contract/05_DataStorageAndScope.sol\":4243:4253  xMemory[0] */\n      dup2\n      mload\n      dup2\n      lt\n      tag_53\n      jumpi\n      tag_54\n      tag_55\n      jump\t// in\n    tag_54:\n    tag_53:\n      0x20\n      mul\n      0x20\n      add\n      add\n        /* \"contract/05_DataStorageAndScope.sol\":4243:4259  xMemory[0] = 100 */\n      dup2\n      dup2\n      mstore\n      pop\n      pop\n        /* \"contract/05_DataStorageAndScope.sol\":4149:4267  {\r... */\n      pop\n        /* \"contract/05_DataStorageAndScope.sol\":4118:4267  function fMemory() public view {\r... */\n      jump\t// out\n        /* \"contract/05_DataStorageAndScope.sol\":1054:2452  function globalVariable() external payable returns(address, uint, bytes memory) {\r... */\n    tag_21:\n        /* \"contract/05_DataStorageAndScope.sol\":1105:1112  address */\n      0x00\n        /* \"contract/05_DataStorageAndScope.sol\":1114:1118  uint */\n      dup1\n        /* \"contract/05_DataStorageAndScope.sol\":1120:1132  bytes memory */\n      0x60\n        /* \"contract/05_DataStorageAndScope.sol\":1233:1247  address sender */\n      0x00\n        /* \"contract/05_DataStorageAndScope.sol\":1250:1260  msg.sender */\n      caller\n        /* \"contract/05_DataStorageAndScope.sol\":1233:1260  address sender = msg.sender */\n      swap1\n      pop\n        /* \"contract/05_DataStorageAndScope.sol\":1296:1309  uint blockNum */\n      0x00\n        /* \"contract/05_DataStorageAndScope.sol\":1312:1324  block.number */\n      number\n        /* \"contract/05_DataStorageAndScope.sol\":1296:1324  uint blockNum = block.number */\n      swap1\n      pop\n        /* \"contract/05_DataStorageAndScope.sol\":1382:1399  bytes memory data */\n      0x00\n        /* \"contract/05_DataStorageAndScope.sol\":1402:1410  msg.data */\n      dup1\n      calldatasize\n        /* \"contract/05_DataStorageAndScope.sol\":1382:1410  bytes memory data = msg.data */\n      dup1\n      dup1\n      0x1f\n      add\n      0x20\n      dup1\n      swap2\n      div\n      mul\n      0x20\n      add\n      mload(0x40)\n      swap1\n      dup2\n      add\n      0x40\n      mstore\n      dup1\n      swap4\n      swap3\n      swap2\n      swap1\n      dup2\n      dup2\n      mstore\n      0x20\n      add\n      dup4\n      dup4\n      dup1\n      dup3\n      dup5\n      calldatacopy\n      0x00\n      dup2\n      dup5\n      add\n      mstore\n      not(0x1f)\n      0x1f\n      dup3\n      add\n      and\n      swap1\n      pop\n      dup1\n      dup4\n      add\n      swap3\n      pop\n      pop\n      pop\n      pop\n      pop\n      pop\n      pop\n      swap1\n      pop\n        /* \"contract/05_DataStorageAndScope.sol\":1753:1754  1 */\n      0x01\n        /* \"contract/05_DataStorageAndScope.sol\":1742:1750  blockNum */\n      dup3\n        /* \"contract/05_DataStorageAndScope.sol\":1742:1754  blockNum - 1 */\n      tag_57\n      swap2\n      swap1\n      tag_58\n      jump\t// in\n    tag_57:\n        /* \"contract/05_DataStorageAndScope.sol\":1732:1755  blockhash(blockNum - 1) */\n      pop\n        /* \"contract/05_DataStorageAndScope.sol\":2045:2048  1e0 */\n      0x01\n        /* \"contract/05_DataStorageAndScope.sol\":2036:2041  1 wei */\n      dup1\n        /* \"contract/05_DataStorageAndScope.sol\":2036:2048  1 wei == 1e0 */\n      eq\n        /* \"contract/05_DataStorageAndScope.sol\":2029:2049  assert(1 wei == 1e0) */\n      tag_59\n      jumpi\n      tag_60\n      tag_61\n      jump\t// in\n    tag_60:\n    tag_59:\n        /* \"contract/05_DataStorageAndScope.sol\":2076:2077  1 */\n      0x01\n        /* \"contract/05_DataStorageAndScope.sol\":2067:2072  1 wei */\n      dup1\n        /* \"contract/05_DataStorageAndScope.sol\":2067:2077  1 wei == 1 */\n      eq\n        /* \"contract/05_DataStorageAndScope.sol\":2060:2078  assert(1 wei == 1) */\n      tag_62\n      jumpi\n      tag_63\n      tag_61\n      jump\t// in\n    tag_63:\n    tag_62:\n        /* \"contract/05_DataStorageAndScope.sol\":2106:2109  1e9 */\n      0x3b9aca00\n        /* \"contract/05_DataStorageAndScope.sol\":2096:2102  1 gwei */\n      dup1\n        /* \"contract/05_DataStorageAndScope.sol\":2096:2109  1 gwei == 1e9 */\n      eq\n        /* \"contract/05_DataStorageAndScope.sol\":2089:2110  assert(1 gwei == 1e9) */\n      tag_64\n      jumpi\n      tag_65\n      tag_61\n      jump\t// in\n    tag_65:\n    tag_64:\n        /* \"contract/05_DataStorageAndScope.sol\":2139:2143  1e18 */\n      0x0de0b6b3a7640000\n        /* \"contract/05_DataStorageAndScope.sol\":2128:2135  1 ether */\n      dup1\n        /* \"contract/05_DataStorageAndScope.sol\":2128:2143  1 ether == 1e18 */\n      eq\n        /* \"contract/05_DataStorageAndScope.sol\":2121:2144  assert(1 ether == 1e18) */\n      tag_66\n      jumpi\n      tag_67\n      tag_61\n      jump\t// in\n    tag_67:\n    tag_66:\n        /* \"contract/05_DataStorageAndScope.sol\":2273:2283  60 seconds */\n      0x3c\n        /* \"contract/05_DataStorageAndScope.sol\":2260:2269  1 minutes */\n      dup1\n        /* \"contract/05_DataStorageAndScope.sol\":2260:2283  1 minutes == 60 seconds */\n      eq\n        /* \"contract/05_DataStorageAndScope.sol\":2253:2284  assert(1 minutes == 60 seconds) */\n      tag_68\n      jumpi\n      tag_69\n      tag_61\n      jump\t// in\n    tag_69:\n    tag_68:\n        /* \"contract/05_DataStorageAndScope.sol\":2314:2324  60 minutes */\n      0x0e10\n        /* \"contract/05_DataStorageAndScope.sol\":2303:2310  1 hours */\n      dup1\n        /* \"contract/05_DataStorageAndScope.sol\":2303:2324  1 hours == 60 minutes */\n      eq\n        /* \"contract/05_DataStorageAndScope.sol\":2296:2325  assert(1 hours == 60 minutes) */\n      tag_70\n      jumpi\n      tag_71\n      tag_61\n      jump\t// in\n    tag_71:\n    tag_70:\n        /* \"contract/05_DataStorageAndScope.sol\":2353:2361  24 hours */\n      0x015180\n        /* \"contract/05_DataStorageAndScope.sol\":2343:2349  1 days */\n      dup1\n        /* \"contract/05_DataStorageAndScope.sol\":2343:2361  1 days == 24 hours */\n      eq\n        /* \"contract/05_DataStorageAndScope.sol\":2336:2362  assert(1 days == 24 hours) */\n      tag_72\n      jumpi\n      tag_73\n      tag_61\n      jump\t// in\n    tag_73:\n    tag_72:\n        /* \"contract/05_DataStorageAndScope.sol\":2391:2397  7 days */\n      0x093a80\n        /* \"contract/05_DataStorageAndScope.sol\":2380:2387  1 weeks */\n      dup1\n        /* \"contract/05_DataStorageAndScope.sol\":2380:2397  1 weeks == 7 days */\n      eq\n        /* \"contract/05_DataStorageAndScope.sol\":2373:2398  assert(1 weeks == 7 days) */\n      tag_74\n      jumpi\n      tag_75\n      tag_61\n      jump\t// in\n    tag_75:\n    tag_74:\n        /* \"contract/05_DataStorageAndScope.sol\":2421:2427  sender */\n      dup3\n        /* \"contract/05_DataStorageAndScope.sol\":2429:2437  blockNum */\n      dup3\n        /* \"contract/05_DataStorageAndScope.sol\":2439:2443  data */\n      dup3\n        /* \"contract/05_DataStorageAndScope.sol\":2413:2444  return (sender, blockNum, data) */\n      swap6\n      pop\n      swap6\n      pop\n      swap6\n      pop\n      pop\n      pop\n      pop\n        /* \"contract/05_DataStorageAndScope.sol\":1054:2452  function globalVariable() external payable returns(address, uint, bytes memory) {\r... */\n      swap1\n      swap2\n      swap3\n      jump\t// out\n        /* \"contract/05_DataStorageAndScope.sol\":682:695  uint public b */\n    tag_26:\n      sload(0x01)\n      dup2\n      jump\t// out\n        /* \"contract/05_DataStorageAndScope.sol\":3921:4110  function fStorage() public{\r... */\n    tag_30:\n        /* \"contract/05_DataStorageAndScope.sol\":4047:4070  uint[] storage xStorage */\n      0x00\n        /* \"contract/05_DataStorageAndScope.sol\":4073:4074  x */\n      0x03\n        /* \"contract/05_DataStorageAndScope.sol\":4047:4074  uint[] storage xStorage = x */\n      swap1\n      pop\n        /* \"contract/05_DataStorageAndScope.sol\":4099:4102  100 */\n      0x64\n        /* \"contract/05_DataStorageAndScope.sol\":4085:4093  xStorage */\n      dup2\n        /* \"contract/05_DataStorageAndScope.sol\":4094:4095  0 */\n      0x00\n        /* \"contract/05_DataStorageAndScope.sol\":4085:4096  xStorage[0] */\n      dup2\n      sload\n      dup2\n      lt\n      tag_77\n      jumpi\n      tag_78\n      tag_55\n      jump\t// in\n    tag_78:\n    tag_77:\n      swap1\n      0x00\n      mstore\n      keccak256(0x00, 0x20)\n      add\n        /* \"contract/05_DataStorageAndScope.sol\":4085:4102  xStorage[0] = 100 */\n      dup2\n      swap1\n      sstore\n      pop\n        /* \"contract/05_DataStorageAndScope.sol\":3947:4110  {\r... */\n      pop\n        /* \"contract/05_DataStorageAndScope.sol\":3921:4110  function fStorage() public{\r... */\n      jump\t// out\n        /* \"contract/05_DataStorageAndScope.sol\":3656:3859  function fCalldata(uint[] calldata _x) public pure returns(uint[] calldata){\r... */\n    tag_35:\n        /* \"contract/05_DataStorageAndScope.sol\":3715:3730  uint[] calldata */\n      calldatasize\n      0x00\n        /* \"contract/05_DataStorageAndScope.sol\":3848:3850  _x */\n      dup4\n      dup4\n        /* \"contract/05_DataStorageAndScope.sol\":3841:3851  return(_x) */\n      swap2\n      pop\n      swap2\n      pop\n        /* \"contract/05_DataStorageAndScope.sol\":3656:3859  function fCalldata(uint[] calldata _x) public pure returns(uint[] calldata){\r... */\n      swap3\n      pop\n      swap3\n      swap1\n      pop\n      jump\t// out\n        /* \"contract/05_DataStorageAndScope.sol\":775:857  function foo() external {\r... */\n    tag_40:\n        /* \"contract/05_DataStorageAndScope.sol\":814:815  2 */\n      0x02\n        /* \"contract/05_DataStorageAndScope.sol\":810:811  a */\n      0x00\n        /* \"contract/05_DataStorageAndScope.sol\":810:815  a = 2 */\n      dup2\n      swap1\n      sstore\n      pop\n        /* \"contract/05_DataStorageAndScope.sol\":830:831  3 */\n      0x03\n        /* \"contract/05_DataStorageAndScope.sol\":826:827  b */\n      0x01\n        /* \"contract/05_DataStorageAndScope.sol\":826:831  b = 3 */\n      dup2\n      swap1\n      sstore\n      pop\n        /* \"contract/05_DataStorageAndScope.sol\":842:849  c = \"a\" */\n      mload(0x40)\n      dup1\n      0x40\n      add\n      0x40\n      mstore\n      dup1\n      0x01\n      dup2\n      mstore\n      0x20\n      add\n      0x6100000000000000000000000000000000000000000000000000000000000000\n      dup2\n      mstore\n      pop\n        /* \"contract/05_DataStorageAndScope.sol\":842:843  c */\n      0x02\n        /* \"contract/05_DataStorageAndScope.sol\":842:849  c = \"a\" */\n      swap1\n      dup1\n      mload\n      swap1\n      0x20\n      add\n      swap1\n      tag_82\n      swap3\n      swap2\n      swap1\n      tag_83\n      jump\t// in\n    tag_82:\n      pop\n        /* \"contract/05_DataStorageAndScope.sol\":775:857  function foo() external {\r... */\n      jump\t// out\n        /* \"contract/05_DataStorageAndScope.sol\":702:717  string public c */\n    tag_43:\n      0x02\n      dup1\n      sload\n      tag_84\n      swap1\n      tag_85\n      jump\t// in\n    tag_84:\n      dup1\n      0x1f\n      add\n      0x20\n      dup1\n      swap2\n      div\n      mul\n      0x20\n      add\n      mload(0x40)\n      swap1\n      dup2\n      add\n      0x40\n      mstore\n      dup1\n      swap3\n      swap2\n      swap1\n      dup2\n      dup2\n      mstore\n      0x20\n      add\n      dup3\n      dup1\n      sload\n      tag_86\n      swap1\n      tag_85\n      jump\t// in\n    tag_86:\n      dup1\n      iszero\n      tag_87\n      jumpi\n      dup1\n      0x1f\n      lt\n      tag_88\n      jumpi\n      0x0100\n      dup1\n      dup4\n      sload\n      div\n      mul\n      dup4\n      mstore\n      swap2\n      0x20\n      add\n      swap2\n      jump(tag_87)\n    tag_88:\n      dup3\n      add\n      swap2\n      swap1\n      0x00\n      mstore\n      keccak256(0x00, 0x20)\n      swap1\n    tag_89:\n      dup2\n      sload\n      dup2\n      mstore\n      swap1\n      0x01\n      add\n      swap1\n      0x20\n      add\n      dup1\n      dup4\n      gt\n      tag_89\n      jumpi\n      dup3\n      swap1\n      sub\n      0x1f\n      and\n      dup3\n      add\n      swap2\n    tag_87:\n      pop\n      pop\n      pop\n      pop\n      pop\n      dup2\n      jump\t// out\n        /* \"contract/05_DataStorageAndScope.sol\":886:1023  function bar() external pure returns(uint) {\r... */\n    tag_48:\n        /* \"contract/05_DataStorageAndScope.sol\":923:927  uint */\n      0x00\n        /* \"contract/05_DataStorageAndScope.sol\":940:946  uint d */\n      dup1\n        /* \"contract/05_DataStorageAndScope.sol\":949:950  1 */\n      0x01\n        /* \"contract/05_DataStorageAndScope.sol\":940:950  uint d = 1 */\n      swap1\n      pop\n        /* \"contract/05_DataStorageAndScope.sol\":961:967  uint e */\n      0x00\n        /* \"contract/05_DataStorageAndScope.sol\":970:971  2 */\n      0x02\n        /* \"contract/05_DataStorageAndScope.sol\":961:971  uint e = 2 */\n      swap1\n      pop\n        /* \"contract/05_DataStorageAndScope.sol\":982:988  uint f */\n      0x00\n        /* \"contract/05_DataStorageAndScope.sol\":995:996  e */\n      dup2\n        /* \"contract/05_DataStorageAndScope.sol\":991:992  d */\n      dup4\n        /* \"contract/05_DataStorageAndScope.sol\":991:996  d + e */\n      tag_91\n      swap2\n      swap1\n      tag_92\n      jump\t// in\n    tag_91:\n        /* \"contract/05_DataStorageAndScope.sol\":982:996  uint f = d + e */\n      swap1\n      pop\n        /* \"contract/05_DataStorageAndScope.sol\":1014:1015  f */\n      dup1\n        /* \"contract/05_DataStorageAndScope.sol\":1007:1015  return f */\n      swap4\n      pop\n      pop\n      pop\n      pop\n        /* \"contract/05_DataStorageAndScope.sol\":886:1023  function bar() external pure returns(uint) {\r... */\n      swap1\n      jump\t// out\n    tag_83:\n      dup3\n      dup1\n      sload\n      tag_93\n      swap1\n      tag_85\n      jump\t// in\n    tag_93:\n      swap1\n      0x00\n      mstore\n      keccak256(0x00, 0x20)\n      swap1\n      0x1f\n      add\n      0x20\n      swap1\n      div\n      dup2\n      add\n      swap3\n      dup3\n      tag_95\n      jumpi\n      0x00\n      dup6\n      sstore\n      jump(tag_94)\n    tag_95:\n      dup3\n      0x1f\n      lt\n      tag_96\n      jumpi\n      dup1\n      mload\n      not(0xff)\n      and\n      dup4\n      dup1\n      add\n      or\n      dup6\n      sstore\n      jump(tag_94)\n    tag_96:\n      dup3\n      dup1\n      add\n      0x01\n      add\n      dup6\n      sstore\n      dup3\n      iszero\n      tag_94\n      jumpi\n      swap2\n      dup3\n      add\n    tag_97:\n      dup3\n      dup2\n      gt\n      iszero\n      tag_98\n      jumpi\n      dup3\n      mload\n      dup3\n      sstore\n      swap2\n      0x20\n      add\n      swap2\n      swap1\n      0x01\n      add\n      swap1\n      jump(tag_97)\n    tag_98:\n    tag_94:\n      pop\n      swap1\n      pop\n      tag_99\n      swap2\n      swap1\n      tag_100\n      jump\t// in\n    tag_99:\n      pop\n      swap1\n      jump\t// out\n    tag_100:\n    tag_101:\n      dup1\n      dup3\n      gt\n      iszero\n      tag_102\n      jumpi\n      0x00\n      dup2\n      0x00\n      swap1\n      sstore\n      pop\n      0x01\n      add\n      jump(tag_101)\n    tag_102:\n      pop\n      swap1\n      jump\t// out\n        /* \"#utility.yul\":24:592   */\n    tag_104:\n        /* \"#utility.yul\":97:105   */\n      0x00\n        /* \"#utility.yul\":107:113   */\n      dup1\n        /* \"#utility.yul\":157:160   */\n      dup4\n        /* \"#utility.yul\":150:154   */\n      0x1f\n        /* \"#utility.yul\":142:148   */\n      dup5\n        /* \"#utility.yul\":138:155   */\n      add\n        /* \"#utility.yul\":134:161   */\n      slt\n        /* \"#utility.yul\":124:246   */\n      tag_106\n      jumpi\n        /* \"#utility.yul\":165:244   */\n      tag_107\n      tag_108\n      jump\t// in\n    tag_107:\n        /* \"#utility.yul\":124:246   */\n    tag_106:\n        /* \"#utility.yul\":278:284   */\n      dup3\n        /* \"#utility.yul\":265:285   */\n      calldataload\n        /* \"#utility.yul\":255:285   */\n      swap1\n      pop\n        /* \"#utility.yul\":308:326   */\n      0xffffffffffffffff\n        /* \"#utility.yul\":300:306   */\n      dup2\n        /* \"#utility.yul\":297:327   */\n      gt\n        /* \"#utility.yul\":294:411   */\n      iszero\n      tag_109\n      jumpi\n        /* \"#utility.yul\":330:409   */\n      tag_110\n      tag_111\n      jump\t// in\n    tag_110:\n        /* \"#utility.yul\":294:411   */\n    tag_109:\n        /* \"#utility.yul\":444:448   */\n      0x20\n        /* \"#utility.yul\":436:442   */\n      dup4\n        /* \"#utility.yul\":432:449   */\n      add\n        /* \"#utility.yul\":420:449   */\n      swap2\n      pop\n        /* \"#utility.yul\":498:501   */\n      dup4\n        /* \"#utility.yul\":490:494   */\n      0x20\n        /* \"#utility.yul\":482:488   */\n      dup3\n        /* \"#utility.yul\":478:495   */\n      mul\n        /* \"#utility.yul\":468:476   */\n      dup4\n        /* \"#utility.yul\":464:496   */\n      add\n        /* \"#utility.yul\":461:502   */\n      gt\n        /* \"#utility.yul\":458:586   */\n      iszero\n      tag_112\n      jumpi\n        /* \"#utility.yul\":505:584   */\n      tag_113\n      tag_114\n      jump\t// in\n    tag_113:\n        /* \"#utility.yul\":458:586   */\n    tag_112:\n        /* \"#utility.yul\":24:592   */\n      swap3\n      pop\n      swap3\n      swap1\n      pop\n      jump\t// out\n        /* \"#utility.yul\":598:1157   */\n    tag_34:\n        /* \"#utility.yul\":684:690   */\n      0x00\n        /* \"#utility.yul\":692:698   */\n      dup1\n        /* \"#utility.yul\":741:743   */\n      0x20\n        /* \"#utility.yul\":729:738   */\n      dup4\n        /* \"#utility.yul\":720:727   */\n      dup6\n        /* \"#utility.yul\":716:739   */\n      sub\n        /* \"#utility.yul\":712:744   */\n      slt\n        /* \"#utility.yul\":709:828   */\n      iszero\n      tag_116\n      jumpi\n        /* \"#utility.yul\":747:826   */\n      tag_117\n      tag_118\n      jump\t// in\n    tag_117:\n        /* \"#utility.yul\":709:828   */\n    tag_116:\n        /* \"#utility.yul\":895:896   */\n      0x00\n        /* \"#utility.yul\":884:893   */\n      dup4\n        /* \"#utility.yul\":880:897   */\n      add\n        /* \"#utility.yul\":867:898   */\n      calldataload\n        /* \"#utility.yul\":925:943   */\n      0xffffffffffffffff\n        /* \"#utility.yul\":917:923   */\n      dup2\n        /* \"#utility.yul\":914:944   */\n      gt\n        /* \"#utility.yul\":911:1028   */\n      iszero\n      tag_119\n      jumpi\n        /* \"#utility.yul\":947:1026   */\n      tag_120\n      tag_121\n      jump\t// in\n    tag_120:\n        /* \"#utility.yul\":911:1028   */\n    tag_119:\n        /* \"#utility.yul\":1060:1140   */\n      tag_122\n        /* \"#utility.yul\":1132:1139   */\n      dup6\n        /* \"#utility.yul\":1123:1129   */\n      dup3\n        /* \"#utility.yul\":1112:1121   */\n      dup7\n        /* \"#utility.yul\":1108:1130   */\n      add\n        /* \"#utility.yul\":1060:1140   */\n      tag_104\n      jump\t// in\n    tag_122:\n        /* \"#utility.yul\":1042:1140   */\n      swap3\n      pop\n      swap3\n      pop\n        /* \"#utility.yul\":838:1150   */\n      pop\n        /* \"#utility.yul\":598:1157   */\n      swap3\n      pop\n      swap3\n      swap1\n      pop\n      jump\t// out\n        /* \"#utility.yul\":1163:1281   */\n    tag_123:\n        /* \"#utility.yul\":1250:1274   */\n      tag_125\n        /* \"#utility.yul\":1268:1273   */\n      dup2\n        /* \"#utility.yul\":1250:1274   */\n      tag_126\n      jump\t// in\n    tag_125:\n        /* \"#utility.yul\":1245:1248   */\n      dup3\n        /* \"#utility.yul\":1238:1275   */\n      mstore\n        /* \"#utility.yul\":1163:1281   */\n      pop\n      pop\n      jump\t// out\n        /* \"#utility.yul\":1317:1854   */\n    tag_127:\n        /* \"#utility.yul\":1445:1448   */\n      0x00\n        /* \"#utility.yul\":1466:1552   */\n      tag_129\n        /* \"#utility.yul\":1545:1551   */\n      dup4\n        /* \"#utility.yul\":1540:1543   */\n      dup6\n        /* \"#utility.yul\":1466:1552   */\n      tag_130\n      jump\t// in\n    tag_129:\n        /* \"#utility.yul\":1459:1552   */\n      swap4\n      pop\n        /* \"#utility.yul\":1576:1642   */\n      0x07ffffffffffffffffffffffffffffffffffffffffffffffffffffffffffffff\n        /* \"#utility.yul\":1568:1574   */\n      dup4\n        /* \"#utility.yul\":1565:1643   */\n      gt\n        /* \"#utility.yul\":1562:1727   */\n      iszero\n      tag_131\n      jumpi\n        /* \"#utility.yul\":1646:1725   */\n      tag_132\n      tag_133\n      jump\t// in\n    tag_132:\n        /* \"#utility.yul\":1562:1727   */\n    tag_131:\n        /* \"#utility.yul\":1758:1762   */\n      0x20\n        /* \"#utility.yul\":1750:1756   */\n      dup4\n        /* \"#utility.yul\":1746:1763   */\n      mul\n        /* \"#utility.yul\":1736:1763   */\n      swap3\n      pop\n        /* \"#utility.yul\":1773:1816   */\n      tag_134\n        /* \"#utility.yul\":1809:1815   */\n      dup4\n        /* \"#utility.yul\":1804:1807   */\n      dup6\n        /* \"#utility.yul\":1797:1802   */\n      dup5\n        /* \"#utility.yul\":1773:1816   */\n      tag_135\n      jump\t// in\n    tag_134:\n        /* \"#utility.yul\":1841:1847   */\n      dup3\n        /* \"#utility.yul\":1836:1839   */\n      dup5\n        /* \"#utility.yul\":1832:1848   */\n      add\n        /* \"#utility.yul\":1825:1848   */\n      swap1\n      pop\n        /* \"#utility.yul\":1317:1854   */\n      swap4\n      swap3\n      pop\n      pop\n      pop\n      jump\t// out\n        /* \"#utility.yul\":1860:2220   */\n    tag_136:\n        /* \"#utility.yul\":1946:1949   */\n      0x00\n        /* \"#utility.yul\":1974:2012   */\n      tag_138\n        /* \"#utility.yul\":2006:2011   */\n      dup3\n        /* \"#utility.yul\":1974:2012   */\n      tag_139\n      jump\t// in\n    tag_138:\n        /* \"#utility.yul\":2028:2098   */\n      tag_140\n        /* \"#utility.yul\":2091:2097   */\n      dup2\n        /* \"#utility.yul\":2086:2089   */\n      dup6\n        /* \"#utility.yul\":2028:2098   */\n      tag_141\n      jump\t// in\n    tag_140:\n        /* \"#utility.yul\":2021:2098   */\n      swap4\n      pop\n        /* \"#utility.yul\":2107:2159   */\n      tag_142\n        /* \"#utility.yul\":2152:2158   */\n      dup2\n        /* \"#utility.yul\":2147:2150   */\n      dup6\n        /* \"#utility.yul\":2140:2144   */\n      0x20\n        /* \"#utility.yul\":2133:2138   */\n      dup7\n        /* \"#utility.yul\":2129:2145   */\n      add\n        /* \"#utility.yul\":2107:2159   */\n      tag_143\n      jump\t// in\n    tag_142:\n        /* \"#utility.yul\":2184:2213   */\n      tag_144\n        /* \"#utility.yul\":2206:2212   */\n      dup2\n        /* \"#utility.yul\":2184:2213   */\n      tag_145\n      jump\t// in\n    tag_144:\n        /* \"#utility.yul\":2179:2182   */\n      dup5\n        /* \"#utility.yul\":2175:2214   */\n      add\n        /* \"#utility.yul\":2168:2214   */\n      swap2\n      pop\n        /* \"#utility.yul\":1950:2220   */\n      pop\n        /* \"#utility.yul\":1860:2220   */\n      swap3\n      swap2\n      pop\n      pop\n      jump\t// out\n        /* \"#utility.yul\":2226:2590   */\n    tag_146:\n        /* \"#utility.yul\":2314:2317   */\n      0x00\n        /* \"#utility.yul\":2342:2381   */\n      tag_148\n        /* \"#utility.yul\":2375:2380   */\n      dup3\n        /* \"#utility.yul\":2342:2381   */\n      tag_149\n      jump\t// in\n    tag_148:\n        /* \"#utility.yul\":2397:2468   */\n      tag_150\n        /* \"#utility.yul\":2461:2467   */\n      dup2\n        /* \"#utility.yul\":2456:2459   */\n      dup6\n        /* \"#utility.yul\":2397:2468   */\n      tag_151\n      jump\t// in\n    tag_150:\n        /* \"#utility.yul\":2390:2468   */\n      swap4\n      pop\n        /* \"#utility.yul\":2477:2529   */\n      tag_152\n        /* \"#utility.yul\":2522:2528   */\n      dup2\n        /* \"#utility.yul\":2517:2520   */\n      dup6\n        /* \"#utility.yul\":2510:2514   */\n      0x20\n        /* \"#utility.yul\":2503:2508   */\n      dup7\n        /* \"#utility.yul\":2499:2515   */\n      add\n        /* \"#utility.yul\":2477:2529   */\n      tag_143\n      jump\t// in\n    tag_152:\n        /* \"#utility.yul\":2554:2583   */\n      tag_153\n        /* \"#utility.yul\":2576:2582   */\n      dup2\n        /* \"#utility.yul\":2554:2583   */\n      tag_145\n      jump\t// in\n    tag_153:\n        /* \"#utility.yul\":2549:2552   */\n      dup5\n        /* \"#utility.yul\":2545:2584   */\n      add\n        /* \"#utility.yul\":2538:2584   */\n      swap2\n      pop\n        /* \"#utility.yul\":2318:2590   */\n      pop\n        /* \"#utility.yul\":2226:2590   */\n      swap3\n      swap2\n      pop\n      pop\n      jump\t// out\n        /* \"#utility.yul\":2596:2714   */\n    tag_154:\n        /* \"#utility.yul\":2683:2707   */\n      tag_156\n        /* \"#utility.yul\":2701:2706   */\n      dup2\n        /* \"#utility.yul\":2683:2707   */\n      tag_157\n      jump\t// in\n    tag_156:\n        /* \"#utility.yul\":2678:2681   */\n      dup3\n        /* \"#utility.yul\":2671:2708   */\n      mstore\n        /* \"#utility.yul\":2596:2714   */\n      pop\n      pop\n      jump\t// out\n        /* \"#utility.yul\":2720:3249   */\n    tag_23:\n        /* \"#utility.yul\":2887:2891   */\n      0x00\n        /* \"#utility.yul\":2925:2927   */\n      0x60\n        /* \"#utility.yul\":2914:2923   */\n      dup3\n        /* \"#utility.yul\":2910:2928   */\n      add\n        /* \"#utility.yul\":2902:2928   */\n      swap1\n      pop\n        /* \"#utility.yul\":2938:3009   */\n      tag_159\n        /* \"#utility.yul\":3006:3007   */\n      0x00\n        /* \"#utility.yul\":2995:3004   */\n      dup4\n        /* \"#utility.yul\":2991:3008   */\n      add\n        /* \"#utility.yul\":2982:2988   */\n      dup7\n        /* \"#utility.yul\":2938:3009   */\n      tag_123\n      jump\t// in\n    tag_159:\n        /* \"#utility.yul\":3019:3091   */\n      tag_160\n        /* \"#utility.yul\":3087:3089   */\n      0x20\n        /* \"#utility.yul\":3076:3085   */\n      dup4\n        /* \"#utility.yul\":3072:3090   */\n      add\n        /* \"#utility.yul\":3063:3069   */\n      dup6\n        /* \"#utility.yul\":3019:3091   */\n      tag_154\n      jump\t// in\n    tag_160:\n        /* \"#utility.yul\":3138:3147   */\n      dup2\n        /* \"#utility.yul\":3132:3136   */\n      dup2\n        /* \"#utility.yul\":3128:3148   */\n      sub\n        /* \"#utility.yul\":3123:3125   */\n      0x40\n        /* \"#utility.yul\":3112:3121   */\n      dup4\n        /* \"#utility.yul\":3108:3126   */\n      add\n        /* \"#utility.yul\":3101:3149   */\n      mstore\n        /* \"#utility.yul\":3166:3242   */\n      tag_161\n        /* \"#utility.yul\":3237:3241   */\n      dup2\n        /* \"#utility.yul\":3228:3234   */\n      dup5\n        /* \"#utility.yul\":3166:3242   */\n      tag_136\n      jump\t// in\n    tag_161:\n        /* \"#utility.yul\":3158:3242   */\n      swap1\n      pop\n        /* \"#utility.yul\":2720:3249   */\n      swap5\n      swap4\n      pop\n      pop\n      pop\n      pop\n      jump\t// out\n        /* \"#utility.yul\":3255:3648   */\n    tag_37:\n        /* \"#utility.yul\":3408:3412   */\n      0x00\n        /* \"#utility.yul\":3446:3448   */\n      0x20\n        /* \"#utility.yul\":3435:3444   */\n      dup3\n        /* \"#utility.yul\":3431:3449   */\n      add\n        /* \"#utility.yul\":3423:3449   */\n      swap1\n      pop\n        /* \"#utility.yul\":3495:3504   */\n      dup2\n        /* \"#utility.yul\":3489:3493   */\n      dup2\n        /* \"#utility.yul\":3485:3505   */\n      sub\n        /* \"#utility.yul\":3481:3482   */\n      0x00\n        /* \"#utility.yul\":3470:3479   */\n      dup4\n        /* \"#utility.yul\":3466:3483   */\n      add\n        /* \"#utility.yul\":3459:3506   */\n      mstore\n        /* \"#utility.yul\":3523:3641   */\n      tag_163\n        /* \"#utility.yul\":3636:3640   */\n      dup2\n        /* \"#utility.yul\":3627:3633   */\n      dup5\n        /* \"#utility.yul\":3619:3625   */\n      dup7\n        /* \"#utility.yul\":3523:3641   */\n      tag_127\n      jump\t// in\n    tag_163:\n        /* \"#utility.yul\":3515:3641   */\n      swap1\n      pop\n        /* \"#utility.yul\":3255:3648   */\n      swap4\n      swap3\n      pop\n      pop\n      pop\n      jump\t// out\n        /* \"#utility.yul\":3654:3967   */\n    tag_45:\n        /* \"#utility.yul\":3767:3771   */\n      0x00\n        /* \"#utility.yul\":3805:3807   */\n      0x20\n        /* \"#utility.yul\":3794:3803   */\n      dup3\n        /* \"#utility.yul\":3790:3808   */\n      add\n        /* \"#utility.yul\":3782:3808   */\n      swap1\n      pop\n        /* \"#utility.yul\":3854:3863   */\n      dup2\n        /* \"#utility.yul\":3848:3852   */\n      dup2\n        /* \"#utility.yul\":3844:3864   */\n      sub\n        /* \"#utility.yul\":3840:3841   */\n      0x00\n        /* \"#utility.yul\":3829:3838   */\n      dup4\n        /* \"#utility.yul\":3825:3842   */\n      add\n        /* \"#utility.yul\":3818:3865   */\n      mstore\n        /* \"#utility.yul\":3882:3960   */\n      tag_165\n        /* \"#utility.yul\":3955:3959   */\n      dup2\n        /* \"#utility.yul\":3946:3952   */\n      dup5\n        /* \"#utility.yul\":3882:3960   */\n      tag_146\n      jump\t// in\n    tag_165:\n        /* \"#utility.yul\":3874:3960   */\n      swap1\n      pop\n        /* \"#utility.yul\":3654:3967   */\n      swap3\n      swap2\n      pop\n      pop\n      jump\t// out\n        /* \"#utility.yul\":3973:4195   */\n    tag_16:\n        /* \"#utility.yul\":4066:4070   */\n      0x00\n        /* \"#utility.yul\":4104:4106   */\n      0x20\n        /* \"#utility.yul\":4093:4102   */\n      dup3\n        /* \"#utility.yul\":4089:4107   */\n      add\n        /* \"#utility.yul\":4081:4107   */\n      swap1\n      pop\n        /* \"#utility.yul\":4117:4188   */\n      tag_167\n        /* \"#utility.yul\":4185:4186   */\n      0x00\n        /* \"#utility.yul\":4174:4183   */\n      dup4\n        /* \"#utility.yul\":4170:4187   */\n      add\n        /* \"#utility.yul\":4161:4167   */\n      dup5\n        /* \"#utility.yul\":4117:4188   */\n      tag_154\n      jump\t// in\n    tag_167:\n        /* \"#utility.yul\":3973:4195   */\n      swap3\n      swap2\n      pop\n      pop\n      jump\t// out\n        /* \"#utility.yul\":4282:4380   */\n    tag_139:\n        /* \"#utility.yul\":4333:4339   */\n      0x00\n        /* \"#utility.yul\":4367:4372   */\n      dup2\n        /* \"#utility.yul\":4361:4373   */\n      mload\n        /* \"#utility.yul\":4351:4373   */\n      swap1\n      pop\n        /* \"#utility.yul\":4282:4380   */\n      swap2\n      swap1\n      pop\n      jump\t// out\n        /* \"#utility.yul\":4386:4485   */\n    tag_149:\n        /* \"#utility.yul\":4438:4444   */\n      0x00\n        /* \"#utility.yul\":4472:4477   */\n      dup2\n        /* \"#utility.yul\":4466:4478   */\n      mload\n        /* \"#utility.yul\":4456:4478   */\n      swap1\n      pop\n        /* \"#utility.yul\":4386:4485   */\n      swap2\n      swap1\n      pop\n      jump\t// out\n        /* \"#utility.yul\":4491:4675   */\n    tag_130:\n        /* \"#utility.yul\":4590:4601   */\n      0x00\n        /* \"#utility.yul\":4624:4630   */\n      dup3\n        /* \"#utility.yul\":4619:4622   */\n      dup3\n        /* \"#utility.yul\":4612:4631   */\n      mstore\n        /* \"#utility.yul\":4664:4668   */\n      0x20\n        /* \"#utility.yul\":4659:4662   */\n      dup3\n        /* \"#utility.yul\":4655:4669   */\n      add\n        /* \"#utility.yul\":4640:4669   */\n      swap1\n      pop\n        /* \"#utility.yul\":4491:4675   */\n      swap3\n      swap2\n      pop\n      pop\n      jump\t// out\n        /* \"#utility.yul\":4681:4849   */\n    tag_141:\n        /* \"#utility.yul\":4764:4775   */\n      0x00\n        /* \"#utility.yul\":4798:4804   */\n      dup3\n        /* \"#utility.yul\":4793:4796   */\n      dup3\n        /* \"#utility.yul\":4786:4805   */\n      mstore\n        /* \"#utility.yul\":4838:4842   */\n      0x20\n        /* \"#utility.yul\":4833:4836   */\n      dup3\n        /* \"#utility.yul\":4829:4843   */\n      add\n        /* \"#utility.yul\":4814:4843   */\n      swap1\n      pop\n        /* \"#utility.yul\":4681:4849   */\n      swap3\n      swap2\n      pop\n      pop\n      jump\t// out\n        /* \"#utility.yul\":4855:5024   */\n    tag_151:\n        /* \"#utility.yul\":4939:4950   */\n      0x00\n        /* \"#utility.yul\":4973:4979   */\n      dup3\n        /* \"#utility.yul\":4968:4971   */\n      dup3\n        /* \"#utility.yul\":4961:4980   */\n      mstore\n        /* \"#utility.yul\":5013:5017   */\n      0x20\n        /* \"#utility.yul\":5008:5011   */\n      dup3\n        /* \"#utility.yul\":5004:5018   */\n      add\n        /* \"#utility.yul\":4989:5018   */\n      swap1\n      pop\n        /* \"#utility.yul\":4855:5024   */\n      swap3\n      swap2\n      pop\n      pop\n      jump\t// out\n        /* \"#utility.yul\":5030:5335   */\n    tag_92:\n        /* \"#utility.yul\":5070:5073   */\n      0x00\n        /* \"#utility.yul\":5089:5109   */\n      tag_176\n        /* \"#utility.yul\":5107:5108   */\n      dup3\n        /* \"#utility.yul\":5089:5109   */\n      tag_157\n      jump\t// in\n    tag_176:\n        /* \"#utility.yul\":5084:5109   */\n      swap2\n      pop\n        /* \"#utility.yul\":5123:5143   */\n      tag_177\n        /* \"#utility.yul\":5141:5142   */\n      dup4\n        /* \"#utility.yul\":5123:5143   */\n      tag_157\n      jump\t// in\n    tag_177:\n        /* \"#utility.yul\":5118:5143   */\n      swap3\n      pop\n        /* \"#utility.yul\":5277:5278   */\n      dup3\n        /* \"#utility.yul\":5209:5275   */\n      0xffffffffffffffffffffffffffffffffffffffffffffffffffffffffffffffff\n        /* \"#utility.yul\":5205:5279   */\n      sub\n        /* \"#utility.yul\":5202:5203   */\n      dup3\n        /* \"#utility.yul\":5199:5280   */\n      gt\n        /* \"#utility.yul\":5196:5303   */\n      iszero\n      tag_178\n      jumpi\n        /* \"#utility.yul\":5283:5301   */\n      tag_179\n      tag_180\n      jump\t// in\n    tag_179:\n        /* \"#utility.yul\":5196:5303   */\n    tag_178:\n        /* \"#utility.yul\":5327:5328   */\n      dup3\n        /* \"#utility.yul\":5324:5325   */\n      dup3\n        /* \"#utility.yul\":5320:5329   */\n      add\n        /* \"#utility.yul\":5313:5329   */\n      swap1\n      pop\n        /* \"#utility.yul\":5030:5335   */\n      swap3\n      swap2\n      pop\n      pop\n      jump\t// out\n        /* \"#utility.yul\":5341:5532   */\n    tag_58:\n        /* \"#utility.yul\":5381:5385   */\n      0x00\n        /* \"#utility.yul\":5401:5421   */\n      tag_182\n        /* \"#utility.yul\":5419:5420   */\n      dup3\n        /* \"#utility.yul\":5401:5421   */\n      tag_157\n      jump\t// in\n    tag_182:\n        /* \"#utility.yul\":5396:5421   */\n      swap2\n      pop\n        /* \"#utility.yul\":5435:5455   */\n      tag_183\n        /* \"#utility.yul\":5453:5454   */\n      dup4\n        /* \"#utility.yul\":5435:5455   */\n      tag_157\n      jump\t// in\n    tag_183:\n        /* \"#utility.yul\":5430:5455   */\n      swap3\n      pop\n        /* \"#utility.yul\":5474:5475   */\n      dup3\n        /* \"#utility.yul\":5471:5472   */\n      dup3\n        /* \"#utility.yul\":5468:5476   */\n      lt\n        /* \"#utility.yul\":5465:5499   */\n      iszero\n      tag_184\n      jumpi\n        /* \"#utility.yul\":5479:5497   */\n      tag_185\n      tag_180\n      jump\t// in\n    tag_185:\n        /* \"#utility.yul\":5465:5499   */\n    tag_184:\n        /* \"#utility.yul\":5524:5525   */\n      dup3\n        /* \"#utility.yul\":5521:5522   */\n      dup3\n        /* \"#utility.yul\":5517:5526   */\n      sub\n        /* \"#utility.yul\":5509:5526   */\n      swap1\n      pop\n        /* \"#utility.yul\":5341:5532   */\n      swap3\n      swap2\n      pop\n      pop\n      jump\t// out\n        /* \"#utility.yul\":5538:5634   */\n    tag_126:\n        /* \"#utility.yul\":5575:5582   */\n      0x00\n        /* \"#utility.yul\":5604:5628   */\n      tag_187\n        /* \"#utility.yul\":5622:5627   */\n      dup3\n        /* \"#utility.yul\":5604:5628   */\n      tag_188\n      jump\t// in\n    tag_187:\n        /* \"#utility.yul\":5593:5628   */\n      swap1\n      pop\n        /* \"#utility.yul\":5538:5634   */\n      swap2\n      swap1\n      pop\n      jump\t// out\n        /* \"#utility.yul\":5640:5766   */\n    tag_188:\n        /* \"#utility.yul\":5677:5684   */\n      0x00\n        /* \"#utility.yul\":5717:5759   */\n      0xffffffffffffffffffffffffffffffffffffffff\n        /* \"#utility.yul\":5710:5715   */\n      dup3\n        /* \"#utility.yul\":5706:5760   */\n      and\n        /* \"#utility.yul\":5695:5760   */\n      swap1\n      pop\n        /* \"#utility.yul\":5640:5766   */\n      swap2\n      swap1\n      pop\n      jump\t// out\n        /* \"#utility.yul\":5772:5849   */\n    tag_157:\n        /* \"#utility.yul\":5809:5816   */\n      0x00\n        /* \"#utility.yul\":5838:5843   */\n      dup2\n        /* \"#utility.yul\":5827:5843   */\n      swap1\n      pop\n        /* \"#utility.yul\":5772:5849   */\n      swap2\n      swap1\n      pop\n      jump\t// out\n        /* \"#utility.yul\":5855:6009   */\n    tag_135:\n        /* \"#utility.yul\":5939:5945   */\n      dup3\n        /* \"#utility.yul\":5934:5937   */\n      dup2\n        /* \"#utility.yul\":5929:5932   */\n      dup4\n        /* \"#utility.yul\":5916:5946   */\n      calldatacopy\n        /* \"#utility.yul\":6001:6002   */\n      0x00\n        /* \"#utility.yul\":5992:5998   */\n      dup4\n        /* \"#utility.yul\":5987:5990   */\n      dup4\n        /* \"#utility.yul\":5983:5999   */\n      add\n        /* \"#utility.yul\":5976:6003   */\n      mstore\n        /* \"#utility.yul\":5855:6009   */\n      pop\n      pop\n      pop\n      jump\t// out\n        /* \"#utility.yul\":6015:6322   */\n    tag_143:\n        /* \"#utility.yul\":6083:6084   */\n      0x00\n        /* \"#utility.yul\":6093:6206   */\n    tag_193:\n        /* \"#utility.yul\":6107:6113   */\n      dup4\n        /* \"#utility.yul\":6104:6105   */\n      dup2\n        /* \"#utility.yul\":6101:6114   */\n      lt\n        /* \"#utility.yul\":6093:6206   */\n      iszero\n      tag_195\n      jumpi\n        /* \"#utility.yul\":6192:6193   */\n      dup1\n        /* \"#utility.yul\":6187:6190   */\n      dup3\n        /* \"#utility.yul\":6183:6194   */\n      add\n        /* \"#utility.yul\":6177:6195   */\n      mload\n        /* \"#utility.yul\":6173:6174   */\n      dup2\n        /* \"#utility.yul\":6168:6171   */\n      dup5\n        /* \"#utility.yul\":6164:6175   */\n      add\n        /* \"#utility.yul\":6157:6196   */\n      mstore\n        /* \"#utility.yul\":6129:6131   */\n      0x20\n        /* \"#utility.yul\":6126:6127   */\n      dup2\n        /* \"#utility.yul\":6122:6132   */\n      add\n        /* \"#utility.yul\":6117:6132   */\n      swap1\n      pop\n        /* \"#utility.yul\":6093:6206   */\n      jump(tag_193)\n    tag_195:\n        /* \"#utility.yul\":6224:6230   */\n      dup4\n        /* \"#utility.yul\":6221:6222   */\n      dup2\n        /* \"#utility.yul\":6218:6231   */\n      gt\n        /* \"#utility.yul\":6215:6316   */\n      iszero\n      tag_196\n      jumpi\n        /* \"#utility.yul\":6304:6305   */\n      0x00\n        /* \"#utility.yul\":6295:6301   */\n      dup5\n        /* \"#utility.yul\":6290:6293   */\n      dup5\n        /* \"#utility.yul\":6286:6302   */\n      add\n        /* \"#utility.yul\":6279:6306   */\n      mstore\n        /* \"#utility.yul\":6215:6316   */\n    tag_196:\n        /* \"#utility.yul\":6064:6322   */\n      pop\n        /* \"#utility.yul\":6015:6322   */\n      pop\n      pop\n      pop\n      jump\t// out\n        /* \"#utility.yul\":6328:6648   */\n    tag_85:\n        /* \"#utility.yul\":6372:6378   */\n      0x00\n        /* \"#utility.yul\":6409:6410   */\n      0x02\n        /* \"#utility.yul\":6403:6407   */\n      dup3\n        /* \"#utility.yul\":6399:6411   */\n      div\n        /* \"#utility.yul\":6389:6411   */\n      swap1\n      pop\n        /* \"#utility.yul\":6456:6457   */\n      0x01\n        /* \"#utility.yul\":6450:6454   */\n      dup3\n        /* \"#utility.yul\":6446:6458   */\n      and\n        /* \"#utility.yul\":6477:6495   */\n      dup1\n        /* \"#utility.yul\":6467:6548   */\n      tag_198\n      jumpi\n        /* \"#utility.yul\":6533:6537   */\n      0x7f\n        /* \"#utility.yul\":6525:6531   */\n      dup3\n        /* \"#utility.yul\":6521:6538   */\n      and\n        /* \"#utility.yul\":6511:6538   */\n      swap2\n      pop\n        /* \"#utility.yul\":6467:6548   */\n    tag_198:\n        /* \"#utility.yul\":6595:6597   */\n      0x20\n        /* \"#utility.yul\":6587:6593   */\n      dup3\n        /* \"#utility.yul\":6584:6598   */\n      lt\n        /* \"#utility.yul\":6564:6582   */\n      dup2\n        /* \"#utility.yul\":6561:6599   */\n      eq\n        /* \"#utility.yul\":6558:6642   */\n      iszero\n      tag_199\n      jumpi\n        /* \"#utility.yul\":6614:6632   */\n      tag_200\n      tag_201\n      jump\t// in\n    tag_200:\n        /* \"#utility.yul\":6558:6642   */\n    tag_199:\n        /* \"#utility.yul\":6379:6648   */\n      pop\n        /* \"#utility.yul\":6328:6648   */\n      swap2\n      swap1\n      pop\n      jump\t// out\n        /* \"#utility.yul\":6654:6834   */\n    tag_61:\n        /* \"#utility.yul\":6702:6779   */\n      0x4e487b7100000000000000000000000000000000000000000000000000000000\n        /* \"#utility.yul\":6699:6700   */\n      0x00\n        /* \"#utility.yul\":6692:6780   */\n      mstore\n        /* \"#utility.yul\":6799:6803   */\n      0x01\n        /* \"#utility.yul\":6796:6797   */\n      0x04\n        /* \"#utility.yul\":6789:6804   */\n      mstore\n        /* \"#utility.yul\":6823:6827   */\n      0x24\n        /* \"#utility.yul\":6820:6821   */\n      0x00\n        /* \"#utility.yul\":6813:6828   */\n      revert\n        /* \"#utility.yul\":6840:7020   */\n    tag_180:\n        /* \"#utility.yul\":6888:6965   */\n      0x4e487b7100000000000000000000000000000000000000000000000000000000\n        /* \"#utility.yul\":6885:6886   */\n      0x00\n        /* \"#utility.yul\":6878:6966   */\n      mstore\n        /* \"#utility.yul\":6985:6989   */\n      0x11\n        /* \"#utility.yul\":6982:6983   */\n      0x04\n        /* \"#utility.yul\":6975:6990   */\n      mstore\n        /* \"#utility.yul\":7009:7013   */\n      0x24\n        /* \"#utility.yul\":7006:7007   */\n      0x00\n        /* \"#utility.yul\":6999:7014   */\n      revert\n        /* \"#utility.yul\":7026:7206   */\n    tag_201:\n        /* \"#utility.yul\":7074:7151   */\n      0x4e487b7100000000000000000000000000000000000000000000000000000000\n        /* \"#utility.yul\":7071:7072   */\n      0x00\n        /* \"#utility.yul\":7064:7152   */\n      mstore\n        /* \"#utility.yul\":7171:7175   */\n      0x22\n        /* \"#utility.yul\":7168:7169   */\n      0x04\n        /* \"#utility.yul\":7161:7176   */\n      mstore\n        /* \"#utility.yul\":7195:7199   */\n      0x24\n        /* \"#utility.yul\":7192:7193   */\n      0x00\n        /* \"#utility.yul\":7185:7200   */\n      revert\n        /* \"#utility.yul\":7212:7392   */\n    tag_55:\n        /* \"#utility.yul\":7260:7337   */\n      0x4e487b7100000000000000000000000000000000000000000000000000000000\n        /* \"#utility.yul\":7257:7258   */\n      0x00\n        /* \"#utility.yul\":7250:7338   */\n      mstore\n        /* \"#utility.yul\":7357:7361   */\n      0x32\n        /* \"#utility.yul\":7354:7355   */\n      0x04\n        /* \"#utility.yul\":7347:7362   */\n      mstore\n        /* \"#utility.yul\":7381:7385   */\n      0x24\n        /* \"#utility.yul\":7378:7379   */\n      0x00\n        /* \"#utility.yul\":7371:7386   */\n      revert\n        /* \"#utility.yul\":7398:7515   */\n    tag_111:\n        /* \"#utility.yul\":7507:7508   */\n      0x00\n        /* \"#utility.yul\":7504:7505   */\n      dup1\n        /* \"#utility.yul\":7497:7509   */\n      revert\n        /* \"#utility.yul\":7521:7638   */\n    tag_108:\n        /* \"#utility.yul\":7630:7631   */\n      0x00\n        /* \"#utility.yul\":7627:7628   */\n      dup1\n        /* \"#utility.yul\":7620:7632   */\n      revert\n        /* \"#utility.yul\":7644:7761   */\n    tag_114:\n        /* \"#utility.yul\":7753:7754   */\n      0x00\n        /* \"#utility.yul\":7750:7751   */\n      dup1\n        /* \"#utility.yul\":7743:7755   */\n      revert\n        /* \"#utility.yul\":7767:7884   */\n    tag_121:\n        /* \"#utility.yul\":7876:7877   */\n      0x00\n        /* \"#utility.yul\":7873:7874   */\n      dup1\n        /* \"#utility.yul\":7866:7878   */\n      revert\n        /* \"#utility.yul\":7890:8007   */\n    tag_133:\n        /* \"#utility.yul\":7999:8000   */\n      0x00\n        /* \"#utility.yul\":7996:7997   */\n      dup1\n        /* \"#utility.yul\":7989:8001   */\n      revert\n        /* \"#utility.yul\":8013:8130   */\n    tag_118:\n        /* \"#utility.yul\":8122:8123   */\n      0x00\n        /* \"#utility.yul\":8119:8120   */\n      dup1\n        /* \"#utility.yul\":8112:8124   */\n      revert\n        /* \"#utility.yul\":8136:8238   */\n    tag_145:\n        /* \"#utility.yul\":8177:8183   */\n      0x00\n        /* \"#utility.yul\":8228:8230   */\n      0x1f\n        /* \"#utility.yul\":8224:8231   */\n      not\n        /* \"#utility.yul\":8219:8221   */\n      0x1f\n        /* \"#utility.yul\":8212:8217   */\n      dup4\n        /* \"#utility.yul\":8208:8222   */\n      add\n        /* \"#utility.yul\":8204:8232   */\n      and\n        /* \"#utility.yul\":8194:8232   */\n      swap1\n      pop\n        /* \"#utility.yul\":8136:8238   */\n      swap2\n      swap1\n      pop\n      jump\t// out\n\n    auxdata: 0xa264697066735822122030373bf31a4eccdc8b2075d09425faef6bfed34996f0d8ab5ba6b874cbcfc29164736f6c63430008070033\n}\n",
				"bytecode": {
					"linkReferences": {},
					"object": "608060405260016000556040518060600160405280600160ff168152602001600260ff168152602001600360ff168152506003906003610040929190610053565b5034801561004d57600080fd5b506100c2565b828054828255906000526020600020908101928215610094579160200282015b82811115610093578251829060ff16905591602001919060010190610073565b5b5090506100a191906100a5565b5090565b5b808211156100be5760008160009055506001016100a6565b5090565b610a32806100d16000396000f3fe6080604052600436106100865760003560e01c80636a8d1e08116100595780636a8d1e08146101185780639b1a379c1461012f578063c29855781461016d578063c3da42b814610184578063febb0f7e146101af57610086565b80630dbe671f1461008b57806320028990146100b65780634048d797146100cd5780634df7e3d0146100ed575b600080fd5b34801561009757600080fd5b506100a06101da565b6040516100ad9190610773565b60405180910390f35b3480156100c257600080fd5b506100cb6101e0565b005b6100d561025a565b6040516100e4939291906106ef565b60405180910390f35b3480156100f957600080fd5b50610102610368565b60405161010f9190610773565b60405180910390f35b34801561012457600080fd5b5061012d61036e565b005b34801561013b57600080fd5b50610156600480360381019061015191906105b6565b61039b565b60405161016492919061072d565b60405180910390f35b34801561017957600080fd5b506101826103ab565b005b34801561019057600080fd5b50610199610409565b6040516101a69190610751565b60405180910390f35b3480156101bb57600080fd5b506101c4610497565b6040516101d19190610773565b60405180910390f35b60005481565b6000600380548060200260200160405190810160405280929190818152602001828054801561022e57602002820191906000526020600020905b81548152602001906001019080831161021a575b5050505050905060648160008151811061024b5761024a61099e565b5b60200260200101818152505050565b600080606060003390506000439050600080368080601f016020809104026020016040519081016040528093929190818152602001838380828437600081840152601f19601f8201169050808301925050505050505090506001826102bf919061082d565b50600180146102d1576102d0610911565b5b600180146102e2576102e1610911565b5b633b9aca0080146102f6576102f5610911565b5b670de0b6b3a7640000801461030e5761030d610911565b5b603c801461031f5761031e610911565b5b610e10801461033157610330610911565b5b62015180801461034457610343610911565b5b62093a80801461035757610356610911565b5b828282955095509550505050909192565b60015481565b60006003905060648160008154811061038a5761038961099e565b5b906000526020600020018190555050565b3660008383915091509250929050565b600260008190555060036001819055506040518060400160405280600181526020017f6100000000000000000000000000000000000000000000000000000000000000815250600290805190602001906104069291906104bd565b50565b60028054610416906108df565b80601f0160208091040260200160405190810160405280929190818152602001828054610442906108df565b801561048f5780601f106104645761010080835404028352916020019161048f565b820191906000526020600020905b81548152906001019060200180831161047257829003601f168201915b505050505081565b60008060019050600060029050600081836104b291906107d7565b905080935050505090565b8280546104c9906108df565b90600052602060002090601f0160209004810192826104eb5760008555610532565b82601f1061050457805160ff1916838001178555610532565b82800160010185558215610532579182015b82811115610531578251825591602001919060010190610516565b5b50905061053f9190610543565b5090565b5b8082111561055c576000816000905550600101610544565b5090565b60008083601f840112610576576105756109d2565b5b8235905067ffffffffffffffff811115610593576105926109cd565b5b6020830191508360208202830111156105af576105ae6109d7565b5b9250929050565b600080602083850312156105cd576105cc6109e6565b5b600083013567ffffffffffffffff8111156105eb576105ea6109dc565b5b6105f785828601610560565b92509250509250929050565b61060c81610861565b82525050565b600061061e83856107a4565b93507f07ffffffffffffffffffffffffffffffffffffffffffffffffffffffffffffff831115610651576106506109e1565b5b60208302925061066283858461089d565b82840190509392505050565b60006106798261078e565b61068381856107b5565b93506106938185602086016108ac565b61069c816109eb565b840191505092915050565b60006106b282610799565b6106bc81856107c6565b93506106cc8185602086016108ac565b6106d5816109eb565b840191505092915050565b6106e981610893565b82525050565b60006060820190506107046000830186610603565b61071160208301856106e0565b8181036040830152610723818461066e565b9050949350505050565b60006020820190508181036000830152610748818486610612565b90509392505050565b6000602082019050818103600083015261076b81846106a7565b905092915050565b600060208201905061078860008301846106e0565b92915050565b600081519050919050565b600081519050919050565b600082825260208201905092915050565b600082825260208201905092915050565b600082825260208201905092915050565b60006107e282610893565b91506107ed83610893565b9250827fffffffffffffffffffffffffffffffffffffffffffffffffffffffffffffffff0382111561082257610821610940565b5b828201905092915050565b600061083882610893565b915061084383610893565b92508282101561085657610855610940565b5b828203905092915050565b600061086c82610873565b9050919050565b600073ffffffffffffffffffffffffffffffffffffffff82169050919050565b6000819050919050565b82818337600083830152505050565b60005b838110156108ca5780820151818401526020810190506108af565b838111156108d9576000848401525b50505050565b600060028204905060018216806108f757607f821691505b6020821081141561090b5761090a61096f565b5b50919050565b7f4e487b7100000000000000000000000000000000000000000000000000000000600052600160045260246000fd5b7f4e487b7100000000000000000000000000000000000000000000000000000000600052601160045260246000fd5b7f4e487b7100000000000000000000000000000000000000000000000000000000600052602260045260246000fd5b7f4e487b7100000000000000000000000000000000000000000000000000000000600052603260045260246000fd5b600080fd5b600080fd5b600080fd5b600080fd5b600080fd5b600080fd5b6000601f19601f830116905091905056fea264697066735822122030373bf31a4eccdc8b2075d09425faef6bfed34996f0d8ab5ba6b874cbcfc29164736f6c63430008070033",
					"opcodes": "PUSH1 0x80 PUSH1 0x40 MSTORE PUSH1 0x1 PUSH1 0x0 SSTORE PUSH1 0x40 MLOAD DUP1 PUSH1 0x60 ADD PUSH1 0x40 MSTORE DUP1 PUSH1 0x1 PUSH1 0xFF AND DUP2 MSTORE PUSH1 0x20 ADD PUSH1 0x2 PUSH1 0xFF AND DUP2 MSTORE PUSH1 0x20 ADD PUSH1 0x3 PUSH1 0xFF AND DUP2 MSTORE POP PUSH1 0x3 SWAP1 PUSH1 0x3 PUSH2 0x40 SWAP3 SWAP2 SWAP1 PUSH2 0x53 JUMP JUMPDEST POP CALLVALUE DUP1 ISZERO PUSH2 0x4D JUMPI PUSH1 0x0 DUP1 REVERT JUMPDEST POP PUSH2 0xC2 JUMP JUMPDEST DUP3 DUP1 SLOAD DUP3 DUP3 SSTORE SWAP1 PUSH1 0x0 MSTORE PUSH1 0x20 PUSH1 0x0 KECCAK256 SWAP1 DUP2 ADD SWAP3 DUP3 ISZERO PUSH2 0x94 JUMPI SWAP2 PUSH1 0x20 MUL DUP3 ADD JUMPDEST DUP3 DUP2 GT ISZERO PUSH2 0x93 JUMPI DUP3 MLOAD DUP3 SWAP1 PUSH1 0xFF AND SWAP1 SSTORE SWAP2 PUSH1 0x20 ADD SWAP2 SWAP1 PUSH1 0x1 ADD SWAP1 PUSH2 0x73 JUMP JUMPDEST JUMPDEST POP SWAP1 POP PUSH2 0xA1 SWAP2 SWAP1 PUSH2 0xA5 JUMP JUMPDEST POP SWAP1 JUMP JUMPDEST JUMPDEST DUP1 DUP3 GT ISZERO PUSH2 0xBE JUMPI PUSH1 0x0 DUP2 PUSH1 0x0 SWAP1 SSTORE POP PUSH1 0x1 ADD PUSH2 0xA6 JUMP JUMPDEST POP SWAP1 JUMP JUMPDEST PUSH2 0xA32 DUP1 PUSH2 0xD1 PUSH1 0x0 CODECOPY PUSH1 0x0 RETURN INVALID PUSH1 0x80 PUSH1 0x40 MSTORE PUSH1 0x4 CALLDATASIZE LT PUSH2 0x86 JUMPI PUSH1 0x0 CALLDATALOAD PUSH1 0xE0 SHR DUP1 PUSH4 0x6A8D1E08 GT PUSH2 0x59 JUMPI DUP1 PUSH4 0x6A8D1E08 EQ PUSH2 0x118 JUMPI DUP1 PUSH4 0x9B1A379C EQ PUSH2 0x12F JUMPI DUP1 PUSH4 0xC2985578 EQ PUSH2 0x16D JUMPI DUP1 PUSH4 0xC3DA42B8 EQ PUSH2 0x184 JUMPI DUP1 PUSH4 0xFEBB0F7E EQ PUSH2 0x1AF JUMPI PUSH2 0x86 JUMP JUMPDEST DUP1 PUSH4 0xDBE671F EQ PUSH2 0x8B JUMPI DUP1 PUSH4 0x20028990 EQ PUSH2 0xB6 JUMPI DUP1 PUSH4 0x4048D797 EQ PUSH2 0xCD JUMPI DUP1 PUSH4 0x4DF7E3D0 EQ PUSH2 0xED JUMPI JUMPDEST PUSH1 0x0 DUP1 REVERT JUMPDEST CALLVALUE DUP1 ISZERO PUSH2 0x97 JUMPI PUSH1 0x0 DUP1 REVERT JUMPDEST POP PUSH2 0xA0 PUSH2 0x1DA JUMP JUMPDEST PUSH1 0x40 MLOAD PUSH2 0xAD SWAP2 SWAP1 PUSH2 0x773 JUMP JUMPDEST PUSH1 0x40 MLOAD DUP1 SWAP2 SUB SWAP1 RETURN JUMPDEST CALLVALUE DUP1 ISZERO PUSH2 0xC2 JUMPI PUSH1 0x0 DUP1 REVERT JUMPDEST POP PUSH2 0xCB PUSH2 0x1E0 JUMP JUMPDEST STOP JUMPDEST PUSH2 0xD5 PUSH2 0x25A JUMP JUMPDEST PUSH1 0x40 MLOAD PUSH2 0xE4 SWAP4 SWAP3 SWAP2 SWAP1 PUSH2 0x6EF JUMP JUMPDEST PUSH1 0x40 MLOAD DUP1 SWAP2 SUB SWAP1 RETURN JUMPDEST CALLVALUE DUP1 ISZERO PUSH2 0xF9 JUMPI PUSH1 0x0 DUP1 REVERT JUMPDEST POP PUSH2 0x102 PUSH2 0x368 JUMP JUMPDEST PUSH1 0x40 MLOAD PUSH2 0x10F SWAP2 SWAP1 PUSH2 0x773 JUMP JUMPDEST PUSH1 0x40 MLOAD DUP1 SWAP2 SUB SWAP1 RETURN JUMPDEST CALLVALUE DUP1 ISZERO PUSH2 0x124 JUMPI PUSH1 0x0 DUP1 REVERT JUMPDEST POP PUSH2 0x12D PUSH2 0x36E JUMP JUMPDEST STOP JUMPDEST CALLVALUE DUP1 ISZERO PUSH2 0x13B JUMPI PUSH1 0x0 DUP1 REVERT JUMPDEST POP PUSH2 0x156 PUSH1 0x4 DUP1 CALLDATASIZE SUB DUP2 ADD SWAP1 PUSH2 0x151 SWAP2 SWAP1 PUSH2 0x5B6 JUMP JUMPDEST PUSH2 0x39B JUMP JUMPDEST PUSH1 0x40 MLOAD PUSH2 0x164 SWAP3 SWAP2 SWAP1 PUSH2 0x72D JUMP JUMPDEST PUSH1 0x40 MLOAD DUP1 SWAP2 SUB SWAP1 RETURN JUMPDEST CALLVALUE DUP1 ISZERO PUSH2 0x179 JUMPI PUSH1 0x0 DUP1 REVERT JUMPDEST POP PUSH2 0x182 PUSH2 0x3AB JUMP JUMPDEST STOP JUMPDEST CALLVALUE DUP1 ISZERO PUSH2 0x190 JUMPI PUSH1 0x0 DUP1 REVERT JUMPDEST POP PUSH2 0x199 PUSH2 0x409 JUMP JUMPDEST PUSH1 0x40 MLOAD PUSH2 0x1A6 SWAP2 SWAP1 PUSH2 0x751 JUMP JUMPDEST PUSH1 0x40 MLOAD DUP1 SWAP2 SUB SWAP1 RETURN JUMPDEST CALLVALUE DUP1 ISZERO PUSH2 0x1BB JUMPI PUSH1 0x0 DUP1 REVERT JUMPDEST POP PUSH2 0x1C4 PUSH2 0x497 JUMP JUMPDEST PUSH1 0x40 MLOAD PUSH2 0x1D1 SWAP2 SWAP1 PUSH2 0x773 JUMP JUMPDEST PUSH1 0x40 MLOAD DUP1 SWAP2 SUB SWAP1 RETURN JUMPDEST PUSH1 0x0 SLOAD DUP2 JUMP JUMPDEST PUSH1 0x0 PUSH1 0x3 DUP1 SLOAD DUP1 PUSH1 0x20 MUL PUSH1 0x20 ADD PUSH1 0x40 MLOAD SWAP1 DUP2 ADD PUSH1 0x40 MSTORE DUP1 SWAP3 SWAP2 SWAP1 DUP2 DUP2 MSTORE PUSH1 0x20 ADD DUP3 DUP1 SLOAD DUP1 ISZERO PUSH2 0x22E JUMPI PUSH1 0x20 MUL DUP3 ADD SWAP2 SWAP1 PUSH1 0x0 MSTORE PUSH1 0x20 PUSH1 0x0 KECCAK256 SWAP1 JUMPDEST DUP2 SLOAD DUP2 MSTORE PUSH1 0x20 ADD SWAP1 PUSH1 0x1 ADD SWAP1 DUP1 DUP4 GT PUSH2 0x21A JUMPI JUMPDEST POP POP POP POP POP SWAP1 POP PUSH1 0x64 DUP2 PUSH1 0x0 DUP2 MLOAD DUP2 LT PUSH2 0x24B JUMPI PUSH2 0x24A PUSH2 0x99E JUMP JUMPDEST JUMPDEST PUSH1 0x20 MUL PUSH1 0x20 ADD ADD DUP2 DUP2 MSTORE POP POP POP JUMP JUMPDEST PUSH1 0x0 DUP1 PUSH1 0x60 PUSH1 0x0 CALLER SWAP1 POP PUSH1 0x0 NUMBER SWAP1 POP PUSH1 0x0 DUP1 CALLDATASIZE DUP1 DUP1 PUSH1 0x1F ADD PUSH1 0x20 DUP1 SWAP2 DIV MUL PUSH1 0x20 ADD PUSH1 0x40 MLOAD SWAP1 DUP2 ADD PUSH1 0x40 MSTORE DUP1 SWAP4 SWAP3 SWAP2 SWAP1 DUP2 DUP2 MSTORE PUSH1 0x20 ADD DUP4 DUP4 DUP1 DUP3 DUP5 CALLDATACOPY PUSH1 0x0 DUP2 DUP5 ADD MSTORE PUSH1 0x1F NOT PUSH1 0x1F DUP3 ADD AND SWAP1 POP DUP1 DUP4 ADD SWAP3 POP POP POP POP POP POP POP SWAP1 POP PUSH1 0x1 DUP3 PUSH2 0x2BF SWAP2 SWAP1 PUSH2 0x82D JUMP JUMPDEST POP PUSH1 0x1 DUP1 EQ PUSH2 0x2D1 JUMPI PUSH2 0x2D0 PUSH2 0x911 JUMP JUMPDEST JUMPDEST PUSH1 0x1 DUP1 EQ PUSH2 0x2E2 JUMPI PUSH2 0x2E1 PUSH2 0x911 JUMP JUMPDEST JUMPDEST PUSH4 0x3B9ACA00 DUP1 EQ PUSH2 0x2F6 JUMPI PUSH2 0x2F5 PUSH2 0x911 JUMP JUMPDEST JUMPDEST PUSH8 0xDE0B6B3A7640000 DUP1 EQ PUSH2 0x30E JUMPI PUSH2 0x30D PUSH2 0x911 JUMP JUMPDEST JUMPDEST PUSH1 0x3C DUP1 EQ PUSH2 0x31F JUMPI PUSH2 0x31E PUSH2 0x911 JUMP JUMPDEST JUMPDEST PUSH2 0xE10 DUP1 EQ PUSH2 0x331 JUMPI PUSH2 0x330 PUSH2 0x911 JUMP JUMPDEST JUMPDEST PUSH3 0x15180 DUP1 EQ PUSH2 0x344 JUMPI PUSH2 0x343 PUSH2 0x911 JUMP JUMPDEST JUMPDEST PUSH3 0x93A80 DUP1 EQ PUSH2 0x357 JUMPI PUSH2 0x356 PUSH2 0x911 JUMP JUMPDEST JUMPDEST DUP3 DUP3 DUP3 SWAP6 POP SWAP6 POP SWAP6 POP POP POP POP SWAP1 SWAP2 SWAP3 JUMP JUMPDEST PUSH1 0x1 SLOAD DUP2 JUMP JUMPDEST PUSH1 0x0 PUSH1 0x3 SWAP1 POP PUSH1 0x64 DUP2 PUSH1 0x0 DUP2 SLOAD DUP2 LT PUSH2 0x38A JUMPI PUSH2 0x389 PUSH2 0x99E JUMP JUMPDEST JUMPDEST SWAP1 PUSH1 0x0 MSTORE PUSH1 0x20 PUSH1 0x0 KECCAK256 ADD DUP2 SWAP1 SSTORE POP POP JUMP JUMPDEST CALLDATASIZE PUSH1 0x0 DUP4 DUP4 SWAP2 POP SWAP2 POP SWAP3 POP SWAP3 SWAP1 POP JUMP JUMPDEST PUSH1 0x2 PUSH1 0x0 DUP2 SWAP1 SSTORE POP PUSH1 0x3 PUSH1 0x1 DUP2 SWAP1 SSTORE POP PUSH1 0x40 MLOAD DUP1 PUSH1 0x40 ADD PUSH1 0x40 MSTORE DUP1 PUSH1 0x1 DUP2 MSTORE PUSH1 0x20 ADD PUSH32 0x6100000000000000000000000000000000000000000000000000000000000000 DUP2 MSTORE POP PUSH1 0x2 SWAP1 DUP1 MLOAD SWAP1 PUSH1 0x20 ADD SWAP1 PUSH2 0x406 SWAP3 SWAP2 SWAP1 PUSH2 0x4BD JUMP JUMPDEST POP JUMP JUMPDEST PUSH1 0x2 DUP1 SLOAD PUSH2 0x416 SWAP1 PUSH2 0x8DF JUMP JUMPDEST DUP1 PUSH1 0x1F ADD PUSH1 0x20 DUP1 SWAP2 DIV MUL PUSH1 0x20 ADD PUSH1 0x40 MLOAD SWAP1 DUP2 ADD PUSH1 0x40 MSTORE DUP1 SWAP3 SWAP2 SWAP1 DUP2 DUP2 MSTORE PUSH1 0x20 ADD DUP3 DUP1 SLOAD PUSH2 0x442 SWAP1 PUSH2 0x8DF JUMP JUMPDEST DUP1 ISZERO PUSH2 0x48F JUMPI DUP1 PUSH1 0x1F LT PUSH2 0x464 JUMPI PUSH2 0x100 DUP1 DUP4 SLOAD DIV MUL DUP4 MSTORE SWAP2 PUSH1 0x20 ADD SWAP2 PUSH2 0x48F JUMP JUMPDEST DUP3 ADD SWAP2 SWAP1 PUSH1 0x0 MSTORE PUSH1 0x20 PUSH1 0x0 KECCAK256 SWAP1 JUMPDEST DUP2 SLOAD DUP2 MSTORE SWAP1 PUSH1 0x1 ADD SWAP1 PUSH1 0x20 ADD DUP1 DUP4 GT PUSH2 0x472 JUMPI DUP3 SWAP1 SUB PUSH1 0x1F AND DUP3 ADD SWAP2 JUMPDEST POP POP POP POP POP DUP2 JUMP JUMPDEST PUSH1 0x0 DUP1 PUSH1 0x1 SWAP1 POP PUSH1 0x0 PUSH1 0x2 SWAP1 POP PUSH1 0x0 DUP2 DUP4 PUSH2 0x4B2 SWAP2 SWAP1 PUSH2 0x7D7 JUMP JUMPDEST SWAP1 POP DUP1 SWAP4 POP POP POP POP SWAP1 JUMP JUMPDEST DUP3 DUP1 SLOAD PUSH2 0x4C9 SWAP1 PUSH2 0x8DF JUMP JUMPDEST SWAP1 PUSH1 0x0 MSTORE PUSH1 0x20 PUSH1 0x0 KECCAK256 SWAP1 PUSH1 0x1F ADD PUSH1 0x20 SWAP1 DIV DUP2 ADD SWAP3 DUP3 PUSH2 0x4EB JUMPI PUSH1 0x0 DUP6 SSTORE PUSH2 0x532 JUMP JUMPDEST DUP3 PUSH1 0x1F LT PUSH2 0x504 JUMPI DUP1 MLOAD PUSH1 0xFF NOT AND DUP4 DUP1 ADD OR DUP6 SSTORE PUSH2 0x532 JUMP JUMPDEST DUP3 DUP1 ADD PUSH1 0x1 ADD DUP6 SSTORE DUP3 ISZERO PUSH2 0x532 JUMPI SWAP2 DUP3 ADD JUMPDEST DUP3 DUP2 GT ISZERO PUSH2 0x531 JUMPI DUP3 MLOAD DUP3 SSTORE SWAP2 PUSH1 0x20 ADD SWAP2 SWAP1 PUSH1 0x1 ADD SWAP1 PUSH2 0x516 JUMP JUMPDEST JUMPDEST POP SWAP1 POP PUSH2 0x53F SWAP2 SWAP1 PUSH2 0x543 JUMP JUMPDEST POP SWAP1 JUMP JUMPDEST JUMPDEST DUP1 DUP3 GT ISZERO PUSH2 0x55C JUMPI PUSH1 0x0 DUP2 PUSH1 0x0 SWAP1 SSTORE POP PUSH1 0x1 ADD PUSH2 0x544 JUMP JUMPDEST POP SWAP1 JUMP JUMPDEST PUSH1 0x0 DUP1 DUP4 PUSH1 0x1F DUP5 ADD SLT PUSH2 0x576 JUMPI PUSH2 0x575 PUSH2 0x9D2 JUMP JUMPDEST JUMPDEST DUP3 CALLDATALOAD SWAP1 POP PUSH8 0xFFFFFFFFFFFFFFFF DUP2 GT ISZERO PUSH2 0x593 JUMPI PUSH2 0x592 PUSH2 0x9CD JUMP JUMPDEST JUMPDEST PUSH1 0x20 DUP4 ADD SWAP2 POP DUP4 PUSH1 0x20 DUP3 MUL DUP4 ADD GT ISZERO PUSH2 0x5AF JUMPI PUSH2 0x5AE PUSH2 0x9D7 JUMP JUMPDEST JUMPDEST SWAP3 POP SWAP3 SWAP1 POP JUMP JUMPDEST PUSH1 0x0 DUP1 PUSH1 0x20 DUP4 DUP6 SUB SLT ISZERO PUSH2 0x5CD JUMPI PUSH2 0x5CC PUSH2 0x9E6 JUMP JUMPDEST JUMPDEST PUSH1 0x0 DUP4 ADD CALLDATALOAD PUSH8 0xFFFFFFFFFFFFFFFF DUP2 GT ISZERO PUSH2 0x5EB JUMPI PUSH2 0x5EA PUSH2 0x9DC JUMP JUMPDEST JUMPDEST PUSH2 0x5F7 DUP6 DUP3 DUP7 ADD PUSH2 0x560 JUMP JUMPDEST SWAP3 POP SWAP3 POP POP SWAP3 POP SWAP3 SWAP1 POP JUMP JUMPDEST PUSH2 0x60C DUP2 PUSH2 0x861 JUMP JUMPDEST DUP3 MSTORE POP POP JUMP JUMPDEST PUSH1 0x0 PUSH2 0x61E DUP4 DUP6 PUSH2 0x7A4 JUMP JUMPDEST SWAP4 POP PUSH32 0x7FFFFFFFFFFFFFFFFFFFFFFFFFFFFFFFFFFFFFFFFFFFFFFFFFFFFFFFFFFFFFF DUP4 GT ISZERO PUSH2 0x651 JUMPI PUSH2 0x650 PUSH2 0x9E1 JUMP JUMPDEST JUMPDEST PUSH1 0x20 DUP4 MUL SWAP3 POP PUSH2 0x662 DUP4 DUP6 DUP5 PUSH2 0x89D JUMP JUMPDEST DUP3 DUP5 ADD SWAP1 POP SWAP4 SWAP3 POP POP POP JUMP JUMPDEST PUSH1 0x0 PUSH2 0x679 DUP3 PUSH2 0x78E JUMP JUMPDEST PUSH2 0x683 DUP2 DUP6 PUSH2 0x7B5 JUMP JUMPDEST SWAP4 POP PUSH2 0x693 DUP2 DUP6 PUSH1 0x20 DUP7 ADD PUSH2 0x8AC JUMP JUMPDEST PUSH2 0x69C DUP2 PUSH2 0x9EB JUMP JUMPDEST DUP5 ADD SWAP2 POP POP SWAP3 SWAP2 POP POP JUMP JUMPDEST PUSH1 0x0 PUSH2 0x6B2 DUP3 PUSH2 0x799 JUMP JUMPDEST PUSH2 0x6BC DUP2 DUP6 PUSH2 0x7C6 JUMP JUMPDEST SWAP4 POP PUSH2 0x6CC DUP2 DUP6 PUSH1 0x20 DUP7 ADD PUSH2 0x8AC JUMP JUMPDEST PUSH2 0x6D5 DUP2 PUSH2 0x9EB JUMP JUMPDEST DUP5 ADD SWAP2 POP POP SWAP3 SWAP2 POP POP JUMP JUMPDEST PUSH2 0x6E9 DUP2 PUSH2 0x893 JUMP JUMPDEST DUP3 MSTORE POP POP JUMP JUMPDEST PUSH1 0x0 PUSH1 0x60 DUP3 ADD SWAP1 POP PUSH2 0x704 PUSH1 0x0 DUP4 ADD DUP7 PUSH2 0x603 JUMP JUMPDEST PUSH2 0x711 PUSH1 0x20 DUP4 ADD DUP6 PUSH2 0x6E0 JUMP JUMPDEST DUP2 DUP2 SUB PUSH1 0x40 DUP4 ADD MSTORE PUSH2 0x723 DUP2 DUP5 PUSH2 0x66E JUMP JUMPDEST SWAP1 POP SWAP5 SWAP4 POP POP POP POP JUMP JUMPDEST PUSH1 0x0 PUSH1 0x20 DUP3 ADD SWAP1 POP DUP2 DUP2 SUB PUSH1 0x0 DUP4 ADD MSTORE PUSH2 0x748 DUP2 DUP5 DUP7 PUSH2 0x612 JUMP JUMPDEST SWAP1 POP SWAP4 SWAP3 POP POP POP JUMP JUMPDEST PUSH1 0x0 PUSH1 0x20 DUP3 ADD SWAP1 POP DUP2 DUP2 SUB PUSH1 0x0 DUP4 ADD MSTORE PUSH2 0x76B DUP2 DUP5 PUSH2 0x6A7 JUMP JUMPDEST SWAP1 POP SWAP3 SWAP2 POP POP JUMP JUMPDEST PUSH1 0x0 PUSH1 0x20 DUP3 ADD SWAP1 POP PUSH2 0x788 PUSH1 0x0 DUP4 ADD DUP5 PUSH2 0x6E0 JUMP JUMPDEST SWAP3 SWAP2 POP POP JUMP JUMPDEST PUSH1 0x0 DUP2 MLOAD SWAP1 POP SWAP2 SWAP1 POP JUMP JUMPDEST PUSH1 0x0 DUP2 MLOAD SWAP1 POP SWAP2 SWAP1 POP JUMP JUMPDEST PUSH1 0x0 DUP3 DUP3 MSTORE PUSH1 0x20 DUP3 ADD SWAP1 POP SWAP3 SWAP2 POP POP JUMP JUMPDEST PUSH1 0x0 DUP3 DUP3 MSTORE PUSH1 0x20 DUP3 ADD SWAP1 POP SWAP3 SWAP2 POP POP JUMP JUMPDEST PUSH1 0x0 DUP3 DUP3 MSTORE PUSH1 0x20 DUP3 ADD SWAP1 POP SWAP3 SWAP2 POP POP JUMP JUMPDEST PUSH1 0x0 PUSH2 0x7E2 DUP3 PUSH2 0x893 JUMP JUMPDEST SWAP2 POP PUSH2 0x7ED DUP4 PUSH2 0x893 JUMP JUMPDEST SWAP3 POP DUP3 PUSH32 0xFFFFFFFFFFFFFFFFFFFFFFFFFFFFFFFFFFFFFFFFFFFFFFFFFFFFFFFFFFFFFFFF SUB DUP3 GT ISZERO PUSH2 0x822 JUMPI PUSH2 0x821 PUSH2 0x940 JUMP JUMPDEST JUMPDEST DUP3 DUP3 ADD SWAP1 POP SWAP3 SWAP2 POP POP JUMP JUMPDEST PUSH1 0x0 PUSH2 0x838 DUP3 PUSH2 0x893 JUMP JUMPDEST SWAP2 POP PUSH2 0x843 DUP4 PUSH2 0x893 JUMP JUMPDEST SWAP3 POP DUP3 DUP3 LT ISZERO PUSH2 0x856 JUMPI PUSH2 0x855 PUSH2 0x940 JUMP JUMPDEST JUMPDEST DUP3 DUP3 SUB SWAP1 POP SWAP3 SWAP2 POP POP JUMP JUMPDEST PUSH1 0x0 PUSH2 0x86C DUP3 PUSH2 0x873 JUMP JUMPDEST SWAP1 POP SWAP2 SWAP1 POP JUMP JUMPDEST PUSH1 0x0 PUSH20 0xFFFFFFFFFFFFFFFFFFFFFFFFFFFFFFFFFFFFFFFF DUP3 AND SWAP1 POP SWAP2 SWAP1 POP JUMP JUMPDEST PUSH1 0x0 DUP2 SWAP1 POP SWAP2 SWAP1 POP JUMP JUMPDEST DUP3 DUP2 DUP4 CALLDATACOPY PUSH1 0x0 DUP4 DUP4 ADD MSTORE POP POP POP JUMP JUMPDEST PUSH1 0x0 JUMPDEST DUP4 DUP2 LT ISZERO PUSH2 0x8CA JUMPI DUP1 DUP3 ADD MLOAD DUP2 DUP5 ADD MSTORE PUSH1 0x20 DUP2 ADD SWAP1 POP PUSH2 0x8AF JUMP JUMPDEST DUP4 DUP2 GT ISZERO PUSH2 0x8D9 JUMPI PUSH1 0x0 DUP5 DUP5 ADD MSTORE JUMPDEST POP POP POP POP JUMP JUMPDEST PUSH1 0x0 PUSH1 0x2 DUP3 DIV SWAP1 POP PUSH1 0x1 DUP3 AND DUP1 PUSH2 0x8F7 JUMPI PUSH1 0x7F DUP3 AND SWAP2 POP JUMPDEST PUSH1 0x20 DUP3 LT DUP2 EQ ISZERO PUSH2 0x90B JUMPI PUSH2 0x90A PUSH2 0x96F JUMP JUMPDEST JUMPDEST POP SWAP2 SWAP1 POP JUMP JUMPDEST PUSH32 0x4E487B7100000000000000000000000000000000000000000000000000000000 PUSH1 0x0 MSTORE PUSH1 0x1 PUSH1 0x4 MSTORE PUSH1 0x24 PUSH1 0x0 REVERT JUMPDEST PUSH32 0x4E487B7100000000000000000000000000000000000000000000000000000000 PUSH1 0x0 MSTORE PUSH1 0x11 PUSH1 0x4 MSTORE PUSH1 0x24 PUSH1 0x0 REVERT JUMPDEST PUSH32 0x4E487B7100000000000000000000000000000000000000000000000000000000 PUSH1 0x0 MSTORE PUSH1 0x22 PUSH1 0x4 MSTORE PUSH1 0x24 PUSH1 0x0 REVERT JUMPDEST PUSH32 0x4E487B7100000000000000000000000000000000000000000000000000000000 PUSH1 0x0 MSTORE PUSH1 0x32 PUSH1 0x4 MSTORE PUSH1 0x24 PUSH1 0x0 REVERT JUMPDEST PUSH1 0x0 DUP1 REVERT JUMPDEST PUSH1 0x0 DUP1 REVERT JUMPDEST PUSH1 0x0 DUP1 REVERT JUMPDEST PUSH1 0x0 DUP1 REVERT JUMPDEST PUSH1 0x0 DUP1 REVERT JUMPDEST PUSH1 0x0 DUP1 REVERT JUMPDEST PUSH1 0x0 PUSH1 0x1F NOT PUSH1 0x1F DUP4 ADD AND SWAP1 POP SWAP2 SWAP1 POP JUMP INVALID LOG2 PUSH5 0x6970667358 0x22 SLT KECCAK256 ADDRESS CALLDATACOPY EXTCODESIZE RETURN BYTE 0x4E 0xCC 0xDC DUP12 KECCAK256 PUSH22 0xD09425FAEF6BFED34996F0D8AB5BA6B874CBCFC29164 PUSH20 0x6F6C634300080700330000000000000000000000 "
				},
				"gasEstimates": {
					"creation": {
						"codeDepositCost": "522000",
						"executionCost": "infinite",
						"totalCost": "infinite"
					},
					"external": {
						"a()": "2430",
						"b()": "2496",
						"bar()": "infinite",
						"c()": "infinite",
						"fCalldata(uint256[])": "infinite",
						"fMemory()": "infinite",
						"fStorage()": "24451",
						"foo()": "infinite",
						"globalVariable()": "infinite"
					}
				},
				"methodIdentifiers": {
					"a()": "0dbe671f",
					"b()": "4df7e3d0",
					"bar()": "febb0f7e",
					"c()": "c3da42b8",
					"fCalldata(uint256[])": "9b1a379c",
					"fMemory()": "20028990",
					"fStorage()": "6a8d1e08",
					"foo()": "c2985578",
					"globalVariable()": "4048d797"
				}
			},
			"storageLayout": {
				"storage": [
					{
						"astId": 4,
						"contract": "contract/05_DataStorageAndScope.sol:DataStorageAndScope",
						"label": "a",
						"offset": 0,
						"slot": "0",
						"type": "t_uint256"
					},
					{
						"astId": 6,
						"contract": "contract/05_DataStorageAndScope.sol:DataStorageAndScope",
						"label": "b",
						"offset": 0,
						"slot": "1",
						"type": "t_uint256"
					},
					{
						"astId": 8,
						"contract": "contract/05_DataStorageAndScope.sol:DataStorageAndScope",
						"label": "c",
						"offset": 0,
						"slot": "2",
						"type": "t_string_storage"
					},
					{
						"astId": 166,
						"contract": "contract/05_DataStorageAndScope.sol:DataStorageAndScope",
						"label": "x",
						"offset": 0,
						"slot": "3",
						"type": "t_array(t_uint256)dyn_storage"
					}
				],
				"types": {
					"t_array(t_uint256)dyn_storage": {
						"base": "t_uint256",
						"encoding": "dynamic_array",
						"label": "uint256[]",
						"numberOfBytes": "32"
					},
					"t_string_storage": {
						"encoding": "bytes",
						"label": "string",
						"numberOfBytes": "32"
					},
					"t_uint256": {
						"encoding": "inplace",
						"label": "uint256",
						"numberOfBytes": "32"
					}
				}
			},
			"userdoc": {
				"kind": "user",
				"methods": {},
				"version": 1
			}
		}
	}
}