{
	"contract/14_Exceptioin.sol": {
		"Exception": {
			"abi": [
				{
					"inputs": [
						{
							"internalType": "address",
							"name": "sender",
							"type": "address"
						}
					],
					"name": "TransferNotOwner",
					"type": "error"
				},
				{
					"inputs": [
						{
							"internalType": "uint256",
							"name": "",
							"type": "uint256"
						}
					],
					"name": "_owners",
					"outputs": [
						{
							"internalType": "address",
							"name": "",
							"type": "address"
						}
					],
					"stateMutability": "view",
					"type": "function"
				},
				{
					"inputs": [
						{
							"internalType": "uint256",
							"name": "tokenId",
							"type": "uint256"
						},
						{
							"internalType": "address",
							"name": "newOwner",
							"type": "address"
						}
					],
					"name": "transferOwner1",
					"outputs": [],
					"stateMutability": "nonpayable",
					"type": "function"
				},
				{
					"inputs": [
						{
							"internalType": "uint256",
							"name": "tokenId",
							"type": "uint256"
						},
						{
							"internalType": "address",
							"name": "newOwner",
							"type": "address"
						}
					],
					"name": "transferOwner2",
					"outputs": [],
					"stateMutability": "nonpayable",
					"type": "function"
				},
				{
					"inputs": [
						{
							"internalType": "uint256",
							"name": "tokenId",
							"type": "uint256"
						},
						{
							"internalType": "address",
							"name": "newOwner",
							"type": "address"
						}
					],
					"name": "transferOwner3",
					"outputs": [],
					"stateMutability": "nonpayable",
					"type": "function"
				}
			],
			"devdoc": {
				"kind": "dev",
				"methods": {},
				"version": 1
			},
			"evm": {
				"assembly": "    /* \"contract/14_Exceptioin.sol\":179:1245  contract Exception {\r... */\n  mstore(0x40, 0x80)\n  callvalue\n  dup1\n  iszero\n  tag_1\n  jumpi\n  0x00\n  dup1\n  revert\ntag_1:\n  pop\n  dataSize(sub_0)\n  dup1\n  dataOffset(sub_0)\n  0x00\n  codecopy\n  0x00\n  return\nstop\n\nsub_0: assembly {\n        /* \"contract/14_Exceptioin.sol\":179:1245  contract Exception {\r... */\n      mstore(0x40, 0x80)\n      callvalue\n      dup1\n      iszero\n      tag_1\n      jumpi\n      0x00\n      dup1\n      revert\n    tag_1:\n      pop\n      jumpi(tag_2, lt(calldatasize, 0x04))\n      shr(0xe0, calldataload(0x00))\n      dup1\n      0x0f4be868\n      eq\n      tag_3\n      jumpi\n      dup1\n      0x488d9f60\n      eq\n      tag_4\n      jumpi\n      dup1\n      0x83f5e67e\n      eq\n      tag_5\n      jumpi\n      dup1\n      0x992924a6\n      eq\n      tag_6\n      jumpi\n    tag_2:\n      0x00\n      dup1\n      revert\n        /* \"contract/14_Exceptioin.sol\":258:535  function transferOwner1(uint256 tokenId, address newOwner) public {\r... */\n    tag_3:\n      tag_7\n      0x04\n      dup1\n      calldatasize\n      sub\n      dup2\n      add\n      swap1\n      tag_8\n      swap2\n      swap1\n      tag_9\n      jump\t// in\n    tag_8:\n      tag_10\n      jump\t// in\n    tag_7:\n      stop\n        /* \"contract/14_Exceptioin.sol\":890:1116  function transferOwner3(uint256 tokenId, address newOwner) public {\r... */\n    tag_4:\n      tag_11\n      0x04\n      dup1\n      calldatasize\n      sub\n      dup2\n      add\n      swap1\n      tag_12\n      swap2\n      swap1\n      tag_9\n      jump\t// in\n    tag_12:\n      tag_13\n      jump\t// in\n    tag_11:\n      stop\n        /* \"contract/14_Exceptioin.sol\":545:882  function transferOwner2(uint256 tokenId, address newOwner) public {\r... */\n    tag_5:\n      tag_14\n      0x04\n      dup1\n      calldatasize\n      sub\n      dup2\n      add\n      swap1\n      tag_15\n      swap2\n      swap1\n      tag_9\n      jump\t// in\n    tag_15:\n      tag_16\n      jump\t// in\n    tag_14:\n      stop\n        /* \"contract/14_Exceptioin.sol\":207:249  mapping(uint256 => address) public _owners */\n    tag_6:\n      tag_17\n      0x04\n      dup1\n      calldatasize\n      sub\n      dup2\n      add\n      swap1\n      tag_18\n      swap2\n      swap1\n      tag_19\n      jump\t// in\n    tag_18:\n      tag_20\n      jump\t// in\n    tag_17:\n      mload(0x40)\n      tag_21\n      swap2\n      swap1\n      tag_22\n      jump\t// in\n    tag_21:\n      mload(0x40)\n      dup1\n      swap2\n      sub\n      swap1\n      return\n        /* \"contract/14_Exceptioin.sol\":258:535  function transferOwner1(uint256 tokenId, address newOwner) public {\r... */\n    tag_10:\n        /* \"contract/14_Exceptioin.sol\":335:347  address add1 */\n      0x00\n        /* \"contract/14_Exceptioin.sol\":350:392  0x0000000000000000000000000000000000000001 */\n      0x01\n        /* \"contract/14_Exceptioin.sol\":335:392  address add1 = 0x0000000000000000000000000000000000000001 */\n      swap1\n      pop\n        /* \"contract/14_Exceptioin.sol\":414:424  msg.sender */\n      caller\n        /* \"contract/14_Exceptioin.sol\":406:424  add1 != msg.sender */\n      0xffffffffffffffffffffffffffffffffffffffff\n      and\n        /* \"contract/14_Exceptioin.sol\":406:410  add1 */\n      dup2\n        /* \"contract/14_Exceptioin.sol\":406:424  add1 != msg.sender */\n      0xffffffffffffffffffffffffffffffffffffffff\n      and\n      eq\n        /* \"contract/14_Exceptioin.sol\":403:488  if(add1 != msg.sender) {\r... */\n      tag_24\n      jumpi\n        /* \"contract/14_Exceptioin.sol\":465:475  msg.sender */\n      caller\n        /* \"contract/14_Exceptioin.sol\":448:476  TransferNotOwner(msg.sender) */\n      mload(0x40)\n      0xfe3cc4db00000000000000000000000000000000000000000000000000000000\n      dup2\n      mstore\n      0x04\n      add\n      tag_25\n      swap2\n      swap1\n      tag_22\n      jump\t// in\n    tag_25:\n      mload(0x40)\n      dup1\n      swap2\n      sub\n      swap1\n      revert\n        /* \"contract/14_Exceptioin.sol\":403:488  if(add1 != msg.sender) {\r... */\n    tag_24:\n        /* \"contract/14_Exceptioin.sol\":519:527  newOwner */\n      dup2\n        /* \"contract/14_Exceptioin.sol\":500:507  _owners */\n      0x00\n        /* \"contract/14_Exceptioin.sol\":500:516  _owners[tokenId] */\n      dup1\n        /* \"contract/14_Exceptioin.sol\":508:515  tokenId */\n      dup6\n        /* \"contract/14_Exceptioin.sol\":500:516  _owners[tokenId] */\n      dup2\n      mstore\n      0x20\n      add\n      swap1\n      dup2\n      mstore\n      0x20\n      add\n      0x00\n      keccak256\n      0x00\n        /* \"contract/14_Exceptioin.sol\":500:527  _owners[tokenId] = newOwner */\n      0x0100\n      exp\n      dup2\n      sload\n      dup2\n      0xffffffffffffffffffffffffffffffffffffffff\n      mul\n      not\n      and\n      swap1\n      dup4\n      0xffffffffffffffffffffffffffffffffffffffff\n      and\n      mul\n      or\n      swap1\n      sstore\n      pop\n        /* \"contract/14_Exceptioin.sol\":324:535  {\r... */\n      pop\n        /* \"contract/14_Exceptioin.sol\":258:535  function transferOwner1(uint256 tokenId, address newOwner) public {\r... */\n      pop\n      pop\n      jump\t// out\n        /* \"contract/14_Exceptioin.sol\":890:1116  function transferOwner3(uint256 tokenId, address newOwner) public {\r... */\n    tag_13:\n        /* \"contract/14_Exceptioin.sol\":1059:1069  msg.sender */\n      caller\n        /* \"contract/14_Exceptioin.sol\":1039:1069  _owners[tokenId] == msg.sender */\n      0xffffffffffffffffffffffffffffffffffffffff\n      and\n        /* \"contract/14_Exceptioin.sol\":1039:1046  _owners */\n      0x00\n        /* \"contract/14_Exceptioin.sol\":1039:1055  _owners[tokenId] */\n      dup1\n        /* \"contract/14_Exceptioin.sol\":1047:1054  tokenId */\n      dup5\n        /* \"contract/14_Exceptioin.sol\":1039:1055  _owners[tokenId] */\n      dup2\n      mstore\n      0x20\n      add\n      swap1\n      dup2\n      mstore\n      0x20\n      add\n      0x00\n      keccak256\n      0x00\n      swap1\n      sload\n      swap1\n      0x0100\n      exp\n      swap1\n      div\n      0xffffffffffffffffffffffffffffffffffffffff\n      and\n        /* \"contract/14_Exceptioin.sol\":1039:1069  _owners[tokenId] == msg.sender */\n      0xffffffffffffffffffffffffffffffffffffffff\n      and\n      eq\n        /* \"contract/14_Exceptioin.sol\":1032:1070  assert(_owners[tokenId] == msg.sender) */\n      tag_27\n      jumpi\n      tag_28\n      tag_29\n      jump\t// in\n    tag_28:\n    tag_27:\n        /* \"contract/14_Exceptioin.sol\":1100:1108  newOwner */\n      dup1\n        /* \"contract/14_Exceptioin.sol\":1081:1088  _owners */\n      0x00\n        /* \"contract/14_Exceptioin.sol\":1081:1097  _owners[tokenId] */\n      dup1\n        /* \"contract/14_Exceptioin.sol\":1089:1096  tokenId */\n      dup5\n        /* \"contract/14_Exceptioin.sol\":1081:1097  _owners[tokenId] */\n      dup2\n      mstore\n      0x20\n      add\n      swap1\n      dup2\n      mstore\n      0x20\n      add\n      0x00\n      keccak256\n      0x00\n        /* \"contract/14_Exceptioin.sol\":1081:1108  _owners[tokenId] = newOwner */\n      0x0100\n      exp\n      dup2\n      sload\n      dup2\n      0xffffffffffffffffffffffffffffffffffffffff\n      mul\n      not\n      and\n      swap1\n      dup4\n      0xffffffffffffffffffffffffffffffffffffffff\n      and\n      mul\n      or\n      swap1\n      sstore\n      pop\n        /* \"contract/14_Exceptioin.sol\":890:1116  function transferOwner3(uint256 tokenId, address newOwner) public {\r... */\n      pop\n      pop\n      jump\t// out\n        /* \"contract/14_Exceptioin.sol\":545:882  function transferOwner2(uint256 tokenId, address newOwner) public {\r... */\n    tag_16:\n        /* \"contract/14_Exceptioin.sol\":803:813  msg.sender */\n      caller\n        /* \"contract/14_Exceptioin.sol\":783:813  _owners[tokenId] == msg.sender */\n      0xffffffffffffffffffffffffffffffffffffffff\n      and\n        /* \"contract/14_Exceptioin.sol\":783:790  _owners */\n      0x00\n        /* \"contract/14_Exceptioin.sol\":783:799  _owners[tokenId] */\n      dup1\n        /* \"contract/14_Exceptioin.sol\":791:798  tokenId */\n      dup5\n        /* \"contract/14_Exceptioin.sol\":783:799  _owners[tokenId] */\n      dup2\n      mstore\n      0x20\n      add\n      swap1\n      dup2\n      mstore\n      0x20\n      add\n      0x00\n      keccak256\n      0x00\n      swap1\n      sload\n      swap1\n      0x0100\n      exp\n      swap1\n      div\n      0xffffffffffffffffffffffffffffffffffffffff\n      and\n        /* \"contract/14_Exceptioin.sol\":783:813  _owners[tokenId] == msg.sender */\n      0xffffffffffffffffffffffffffffffffffffffff\n      and\n      eq\n        /* \"contract/14_Exceptioin.sol\":775:836  require(_owners[tokenId] == msg.sender, \"Transfer Not Owner\") */\n      tag_31\n      jumpi\n      mload(0x40)\n      0x08c379a000000000000000000000000000000000000000000000000000000000\n      dup2\n      mstore\n      0x04\n      add\n      tag_32\n      swap1\n      tag_33\n      jump\t// in\n    tag_32:\n      mload(0x40)\n      dup1\n      swap2\n      sub\n      swap1\n      revert\n    tag_31:\n        /* \"contract/14_Exceptioin.sol\":866:874  newOwner */\n      dup1\n        /* \"contract/14_Exceptioin.sol\":847:854  _owners */\n      0x00\n        /* \"contract/14_Exceptioin.sol\":847:863  _owners[tokenId] */\n      dup1\n        /* \"contract/14_Exceptioin.sol\":855:862  tokenId */\n      dup5\n        /* \"contract/14_Exceptioin.sol\":847:863  _owners[tokenId] */\n      dup2\n      mstore\n      0x20\n      add\n      swap1\n      dup2\n      mstore\n      0x20\n      add\n      0x00\n      keccak256\n      0x00\n        /* \"contract/14_Exceptioin.sol\":847:874  _owners[tokenId] = newOwner */\n      0x0100\n      exp\n      dup2\n      sload\n      dup2\n      0xffffffffffffffffffffffffffffffffffffffff\n      mul\n      not\n      and\n      swap1\n      dup4\n      0xffffffffffffffffffffffffffffffffffffffff\n      and\n      mul\n      or\n      swap1\n      sstore\n      pop\n        /* \"contract/14_Exceptioin.sol\":545:882  function transferOwner2(uint256 tokenId, address newOwner) public {\r... */\n      pop\n      pop\n      jump\t// out\n        /* \"contract/14_Exceptioin.sol\":207:249  mapping(uint256 => address) public _owners */\n    tag_20:\n      mstore(0x20, 0x00)\n      dup1\n      0x00\n      mstore\n      keccak256(0x00, 0x40)\n      0x00\n      swap2\n      pop\n      sload\n      swap1\n      0x0100\n      exp\n      swap1\n      div\n      0xffffffffffffffffffffffffffffffffffffffff\n      and\n      dup2\n      jump\t// out\n        /* \"#utility.yul\":7:146   */\n    tag_35:\n        /* \"#utility.yul\":53:58   */\n      0x00\n        /* \"#utility.yul\":91:97   */\n      dup2\n        /* \"#utility.yul\":78:98   */\n      calldataload\n        /* \"#utility.yul\":69:98   */\n      swap1\n      pop\n        /* \"#utility.yul\":107:140   */\n      tag_37\n        /* \"#utility.yul\":134:139   */\n      dup2\n        /* \"#utility.yul\":107:140   */\n      tag_38\n      jump\t// in\n    tag_37:\n        /* \"#utility.yul\":7:146   */\n      swap3\n      swap2\n      pop\n      pop\n      jump\t// out\n        /* \"#utility.yul\":152:291   */\n    tag_39:\n        /* \"#utility.yul\":198:203   */\n      0x00\n        /* \"#utility.yul\":236:242   */\n      dup2\n        /* \"#utility.yul\":223:243   */\n      calldataload\n        /* \"#utility.yul\":214:243   */\n      swap1\n      pop\n        /* \"#utility.yul\":252:285   */\n      tag_41\n        /* \"#utility.yul\":279:284   */\n      dup2\n        /* \"#utility.yul\":252:285   */\n      tag_42\n      jump\t// in\n    tag_41:\n        /* \"#utility.yul\":152:291   */\n      swap3\n      swap2\n      pop\n      pop\n      jump\t// out\n        /* \"#utility.yul\":297:626   */\n    tag_19:\n        /* \"#utility.yul\":356:362   */\n      0x00\n        /* \"#utility.yul\":405:407   */\n      0x20\n        /* \"#utility.yul\":393:402   */\n      dup3\n        /* \"#utility.yul\":384:391   */\n      dup5\n        /* \"#utility.yul\":380:403   */\n      sub\n        /* \"#utility.yul\":376:408   */\n      slt\n        /* \"#utility.yul\":373:492   */\n      iszero\n      tag_44\n      jumpi\n        /* \"#utility.yul\":411:490   */\n      tag_45\n      tag_46\n      jump\t// in\n    tag_45:\n        /* \"#utility.yul\":373:492   */\n    tag_44:\n        /* \"#utility.yul\":531:532   */\n      0x00\n        /* \"#utility.yul\":556:609   */\n      tag_47\n        /* \"#utility.yul\":601:608   */\n      dup5\n        /* \"#utility.yul\":592:598   */\n      dup3\n        /* \"#utility.yul\":581:590   */\n      dup6\n        /* \"#utility.yul\":577:599   */\n      add\n        /* \"#utility.yul\":556:609   */\n      tag_39\n      jump\t// in\n    tag_47:\n        /* \"#utility.yul\":546:609   */\n      swap2\n      pop\n        /* \"#utility.yul\":502:619   */\n      pop\n        /* \"#utility.yul\":297:626   */\n      swap3\n      swap2\n      pop\n      pop\n      jump\t// out\n        /* \"#utility.yul\":632:1106   */\n    tag_9:\n        /* \"#utility.yul\":700:706   */\n      0x00\n        /* \"#utility.yul\":708:714   */\n      dup1\n        /* \"#utility.yul\":757:759   */\n      0x40\n        /* \"#utility.yul\":745:754   */\n      dup4\n        /* \"#utility.yul\":736:743   */\n      dup6\n        /* \"#utility.yul\":732:755   */\n      sub\n        /* \"#utility.yul\":728:760   */\n      slt\n        /* \"#utility.yul\":725:844   */\n      iszero\n      tag_49\n      jumpi\n        /* \"#utility.yul\":763:842   */\n      tag_50\n      tag_46\n      jump\t// in\n    tag_50:\n        /* \"#utility.yul\":725:844   */\n    tag_49:\n        /* \"#utility.yul\":883:884   */\n      0x00\n        /* \"#utility.yul\":908:961   */\n      tag_51\n        /* \"#utility.yul\":953:960   */\n      dup6\n        /* \"#utility.yul\":944:950   */\n      dup3\n        /* \"#utility.yul\":933:942   */\n      dup7\n        /* \"#utility.yul\":929:951   */\n      add\n        /* \"#utility.yul\":908:961   */\n      tag_39\n      jump\t// in\n    tag_51:\n        /* \"#utility.yul\":898:961   */\n      swap3\n      pop\n        /* \"#utility.yul\":854:971   */\n      pop\n        /* \"#utility.yul\":1010:1012   */\n      0x20\n        /* \"#utility.yul\":1036:1089   */\n      tag_52\n        /* \"#utility.yul\":1081:1088   */\n      dup6\n        /* \"#utility.yul\":1072:1078   */\n      dup3\n        /* \"#utility.yul\":1061:1070   */\n      dup7\n        /* \"#utility.yul\":1057:1079   */\n      add\n        /* \"#utility.yul\":1036:1089   */\n      tag_35\n      jump\t// in\n    tag_52:\n        /* \"#utility.yul\":1026:1089   */\n      swap2\n      pop\n        /* \"#utility.yul\":981:1099   */\n      pop\n        /* \"#utility.yul\":632:1106   */\n      swap3\n      pop\n      swap3\n      swap1\n      pop\n      jump\t// out\n        /* \"#utility.yul\":1112:1230   */\n    tag_53:\n        /* \"#utility.yul\":1199:1223   */\n      tag_55\n        /* \"#utility.yul\":1217:1222   */\n      dup2\n        /* \"#utility.yul\":1199:1223   */\n      tag_56\n      jump\t// in\n    tag_55:\n        /* \"#utility.yul\":1194:1197   */\n      dup3\n        /* \"#utility.yul\":1187:1224   */\n      mstore\n        /* \"#utility.yul\":1112:1230   */\n      pop\n      pop\n      jump\t// out\n        /* \"#utility.yul\":1236:1602   */\n    tag_57:\n        /* \"#utility.yul\":1378:1381   */\n      0x00\n        /* \"#utility.yul\":1399:1466   */\n      tag_59\n        /* \"#utility.yul\":1463:1465   */\n      0x12\n        /* \"#utility.yul\":1458:1461   */\n      dup4\n        /* \"#utility.yul\":1399:1466   */\n      tag_60\n      jump\t// in\n    tag_59:\n        /* \"#utility.yul\":1392:1466   */\n      swap2\n      pop\n        /* \"#utility.yul\":1475:1568   */\n      tag_61\n        /* \"#utility.yul\":1564:1567   */\n      dup3\n        /* \"#utility.yul\":1475:1568   */\n      tag_62\n      jump\t// in\n    tag_61:\n        /* \"#utility.yul\":1593:1595   */\n      0x20\n        /* \"#utility.yul\":1588:1591   */\n      dup3\n        /* \"#utility.yul\":1584:1596   */\n      add\n        /* \"#utility.yul\":1577:1596   */\n      swap1\n      pop\n        /* \"#utility.yul\":1236:1602   */\n      swap2\n      swap1\n      pop\n      jump\t// out\n        /* \"#utility.yul\":1608:1830   */\n    tag_22:\n        /* \"#utility.yul\":1701:1705   */\n      0x00\n        /* \"#utility.yul\":1739:1741   */\n      0x20\n        /* \"#utility.yul\":1728:1737   */\n      dup3\n        /* \"#utility.yul\":1724:1742   */\n      add\n        /* \"#utility.yul\":1716:1742   */\n      swap1\n      pop\n        /* \"#utility.yul\":1752:1823   */\n      tag_64\n        /* \"#utility.yul\":1820:1821   */\n      0x00\n        /* \"#utility.yul\":1809:1818   */\n      dup4\n        /* \"#utility.yul\":1805:1822   */\n      add\n        /* \"#utility.yul\":1796:1802   */\n      dup5\n        /* \"#utility.yul\":1752:1823   */\n      tag_53\n      jump\t// in\n    tag_64:\n        /* \"#utility.yul\":1608:1830   */\n      swap3\n      swap2\n      pop\n      pop\n      jump\t// out\n        /* \"#utility.yul\":1836:2255   */\n    tag_33:\n        /* \"#utility.yul\":2002:2006   */\n      0x00\n        /* \"#utility.yul\":2040:2042   */\n      0x20\n        /* \"#utility.yul\":2029:2038   */\n      dup3\n        /* \"#utility.yul\":2025:2043   */\n      add\n        /* \"#utility.yul\":2017:2043   */\n      swap1\n      pop\n        /* \"#utility.yul\":2089:2098   */\n      dup2\n        /* \"#utility.yul\":2083:2087   */\n      dup2\n        /* \"#utility.yul\":2079:2099   */\n      sub\n        /* \"#utility.yul\":2075:2076   */\n      0x00\n        /* \"#utility.yul\":2064:2073   */\n      dup4\n        /* \"#utility.yul\":2060:2077   */\n      add\n        /* \"#utility.yul\":2053:2100   */\n      mstore\n        /* \"#utility.yul\":2117:2248   */\n      tag_66\n        /* \"#utility.yul\":2243:2247   */\n      dup2\n        /* \"#utility.yul\":2117:2248   */\n      tag_57\n      jump\t// in\n    tag_66:\n        /* \"#utility.yul\":2109:2248   */\n      swap1\n      pop\n        /* \"#utility.yul\":1836:2255   */\n      swap2\n      swap1\n      pop\n      jump\t// out\n        /* \"#utility.yul\":2342:2511   */\n    tag_60:\n        /* \"#utility.yul\":2426:2437   */\n      0x00\n        /* \"#utility.yul\":2460:2466   */\n      dup3\n        /* \"#utility.yul\":2455:2458   */\n      dup3\n        /* \"#utility.yul\":2448:2467   */\n      mstore\n        /* \"#utility.yul\":2500:2504   */\n      0x20\n        /* \"#utility.yul\":2495:2498   */\n      dup3\n        /* \"#utility.yul\":2491:2505   */\n      add\n        /* \"#utility.yul\":2476:2505   */\n      swap1\n      pop\n        /* \"#utility.yul\":2342:2511   */\n      swap3\n      swap2\n      pop\n      pop\n      jump\t// out\n        /* \"#utility.yul\":2517:2613   */\n    tag_56:\n        /* \"#utility.yul\":2554:2561   */\n      0x00\n        /* \"#utility.yul\":2583:2607   */\n      tag_71\n        /* \"#utility.yul\":2601:2606   */\n      dup3\n        /* \"#utility.yul\":2583:2607   */\n      tag_72\n      jump\t// in\n    tag_71:\n        /* \"#utility.yul\":2572:2607   */\n      swap1\n      pop\n        /* \"#utility.yul\":2517:2613   */\n      swap2\n      swap1\n      pop\n      jump\t// out\n        /* \"#utility.yul\":2619:2745   */\n    tag_72:\n        /* \"#utility.yul\":2656:2663   */\n      0x00\n        /* \"#utility.yul\":2696:2738   */\n      0xffffffffffffffffffffffffffffffffffffffff\n        /* \"#utility.yul\":2689:2694   */\n      dup3\n        /* \"#utility.yul\":2685:2739   */\n      and\n        /* \"#utility.yul\":2674:2739   */\n      swap1\n      pop\n        /* \"#utility.yul\":2619:2745   */\n      swap2\n      swap1\n      pop\n      jump\t// out\n        /* \"#utility.yul\":2751:2828   */\n    tag_74:\n        /* \"#utility.yul\":2788:2795   */\n      0x00\n        /* \"#utility.yul\":2817:2822   */\n      dup2\n        /* \"#utility.yul\":2806:2822   */\n      swap1\n      pop\n        /* \"#utility.yul\":2751:2828   */\n      swap2\n      swap1\n      pop\n      jump\t// out\n        /* \"#utility.yul\":2834:3014   */\n    tag_29:\n        /* \"#utility.yul\":2882:2959   */\n      0x4e487b7100000000000000000000000000000000000000000000000000000000\n        /* \"#utility.yul\":2879:2880   */\n      0x00\n        /* \"#utility.yul\":2872:2960   */\n      mstore\n        /* \"#utility.yul\":2979:2983   */\n      0x01\n        /* \"#utility.yul\":2976:2977   */\n      0x04\n        /* \"#utility.yul\":2969:2984   */\n      mstore\n        /* \"#utility.yul\":3003:3007   */\n      0x24\n        /* \"#utility.yul\":3000:3001   */\n      0x00\n        /* \"#utility.yul\":2993:3008   */\n      revert\n        /* \"#utility.yul\":3143:3260   */\n    tag_46:\n        /* \"#utility.yul\":3252:3253   */\n      0x00\n        /* \"#utility.yul\":3249:3250   */\n      dup1\n        /* \"#utility.yul\":3242:3254   */\n      revert\n        /* \"#utility.yul\":3266:3434   */\n    tag_62:\n        /* \"#utility.yul\":3406:3426   */\n      0x5472616e73666572204e6f74204f776e65720000000000000000000000000000\n        /* \"#utility.yul\":3402:3403   */\n      0x00\n        /* \"#utility.yul\":3394:3400   */\n      dup3\n        /* \"#utility.yul\":3390:3404   */\n      add\n        /* \"#utility.yul\":3383:3427   */\n      mstore\n        /* \"#utility.yul\":3266:3434   */\n      pop\n      jump\t// out\n        /* \"#utility.yul\":3440:3562   */\n    tag_38:\n        /* \"#utility.yul\":3513:3537   */\n      tag_82\n        /* \"#utility.yul\":3531:3536   */\n      dup2\n        /* \"#utility.yul\":3513:3537   */\n      tag_56\n      jump\t// in\n    tag_82:\n        /* \"#utility.yul\":3506:3511   */\n      dup2\n        /* \"#utility.yul\":3503:3538   */\n      eq\n        /* \"#utility.yul\":3493:3556   */\n      tag_83\n      jumpi\n        /* \"#utility.yul\":3552:3553   */\n      0x00\n        /* \"#utility.yul\":3549:3550   */\n      dup1\n        /* \"#utility.yul\":3542:3554   */\n      revert\n        /* \"#utility.yul\":3493:3556   */\n    tag_83:\n        /* \"#utility.yul\":3440:3562   */\n      pop\n      jump\t// out\n        /* \"#utility.yul\":3568:3690   */\n    tag_42:\n        /* \"#utility.yul\":3641:3665   */\n      tag_85\n        /* \"#utility.yul\":3659:3664   */\n      dup2\n        /* \"#utility.yul\":3641:3665   */\n      tag_74\n      jump\t// in\n    tag_85:\n        /* \"#utility.yul\":3634:3639   */\n      dup2\n        /* \"#utility.yul\":3631:3666   */\n      eq\n        /* \"#utility.yul\":3621:3684   */\n      tag_86\n      jumpi\n        /* \"#utility.yul\":3680:3681   */\n      0x00\n        /* \"#utility.yul\":3677:3678   */\n      dup1\n        /* \"#utility.yul\":3670:3682   */\n      revert\n        /* \"#utility.yul\":3621:3684   */\n    tag_86:\n        /* \"#utility.yul\":3568:3690   */\n      pop\n      jump\t// out\n\n    auxdata: 0xa26469706673582212206edeeaa5618abda872c6dd0d55454389ccad4851b9e94f7269bd0f3b73d6099964736f6c63430008070033\n}\n",
				"bytecode": {
					"linkReferences": {},
					"object": "608060405234801561001057600080fd5b5061059e806100206000396000f3fe608060405234801561001057600080fd5b506004361061004c5760003560e01c80630f4be86814610051578063488d9f601461006d57806383f5e67e14610089578063992924a6146100a5575b600080fd5b61006b600480360381019061006691906103e3565b6100d5565b005b610087600480360381019061008291906103e3565b6101a1565b005b6100a3600480360381019061009e91906103e3565b610264565b005b6100bf60048036038101906100ba91906103b6565b610359565b6040516100cc9190610455565b60405180910390f35b6000600190503373ffffffffffffffffffffffffffffffffffffffff168173ffffffffffffffffffffffffffffffffffffffff161461014b57336040517ffe3cc4db0000000000000000000000000000000000000000000000000000000081526004016101429190610455565b60405180910390fd5b8160008085815260200190815260200160002060006101000a81548173ffffffffffffffffffffffffffffffffffffffff021916908373ffffffffffffffffffffffffffffffffffffffff160217905550505050565b3373ffffffffffffffffffffffffffffffffffffffff1660008084815260200190815260200160002060009054906101000a900473ffffffffffffffffffffffffffffffffffffffff1673ffffffffffffffffffffffffffffffffffffffff161461020f5761020e6104dd565b5b8060008084815260200190815260200160002060006101000a81548173ffffffffffffffffffffffffffffffffffffffff021916908373ffffffffffffffffffffffffffffffffffffffff1602179055505050565b3373ffffffffffffffffffffffffffffffffffffffff1660008084815260200190815260200160002060009054906101000a900473ffffffffffffffffffffffffffffffffffffffff1673ffffffffffffffffffffffffffffffffffffffff1614610304576040517f08c379a00000000000000000000000000000000000000000000000000000000081526004016102fb90610470565b60405180910390fd5b8060008084815260200190815260200160002060006101000a81548173ffffffffffffffffffffffffffffffffffffffff021916908373ffffffffffffffffffffffffffffffffffffffff1602179055505050565b60006020528060005260406000206000915054906101000a900473ffffffffffffffffffffffffffffffffffffffff1681565b60008135905061039b8161053a565b92915050565b6000813590506103b081610551565b92915050565b6000602082840312156103cc576103cb61050c565b5b60006103da848285016103a1565b91505092915050565b600080604083850312156103fa576103f961050c565b5b6000610408858286016103a1565b92505060206104198582860161038c565b9150509250929050565b61042c816104a1565b82525050565b600061043f601283610490565b915061044a82610511565b602082019050919050565b600060208201905061046a6000830184610423565b92915050565b6000602082019050818103600083015261048981610432565b9050919050565b600082825260208201905092915050565b60006104ac826104b3565b9050919050565b600073ffffffffffffffffffffffffffffffffffffffff82169050919050565b6000819050919050565b7f4e487b7100000000000000000000000000000000000000000000000000000000600052600160045260246000fd5b600080fd5b7f5472616e73666572204e6f74204f776e65720000000000000000000000000000600082015250565b610543816104a1565b811461054e57600080fd5b50565b61055a816104d3565b811461056557600080fd5b5056fea26469706673582212206edeeaa5618abda872c6dd0d55454389ccad4851b9e94f7269bd0f3b73d6099964736f6c63430008070033",
					"opcodes": "PUSH1 0x80 PUSH1 0x40 MSTORE CALLVALUE DUP1 ISZERO PUSH2 0x10 JUMPI PUSH1 0x0 DUP1 REVERT JUMPDEST POP PUSH2 0x59E DUP1 PUSH2 0x20 PUSH1 0x0 CODECOPY PUSH1 0x0 RETURN INVALID PUSH1 0x80 PUSH1 0x40 MSTORE CALLVALUE DUP1 ISZERO PUSH2 0x10 JUMPI PUSH1 0x0 DUP1 REVERT JUMPDEST POP PUSH1 0x4 CALLDATASIZE LT PUSH2 0x4C JUMPI PUSH1 0x0 CALLDATALOAD PUSH1 0xE0 SHR DUP1 PUSH4 0xF4BE868 EQ PUSH2 0x51 JUMPI DUP1 PUSH4 0x488D9F60 EQ PUSH2 0x6D JUMPI DUP1 PUSH4 0x83F5E67E EQ PUSH2 0x89 JUMPI DUP1 PUSH4 0x992924A6 EQ PUSH2 0xA5 JUMPI JUMPDEST PUSH1 0x0 DUP1 REVERT JUMPDEST PUSH2 0x6B PUSH1 0x4 DUP1 CALLDATASIZE SUB DUP2 ADD SWAP1 PUSH2 0x66 SWAP2 SWAP1 PUSH2 0x3E3 JUMP JUMPDEST PUSH2 0xD5 JUMP JUMPDEST STOP JUMPDEST PUSH2 0x87 PUSH1 0x4 DUP1 CALLDATASIZE SUB DUP2 ADD SWAP1 PUSH2 0x82 SWAP2 SWAP1 PUSH2 0x3E3 JUMP JUMPDEST PUSH2 0x1A1 JUMP JUMPDEST STOP JUMPDEST PUSH2 0xA3 PUSH1 0x4 DUP1 CALLDATASIZE SUB DUP2 ADD SWAP1 PUSH2 0x9E SWAP2 SWAP1 PUSH2 0x3E3 JUMP JUMPDEST PUSH2 0x264 JUMP JUMPDEST STOP JUMPDEST PUSH2 0xBF PUSH1 0x4 DUP1 CALLDATASIZE SUB DUP2 ADD SWAP1 PUSH2 0xBA SWAP2 SWAP1 PUSH2 0x3B6 JUMP JUMPDEST PUSH2 0x359 JUMP JUMPDEST PUSH1 0x40 MLOAD PUSH2 0xCC SWAP2 SWAP1 PUSH2 0x455 JUMP JUMPDEST PUSH1 0x40 MLOAD DUP1 SWAP2 SUB SWAP1 RETURN JUMPDEST PUSH1 0x0 PUSH1 0x1 SWAP1 POP CALLER PUSH20 0xFFFFFFFFFFFFFFFFFFFFFFFFFFFFFFFFFFFFFFFF AND DUP2 PUSH20 0xFFFFFFFFFFFFFFFFFFFFFFFFFFFFFFFFFFFFFFFF AND EQ PUSH2 0x14B JUMPI CALLER PUSH1 0x40 MLOAD PUSH32 0xFE3CC4DB00000000000000000000000000000000000000000000000000000000 DUP2 MSTORE PUSH1 0x4 ADD PUSH2 0x142 SWAP2 SWAP1 PUSH2 0x455 JUMP JUMPDEST PUSH1 0x40 MLOAD DUP1 SWAP2 SUB SWAP1 REVERT JUMPDEST DUP2 PUSH1 0x0 DUP1 DUP6 DUP2 MSTORE PUSH1 0x20 ADD SWAP1 DUP2 MSTORE PUSH1 0x20 ADD PUSH1 0x0 KECCAK256 PUSH1 0x0 PUSH2 0x100 EXP DUP2 SLOAD DUP2 PUSH20 0xFFFFFFFFFFFFFFFFFFFFFFFFFFFFFFFFFFFFFFFF MUL NOT AND SWAP1 DUP4 PUSH20 0xFFFFFFFFFFFFFFFFFFFFFFFFFFFFFFFFFFFFFFFF AND MUL OR SWAP1 SSTORE POP POP POP POP JUMP JUMPDEST CALLER PUSH20 0xFFFFFFFFFFFFFFFFFFFFFFFFFFFFFFFFFFFFFFFF AND PUSH1 0x0 DUP1 DUP5 DUP2 MSTORE PUSH1 0x20 ADD SWAP1 DUP2 MSTORE PUSH1 0x20 ADD PUSH1 0x0 KECCAK256 PUSH1 0x0 SWAP1 SLOAD SWAP1 PUSH2 0x100 EXP SWAP1 DIV PUSH20 0xFFFFFFFFFFFFFFFFFFFFFFFFFFFFFFFFFFFFFFFF AND PUSH20 0xFFFFFFFFFFFFFFFFFFFFFFFFFFFFFFFFFFFFFFFF AND EQ PUSH2 0x20F JUMPI PUSH2 0x20E PUSH2 0x4DD JUMP JUMPDEST JUMPDEST DUP1 PUSH1 0x0 DUP1 DUP5 DUP2 MSTORE PUSH1 0x20 ADD SWAP1 DUP2 MSTORE PUSH1 0x20 ADD PUSH1 0x0 KECCAK256 PUSH1 0x0 PUSH2 0x100 EXP DUP2 SLOAD DUP2 PUSH20 0xFFFFFFFFFFFFFFFFFFFFFFFFFFFFFFFFFFFFFFFF MUL NOT AND SWAP1 DUP4 PUSH20 0xFFFFFFFFFFFFFFFFFFFFFFFFFFFFFFFFFFFFFFFF AND MUL OR SWAP1 SSTORE POP POP POP JUMP JUMPDEST CALLER PUSH20 0xFFFFFFFFFFFFFFFFFFFFFFFFFFFFFFFFFFFFFFFF AND PUSH1 0x0 DUP1 DUP5 DUP2 MSTORE PUSH1 0x20 ADD SWAP1 DUP2 MSTORE PUSH1 0x20 ADD PUSH1 0x0 KECCAK256 PUSH1 0x0 SWAP1 SLOAD SWAP1 PUSH2 0x100 EXP SWAP1 DIV PUSH20 0xFFFFFFFFFFFFFFFFFFFFFFFFFFFFFFFFFFFFFFFF AND PUSH20 0xFFFFFFFFFFFFFFFFFFFFFFFFFFFFFFFFFFFFFFFF AND EQ PUSH2 0x304 JUMPI PUSH1 0x40 MLOAD PUSH32 0x8C379A000000000000000000000000000000000000000000000000000000000 DUP2 MSTORE PUSH1 0x4 ADD PUSH2 0x2FB SWAP1 PUSH2 0x470 JUMP JUMPDEST PUSH1 0x40 MLOAD DUP1 SWAP2 SUB SWAP1 REVERT JUMPDEST DUP1 PUSH1 0x0 DUP1 DUP5 DUP2 MSTORE PUSH1 0x20 ADD SWAP1 DUP2 MSTORE PUSH1 0x20 ADD PUSH1 0x0 KECCAK256 PUSH1 0x0 PUSH2 0x100 EXP DUP2 SLOAD DUP2 PUSH20 0xFFFFFFFFFFFFFFFFFFFFFFFFFFFFFFFFFFFFFFFF MUL NOT AND SWAP1 DUP4 PUSH20 0xFFFFFFFFFFFFFFFFFFFFFFFFFFFFFFFFFFFFFFFF AND MUL OR SWAP1 SSTORE POP POP POP JUMP JUMPDEST PUSH1 0x0 PUSH1 0x20 MSTORE DUP1 PUSH1 0x0 MSTORE PUSH1 0x40 PUSH1 0x0 KECCAK256 PUSH1 0x0 SWAP2 POP SLOAD SWAP1 PUSH2 0x100 EXP SWAP1 DIV PUSH20 0xFFFFFFFFFFFFFFFFFFFFFFFFFFFFFFFFFFFFFFFF AND DUP2 JUMP JUMPDEST PUSH1 0x0 DUP2 CALLDATALOAD SWAP1 POP PUSH2 0x39B DUP2 PUSH2 0x53A JUMP JUMPDEST SWAP3 SWAP2 POP POP JUMP JUMPDEST PUSH1 0x0 DUP2 CALLDATALOAD SWAP1 POP PUSH2 0x3B0 DUP2 PUSH2 0x551 JUMP JUMPDEST SWAP3 SWAP2 POP POP JUMP JUMPDEST PUSH1 0x0 PUSH1 0x20 DUP3 DUP5 SUB SLT ISZERO PUSH2 0x3CC JUMPI PUSH2 0x3CB PUSH2 0x50C JUMP JUMPDEST JUMPDEST PUSH1 0x0 PUSH2 0x3DA DUP5 DUP3 DUP6 ADD PUSH2 0x3A1 JUMP JUMPDEST SWAP2 POP POP SWAP3 SWAP2 POP POP JUMP JUMPDEST PUSH1 0x0 DUP1 PUSH1 0x40 DUP4 DUP6 SUB SLT ISZERO PUSH2 0x3FA JUMPI PUSH2 0x3F9 PUSH2 0x50C JUMP JUMPDEST JUMPDEST PUSH1 0x0 PUSH2 0x408 DUP6 DUP3 DUP7 ADD PUSH2 0x3A1 JUMP JUMPDEST SWAP3 POP POP PUSH1 0x20 PUSH2 0x419 DUP6 DUP3 DUP7 ADD PUSH2 0x38C JUMP JUMPDEST SWAP2 POP POP SWAP3 POP SWAP3 SWAP1 POP JUMP JUMPDEST PUSH2 0x42C DUP2 PUSH2 0x4A1 JUMP JUMPDEST DUP3 MSTORE POP POP JUMP JUMPDEST PUSH1 0x0 PUSH2 0x43F PUSH1 0x12 DUP4 PUSH2 0x490 JUMP JUMPDEST SWAP2 POP PUSH2 0x44A DUP3 PUSH2 0x511 JUMP JUMPDEST PUSH1 0x20 DUP3 ADD SWAP1 POP SWAP2 SWAP1 POP JUMP JUMPDEST PUSH1 0x0 PUSH1 0x20 DUP3 ADD SWAP1 POP PUSH2 0x46A PUSH1 0x0 DUP4 ADD DUP5 PUSH2 0x423 JUMP JUMPDEST SWAP3 SWAP2 POP POP JUMP JUMPDEST PUSH1 0x0 PUSH1 0x20 DUP3 ADD SWAP1 POP DUP2 DUP2 SUB PUSH1 0x0 DUP4 ADD MSTORE PUSH2 0x489 DUP2 PUSH2 0x432 JUMP JUMPDEST SWAP1 POP SWAP2 SWAP1 POP JUMP JUMPDEST PUSH1 0x0 DUP3 DUP3 MSTORE PUSH1 0x20 DUP3 ADD SWAP1 POP SWAP3 SWAP2 POP POP JUMP JUMPDEST PUSH1 0x0 PUSH2 0x4AC DUP3 PUSH2 0x4B3 JUMP JUMPDEST SWAP1 POP SWAP2 SWAP1 POP JUMP JUMPDEST PUSH1 0x0 PUSH20 0xFFFFFFFFFFFFFFFFFFFFFFFFFFFFFFFFFFFFFFFF DUP3 AND SWAP1 POP SWAP2 SWAP1 POP JUMP JUMPDEST PUSH1 0x0 DUP2 SWAP1 POP SWAP2 SWAP1 POP JUMP JUMPDEST PUSH32 0x4E487B7100000000000000000000000000000000000000000000000000000000 PUSH1 0x0 MSTORE PUSH1 0x1 PUSH1 0x4 MSTORE PUSH1 0x24 PUSH1 0x0 REVERT JUMPDEST PUSH1 0x0 DUP1 REVERT JUMPDEST PUSH32 0x5472616E73666572204E6F74204F776E65720000000000000000000000000000 PUSH1 0x0 DUP3 ADD MSTORE POP JUMP JUMPDEST PUSH2 0x543 DUP2 PUSH2 0x4A1 JUMP JUMPDEST DUP2 EQ PUSH2 0x54E JUMPI PUSH1 0x0 DUP1 REVERT JUMPDEST POP JUMP JUMPDEST PUSH2 0x55A DUP2 PUSH2 0x4D3 JUMP JUMPDEST DUP2 EQ PUSH2 0x565 JUMPI PUSH1 0x0 DUP1 REVERT JUMPDEST POP JUMP INVALID LOG2 PUSH5 0x6970667358 0x22 SLT KECCAK256 PUSH15 0xDEEAA5618ABDA872C6DD0D55454389 0xCC 0xAD BASEFEE MLOAD 0xB9 0xE9 0x4F PUSH19 0x69BD0F3B73D6099964736F6C63430008070033 "
				},
				"gasEstimates": {
					"creation": {
						"codeDepositCost": "287600",
						"executionCost": "324",
						"totalCost": "287924"
					},
					"external": {
						"_owners(uint256)": "2883",
						"transferOwner1(uint256,address)": "infinite",
						"transferOwner2(uint256,address)": "27243",
						"transferOwner3(uint256,address)": "27221"
					}
				},
				"methodIdentifiers": {
					"_owners(uint256)": "992924a6",
					"transferOwner1(uint256,address)": "0f4be868",
					"transferOwner2(uint256,address)": "83f5e67e",
					"transferOwner3(uint256,address)": "488d9f60"
				}
			},
			"storageLayout": {
				"storage": [
					{
						"astId": 9,
						"contract": "contract/14_Exceptioin.sol:Exception",
						"label": "_owners",
						"offset": 0,
						"slot": "0",
						"type": "t_mapping(t_uint256,t_address)"
					}
				],
				"types": {
					"t_address": {
						"encoding": "inplace",
						"label": "address",
						"numberOfBytes": "20"
					},
					"t_mapping(t_uint256,t_address)": {
						"encoding": "mapping",
						"key": "t_uint256",
						"label": "mapping(uint256 => address)",
						"numberOfBytes": "32",
						"value": "t_address"
					},
					"t_uint256": {
						"encoding": "inplace",
						"label": "uint256",
						"numberOfBytes": "32"
					}
				}
			},
			"userdoc": {
				"kind": "user",
				"methods": {},
				"version": 1
			}
		}
	}
}